:020000040800F2
:10000000A81F002001010008090100080B010008D9
:100010000D0100080F010008110100080000000098
:1000200000000000000000000000000013010008B4
:100030001501000800000000170100081901000860
:100040001B0100081B0100081B0100081B01000820
:100050001B0100081B0100081B0100081B01000810
:100060001B0100081B0100081B0100081B01000800
:100070001B0100081B0100081B0100081B010008F0
:100080001B0100081B0100081B0100081B010008E0
:100090001B0100081B0100081B0100088D0A000855
:1000A0001B0100081B0100081B0100081B010008C0
:1000B0001D200008DD200008A92100081B01000800
:1000C0001B0100081B0100081B0100081B010008A0
:1000D0001B01000861250008C12700081B0100085A
:1000E0001B0100081B0100081B010008DFF80CD0F1
:1000F00000F076F800480047A5380008A81F002047
:100100000648804706480047FEE7FEE7FEE7FEE7B1
:10011000FEE7FEE7FEE7FEE7FEE7FEE7CD1F00088D
:10012000ED00000840EA01039B0703D009E008C97D
:10013000121F08C0042AFAD203E011F8013B00F8AC
:10014000013B521EF9D27047D2B201E000F8012BF8
:10015000491EFBD270470022F6E710B513460A4647
:1001600004461946FFF7F0FF204610BD421C10F868
:10017000011B0029FBD1801A704730B504460020CE
:10018000034600E05B1C934203D2E05CCD5C401B65
:10019000F8D030BD30B505460020034600E05B1CBA
:1001A000934205D2EC5CC85C201A01D1002CF6D138
:1001B00030BD30B50B46014600202022012409E065
:1001C00021FA02F59D4205D303FA02F5491B04FA10
:1001D00002F52844151EA2F10102F1DC30BD000039
:1001E000064C074D06E0E06840F0010394E8070084
:1001F00098471034AC42F6D3FFF77CFF1443000855
:100200003443000870B58C1810F8015B15F0070333
:1002100001D110F8013B2A1106D110F8012B03E09F
:1002200010F8016B01F8016B5B1EF9D12B0705D4A7
:100230000023521E0DD401F8013BFAE710F8013BF0
:10024000CB1A921C03E013F8015B01F8015B521E0C
:10025000F9D5A142D8D3002070BD00002DE9F043AC
:1002600085B00F46DDE90D5804461E4640F2654153
:100270001748DDF83090FFF76EFF65208DE84102EA
:10028000CDE903583B4613A1114805F1250202F0C0
:10029000FDFF0F48217800F10902417061788170FB
:1002A000A178C170E1780171217941716179817121
:1002B000A179C171E179017211A1002001F000FB67
:1002C00005B005F12F01BDE8F043014802F070BD13
:1002D00043170020613030303030303030415053DF
:1002E0003131253034643031257325303364253085
:1002F00033642573253033642573454E440A00006A
:100300004150505F526573706F6E73655F426173E9
:1003100065496E666F2025730A00000070B50D46B2
:10032000044640F265410F48FFF715FF2A460EA12B
:100330000C4802F0ABFF0B48217841706178817066
:10034000A178C170E1780171217941716179817180
:10035000A179C171E1790172BDE87040172102F005
:1003600027BD00004317002061303030303030307E
:1003700030415053313130303133303625303264F2
:100380000A0000002DE9F0410D4604461E461746BE
:1003900040F265411C48FFF7DEFE28461A4D012851
:1003A0001BD033463A4619A1284602F06FFF207849
:1003B00068706078A870A078E870E078287120797B
:1003C00068716079A871A079E871E07928721F21BD
:1003D000BDE8F0410C4802F0EBBC15A10A4802F060
:1003E00055FF207868706078A870A078E870E07891
:1003F0002871207968716079A871A079E871E07935
:1004000028721721E4E700004317002061303030E4
:10041000303030303041505331313030323130347F
:100420003030257325303364454E440A0000000007
:100430006130303030303030304150533131303035
:100440003133303430310A0070B50D46044640F285
:1004500065410F48FFF77FFE2A460EA10C4802F0C7
:1004600015FF0B482178417061788170A178C170C7
:10047000E17801712179417161798171A179C1714D
:10048000E1790172BDE87040172102F091BC0000D3
:10049000431700206130303030303030304150531D
:1004A0003131303031333033253032640A000000CE
:1004B00070B50D46044640F265410F48FFF74BFE0C
:1004C0002A460EA10C4802F0E1FE0B48217841704B
:1004D00061788170A178C170E178017121794171F1
:1004E00061798171A179C171E1790172BDE87040D2
:1004F000172102F05DBC000043170020613030304E
:10050000303030303041505331313030313330358C
:10051000253032640A0000002DE9FF418846054677
:100520001F461446002640F265416548FFF713FE5A
:100530004046DFF88C8101281CD062A1404602F0C1
:10054000A5FE297888F80110697888F80210A97842
:1005500088F80310E97888F80410297988F80510DC
:10056000697988F80610A97988F80710E97988F878
:10057000081053E059A1524802F088FE297888F803
:100580000110697888F80210A97888F80310E978D2
:1005900088F80410297988F80510697988F8061018
:1005A000A97988F80710E97988F80810172180E000
:1005B00006EB460000EBC60101EB0805206845F894
:1005C000160FA088A880A07863792279E1788DE859
:1005D0000F006378227847A1002001F071F9E088CC
:1005E0004EA1000AA871A079E871E288002001F00C
:1005F00067F920894EA1000A2872207A6872228940
:10060000002001F05DF9A07AA872A27A4DA1002025
:1006100001F056F90E34761C642E01DABE42C7DBB7
:100620000A20002F30DD07EB470101EBC7044FF430
:100630007A71103494FBF1F2303288F80E20642283
:1006400094FBF2F292FBF0F300FB1322303288F8B5
:100650000F2094FBF0F292FBF0F300FB13223032F8
:1006600088F8102094FBF0F200FB12424146303231
:100670004A7408EB040145228A714E22CA71442251
:100680000A72487200250AE00D490D24002588757C
:1006900018F805202FA1002001F012F96D1C04F1BB
:1006A00009008542F4DB2DA1002001F009F904F1D5
:1006B0000A0104B00248BDE8F04102F079BB000035
:1006C00043170020613030303030303030415053EB
:1006D0003131303031333032303000006130303041
:1006E00030303030304150533131303031333032AE
:1006F00030310A0053797374656D496E666F202539
:1007000030327825303278253032782530327825ED
:100710003032782530327820202000006865617200
:10072000745F726174652025642020202000000021
:100730006F66665F74696D657320256420202020D4
:10074000000000006D6F735F737461747573202512
:10075000640A000025303278200000000A00000002
:1007600070B502F09DFF032117A002F021FB4FF4AA
:10077000AF76304602F0BAFF144C4FF0FF35A08937
:10078000B8B1012212A11348FFF7F7FC88B902F0B3
:1007900087FF01210EA002F00BFB304602F0A6FFFE
:1007A000A089032805D303220BA10A48FFF7E5FC23
:1007B00008B1284670BD09A1002001F081F802F0BF
:1007C0006FFF002070BD00002B2B2B00700000205D
:1007D00061000000330F00202B6F6B004154203A62
:1007E000612B6F6B0A00000010B502F059FF082161
:1007F0000EA002F0DDFA4FF4967002F077FF0E487B
:100800004FF0FF3480890A2805D303220BA10C483E
:10081000FFF7B3FC08B1204610BD0AA1002001F08B
:100820004FF802F03DFF002010BD000041542B4561
:100830004E544D0A00000000700000202B6F6B002A
:100840003C0F002041542B454E544D203A2B6F6BEA
:100850000A00000010B59AB0044664216846FFF70C
:100860007AFC02F01DFF224617A1684602F00EFD39
:100870006A461CA1002001F023F86846FFF776FCC9
:10088000411C684602F094FA4FF47A7002F02EFF91
:1008900015484FF0FF3480890A280AD36846FFF7CD
:1008A00065FC12490322084411A1401CFFF765FCB6
:1008B00010B120461AB010BD0EA1002001F000F8C2
:1008C00002F0EEFE0020F5E741542B57414B45590D
:1008D0003D5750413250534B2C4145532C25730A00
:1008E000000000002573000070000020330F00207E
:1008F0002B6F6B0041542B57414B4559203A2B6FBE
:100900006B0A000010B59AB0044664216846FFF7F0
:1009100022FC02F0C5FE224617A1684602F0B6FC92
:100920006A461DA1002000F0CBFF6846FFF71EFCC1
:10093000411C684602F03CFA4FF47A7002F0D6FE91
:1009400016484FF0FF3480890A280AD36846FFF71B
:100950000DFC13490322084412A1401CFFF70DFCB3
:1009600010B120461AB010BD0FA1002000F0A8FF62
:1009700002F096FE0020F5E741542B5741503D31DF
:100980003142474E2C4543555F52535F25732C41EE
:1009900075746F0A000000002573000070000020CD
:1009A000330F00202B6F6B0041542B574150203ADE
:1009B0002B6F6B0A0000000010B502F071FE0521DC
:1009C0000EA002F0F5F94FF4967002F08FFE0D487C
:1009D0004FF0FF348089062805D303220AA10B4873
:1009E000FFF7CBFB08B1204610BD09A1002000F0A5
:1009F00067FF02F055FE002010BD000041542B5A45
:100A00000A000000700000202B6F6B00390F0020DF
:100A100041542B5A203A2B6F6B0A000010B501F09D
:100A20001BF901F00FF9022001F09CF801F064F8C5
:100A3000002000F020F800F013F8222000F0B2F8B7
:100A400006210A2001F011F82221652001F054FA54
:100A5000102001F087F8BDE81040102001F082B8A6
:100A600010B56C2001F0A4F940F00301BDE810407E
:100A70006E2001F041BA10B507216A2001F03CFA5E
:100A80003F21BDE810406B2001F036BA70B514204C
:100A900002F02CFE0E4C00264FF400706168012914
:100AA00007D0054601460B4800F0FBF8012802D0AC
:100AB00009E0666008E0A068401CA060012802DD33
:100AC0000120A66020702846BDE8704000F02CB8D8
:100AD00060000020000C01403EB500F0B1FA012199
:100AE000084600F045FB0921012000F075F84FF49D
:100AF0000070002400908DF8044008208DF8050057
:100B000001258DF80650684600F014F817208DF87E
:100B100008008DF8094003208DF80A008DF80B506D
:100B200002A800F0D1FA3EBD0149086070470000FC
:100B30001404014030B51A498379026853B30B6835
:100B400093430B600A1D13680468A3431360027982
:100B50000A441368046823431360114A0832136877
:100B60000468A3431360131D1C680568AC431C6034
:100B70004479102C05D021440A68006802430A60B9
:100B800030BD116804682143116019680068014391
:100B9000196030BD0079084401689143016030BD9F
:100BA000000401400146682001F0A6B910B5692093
:100BB00001F0FEF820F00101BDE81040692001F0CD
:100BC0009BB910B5692001F0F3F840F00101BDE8D0
:100BD0001040692001F090B910B58A0721F0030494
:100BE0000649130F21440F228C689A4094438C606D
:100BF0008A68984002438A6010BD000000000140EE
:100C0000F0B5CA78002502F00F03D20601D58A7824
:100C100013430A784FF00F0E12F0FF0F4FF001024E
:100C20001CD004680F8802FA05F63740B74211D18C
:100C30004FEA850C0EFA0CF724EA070703FA0CF4C6
:100C40003C43CF78282F02D0482F02D002E04661E3
:100C500000E006616D1C082DE4D304600C88FF2CB5
:100C60001ED944685FF0000606F1080702FA07F58E
:100C70000F882F40AF420FD14FEA860C0EFA0CF7C7
:100C8000BC4303FA0CF73C43CF78282F00D14561D1
:100C9000CF78482F00D10561761C082EE4D344603C
:100CA000F0BD0246002092680A4200D00120704741
:100CB00041617047016170476A2001F079B8000016
:100CC0002DE9F047214D0646287810B101280BD0B8
:100CD0001DE0082000F046FFFFF768FF00F03AF83B
:100CE0000528FBD101202870DFF8649000244FF420
:100CF00000684FF4FA7741464846FFF7D2FF0128D3
:100D00000BD0012002F0F2FC641CBC42F3DB28781B
:100D1000022804D00020BDE8F0870220287001F0EE
:100D200005F80746002404E001F000F83055641C83
:100D3000E4B2BC42F8D3002000F074FC0020FFF7BE
:100D40009AFE032028703846E5E700008400002062
:100D5000000C014010B5612001F02AF800F00F00EE
:100D600010BD000000B513A387B00ECB8DE80E00B8
:100D7000002103910491059120B1012818D0022887
:100D800016D110E00A21684602F010F90A2103A8E2
:100D900000F0A2FC0A2203A96846FFF7EEF910B1A1
:100DA000012007B000BD02F057F808B10220F8E7B3
:100DB0000020F6E759554E454E472041505300005C
:100DC00010B50E4C40212046FFF772FF80212046CF
:100DD000FFF76EFF80212046FFF76AFF0F2000F02B
:100DE0000FF840212046FFF765FF0F2000F008F8BC
:100DF0002046BDE810404021FFF75ABF000C0140DB
:100E0000002100E0491C8142FCD3704770B5124DAF
:100E1000002440212846FFF74DFF0F20FFF7F0FF89
:100E200080212846FFF746FF01E0641CE4B28021E0
:100E30002846FFF736FFC00701D0FF2CF5D38021ED
:100E40002846FFF735FF40212846FFF731FFBDE870
:100E500070400F20FFF7D4BF000C014070B51A4E50
:100E6000002540213046FFF723FF0F20FFF7C8FF82
:100E700080213046FFF71EFF0F20FFF7C1FF8021C2
:100E80003046FFF717FF002440213046FFF712FFDE
:100E90000F20FFF7B5FF80213046FFF702FF00F07B
:100EA00001020F20FFF7ACFF42EA4500C5B2402126
:100EB0003046FFF7FDFE0F20FFF7A2FF641CE4B2EF
:100EC000082CE1D3284670BD000C014070B51B4EC4
:100ED000054680213046FFF7EBFE002440213046D6
:100EE000FFF7E6FE0F20FFF78BFFE8094FF08001C8
:100EF000304602D0FFF7DEFE01E0FFF7D9FE0F20FB
:100F0000FFF77EFF40213046FFF7D4FE0F20FFF7AA
:100F100077FF0F20FFF774FF6806050E641C082C8E
:100F2000DCD340213046FFF7C3FE80213046FFF777
:100F3000C1FEBDE870400F20FFF762BF000C01400A
:100F400010B50E4C80212046FFF7B2FE80212046CE
:100F5000FFF7B0FE40212046FFF7ACFE0F20FFF761
:100F60004FFF80212046FFF7A3FE0F20FFF748FF29
:100F70002046BDE810404021FFF79ABE000C01401A
:100F800010B50C4C80212046FFF792FE80212046B0
:100F9000FFF78EFE0F20FFF733FF40212046FFF7BB
:100FA00089FE0F20FFF72CFF2046BDE8104080216E
:100FB000FFF780BE000C0140F8B50121082000F0C9
:100FC000D7F84020ADF800001025114E8DF80350E1
:100FD00003248DF8024069463046FFF711FE802059
:100FE000ADF8000014208DF803008DF8024069462A
:100FF0003046FFF705FE2020ADF800008DF80350C5
:101000008DF8024069463046FFF7FAFDF8BD000052
:10101000000C014008B50121082000F0A9F84FF4A8
:101020008040ADF8000004208DF8030003208DF807
:10103000020069460148FFF7E3FD08BD000C0140CE
:1010400008B50121082000F093F84FF40070ADF8C6
:10105000000048208DF8030069460248FFF7D0FDE4
:1010600008BD0000000C014038B50121042000F04B
:101070007FF810208DF8030003208DF80200074D43
:101080004FF40064ADF8004069462846FFF7B8FD0C
:1010900021462846FFF70EFE38BD0000000801403B
:1010A0004FF400610148FFF705BE00000008014051
:1010B0004FF400610148FFF7FBBD0000000801404C
:1010C0004FF4A06000F032B870B50F23C4780178F7
:1010D0000122F4B1144C2468457804F4E064C4F5AA
:1010E000E064240AC4F10406E3408478B5401C405F
:1010F0002C4301F1E021230181F80034007800F055
:101100001F018A404009800000F1E020C0F8002162
:1011100070BD01F01F0082404809800000F1E0200E
:10112000C0F8802170BD00000CED00E002490843CA
:1011300002490860704700000000FA050CED00E06D
:10114000044A0029D16901D0014300E08143D16103
:101150007047000000100240044A0029116901D0C4
:10116000014300E08143116170470000001002401C
:10117000044A0029916901D0014300E08143916153
:101180007047000000100240044A0029D16801D0D5
:10119000014300E08143D16070470000001002402D
:1011A00030B51F494A6812F00C031E4A03D0042BC5
:1011B00001D0082B21D002604A680F231A4C03EAA1
:1011C0001212A35C0268DA4042604B68072505EA08
:1011D0001323E35C22FA03F383604B6805EAD3230D
:1011E000E35CDA40C2604968032303EA9131231FBC
:1011F000595CB2FBF1F1016130BD4A684B6802F401
:1012000070124FF0020413F4803F04EB924202D0BC
:101210004B689B0301D5054B00E0024B5A43CAE7DC
:101220000010024000127A003C00002000093D003E
:101230002DE9F04196B00D46064698461746002423
:10124000202104A8FEF787FF20210EA8FEF783FFC8
:10125000FB208DF810008DF8110015208DF812007C
:1012600008218DF8131031788DF8141071788DF8ED
:101270001510B1788DF81610F1788DF817103179B6
:101280008DF8181071798DF8191029788DF81A10C9
:1012900069788DF81B10A9788DF81C10E9788DF805
:1012A0001D1029798DF81E1069798DF81F108DF8A1
:1012B000207000218DF821808DF822108DF82310E8
:1012C0000991032104AAC01C02E0535C491C1C4480
:1012D0008842FADCE01704EB1060010A8DF8281050
:1012E00020468DF82900FE208DF82A008DF82B006D
:1012F0001C21104600F0D0FB0EA8FFF7E1FC1C28D3
:1013000057D19DF83B00D82853D19DF814009DF883
:101310003C1088424DD19DF815009DF83D10884243
:1013200047D19DF816009DF83E10884241D19DF8A6
:1013300017009DF83F1088423BD19DF818009DF89A
:101340004010884235D19DF819009DF8411088421F
:101350002FD19DF81A209DF84200824229D19DF894
:101360001B309DF84300834223D19DF81C509DF80B
:10137000440085421DD19DF81D409DF845008442E2
:1013800017D19DF81E109DF84600814211D19DF89D
:101390001F009DF84760B0420BD1CDE90210CDE9A6
:1013A000005406A1002000F08BFA012016B0BDE821
:1013B000F081142002F09AF90020F7E752464D33ED
:1013C00030305F42696E645F556964202530327841
:1013D0002530327825303278253032782530327811
:1013E000253032780A0000002DE9F04F99B00D4603
:1013F000DDE922A90646984617460024202109A8BF
:10140000FEF7A9FE202111A8FEF7A5FEFB208DF80E
:1014100024008DF8250015204FF0000B8DF82600D4
:101420008DF827B032788DF8282072788DF8292031
:10143000B2788DF82A20F2788DF82B2032798DF849
:101440002C2072798DF82D202A788DF82E206A783C
:101450008DF82F20AA788DF83020EA788DF8312089
:101460002A798DF832206A7959460D910E918DF8BE
:101470003320032109AAC01C02E0535C491C1C4410
:101480008842FADCE01704EB1060010A8DF83C108A
:1014900020468DF83D00FE208DF83E008DF83F007F
:1014A0001C21104600F0F8FA11A8FFF709FC1C28CF
:1014B0007DD19DF84700D02879D19DF828009DF86E
:1014C0004810884273D19DF829009DF84910884240
:1014D0006DD19DF82A009DF84A1088427DD19DF873
:1014E0002B009DF84B10884277D19DF82C009DF879
:1014F0004C10884271D19DF82D009DF84D10884206
:101500006BD19DF82E009DF84E10884265D19DF854
:101510002F009DF84F1088425FD19DF830009DF854
:101520005010884259D19DF831009DF851108842E1
:1015300053D19DF832009DF8521088424DD19DF84C
:1015400033009DF85310884247D19DF854003870FD
:1015500070B387F800B000BF9DF8551088F80010F0
:101560009DF857009DF8561001AC00EB0120A9F83A
:1015700000009DF859009DF8581000EB0120AAF8D2
:10158000000024999DF85A000870B9F80020BAF8B4
:10159000001098F80030CDE90612089005933B78CA
:1015A0009DF833209DF832109DF8310001E014E0E1
:1015B00010E084E80F009DF8300000909DF82F3077
:1015C0009DF82E2007A1002000F07AF9012019B023
:1015D000BDE8F08F01203870BEE7142002F086F8D5
:1015E0000020F4E752464D3330305F486561727435
:1015F0005F4265617420253032782530327825309D
:1016000032782530327825303278253032782020F3
:101610002564202564202564202564202564200A73
:101620000000000010B530B1702000F0C1FBC0F127
:101630008000C0B210BDBDE810406F2000F0B8BB04
:101640002DE9F041C7B2C0F3072615460C46FFF757
:1016500077FCA020FFF73AFCFFF7D8FB3046FFF7F6
:1016600035FCFFF7D3FB3846FFF730FCFFF7CEFB26
:10167000FFF766FCA120FFF729FCFFF7C7FB09E095
:10168000FFF7ECFB2870012C01D9FFF799FB641ED2
:10169000E4B26D1C002CF3D1FFF772FCBDE8F04101
:1016A0004FF47A70FFF7ACBB10B530B1024602219F
:1016B0002020FFF7C5FF002010BD4FF0FF3010BD08
:1016C00010B530B1024606211020FFF7B9FF002007
:1016D00010BD4FF0FF3010BD10B528B102460020FC
:1016E000FFF7AEFF002010BD4FF0FF3010BD10B56A
:1016F00048B1F82202EBC103024606211846FFF763
:101700009FFF002010BD4FF0FF3010BD10B548B155
:10171000FE2202EBC103024601211846FFF790FFAB
:10172000002010BD4FF0FF3010BD10B530B10246A3
:1017300002214020FFF784FF002010BD4FF0FF3052
:1017400010BD10B528B102465020FFF779FF0020E8
:1017500010BD4FF0FF3010BD2DE9F0410D46069C45
:1017600090466FF02F0621786278303901EB8101C5
:1017700006EB41010A441F46A11C2A60FEF7D2FC79
:101780002868E11C425CA11C241D405C303800EB41
:10179000800006EB400002443A6028680119404688
:1017A000FEF7C0FC0020BDE8F081000070B51546D2
:1017B0000E46044603220CA1FEF7ECFC10B14FF0DC
:1017C000FF3070BD601D02F0F3F83060607AA17ADE
:1017D000303800EB80006FF02F0202EB400008442D
:1017E0002860002070BD00004150530070B51546C0
:1017F0000E46044603220CA1FEF7CCFC10B14FF0BC
:10180000FF3070BD601D02F0D3F83060607AA17ABD
:10181000303800EB80006FF02F0202EB40000844EC
:101820002860002070BD0000454355002DE9F041BF
:10183000884600EB40012148164600EBC104E16AEE
:1018400001F0030002280BD0A06A626A801A401ED1
:1018500001D5226A1044864202DD89072BD0064654
:101860004EB30027A06A616A451A6D1E01D5206A31
:101870000544D4E90801411AA94201DC616A451A0C
:10188000B54200DB3546616AE0692A4608444146B4
:10189000FEF748FC606A2F44A844761B2844606227
:1018A000606A216A884201D100206062002ED9D18D
:1018B0003846BDE8F0810020FBE700002C01002045
:1018C0000FB408B504A900916A46039900F004F822
:1018D00001B05DF814FB00002DE9F04198B0064618
:1018E00007A8029040200025CDE90305CDE9055663
:1018F00090460C4614F8011B002971D0252908D008
:1019000002A801F0A3FC05980028F3DA18B0BDE89E
:10191000F0810020217823291BD02B2916D02D29D6
:101920000ED030290FD000222178A1F130030A2BEC
:1019300013D202EB820201EB4202303A641CF3E75D
:1019400040F0010007E040F0020004E040F0040035
:1019500001E040F00800641CDCE70023CFB22E2F2A
:101960000CD100BF14F8011FA1F130070A2F05D2D6
:1019700003EB830301EB4303303BF3E76C290DD00A
:1019800068290BD0702954D00BDC252916D0582992
:1019900031D063290CD0642913D114E014F8011B51
:1019A000ECE7732934D075291BD0782909D122E0BE
:1019B000D8F80000011DC8F80010017802A801F055
:1019C00045FC641C9FE7D8F800100F1DC8F8007094
:1019D0000968CDE900200A2202A801F067FBF0E7C0
:1019E00033E0D8F800100F1DC8F800700968CDE981
:1019F00000200A2208E0D8F800100F1DC8F8007077
:101A00000968CDE90020102202A801F0B1FBD8E757
:101A1000D8F80000011DC8F80010076817F8011B6E
:101A20000029CED002A801F011FC05980028F5DAB3
:101A3000C7E7D8F80000011DC8F8001001680820A9
:101A4000CDE9000503461022DEE7059800287FF760
:101A50005DAF049820B1024607A93046FFF7E6FEC5
:101A6000DDE904010844059050E770B505460C46D1
:101A7000662000F09DF900F0E0012943662000F0A7
:101A80003BFA672000F094F900F0E0012143BDE843
:101A90007040672000F030BA70B506460D46084623
:101AA00000F0B6F8FFF78DF8FEF7DAFF022000F03D
:101AB00059F800BFFFF74EF90228FBD1002404E0DB
:101AC000305D00F0D9F9641CE4B2AC42F8D3402098
:101AD00000F048F8FFF7F0F80828FBD10020FEF7E7
:101AE000CAFF102000F03EF80249002008700120D3
:101AF00070BD00008400002070B5194C6178042985
:101B000019D204F15B0000F12505012904D0022956
:101B10000AD003291BD00EE011491122891CFEF7BF
:101B200001FBB4F8130005E00D4911221531FEF751
:101B3000F9FAE08CA8820A4D00243B352046295D45
:101B400000F0DAF9641CE4B2602CF7D370BD0449EC
:101B500011222831FEF7E6FAB4F83900EAE700006E
:101B6000840000200146602000F0C6B90CB50021B9
:101B7000254801910091026842F4803202604FF4DE
:101B8000A063026802F400320092019A521C019292
:101B9000009A12B9019A9A42F3D10268920331D5A0
:101BA0000121009119490A6842F010020A600A688E
:101BB00022F003020A600A6842F001020A604168EA
:101BC00041604168416041684160416821F47C1195
:101BD0004160416841F4F8114160016841F0807151
:101BE000016001688901FCD5416821F00301416071
:101BF000416841F0020141604168C1F3810102295D
:101C0000FAD10CBD00910CBD001002400020024032
:101C100010B504460220FFF7A5FF452000F0C8F8E4
:101C200000F08F00C4F3022140EA0111452000F0CA
:101C300063F9E1B2462000F05FF9BDE810401020E2
:101C4000FFF790BF10B5FF217F2000F055F9BDE8E8
:101C50001040142001F04ABD2DE9F84F0121082061
:101C6000FFF786FA4FF48046ADF800601025DFF8E4
:101C7000B8A08DF8035003248DF802406946504601
:101C8000FEF7BEFF01210820FFF772FA6F02ADF8E0
:101C900000708DF803508DF8024069465046FEF7FB
:101CA000AFFF01210820FFF763FA4FF48058ADF829
:101CB00000808DF803508DF8024069465046FEF7CB
:101CC0009FFF01210820FFF753FA4FF48069ADF818
:101CD00000908DF803508DF8024069465046FEF79B
:101CE0008FFF01210820FFF743FAE801ADF800005B
:101CF00048208DF803008DF8024069465046FEF7F3
:101D00007FFF39465046FEF7D5FF49465046FEF75D
:101D1000D1FF31465046FEF7CDFF41465046FEF713
:101D2000C7FFBDE8F88F0000000C01402DE9F0412D
:101D30000024FFF791FF1D4E4FF480613046FEF7FF
:101D4000B7FFFFF767F9082001F0E6FC0025B7149C
:101D50004FF480486006040E39463046FEF7A8FF6F
:101D6000022001F0D9FC39463046FEF7A3FF0220DD
:101D700001F0D2FC41463046FEF793FF012801D125
:101D800044F001046D1CEDB2082DE3D33946304612
:101D9000FEF78EFF042001F0BFFCFFF75DFF082077
:101DA00001F0BAFC2046BDE8F0810000000C0140C3
:101DB0002DE9F047002440F08007FFF74DFF2D4E3E
:101DC0004FF400513046FEF773FF022001F0A4FCEF
:101DD0000025B0464FF48049B614380649464046BF
:101DE00002D5FEF767FF01E0FEF762FF314640468D
:101DF000FEF75EFF022001F08FFC31464046FEF701
:101E000059FF022001F088FC78066D1C070EEDB228
:101E1000082DE2D3494647464046FEF74BFFFFF701
:101E2000F9F808256006040E31463846FEF740FFF3
:101E3000022001F071FC31463846FEF73BFF0220DC
:101E400001F06AFC49463846FEF72BFF012801D114
:101E500044F001046D1E15F0FF05E3D1314638460C
:101E6000FEF726FF022001F057FCFFF7F5FE2046A3
:101E7000BDE8F087000C01402DE9F0410546FFF771
:101E8000EBFE1C4E4FF480613046FEF711FF082038
:101E900001F042FC00244FF48048B7142806414664
:101EA000304602D5FEF706FF01E0FEF701FF394696
:101EB0003046FEF7FDFE022001F02EFC394630468A
:101EC000FEF7F8FE022001F027FC6806641C050EF0
:101ED000E4B2082CE2D339463046FEF7E9FE04208E
:101EE00001F01AFCFFF7B8FEBDE8F041082001F050
:101EF00013BC0000000C01402DE9F0470E4620F015
:101F00008007FFF7A9FE2A4C4FF400512046FEF748
:101F1000CFFE022001F000FC00254FF480494FF471
:101F2000805838064946204602D5FEF7C3FE01E038
:101F3000FEF7BEFE41462046FEF7BAFE022001F043
:101F4000EBFB41462046FEF7B5FE022001F0E4FB24
:101F500078066D1C070EEDB2082DE2D3002547462A
:101F600030064946204602D5FEF7A4FE01E0FEF702
:101F70009FFE39462046FEF79BFE022001F0CCFB77
:101F800039462046FEF796FE022001F0C5FB70069A
:101F90006D1C060EEDB2082DE2D339462046FEF741
:101FA00087FE022001F0B8FBBDE8F047FFF754BE02
:101FB000000C01404FF0E0210428086903D020F014
:101FC00004000861704740F00400FAE70F4810B5BC
:101FD000016841F00101016041680D4A1140416012
:101FE00001680C4A11400160016821F48021016000
:101FF000416821F4FE0141604FF41F018160FFF749
:10200000B5FD05494FF00060086010BD00100240AA
:102010000000FFF8FFFFF6FE08ED00E070B50121BB
:102020008C07204600F033F9002820D001212046FB
:1020300000F020F90E4C01250026A068401CA0608D
:10204000A570E670207901280BD1607928B10020B5
:10205000607120B1FFF72CF803E00120F8E7FFF7EB
:102060001FF80449A068884201DD6570A66070BD54
:1020700020010020805101007FB50C46054601215A
:102080000846FFF75DF8ADF80450ADF800400024B5
:102090004FF08045ADF80640ADF80240694628464D
:1020A00000F00AF901221146284600F0FCF81C2035
:1020B0008DF80C0001218DF80D1003208DF80E0015
:1020C0008DF80F1003A8FEF7FFFF0121284600F04E
:1020D000D4F8014884707FBD2001002010B50E4C5B
:1020E0000121204600F0D3F8002813D0012120461A
:1020F00000F0C0F809490878401C40B20870012877
:1021000008DD07490020087006490880BDE8104036
:1021100000F00AB810BD00000004004020010020BB
:10212000730000207C000020034900200870014655
:10213000024800F0A2B80000200100200004004086
:102140007FB50C46054601210220FEF7F9FFADF8E8
:102150000450ADF800400024114DADF80640ADF834
:1021600002406946284600F0A7F801221146284699
:1021700000F099F81D208DF80C0001218DF80D104C
:1021800003208DF80E008DF80F1003A8FEF79CFFBA
:102190000121284600F071F8024804707FBD00005C
:1021A000000400402001002010B50E4C0121204603
:1021B00000F06DF8002814D00121204600F05AF8F4
:1021C00009498879401C40B28871012809DD074916
:1021D00002200870064900200880BDE8104000F089
:1021E00009B810BD00080040200100207100002047
:1021F000740000200349002088710146024800F065
:102200003CB8000020010020000800407FB50C46CB
:10221000054601210420FEF793FFADF80450ADF808
:1022200000400024114DADF80640ADF8024069466B
:10223000284600F041F801221146284600F033F804
:102240001E208DF80C008DF80D4003208DF80E0037
:1022500001208DF80F0003A8FEF736FF0121284664
:1022600000F00BF8024884717FBD000000080040B8
:1022700020010020C943018270470029018802D053
:1022800041F0010101E021F00101018070470246A7
:102290000020138A92890B4202EA010202D0002A2E
:1022A00000D001207047002A828901D00A4300E053
:1022B0008A4382817047000030B502881B4B1C4C5A
:1022C00098420DD0A0420BD0B0F1804F08D0194DEC
:1022D000A84205D0184DA84202D0184DA84203D1FB
:1022E00022F070054A882A43154DA84206D0154DA4
:1022F000A84203D022F44075CA882A4302808A8803
:1023000082850A88028598420AD0A04208D00E4AE7
:10231000904205D00D4A904202D00D4A904201D120
:10232000097A01860121818230BD0000002C014024
:10233000003401400004004000080040000C004050
:1023400000100040001400400040014000440140E3
:10235000004801402DE9F0410E46804600240A4D18
:102360000DE000BF18F804704021284600F08CFAF8
:102370000028F9D03946284600F01EFB641CB44200
:10238000F0DB2046BDE8F081003801402DE9F04740
:10239000704C00258246258160786F4E4FF0020810
:1023A00041F61F49022827D02AE000BFFFF722FF8D
:1023B000A1882089081A80B26081012806D00228ED
:1023C00008D003280ED005281ED00EE0307845280E
:1023D00003D10AE07078432807D0A580258184F8CE
:1023E000018002E0B0785528F7D149469520FFF7E3
:1023F0000DFF2089401C20812189A0888142D5D3EE
:102400006078032824D028E0032060704946952096
:10241000FFF7FCFEF4E700BFFFF7ECFEA088218980
:10242000401A80B26081092807D039469520FFF70D
:10243000EDFE2089401C20810BE0701D01F0B8FAF0
:10244000E0800420607039469520FFF7DFFE04E04D
:102450004F462189A0888142DED3607804281BD0B2
:102460001FE000BFFFF7C6FEA0882189401A81B295
:102470006181E088C01E884206D10520607039461F
:102480009520FFF7C3FE0CE039469520FFF7BEFE0E
:102490002089401C208100E04F462089A188884285
:1024A000E0D3607805284FD0BDE8F087FFF7A2FEA3
:1024B000A0882189401A80B26081E788B91E8142D4
:1024C00008D1F11911F8031C452903D0A5802581F5
:1024D00084F80180791E814208D1F11911F8021C9B
:1024E0004E2903D0A580258184F80180874224D11C
:1024F000B8B2304410F8010C442803D0A5802581DF
:1025000084F801804FF400711448FDF724FE3A4628
:1025100011491248FDF706FEE0881049CAF800008C
:102520000D540120207084F80180A5802581494642
:10253000BDE8F0479520FFF769BE49469520FFF7B3
:1025400065FE2089401C20812089A1888842ADD366
:10255000AAE7000070000020330D002033070020A0
:1025600010B50C4C40F22551204600F094F900289B
:102570000ED0204600F01CFA0849074B8A88985470
:10258000521C90B28880B0F5007F01D30020888073
:1025900010BD000000380140330D00207000002005
:1025A00010B59AB0044664216846FDF7D4FD224672
:1025B00007A1684600F06AFE6A460AA10020FFF7FC
:1025C0007FF910216846FFF7C5FE1AB010BD000064
:1025D0004543553131303031363035253032644560
:1025E0004E4400005553415254315F526573706F31
:1025F0006E73655F464143544F52592025730A005C
:1026000030B599B00D46044664216846FDF7A3FD38
:102610007CB122460AA1684600F038FE6A4610A145
:102620000020FFF74DF91C216846FFF793FE19B013
:1026300030BD2B46224611A1684600F027FEEDE78B
:102640004543553131303032383032253032643004
:102650003030303030303030303030454E44000093
:102660005553415254315F526573706F6E73655F9D
:10267000524541445F49442025730A004543553182
:1026800031303032383032253032642573454E4493
:102690000000000010B59AB0044664216846FDF7BA
:1026A0005AFD224607A1684600F0F0FD6A460AA1DD
:1026B0000020FFF705F910216846FFF74BFE1AB01E
:1026C00010BD0000454355313130303136303125B1
:1026D000303264454E4400005553415254315F52EC
:1026E0006573706F6E73655F5345545F4944202571
:1026F000730A000010B59AB0044664216846FDF7DD
:102700002AFD224607A1684600F0C0FD6A460AA1DC
:102710000020FFF7D5F810216846FFF71BFE1AB01E
:1027200010BD00004543553131303031363034254D
:10273000303264454E4400005553415254315F528B
:102740006573706F6E73655F5345545F4E455457A4
:102750004F524B2025730A0030B599B00C46054600
:1027600064216846FDF7F7FC23462A4607A1684620
:1027700000F08CFD6A460BA10020FFF7A1F81221A2
:102780006846FFF7E7FD19B030BD000045435531FD
:1027900031303031383033253032642530326445C1
:1027A0004E4400005553415254315F526573706F6F
:1027B0006E73655F544553542025730A0000000072
:1027C00010B50C4C40F22551204600F064F800286A
:1027D0000ED0204600F0ECF80849074B8A8998543F
:1027E000521C90B28881B0F5806F01D3002088819F
:1027F00010BD000000440040330F00207000002096
:102800000029818902D041F4005101E021F40051F6
:1028100081817047174910B588420AD101218C0384
:102820002046FEF7B1FC2046BDE810400021FEF72F
:10283000ABBC1149884202D101214C0410E00F4980
:10284000884202D101218C040AE00D49884202D15C
:102850000121CC0404E00B4988420AD101210C0576
:102860002046FEF779FC2046BDE810400021FEF727
:1028700073BC10BD003801400044004000480040D7
:10288000004C0040005000400246002012880A42DE
:1028900000D00120704730B501F01F02012400254F
:1028A000C1F3421304FA02F2012B0FD0022B0FD016
:1028B000838A4FEA11210088134204FA01F400EAE6
:1028C000040001D000B10125284630BD8389F0E71E
:1028D000038AEEE710B5C1F3421301F01F04012192
:1028E000A140012B07D0022B07D01430002A026828
:1028F00005D00A4304E00C30F8E71030F6E78A43CD
:10290000026010BD30B50446008A85B00D464CF615
:10291000FF710840E98801432182A1894EF6F31036
:102920000140A8882A8910436A890A431043A0817C
:10293000A08A4FF6FF410840A9890143A182684659
:10294000FEF72EFC1948844201D1039800E002985A
:10295000A189090400EBC00101EB0010296801D531
:10296000490000E08900B0FBF1F06422B0FBF2F115
:1029700009010B096FF018056B4300EB8300A38975
:102980001D044FF0320306D503EBC000B0FBF2F09C
:1029900000F0070005E003EB0010B0FBF2F000F0E0
:1029A0000F000843208105B030BD00000038014011
:1029B0008088C0F308007047C1F308018180704728
:1029C00070B500260546741EC82000F08FFEFDF786
:1029D000C7FE20B1761C032EF6DB401C34D0C82085
:1029E00000F084FE0026C82000F080FE2846FDF797
:1029F00031FF20B1761C032EF5DB401C1AD00025D8
:102A0000C82000F073FEFDF7D7FF002811D06D1C21
:102A1000032DF5DB0025C82000F068FEFDF7E4FE7D
:102A200020B16D1C032DF6DB401C0DD000F0ACF97D
:102A3000002070BD0025C82000F058FEFDF7D4FE30
:102A400010B16D1C032DF6DB204670BD70B500265D
:102A50000546741EC82000F049FEFDF781FE20B136
:102A6000761C032EF6DB401C2DD0C82000F03EFE65
:102A70000026C82000F03AFE2846FDF743FF1DA0BF
:102A8000FDF7E8FE20B1761C032EF2DB401C25D0BA
:102A90000025C82000F02AFEFDF78EFF002811D087
:102AA0006D1C032DF5DB0025C82000F01FFEFDF78F
:102AB0009BFE20B16D1C032DF6DB401C18D000F0EE
:102AC00063F9002070BD0025C82000F00FFEFDF75F
:102AD0008BFE68B16D1C032DF6DB09E00025C820D4
:102AE00000F004FEFDF780FE10B16D1C032DF6DB37
:102AF000204670BD38383838383838380000000083
:102B00002DE9F05F9D4C002583462582E0789C4EA0
:102B10000F464FF0010A41F61F4840F22B1960B1F1
:102B20000FE000BFFFF700FBA189208A091A89B2D4
:102B30006182012909D0401C2082208AA189884213
:102B4000F0D3E07801283AD03DE03078612872D1A6
:102B500084F803A041464846FFF7F2FAF1E700BFC8
:102B6000FFF7E2FA208A022801D170783870208AB3
:102B7000032801D1B0787870208A04280AD005286B
:102B80000BD006280CD007280DD008280ED0092815
:102B90001DD00DE0F078B8700AE03079F87007E0E9
:102BA0007079387104E0B079787101E0F079B8712A
:102BB00041464846FFF7C4FA208A401C2082208AFA
:102BC000A1898842CCD3E078022835D039E0307A28
:102BD000F8710220E07041464846FFF7B1FAF2E78B
:102BE000FFF7A2FAA089218A401A80B260820A28DF
:102BF00006D00B2808D00C280AD00E280CD012E0E2
:102C0000707A41286BD10EE0B07A502867D10AE083
:102C1000F07A532863D106E00320E0703946484635
:102C2000FFF78EFA0DE039464846FFF789FA208A09
:102C3000401C208201E052E04746208AA189884258
:102C4000CED3E07803281FD023E000BFFFF76CFA53
:102C5000A089218A401A80B26082122807D03946A2
:102C60004846FFF76DFA208A401C20820DE0444858
:102C70000E3000F09DFE0930E0810420E0703946FE
:102C80004846FFF75DFA04E04746208AA18988425A
:102C9000DCD3E07805284ED1258248E0FFF744FADE
:102CA000A089218A401A80B26082E1890F46891E7C
:102CB000814204D1F11911F8031C45290FD1791E65
:102CC000814204D1F11911F8021C4E2907D1874223
:102CD00026D1B8B2304410F8010C442804D0A581A4
:102CE0002582E570BDE8F09F4FF480612548FDF72F
:102CF00032FA2349A7F1090209312248FDF712FAF5
:102D0000E08920490938CBF800000D5484F802A06E
:102D1000E570A581258241464846FFF711FA0AE091
:102D200041464846FFF70CFA208A401C2082208A40
:102D3000A1898842B2D3E0780428D3D125824546C0
:102D40004E4615E0FFF7F0F9E089218AC01E88425F
:102D500007D10520E07029463046BDE8F05FFFF757
:102D6000EFB929463046FFF7EBF9208A401C208254
:102D7000208AA1898842E5D3B4E7000070000020D2
:102D8000330F00203309002070B5084D4FF4004484
:102D900021462846FDF78EFF40F6B83000F0A6FC2D
:102DA00021462846FDF784FF002070BD000C01403D
:102DB0002DE9F0410E46804600240A4D0DE000BF8B
:102DC00018F8047040212846FFF75EFD0028F9D06E
:102DD00039462846FFF7F0FD641CB442F0DB20467C
:102DE000BDE8F0810044004070B50024651EC82095
:102DF00000F07CFCFDF7B4FC20B1641C032CF6DB76
:102E0000401C1DD0C82000F071FC0024C82000F038
:102E10006DFCFDF7D1FD002811D0641C032CF5DBFF
:102E20000024C82000F062FCFDF7DEFC20B1641C29
:102E3000032CF6DB401C0DD0FFF7A6FF002070BD71
:102E40000024C82000F052FCFDF7CEFC10B1641C39
:102E5000032CF6DB284670BD70B50024651EC82023
:102E600000F044FCFDF77CFC20B1641C032CF6DB75
:102E7000401C0CD00024C82000F038FCFDF7B4FC46
:102E8000002803D0641C032CF5DB284670BD002409
:102E9000C82000F02BFCFDF7A7FC0028F6D0641C2E
:102EA000032CF5DBF1E700002DE9F041DFF86C8041
:102EB000C7B2C0F307260C46154620214046FDF751
:102EC000F7FEFEF73DF8A020FEF700F8FDF79EFFA5
:102ED0003046FDF7FBFFFDF799FF3846FDF7F6FF9B
:102EE000FDF794FF07E02878FDF7F0FFFDF78EFF70
:102EF000641EE4B26D1C002CF5D1FEF741F84AF6D1
:102F0000C870FDF77DFF20214046FDF7D3FEBDE8E8
:102F1000F0414FF47A70FDF773BF0000000C0140E0
:102F200038B5044600200090224602212020FFF7F9
:102F3000BBFF6A4602212020FEF782FB022269467F
:102F40002046FDF71AF9002800D0012038BD1CB535
:102F50000446002000900190224606211020FFF731
:102F6000A3FF6A4606211020FEF76AFB0622694687
:102F70002046FDF702F9002800D001201CBD38B51D
:102F8000044600200090224601213020FFF78CFFEC
:102F90006A4601213020FEF753FB01226946204694
:102FA000FDF7EBF8002800D0012038BD3EB50546FE
:102FB00000200C46009001902A460290FFF774FF13
:102FC0006A4621460020FEF73BFB2246694628461A
:102FD000FDF7D3F8002800D001203EBD7CB50546A2
:102FE000002000900190F82000EBC1042A46062141
:102FF0002046FFF759FF20466A460621FEF720FBD0
:10300000062269462846FDF7B8F8002800D00120BE
:103010007CBD13B582B000208DF80000FE2000EBCF
:10302000C100044602AA0121FFF73EFF20466A467E
:103030000121FEF705FB0122694602A8FDF79DF874
:10304000002800D0012004B010BD38B5044600208F
:103050000090224602214020FFF726FF6A46022107
:103060004020FEF7EDFA022269462046FDF785F87A
:10307000002800D0012038BD3EB505460020009054
:10308000019002900C462A465020FFF70DFF6A4639
:1030900021465020FEF7D4FA224669462846FDF71D
:1030A0006CF8002800D001203EBD00002DE9FC5F37
:1030B0000E008146DDE90C47C6F1000098469346B4
:1030C000824600D40846012503E000BFB0FBFBF0B8
:1030D0006D1C5845FAD2A84500D9454624B1002EAA
:1030E00001DB780700D5641EB80702D5B8F1000FE0
:1030F00010D0F8070ED16CB12046641EA84209D941
:103100002021484600F0A2F8D9F80C000028F2DA95
:10311000BDE8FC9F002E02DA56462D2102E078071A
:1031200007D52B21484600F091F8D9F80C0000286B
:10313000EEDB07F00300022810D1B8F1000F0DD12B
:1031400064B12046641EA84208D93021484600F0E8
:103150007DF8D9F80C000028F2DAD9E7CDE900476C
:1031600043465A463146484600F002F8D0E7000090
:103170002DE9F84F8246DDE90A4B01269846914633
:103180000D460846374602E0B0FBF9F07F1C484583
:10319000FAD2B84500D947465FEACB701CD1DCB102
:1031A0005FEA8B7002D5B8F1000F02D020200090AA
:1031B0000AE03020FBE75046009900F047F8DAF8C3
:1031C0000C0000283EDB3CB12046641EB842F2D819
:1031D00002E000BF06FB09F6B5FBF6F1494501D355
:1031E000012100E000214246A8F10108012A01DD89
:1031F000012000E000200143ECD1DFF84C8000BF4B
:10320000B5FBF6F000FB165518F80010504600F01C
:103210001DF8DAF80C00002803DBB6FBF9F6002EE7
:10322000EED15FEACB700DD0002C0BD02046641E8F
:10323000B84207D92021504600F008F8DAF80C000F
:103240000028F1DABDE8F88FF842000810B504460E
:10325000D4E90130421C934205DB23681954A26073
:10326000E068401CE060D4E90102824209D1216893
:103270002069FEF7DBFAA168884203D04FF0FF30E7
:10328000E06010BD0020A06010BD00000FB4084B2E
:1032900010B504A902AA039800F036F8044602A962
:1032A000002000F0D2F9204610BC5DF814FB0000AD
:1032B0004B36000802E008C8121F08C1002AFAD1E4
:1032C00070477047002001E001C1121F002AFBD1A6
:1032D000704700000B49498848434FF0E02148619E
:1032E00000228A61086940F0010008610869C3078B
:1032F00001D0C003FAD5086920F0010008618A6195
:10330000704700006C0000202DE9FF4F8BB088460D
:103310000546002606E025280BD0DDE90D12904772
:103320006D1C761C28780028F5D10FB03046BDE81A
:10333000F08F0024A146A2460122AE4900E00443DA
:1033400015F8013F203B02FA03F00842F7D1287834
:103350002A2810D06FF02F022878A0F13001092917
:1033600015D809EB890102EB410144F0020400EB9E
:1033700001096D1CF0E758F8041B5FEA010903D549
:1033800044F40054C9F1000944F002046D1C28788B
:103390002E2817D115F8010F44F004042A280ED066
:1033A0006FF02F022878A0F1300109290AD80AEB22
:1033B0008A0102EB410100EB010A6D1CF2E758F8AB
:1033C00004AB6D1C28786C280FD006DC4C2817D075
:1033D00068280DD06A2814D104E0742810D07A2807
:1033E0000FD10DE044F400140AE044F4801401E02D
:1033F00044F440146978814202D104F580146D1CB4
:103400006D1C2878692865D006DC00288DD06328DB
:1034100027D0642806D15DE06E2808D073282AD012
:10342000752877D0DDE90D129047761CE0E0C4F3F3
:103430000250022809D003280DD0D8F80010042823
:103440000DD00E6008F10408D2E0D8F80010F21791
:10345000C1E90062F6E7D8F800100E80F2E70E70BE
:10346000F0E718F8041B8DF8001000208DF801001B
:10347000EB46012003E058F804BB4FF0FF30610732
:103480004FF0000701D40AE07F1C57450DDA874250
:10349000FADB1BF807100029F6D106E07F1C8742F3
:1034A000FCDB1BF807100029F8D1DDE90D23A9EB9F
:1034B00007008146214600F0B1F83044C61904E007
:1034C000DDE90D121BF8010B90477F1EF8D2214653
:1034D000484688E058F8040BC4F302514FF00A0B39
:1034E000032900D100B2042900D140B2002802DA39
:1034F00040422D2102E0210505D52B218DF8241015
:10350000012104E006E0E10710D02021F6E708AF32
:10351000089113E058F8040BC4F302514FF00A0B62
:10352000032900D180B2042900D1C0B20021EEE706
:103530005946FCF73EFE303107F8011D0028F7D14F
:10354000ADEB070000F1200B600702D524F48034B6
:1035500001E04FF0010ADA4502DDAAEB0B0000E0C2
:103560000020824600EB0B0108980144A9EB010002
:103570000A90E00306D4DDE90D2321460A9800F005
:103580004DF806444FF0000908E009A911F80900B8
:10359000DDE90D12904709F10109761C089989456A
:1035A000F3DBE0030CD5DDE90D2321460A9800F09A
:1035B00035F8064404E0DDE90D1230209047761C12
:1035C000BAF10001AAF1010AF5DC05E0DDE90D120E
:1035D00017F8010B9047761CBBF10001ABF1010B12
:1035E000F4DC0A982146DDE90D2300F005F80644D5
:1035F0006D1C97E6092801002DE9F04104460025DD
:103600001E461746880404D405E039462020B047FA
:103610006D1C641EF9D52846BDE8F0812DE9F04106
:10362000044600251E469046C80301D5302700E019
:103630002027880404D505E041463846B0476D1C74
:10364000641EF9D52846BDE8F0810A68531C0B605A
:1036500010707047F8B500200090C8170D4601EBB8
:103660001060010A8DF8001028468DF801001646FA
:103670006846FFF7EAFC00240EE000BF04EB4400BC
:1036800006EB4000611CFFF7A9FC611C0020FFF75E
:10369000C0FC641C642C01DAAC42EFDB0020F8BDF6
:1036A00010B5FEF741FD02480021C170818110BDB7
:1036B0007000002010B50420FEF77CFC0848094982
:1036C0000068B0FBF1F0C1B2074801EB41020170A4
:1036D000C2EBC1114FF6FF7202EAC101418010BD79
:1036E0004C00002040420F006C00002070B54FF4E9
:1036F000E9750446A84203DABDE87040FFF7EABD69
:103700004FF4C8763046FFF7E5FDA4F5C874AC4227
:10371000F8DAA0B2F0E700000B49097848434FF00F
:10372000E021486100228A61086940F001000861D7
:103730000869C30701D0C003FAD5086920F0010069
:1037400008618A61704700006C00002010B50948CC
:10375000FDF7B6FF0849074800F0BAFC0748FDF737
:10376000A3FF064B044A06A10020FEF7A9F800209B
:1037700010BD000000000020A4010020080000206F
:10378000454355204944203A2573202020202020FD
:1037900020205369676E616C5F4368616E6E656C73
:1037A0003A2020202573202020200A00F0B587B081
:1037B000002606968DF81860054604468DF81960B7
:1037C0003746FF2206212046FCF7BEFCE680268114
:1037D000A6720E347F1C642FF3DB06A8FDF7A5FF4D
:1037E0009DF819009DF818101D4C00EB012064286D
:1037F000206001DD266000E008B9FDF759FC19A141
:1038000000202268FEF75CF8002722E0791C284699
:10381000FDF76DFF791C05F10B00FDF777FFE87AE6
:10382000012800D0EE72E8780DF1080CEB7A6A7985
:1038300029798CE80F00A9786878CDE900012B7808
:103840007A1C0DA10020FEF73BF80E357F1C642F7B
:1038500002DA20688742D9DB07B00020F0BD000003
:10386000100000207661696C644E756D203A256405
:1038700020202020200A000075696425643A202554
:10388000303278253032782530327825303278253C
:103890003032782530327820202062696E643A25F3
:1038A000640A0000FFF706FFFDF70AFCFDF784FB42
:1038B000FDF7DAFBFDF710F9FDF7C2FBFDF7AEF8F7
:1038C0004FF46144204600F03BFC204600F0A6FC8B
:1038D00041F61F4141F28730FEF7CEFB22A10020C6
:1038E000FDF7EEFFFFF732FF2248FFF75FFF224EA2
:1038F000224FDFF88C80DFF88C90DFF88CA000245A
:1039000022492348FFF7FCF83078012803D11F48EB
:1039100000F00CFA34701E48001DFEF737FD3878B1
:10392000012807D11B4A1CA10020FDF7C9FF00F0A8
:10393000E1F83C7098F800004546012802D100F0FB
:1039400099F82C7099F800004D46012802D100F03A
:1039500095FB2C709AF8000055460128D0D100F054
:103960003FF82C70CCE70000696E6974204F4B2043
:103970000A000000B2010020720000207000002048
:103980006000002021010020220100202A070020E1
:1039900024000020330700205553415254315F5218
:1039A0006563765F4576656E742025730A000000B6
:1039B0000178C278303901EB4103C3EBC11102EB4E
:1039C000C102417880786423594300EB800001EB09
:1039D00040001044A0F5A050D03880B270470000DD
:1039E000FEB51E4E3068002836DD1E4C1E4D1C4AAA
:1039F0002068C0EBC00005EB40018B1D009301F176
:103A00000800CDE90102821C184B1948FDF7ECFCB7
:103A1000D0B92068C0EBC00005EB4001C87A01288E
:103A200012D000231A461248FDF702FC01280BD1E0
:103A30002168491CFFF7EDFA30B921680120C1EB7C
:103A4000C10105EB4101C8722068401C206031684B
:103A5000884201DB00202060FEBD00001000002035
:103A60000F00002014000020B20100200E000020F2
:103A70000000002010B500240CA12046FDF720FF17
:103A800041F28830FFF732FE0F48FEF7DFFF18B132
:103A9000641C032CF8DB03E008210CA0FFF7ECFA10
:103AA000BDE810400CA10020FDF70ABF4B45595F4F
:103AB000466F726D6174574946495F4576656E740D
:103AC0002053746172740A00A40100203838383819
:103AD00038383838000000004B45595F466F726D2A
:103AE0006174574946495F4576656E7420456E643A
:103AF0000A00000070B58AB000240794039404946F
:103B0000059406940294704A704971480894FDF730
:103B10006DFE70490028086016D16B486C4D6E4EE2
:103B20000068062810D2DFE800F00F036C86A2BF01
:103B3000674B012269A10020FDF7C2FE30681A28F8
:103B400004D00120FEF7A6FD0AB070BD55F80B0F9A
:103B5000049068680590A86806909DF811009DF88B
:103B600010109DF8142000EB0110A0F54C708DF89A
:103B700008009DF813109DF8120001EB0010A0F54D
:103B80004C708DF809009DF8150000EB0111A1F5AE
:103B90004C718DF80A109DF8171001EB0211A1F578
:103BA0004C718DF80B109DF8191001EB0010A0F569
:103BB0004C708DF80C009DF81B009DF81A1000EB5E
:103BC0000110A0F54C708DF80D0002A8FFF7BFF9A9
:103BD00010F0FF0001D0FEF75DFD8DF81C4041F2B2
:103BE0008830FFF783FD04A8FEF730FFC4B2082138
:103BF00040A0FFF741FA2046FEF74CFDFFF7A6FD77
:103C0000A2E7334B022235A10020FDF759FE02A89E
:103C1000FDF756FD04A902A800F05AFA8DF81C40E1
:103C20009DF8080004A9FF2803D00020FEF7E8FC57
:103C30008AE70120FAE7264B032228A10020FDF79E
:103C40003FFE287BE97A00EB0110A0F54C70C4B26E
:103C50002046FDF787F8C5B22B46224628A1002052
:103C6000FDF72EFE29462046FEF776FD6CE7184B41
:103C700004221AA10020FDF723FE23A10020FDF756
:103C80001FFE30680621113890FBF1F1104A2648DA
:103C90000E32FFF7DFFC0020FEF72CFD2248FFF775
:103CA00085FDFDF7FDF94FE7094B05220BA100202B
:103CB000FDF706FE08A8FFF7C8F9C0B2FEF770FCD2
:103CC0001948FFF773FD3FE7300000202C0000206B
:103CD00033070020340000202800002057494649BF
:103CE0005F526563765F4576656E74256420257343
:103CF0000A000000383838383838383800000000FA
:103D000025642025640A0000434F4D4D414E445F19
:103D10005345544E4554574F524B2020204D61700F
:103D200070696E670A000000B20100202DE9F041C1
:103D30008046D0B08E4A8F498F48FDF737FD8F49B6
:103D40000028086024D18A488B4C8D4E016804F10C
:103D50000B0704F11A0507291AD2DFE801F019044C
:103D60001C3E719DE900844B012286A10020FDF7D5
:103D7000A7FD0120FDF756FC307088A3052289A11C
:103D80008DE80E00034688A288494046FCF766FA93
:103D900050B0BDE8F081784B02227AA10020FDF7F7
:103DA0008FFD0C2281493846FCF7E7F960B180A10C
:103DB0000020FDF785FD0023864A012150B04046D2
:103DC000BDE8F041FCF7A8BB83A10020FDF778FD1A
:103DD0008948804A00210368F0E7674B032269A104
:103DE0000020FDF76DFD0C2270493846FCF7C5F93F
:103DF00050B101214046FCF727FB50B07FA1BDE840
:103E0000F0410020FDF75CBD8548062100681D38A3
:103E100090FBF1F4224683A10020FDF751FD2A46D4
:103E200021466C48FFF716FC00214046FCF70CFBCE
:103E30006848FFF7BBFC50B0BDE8F041FDF730B972
:103E40004D4B04224FA10020FDF73AFD0C225749AB
:103E50003846FCF792F940B150B04046BDE8F04119
:103E600000231A460121FCF78DBA774D608B28801C
:103E70000120FDF7D7FB307003462A46002140465B
:103E8000FCF780FA714829880180A978817050B0C8
:103E9000BDE8F041FFF744B8374B052239A10020B7
:103EA000FDF70EFD0C2241493846FCF766F930B1AA
:103EB00050B04046BDE8F0410121FCF7F9BA642159
:103EC0001BA8FCF748F9642102A8FCF744F9642117
:103ED00034A8FCF740F94EAB02AA4DA91BA80095E7
:103EE000FDF73AFC02A94E98CDE900011BAB58A1A1
:103EF00000204D9AFDF7E4FC642134A8FDF721FC75
:103F00001BA934A84D9AFCF738F920B1022140468C
:103F1000FCF7CEFA3CE700214046FCF7C9FA02A8BC
:103F2000FEF74EFD4E98C1B202A8FFF7A5F82FE7A5
:103F3000114B062213A10020FDF7C2FC0C221B49E5
:103F40003846FCF71AF930B150B04046BDE8F041B0
:103F50000121FCF7E3B94849E07D087000214046A3
:103F6000FCF7DCF950B04448BDE8F041FFF707B872
:103F70001C00002018000020330900202000002031
:103F800007000020574946495F526563765F4576D2
:103F9000656E7425642025730A0000005253312E8B
:103FA000300000003030000031303100A40100202A
:103FB000434F4D4D414E445F53595354454D494E27
:103FC000464F2020204E6F74204D617070696E67DF
:103FD00000000000B2010020434F4D4D414E445FB0
:103FE00053595354454D494E464F20204D617070F2
:103FF000696E670A0000000010000020434F4D4D1D
:10400000414E445F5345544E4554574F524B202028
:10401000204E6F74204D617070696E670000000063
:1040200024000020434F4D4D414E445F5345544EB4
:104030004554574F524B2020204D617070696E6778
:1040400020202025640A00000B000020080000202A
:10405000434F4D4D414E445F534554574946495097
:10406000415353574F524420256420257320256423
:104070002025730A000000000E00002010B5002467
:1040800007A12046FDF71CFCFEF7AEFE10B1641C34
:10409000032CF9DBBDE8104007A10020FDF710BCA0
:1040A00070726F636573735F574946495F5253542B
:1040B0002053746172740A0070726F636573735F6A
:1040C000574946495F52535420456E640A00000028
:1040D0000378302202EB13130B70037803F00F0305
:1040E00030334B70437802EB13138B70437803F03B
:1040F0000F033033CB70837802EB13130B7183788B
:1041000003F00F0330334B71C37802EB13138B7141
:10411000C37803F00F033033CB71037902EB131331
:104120000B72037903F00F0330334B72437902EBC8
:1041300013128A72407900F00F003030C872704755
:10414000F0B50446012187B08803FDF711F801217D
:104150000420FDF70DF82E4E3046FEF75BFB701580
:10416000ADF8000003258DF802501820294F8DF876
:10417000030069463846FCF743FD3015ADF80000F2
:1041800004208DF8030069463846FCF739FD019498
:104190000024ADF80C400C20ADF80840ADF80E003E
:1041A000ADF80A40ADF8104001A93046FEF7AAFB71
:1041B00025208DF814008DF8154002208DF816008A
:1041C00001208DF8170005A8FCF77EFF012240F2C0
:1041D00025513046FEF77EFB01213046FEF710FBED
:1041E00001210820FCF7C4FF10208DF803008DF892
:1041F0000250C402084DADF8004069462846FCF75D
:10420000FFFC21462846FCF755FD07B0F0BD000035
:104210000038014000080140000C01402DE9F04148
:104220008046012186B04804FCF78AFF0121042062
:10423000FCF79EFF2D4E3046FEF7ECFA0424ADF855
:10424000004003258DF802501820294F8DF80300F7
:1042500069463846FCF7D4FC0820ADF800008DF81C
:10426000034069463846FCF7CBFC0024ADF80C400F
:104270000C20ADF80840ADF80E00CDF80480ADF884
:104280000A40ADF8104001A93046FEF73BFB26205E
:104290008DF814008DF815408DF8165001208DF81A
:1042A000170005A8FCF710FF012240F22551304607
:1042B000FEF710FB01213046FEF7A2FA012108208B
:1042C000FCF756FF10208DF803008DF80250C40251
:1042D000084DADF8004069462846FCF791FC2146A0
:1042E0002846FCF7E7FC06B0BDE8F081004400403A
:1042F00000080140000C014030313233343536378C
:1043000038394142434445465465726D696E616C6B
:10431000000000003443000800000020A401000059
:1043200004020008F4430008A4010020041E000059
:10433000C4320008013845020406082D01020304B6
:10434000041506070809845125027914290CB93986
:104350000114136932181766D1690C0A9F3929298B
:10436000C0501453081F90D3641033D135131A4B27
:1043700013180D280A53080F70A6C91020A1121394
:104380001A5A1317140553100750200F66EC1DF02E
:10439000801408910302D0AEE03516F410E24220FA
:1043A000F80A814271CE1C425B1C1C46113AB49043
:1043B0001312045AAA8A4DD42D011FB3212360FF82
:1043C000161F10504D06130F70D58A183F7F880BAB
:1043D00053454747455220525454CB2904130843B0
:1043E0001408331312200226043930121703272031
:0443F00010000000B9
:04000005080000ED02
:00000001FF
