:020000040800F2
:100000003020002001010008090100080B01000850
:100010000D0100080F010008110100080000000098
:1000200000000000000000000000000013010008B4
:100030001501000800000000170100081901000860
:100040001B0100081B0100081B0100081B01000820
:100050001B0100081B0100081B0100081B01000810
:100060001B0100081B0100081B0100081B01000800
:100070001B0100081B0100081B0100081B010008F0
:100080001B0100081B0100081B0100081B010008E0
:100090001B0100081B0100081B010008CD0A000815
:1000A0001B0100081B0100081B0100081B010008C0
:1000B000E9220008B52300089D2400081B01000860
:1000C0001B0100081B0100081B0100081B010008A0
:1000D0001B01000855280008B52A00081B0100086C
:1000E0001B0100081B0100081B010008DFF80CD0F1
:1000F00000F076F800480047993B000830200020C7
:100100000648804706480047FEE7FEE7FEE7FEE7B1
:10011000FEE7FEE7FEE7FEE7FEE7FEE799220008BE
:10012000ED00000840EA01039B0703D009E008C97D
:10013000121F08C0042AFAD203E011F8013B00F8AC
:10014000013B521EF9D27047D2B201E000F8012BF8
:10015000491EFBD270470022F6E710B513460A4647
:1001600004461946FFF7F0FF204610BD421C10F868
:10017000011B0029FBD1801A704730B504460020CE
:10018000034600E05B1C934203D2E05CCD5C401B65
:10019000F8D030BD30B505460020034600E05B1CBA
:1001A000934205D2EC5CC85C201A01D1002CF6D138
:1001B00030BD30B50B46014600202022012409E065
:1001C00021FA02F59D4205D303FA02F5491B04FA10
:1001D00002F52844151EA2F10102F1DC30BD000039
:1001E000064C074D06E0E06840F0010394E8070084
:1001F00098471034AC42F6D3FFF77CFF844A0008DE
:10020000A44A000870B58C1810F8015B15F00703BC
:1002100001D110F8013B2A1106D110F8012B03E09F
:1002200010F8016B01F8016B5B1EF9D12B0705D4A7
:100230000023521E0DD401F8013BFAE710F8013BF0
:10024000CB1A921C03E013F8015B01F8015B521E0C
:10025000F9D5A142D8D3002070BD00002DE9F043AC
:1002600085B00F46DDE90D5804461E4640F2C941EF
:100270001748DDF83090FFF76EFF65208DE84102EA
:10028000CDE903583B4613A1114805F1250203F0BF
:1002900053F90F48217800F10902417061788170AB
:1002A000A178C170E1780171217941716179817121
:1002B000A179C171E179017211A1002001F066FC00
:1002C00005B005F12F01BDE8F043014802F0AABED8
:1002D00062170020613030303030303030415053C0
:1002E0003131253034643031257325303364253085
:1002F00033642573253033642573454E440A00006A
:100300004150505F526573706F6E73655F426173E9
:1003100065496E666F2025730A00000070B50D46B2
:10032000044640F2C9410F48FFF715FF2A460EA1C7
:100330000C4803F001F90B48217841706178817015
:10034000A178C170E1780171217941716179817180
:10035000A179C171E1790172BDE87040172102F005
:1003600061BE000062170020613030303030303024
:1003700030415053313130303133303625303264F2
:100380000A0000002DE9F0410D4604461E461746BE
:1003900040F2C9411C48FFF7DEFE28461A4D0128ED
:1003A0001BD033463A4619A1284603F0C5F82078F9
:1003B00068706078A870A078E870E078287120797B
:1003C00068716079A871A079E871E07928721F21BD
:1003D000BDE8F0410C4802F025BE15A10A4803F023
:1003E000ABF8207868706078A870A078E870E07842
:1003F0002871207968716079A871A079E871E07935
:1004000028721721E4E700006217002061303030C5
:10041000303030303041505331313030323130347F
:100420003030257325303364454E440A0000000007
:100430006130303030303030304150533131303035
:100440003133303430310A0070B50D46044640F285
:10045000C9410F48FFF77FFE2A460EA10C4803F062
:100460006BF80B482178417061788170A178C17078
:10047000E17801712179417161798171A179C1714D
:10048000E1790172BDE87040172102F0CBBD000098
:1004900062170020613030303030303030415053FE
:1004A0003131303031333033253032640A000000CE
:1004B00070B50D46044640F2C9410F48FFF74BFEA8
:1004C0002A460EA10C4803F037F80B4821784170FA
:1004D00061788170A178C170E178017121794171F1
:1004E00061798171A179C171E1790172BDE87040D2
:1004F000172102F097BD00006217002061303030F4
:10050000303030303041505331313030313330358C
:10051000253032640A0000002DE9FF478846054671
:100520001F461446002640F2C9416E48FFF713FEED
:100530004046DFF8B08101281DD06BA1404602F093
:10054000FBFF297888F80110697888F80210A978EB
:1005500088F80310E97888F80410297988F80510DC
:10056000697988F80610A97988F80710E97988F878
:100570000810C14664E062A15A4802F0DDFF297804
:1005800088F80110697888F80210A97888F80310B3
:10059000E97888F80410297988F80510697988F8CD
:1005A0000610A97988F80710E97988F8081017214A
:1005B00091E000BF06EB460109EB81052068C5F814
:1005C0001600A0886883A07863792279E1788DE8A5
:1005D0000F006378227850A1002001F0D7FAE0885C
:1005E00057A1000A2877A0796877E288002001F0F7
:1005F000CDFA208957A1000AA877207AE8772289C6
:10060000002001F0C3FAA07AC0F3400290464107EF
:1006100003D5C0F3800342EA4308C0F3800352A12C
:10062000002001F0B3FA05F8208F207B6870424665
:1006300053A1002001F0AAFA0D34761C642E01DAD1
:10064000BE42B7DB0A20002F30DD07EB4701102246
:1006500002EB81044FF47A7194FBF1F2303289F8A5
:100660000E20642294FBF2F292FBF0F300FB1322C3
:10067000303289F80F2094FBF0F292FBF0F300FB8C
:100680001322303289F8102094FBF0F200FB124262
:10069000494630324A7409EB040145228A714E22E0
:1006A000CA7144220A72487200250AE00D490D24DD
:1006B0000025887519F8052036A1002001F066FA9A
:1006C0006D1C04F109008542F4DB34A1002001F027
:1006D0005DFA04F10A0104B00248BDE8F04702F0F7
:1006E000A1BC000062170020613030303030303063
:1006F00030415053313130303133303230300000FE
:100700006130303030303030304150533131303062
:100710003133303230310A0053797374656D496E6C
:10072000666F2025303278253032782530327825B2
:100730003032782530327825303278202020000081
:1007400068656172745F7261746520256420202081
:10075000200000006F66665F74696D657320256414
:1007600020202020000000006D6F733A25642020B7
:100770002066756E6374696F6E20256420202000EA
:100780006D6F735F615F66756E6374696F6E202550
:10079000640A000025303278200000000A000000C2
:1007A00070B503F0D7F8032117A002F03BFC4FF41B
:1007B000AF76304603F0F2F8144C4FF0FF35A089C5
:1007C000B8B1012212A11348FFF7D7FC88B903F092
:1007D000C1F801210EA002F025FC304603F0DEF83E
:1007E000A089032805D303220BA10A48FFF7C5FC03
:1007F00008B1284670BD09A1002001F0C7F903F037
:10080000A9F8002070BD00002B2B2B0070000020E9
:1008100061000000520F00202B6F6B004154203A02
:10082000612B6F6B0A00000010B503F093F80821EC
:100830000EA002F0F7FB4FF4967003F0AFF80E48ED
:100840004FF0FF3480890A2805D303220BA10C48FE
:10085000FFF793FC08B1204610BD0AA1002001F06B
:1008600095F903F077F8002010BD000041542B45A6
:100870004E544D0A00000000700000202B6F6B00EA
:100880005B0F002041542B454E544D203A2B6F6B8B
:100890000A00000010B59AB0044664216846FFF7CC
:1008A0005AFC03F057F8224617A1684602F044FEAE
:1008B0006A461CA1002001F069F96846FFF756FC62
:1008C000411C684602F0AEFB4FF47A7003F066F804
:1008D00015484FF0FF3480890A280AD36846FFF78D
:1008E00045FC12490322084411A1401CFFF745FCB6
:1008F00010B120461AB010BD0EA1002001F046F93B
:1009000003F028F80020F5E741542B57414B455997
:100910003D5750413250534B2C4145532C25730ABF
:10092000000000002573000070000020520F00201E
:100930002B6F6B0041542B57414B4559203A2B6F7D
:100940006B0A000010B59AB0044664216846FFF7B0
:1009500002FC02F0FFFF224617A1684602F0ECFD00
:100960006A461DA1002001F011F96846FFF7FEFB61
:10097000411C684602F056FB4FF47A7003F00EF803
:1009800016484FF0FF3480890A280AD36846FFF7DB
:10099000EDFB13490322084412A1401CFFF7EDFBB5
:1009A00010B120461AB010BD0FA1002001F0EEF8E2
:1009B00002F0D0FF0020F5E741542B5741503D3164
:1009C0003142474E2C4543555F52535F25732C41AE
:1009D00075746F0A0000000025730000700000208D
:1009E000520F00202B6F6B0041542B574150203A7F
:1009F0002B6F6B0A0000000010B502F0ABFF052161
:100A00000EA002F00FFB4FF4967002F0C7FF0D48E6
:100A10004FF0FF348089062805D303220AA10B4832
:100A2000FFF7ABFB08B1204610BD09A1002001F083
:100A3000ADF802F08FFF002010BD000041542B5A8A
:100A40000A000000700000202B6F6B00580F002080
:100A500041542B5A203A2B6F6B0A000010B501F05D
:100A600061FA01F055FA022001F0E2F901F0AAF969
:100A7000002000F020F800F013F8222000F0B2F877
:100A800006210A2001F057F92221652001F09AFB86
:100A9000102001F0CDF9BDE81040102001F0C8B9D8
:100AA00010B56C2001F0EAFA40F00301BDE81040F7
:100AB0006E2001F087BB10B507216A2001F082FB90
:100AC0003F21BDE810406B2001F07CBB70B51420C5
:100AD00002F064FF0E4C00264FF40070616801299B
:100AE00007D0054601460B4800F0FBF8012802D06C
:100AF00009E0666008E0A068401CA060012802DDF3
:100B00000120A66020702846BDE8704000F02CB897
:100B100060000020000C01403EB500F0D3FA012136
:100B2000084600F067FB0921012000F075F84FF43A
:100B30000070002400908DF8044008208DF8050016
:100B400001258DF80650684600F014F817208DF83E
:100B500008008DF8094003208DF80A008DF80B502D
:100B600002A800F0F3FA3EBD01490860704700009A
:100B70001404014030B51A498379026853B30B68F5
:100B800093430B600A1D13680468A3431360027942
:100B90000A441368046823431360114A0832136837
:100BA0000468A3431360131D1C680568AC431C60F4
:100BB0004479102C05D021440A68006802430A6079
:100BC00030BD116804682143116019680068014351
:100BD000196030BD0079084401689143016030BD5F
:100BE000000401400146682001F0ECBA10B569200C
:100BF00001F044FA20F00101BDE81040692001F045
:100C0000E1BA10B5692001F039FA40F00101BDE800
:100C10001040692001F0D6BA10B58A0721F003040C
:100C20000649130F21440F228C689A4094438C602C
:100C30008A68984002438A6010BD000000000140AD
:100C4000F0B5CA78002502F00F03D20601D58A78E4
:100C500013430A784FF00F0E12F0FF0F4FF001020E
:100C60001CD004680F8802FA05F63740B74211D14C
:100C70004FEA850C0EFA0CF724EA070703FA0CF486
:100C80003C43CF78282F02D0482F02D002E04661A3
:100C900000E006616D1C082DE4D304600C88FF2C75
:100CA0001ED944685FF0000606F1080702FA07F54E
:100CB0000F882F40AF420FD14FEA860C0EFA0CF787
:100CC000BC4303FA0CF73C43CF78282F00D1456191
:100CD000CF78482F00D10561761C082EE4D34460FC
:100CE000F0BD0246002092680A4200D00120704701
:100CF00041617047016170476A2001F0BFB900008F
:100D00002DE9F047214D0646287810B101280BD077
:100D10001DE0082001F08CF8FFF768FF00F03AF8BA
:100D20000528FBD101202870DFF8649000244FF4DF
:100D300000684FF4C87741464846FFF7D2FF0128C4
:100D40000BD0012002F02AFE641CBC42F3DB2878A1
:100D5000022804D00020BDE8F0870220287001F0AE
:100D60004BF90746002404E001F046F93055641CB5
:100D7000E4B2BC42F8D3002000F0A0FD0020FFF751
:100D80009AFE032028703846E5E700008400002022
:100D9000000C014010B5612001F070F900F00F0067
:100DA00010BD000000B513A387B00ECB8DE80E0078
:100DB000002103910491059120B1012818D0022847
:100DC00016D110E00A21684602F02AFA0A2103A887
:100DD00000F0DAFD0A2203A96846FFF7CEF910B148
:100DE000012007B000BD02F071F908B10220F8E758
:100DF0000020F6E759554E454E472041505300001C
:100E000010B50E4C40212046FFF772FF802120468E
:100E1000FFF76EFF80212046FFF76AFF0F2000F0EA
:100E20000FF840212046FFF765FF0F2000F008F87B
:100E30002046BDE810404021FFF75ABF000C01409A
:100E4000002100E0491C8142FCD3704770B5124D6F
:100E5000002440212846FFF74DFF0F20FFF7F0FF49
:100E600080212846FFF746FF01E0641CE4B28021A0
:100E70002846FFF736FFC00701D0FF2CF5D38021AD
:100E80002846FFF735FF40212846FFF731FFBDE830
:100E900070400F20FFF7D4BF000C014070B51A4E10
:100EA000002540213046FFF723FF0F20FFF7C8FF42
:100EB00080213046FFF71EFF0F20FFF7C1FF802182
:100EC0003046FFF717FF002440213046FFF712FF9E
:100ED0000F20FFF7B5FF80213046FFF702FF00F03B
:100EE00001020F20FFF7ACFF42EA4500C5B24021E6
:100EF0003046FFF7FDFE0F20FFF7A2FF641CE4B2AF
:100F0000082CE1D3284670BD000C014070B51B4E83
:100F1000054680213046FFF7EBFE00244021304695
:100F2000FFF7E6FE0F20FFF78BFFE8094FF0800187
:100F3000304602D0FFF7DEFE01E0FFF7D9FE0F20BA
:100F4000FFF77EFF40213046FFF7D4FE0F20FFF76A
:100F500077FF0F20FFF774FF6806050E641C082C4E
:100F6000DCD340213046FFF7C3FE80213046FFF737
:100F7000C1FEBDE870400F20FFF762BF000C0140CA
:100F800010B50E4C80212046FFF7B2FE802120468E
:100F9000FFF7B0FE40212046FFF7ACFE0F20FFF721
:100FA0004FFF80212046FFF7A3FE0F20FFF748FFE9
:100FB0002046BDE810404021FFF79ABE000C0140DA
:100FC00010B50C4C80212046FFF792FE8021204670
:100FD000FFF78EFE0F20FFF733FF40212046FFF77B
:100FE00089FE0F20FFF72CFF2046BDE8104080212E
:100FF000FFF780BE000C0140F8B50121082000F089
:10100000F9F84020ADF800001025114E8DF803507E
:1010100003248DF8024069463046FFF711FE802018
:10102000ADF8000014208DF803008DF802406946E9
:101030003046FFF705FE2020ADF800008DF8035084
:101040008DF8024069463046FFF7FAFDF8BD000012
:10105000000C014002494CF6CC400860704700008B
:101060000030004002494AF6AA200860704700009C
:1010700000300040014948607047000000300040E7
:101080000149886070470000003000400149086055
:10109000704700000030004008B50121082000F032
:1010A000A9F84FF48040ADF8000004208DF803004B
:1010B00003208DF8020069460148FFF7C1FD08BD15
:1010C000000C014008B50121082000F093F84FF40E
:1010D0000070ADF8000048208DF803006946024812
:1010E000FFF7AEFD08BD0000000C014038B501213E
:1010F000042000F07FF810208DF8030003208DF805
:101100000200074D4FF40064ADF8004069462846E0
:10111000FFF796FD21462846FFF7ECFD38BD00009D
:10112000000801404FF400610148FFF7E3BD0000F3
:10113000000801404FF400610148FFF7D9BD0000ED
:10114000000801404FF4A06000F032B870B50F23E2
:10115000C47801780122F4B1144C2468457804F471
:10116000E064C4F5E064240AC4F10406E340847832
:10117000B5401C402C4301F1E021230181F80034EB
:10118000007800F01F018A404009800000F1E02053
:10119000C0F8002170BD01F01F00824048098000A6
:1011A00000F1E020C0F8802170BD00000CED00E0EF
:1011B0000249084302490860704700000000FA0530
:1011C0000CED00E0044A0029D16901D0014300E0A0
:1011D0008143D1617047000000100240044A002999
:1011E000116901D0014300E08143116170470000A3
:1011F00000100240044A0029916901D0014300E037
:10120000814391617047000000100240044A0029A8
:10121000D16801D0014300E08143D16070470000F4
:101220000010024030B51F494A6812F00C031E4AF4
:1012300003D0042B01D0082B21D002604A680F2371
:101240001A4C03EA1212A35C0268DA4042604B684F
:10125000072505EA1323E35C22FA03F383604B6856
:1012600005EAD323E35CDA40C2604968032303EA5A
:101270009131231F595CB2FBF1F1016130BD4A6825
:101280004B6802F470124FF0020413F4803F04EB39
:10129000924202D04B689B0301D5054B00E0024B04
:1012A0005A43CAE70010024000127A003C000020B6
:1012B00000093D002DE9F04196B00D4606469846DE
:1012C00017460024202104A8FEF745FF20210EA880
:1012D000FEF741FFFB208DF810008DF8110015205E
:1012E0008DF8120008218DF8131031788DF8141044
:1012F00071788DF81510B1788DF81610F1788DF899
:10130000171031798DF8181071798DF81910297826
:101310008DF81A1069788DF81B10A9788DF81C10BB
:10132000E9788DF81D1029798DF81E1069798DF8EE
:101330001F108DF8207000218DF821808DF822106B
:101340008DF823100991032104AAC01C02E0535C0C
:10135000491C1C448842FADCE01704EB1060010AC7
:101360008DF8281020468DF82900FE208DF82A00DF
:101370008DF82B001C21104600F0F4FC0EA8FFF79E
:10138000BFFC1C2857D19DF83B00D82853D19DF8AD
:1013900014009DF83C1088424DD19DF815009DF831
:1013A0003D10884247D19DF816009DF83E108842B6
:1013B00041D19DF817009DF83F1088423BD19DF820
:1013C00018009DF84010884235D19DF819009DF80D
:1013D000411088422FD19DF81A209DF84200824288
:1013E00029D19DF81B309DF84300834223D19DF8FD
:1013F0001C509DF8440085421DD19DF81D409DF86C
:101400004500844217D19DF81E109DF84600814288
:1014100011D19DF81F009DF84760B0420BD1CDE976
:101420000210CDE9005406A1002000F0AFFB01201E
:1014300016B0BDE8F081142002F0B0FA0020F7E702
:1014400052464D3330305F42696E645F55696420A7
:101450002530327825303278253032782530327890
:1014600025303278253032780A0000002DE9F04727
:101470009AB00D46DDE9229A0646984617460024A2
:10148000202109A8FEF767FE202111A8FEF763FEC0
:10149000FB208DF824008DF8250015208DF82600FE
:1014A00000218DF8271032788DF8282072788DF879
:1014B0002920B2788DF82A20F2788DF82B20327905
:1014C0008DF82C2072798DF82D202A788DF82E2019
:1014D0006A788DF82F20AA788DF83020EA788DF878
:1014E00031202A798DF832206A790D910E918DF88C
:1014F0003320032109AAC01C02E0535C491C1C4490
:101500008842FADCE01704EB1060010A8DF83C1009
:1015100020468DF83D00FE208DF83E008DF83F00FE
:101520001C21104600F01EFC11A8FFF7E9FB1C2847
:101530007ED19DF84700D0287AD19DF828009DF8EB
:101540004810884274D19DF829009DF849108842BE
:101550006ED19DF82A009DF84A1088427ED19DF8F0
:101560002B009DF84B10884278D19DF82C009DF8F7
:101570004C10884272D19DF82D009DF84D10884284
:101580006CD19DF82E009DF84E10884266D19DF8D2
:101590002F009DF84F10884260D19DF830009DF8D3
:1015A000501088425AD19DF831009DF85110884260
:1015B00054D19DF832009DF8521088424ED19DF8CA
:1015C00033009DF85310884248D1387840F002002B
:1015D00038709DF8551061B320F0040038709DF804
:1015E00057009DF8561005AD00EB0120A9F800004A
:1015F0009DF859009DF8581000EB0120A8F8000054
:101600009DF85A408AF800403978B9F80030B8F8A7
:101610000020C1F3800085E81D00C1F340009DF863
:1016200033209DF832309DF83110CDE9032001E0E0
:1016300014E010E0CDE901139DF8300000909DF812
:101640002F309DF82E2008A1002000F09FFA0120E5
:101650001AB0BDE8F08740F00400BFE7142002F0A4
:101660009DF90020F4E7000052464D3330305F48CA
:10167000656172745F42656174202530327825306F
:10168000327825303278253032782530327825305E
:1016900032782020256420256420256420256420BC
:1016A0002564200A000000002DE9F04F93B00E469B
:1016B000DDE91C9807461C4692460025202103A818
:1016C000DDF878B0FEF747FD20210BA8FEF743FDBB
:1016D000FB208DF80C008DF80D0015208DF80E0004
:1016E0008DF80FA039788DF8101079788DF81110D9
:1016F000B9788DF81210F9788DF8131039798DF8C2
:10170000141079798DF8151031788DF816107178DC
:101710008DF81710B1788DF81810F1788DF8191030
:1017200031798DF81A1071798DF81B10002107910D
:101730000891032103AAC01C02E0535C491C1D440C
:101740008842FADCE81705EB1060010A8DF82410D6
:1017500028468DF82500FE208DF826008DF82700FC
:1017600000251C2103A800F0FDFA0BA8FFF7C8FA1A
:101770001C287DD19DF82F00D12879D19DF810002B
:101780009DF83010884273D19DF811009DF83110FA
:1017900088427AD19DF812009DF83210884274D1A7
:1017A0009DF813009DF8331088426ED19DF8140007
:1017B0009DF83410884268D19DF815009DF83510C9
:1017C000884262D19DF816009DF8361088425CD19F
:1017D0009DF817009DF83710884256D19DF81800E3
:1017E0009DF83810884250D19DF819009DF83910A5
:1017F00088424AD19DF81A009DF83A10884244D197
:101800009DF81B009DF83B1088423ED19DF83C009E
:101810000028207833D020F0020020709DF83D0091
:10182000002820782ED020F0040020709DF83F0082
:101830009DF83E1000EB0120A8F800009DF8410043
:101840009DF8401000EB0120A9F800009DF842200F
:101850008BF80020B9F80000B8F800108DE80700F8
:1018600020780DA1C0F38003C0F34002002000E007
:101870000BE000F08BF9012013B0BDE8F08F40F0D1
:101880000200CAE740F00400CFE76D1C032DFFF60D
:1018900068AF0020F0E7000052464D3330305F491A
:1018A0004F5F496E697420202564202564202564DB
:1018B000202564202564200A0000000010B530B106
:1018C000702000F0DBFBC0F18000C0B210BDBDE8AD
:1018D00010406F2000F0D2BB2DE9F041C7B2C0F339
:1018E000072615460C46FFF74BFBA020FFF70EFB23
:1018F000FFF7ACFA3046FFF709FBFFF7A7FA3846C7
:10190000FFF704FBFFF7A2FAFFF73AFBA120FFF76E
:10191000FDFAFFF79BFA09E0FFF7C0FA2870012CE7
:1019200001D9FFF76DFA641EE4B26D1C002CF3D1EF
:10193000FFF746FBBDE8F0414FF47A70FFF780BA3D
:1019400010B530B1024602212020FFF7C5FF00206C
:1019500010BD4FF0FF3010BD10B530B1024606216A
:101960001020FFF7B9FF002010BD4FF0FF3010BD71
:1019700010B530B1024601213020FFF7ADFF002045
:1019800010BD4FF0FF3010BD10B528B10246002049
:10199000FFF7A2FF002010BD4FF0FF3010BD10B5C3
:1019A00048B1F82202EBC103024606211846FFF7B0
:1019B00093FF002010BD4FF0FF3010BD10B548B1AF
:1019C000FE2202EBC103024601211846FFF784FF05
:1019D000002010BD4FF0FF3010BD10B548B1FF2200
:1019E00002EBC103024601211846FFF775FF0020F4
:1019F00010BD4FF0FF3010BD10B530B102460221CE
:101A00004020FFF769FF002010BD4FF0FF3010BDF0
:101A100010B528B102465020FFF75EFF002010BD30
:101A20004FF0FF3010BD2DE9F0410D46069C904669
:101A30006FF02F0621786278303901EB810106EBD7
:101A400041010A441F46A11C2A60FEF76BFB28686F
:101A5000E11C425CA11C241D405C303800EB80007E
:101A600006EB400002443A60286801194046FEF740
:101A700059FB0020BDE8F08170B515460E460446BE
:101A800003220CA1FEF786FB10B14FF0FF3070BDB2
:101A9000601D02F0F7F83060607AA17A303800EB10
:101AA00080006FF02F0202EB400008442860002005
:101AB00070BD00004150530070B515460E460446F7
:101AC00003220CA1FEF766FB10B14FF0FF3070BD92
:101AD000601D02F0D7F83060607AA17A303800EBF0
:101AE00080006FF02F0202EB4000084428600020C5
:101AF00070BD0000454355002DE9F041884600EBDC
:101B000040012148164600EBC104E16A01F00300E0
:101B100002280BD0A06A626A801A401E01D5226A90
:101B20001044864202DD89072BD006464EB30027BB
:101B3000A06A616A451A6D1E01D5206A0544D4E980
:101B40000801411AA94201DC616A451AB54200DB6D
:101B50003546616AE0692A4608444146FEF7E2FAE2
:101B6000606A2F44A844761B28446062606A216A38
:101B7000884201D100206062002ED9D13846BDE8EC
:101B8000F0810020FBE70000AC0100200FB408B595
:101B900004A900916A46039900F004F801B05DF8C9
:101BA00014FB00002DE9F04198B0064607A802900A
:101BB00040200025CDE90305CDE9055690460C46A9
:101BC00014F8011B002971D0252908D002A801F0C2
:101BD00093FC05980028F3DA18B0BDE8F0810020E6
:101BE000217823291BD02B2916D02D290ED030295E
:101BF0000FD000222178A1F130030A2B13D202EB7F
:101C0000820201EB4202303A641CF3E740F001002B
:101C100007E040F0020004E040F0040001E040F082
:101C20000800641CDCE70023CFB22E2F0CD100BFCC
:101C300014F8011FA1F130070A2F05D203EB83032B
:101C400001EB4303303BF3E76C290DD068290BD03F
:101C5000702954D00BDC252916D0582931D063299E
:101C60000CD0642913D114E014F8011BECE773299C
:101C700034D075291BD0782909D122E0D8F800008A
:101C8000011DC8F80010017802A801F035FC641CA1
:101C90009FE7D8F800100F1DC8F800700968CDE95B
:101CA00000200A2202A801F057FBF0E733E0D8F841
:101CB00000100F1DC8F800700968CDE900200A2245
:101CC00008E0D8F800100F1DC8F800700968CDE9C9
:101CD0000020102202A801F0A1FBD8E7D8F80000EC
:101CE000011DC8F80010076817F8011B0029CED0A5
:101CF00002A801F001FC05980028F5DAC7E7D8F83A
:101D00000000011DC8F8001001680820CDE9000599
:101D100003461022DEE7059800287FF75DAF0498A0
:101D200020B1024607A93046FFF7E6FEDDE90401CF
:101D30000844059050E770B505460C46662000F053
:101D40009DF900F0E0012943662000F03BFA67208E
:101D500000F094F900F0E0012143BDE870406720F5
:101D600000F030BA70B506460D46084600F0B6F8E9
:101D7000FEF747FFFEF794FE022000F059F800BF7F
:101D8000FFF708F80228FBD1002404E0305D00F0E2
:101D9000D9F9641CE4B2AC42F8D3402000F048F812
:101DA000FEF7AAFF0828FBD10020FEF784FE1020D2
:101DB00000F03EF8024900200870012070BD0000CC
:101DC0008400002070B51948417804291AD2DB300C
:101DD00000F12504A0F15B05012904D002290AD0F5
:101DE00003291BD00EE0114911228231FEF79AF926
:101DF000B5F8130005E00D4911229531FEF792F96F
:101E0000E88CA082094D0024BB352046295D00F0F6
:101E1000D9F9641CE4B2602CF7D370BD03491122D8
:101E2000A831FEF77FF9B5F83900EAE78400002011
:101E30000146602000F0C6B90CB50021254801918B
:101E40000091026842F4803202604FF4A06302689D
:101E500002F400320092019A521C0192009A12B9C7
:101E6000019A9A42F3D10268920331D5012100917F
:101E700019490A6842F010020A600A6822F0030257
:101E80000A600A6842F001020A60416841604168E4
:101E9000416041684160416821F47C1141604168C2
:101EA00041F4F8114160016841F0807101600168FE
:101EB0008901FCD5416821F003014160416841F08E
:101EC000020141604168C1F381010229FAD10CBDD0
:101ED00000910CBD001002400020024010B50446E5
:101EE0000220FFF7A5FF452000F0C8F800F08F00A2
:101EF000C4F3022140EA0111452000F063F9E1B288
:101F0000462000F05FF9BDE810401020FFF790BFB9
:101F100010B5FF217F2000F055F9BDE810401420D6
:101F200001F03CBD2DE9F84F01210820FFF762F9CF
:101F30004FF48046ADF800601025DFF8B8A08DF8AA
:101F4000035003248DF8024069465046FEF778FEA0
:101F500001210820FFF74EF96F02ADF800708DF8EF
:101F600003508DF8024069465046FEF769FE012194
:101F70000820FFF73FF94FF48058ADF800808DF846
:101F800003508DF8024069465046FEF759FE012184
:101F90000820FFF72FF94FF48069ADF800908DF815
:101FA00003508DF8024069465046FEF749FE012174
:101FB0000820FFF71FF9E801ADF8000048208DF870
:101FC00003008DF8024069465046FEF739FE394657
:101FD0005046FEF78FFE49465046FEF78BFE3146CF
:101FE0005046FEF787FE41465046FEF781FEBDE8AB
:101FF000F88F0000000C01402DE9F0410024FFF7AC
:1020000091FF1D4E4FF480613046FEF771FEFFF7E1
:1020100043F8082001F0D8FC0025B7144FF480489D
:102020006006040E39463046FEF762FE022001F0DB
:10203000CBFC39463046FEF75DFE022001F0C4FCC1
:1020400041463046FEF74DFE012801D144F001041F
:102050006D1CEDB2082DE3D339463046FEF748FE3D
:10206000042001F0B1FCFFF75DFF082001F0ACFC9B
:102070002046BDE8F0810000000C01402DE9F0474A
:10208000002440F08007FFF74DFF2D4E4FF4005124
:102090003046FEF72DFE022001F096FC0025B046EA
:1020A0004FF48049B61438064946404602D5FEF73B
:1020B00021FE01E0FEF71CFE31464046FEF718FE09
:1020C000022001F081FC31464046FEF713FE02205B
:1020D00001F07AFC78066D1C070EEDB2082DE2D3F4
:1020E000494647464046FEF705FEFEF7D5FF082560
:1020F0006006040E31463846FEF7FAFD022001F074
:1021000063FC31463846FEF7F5FD022001F05CFC29
:1021100049463846FEF7E5FD012801D144F00104A7
:102120006D1E15F0FF05E3D131463846FEF7E0FDA0
:10213000022001F049FCFFF7F5FE2046BDE8F087DC
:10214000000C01402DE9F0410546FFF7EBFE1C4E67
:102150004FF480613046FEF7CBFD082001F034FCDF
:1021600000244FF48048B71428064146304602D573
:10217000FEF7C0FD01E0FEF7BBFD39463046FEF735
:10218000B7FD022001F020FC39463046FEF7B2FDD3
:10219000022001F019FC6806641C050EE4B2082C4C
:1021A000E2D339463046FEF7A3FD042001F00CFCD3
:1021B000FFF7B8FEBDE8F041082001F005BC0000C3
:1021C000000C01402DE9F0470E4620F08007FFF794
:1021D000A9FE2A4C4FF400512046FEF789FD02204B
:1021E00001F0F2FB00254FF480494FF48058380687
:1021F0004946204602D5FEF77DFD01E0FEF778FD59
:1022000041462046FEF774FD022001F0DDFB414609
:102210002046FEF76FFD022001F0D6FB78066D1C0C
:10222000070EEDB2082DE2D3002547463006494699
:10223000204602D5FEF75EFD01E0FEF759FD394666
:102240002046FEF755FD022001F0BEFB3946204630
:10225000FEF750FD022001F0B7FB70066D1C060E64
:10226000EDB2082DE2D339462046FEF741FD0220AB
:1022700001F0AAFBBDE8F047FFF754BE000C014097
:102280004FF0E0210428086903D020F00400086121
:10229000704740F00400FAE70F4810B5016841F0BC
:1022A0000101016041680D4A1140416001680C4A1A
:1022B00011400160016821F480210160416821F42E
:1022C000FE0141604FF41F018160FFF7B5FD054934
:1022D0004FF00060086010BD001002400000FFF8E1
:1022E000FFFFF6FE08ED00E070B501218C072046E7
:1022F00000F047F9002825D00121204600F034F9EC
:10230000114C0125E078401CE070A068401CA060E2
:10231000A57001F03FFC0026E670207901280BD162
:10232000607928B10020607120B1FEF703FF03E05F
:102330000120F8E7FEF7F6FE0449A068884201DDB7
:102340006570A66070BD0000A001002080510100F2
:102350007FB50C46054601210846FEF733FFADF870
:102360000450ADF8004000244FF08045ADF8064021
:10237000ADF802406946284600F018F901221146DE
:10238000284600F00AF91C208DF80C0001218DF878
:102390000D1003208DF80E008DF80F1003A8FEF726
:1023A000D5FE0121284600F0E2F8014884707FBD87
:1023B000A001002010B5104C0121204600F0E1F8EA
:1023C000002817D00121204600F0CEF80B490878EC
:1023D000401C40B2087001280CDD09A10020FFF765
:1023E000D5FB0C49002008700B490880BDE810405F
:1023F00000F014B810BD000000040040A00100204F
:1024000054494D335F49525148616E646C65720A9C
:1024100000000000730000207C0000200349002021
:1024200008700146024800F0A2B80000A001002098
:10243000000400407FB50C46054601210220FEF74E
:10244000C1FEADF80450ADF800400024114DADF8C8
:102450000640ADF802406946284600F0A7F8012280
:102460001146284600F099F81D208DF80C00012136
:102470008DF80D1003208DF80E008DF80F1003A8B5
:10248000FEF764FE0121284600F071F8024804704E
:102490007FBD000000040040A001002010B50E4CDC
:1024A0000121204600F06DF8002814D001212046BB
:1024B00000F05AF809498879401C40B28871012817
:1024C00009DD074902200870064900200880BDE8A0
:1024D000104000F009B810BD00080040A001002025
:1024E000710000207400002003490020887101461B
:1024F000024800F03CB80000A001002000080040A5
:102500007FB50C46054601210420FEF75BFEADF8C1
:102510000450ADF800400024114DADF80640ADF870
:1025200002406946284600F041F80122114628463B
:1025300000F033F81E208DF80C008DF80D400320BC
:102540008DF80E0001208DF80F0003A8FEF7FEFDA8
:102550000121284600F00BF8024884717FBD00007D
:1025600000080040A0010020C943018270470029F3
:10257000018802D041F0010101E021F00101018058
:10258000704702460020138A92890B4202EA010238
:1025900002D0002A00D001207047002A828901D091
:1025A0000A4300E08A4382817047000030B5028808
:1025B0001B4B1C4C98420DD0A0420BD0B0F1804F69
:1025C00008D0194DA84205D0184DA84202D0184D88
:1025D000A84203D122F070054A882A43154DA8422B
:1025E00006D0154DA84203D022F44075CA882A436C
:1025F00002808A8882850A88028598420AD0A04291
:1026000008D00E4A904205D00D4A904202D00D4AA1
:10261000904201D1097A01860121818230BD0000FA
:10262000002C01400034014000040040000800403C
:10263000000C004000100040001400400040014029
:1026400000440140004801402DE9F0410E4680461B
:1026500000240A4D0DE000BF18F804704021284600
:1026600000F094FA0028F9D03946284600F026FBFD
:10267000641CB442F0DB2046BDE8F0810038014024
:102680002DE9F047704C00258246258160786F4E19
:102690004FF0020841F61F49022827D02AE000BF68
:1026A000FFF722FFA1882089081A80B260810128E3
:1026B00006D0022808D003280ED005281ED00EE030
:1026C0003078452803D10AE07078432807D0A580E8
:1026D000258184F8018002E0B0785528F7D1494679
:1026E0009520FFF70DFF2089401C20812189A088BB
:1026F0008142D5D36078032824D028E0032060707D
:1027000049469520FFF7FCFEF4E700BFFFF7ECFE1B
:10271000A0882189401A80B26081092807D03946F3
:102720009520FFF7EDFE2089401C20810BE0701DF5
:1027300001F0A8FAE0800420607039469520FFF788
:10274000DFFE04E04F462189A0888142DED3607815
:1027500004281BD01FE000BFFFF7C6FEA088218918
:10276000401A81B26181E088C01E884206D10520EE
:10277000607039469520FFF7C3FE0CE0394695207E
:10278000FFF7BEFE2089401C208100E04F462089D3
:10279000A1888842E0D3607805284FD0BDE8F08753
:1027A000FFF7A2FEA0882189401A80B26081E788E5
:1027B000B91E814208D1F11911F8031C452903D033
:1027C000A580258184F80180791E814208D1F11904
:1027D00011F8021C4E2903D0A580258184F80180C0
:1027E000874224D1B8B2304410F8010C442803D0F9
:1027F000A580258184F801804FF400711448FDF70D
:10280000AAFC3A4611491248FDF78CFCE0881049B1
:10281000CAF800000D540120207084F80180A580C2
:1028200025814946BDE8F0479520FFF769BE494636
:102830009520FFF765FE2089401C20812089A18812
:102840008842ADD3AAE7000070000020520D00209E
:102850005207002010B50C4C40F22551204600F0E4
:102860009CF900280ED0204600F024FA0849074BB6
:102870008A889854521C90B28880B0F5007F01D3AA
:102880000020888010BD000000380140520D00205B
:102890007000002010B59AB0044664216846FDF728
:1028A0005AFC224607A1684600F046FE6A460AA185
:1028B0000020FFF76BF910216846FFF7C5FE1AB03C
:1028C00010BD0000454355313130303136303525AB
:1028D000303264454E4400005553415254315F52EA
:1028E0006573706F6E73655F464143544F52592054
:1028F00025730A0030B599B00D4604466421684638
:10290000FDF729FC7CB122460AA1684600F014FEBE
:102910006A4610A10020FFF739F91C216846FFF72D
:1029200093FE19B030BD2B46224611A1684600F037
:1029300003FEEDE745435531313030323830322532
:10294000303264303030303030303030303030453C
:102950004E4400005553415254315F526573706FBD
:102960006E73655F524541445F49442025730A00F8
:1029700045435531313030323830322530326425DC
:1029800073454E440000000010B59AB0044664211F
:102990006846FDF7E0FB224607A1684600F0CCFD43
:1029A0006A460AA10020FFF7F1F810216846FFF7F8
:1029B0004BFE1AB010BD0000454355313130303167
:1029C00036303125303264454E4400005553415273
:1029D00054315F526573706F6E73655F5345545F1A
:1029E00049442025730A000010B59AB004466421BA
:1029F0006846FDF7B0FB224607A1684600F09CFD43
:102A00006A460AA10020FFF7C1F810216846FFF7C7
:102A10001BFE1AB010BD0000454355313130303136
:102A200036303425303264454E440000555341520F
:102A300054315F526573706F6E73655F5345545FB9
:102A40004E4554574F524B2025730A0030B599B06C
:102A50000C46054664216846FDF77DFB23462A4661
:102A600007A1684600F068FD6A460BA10020FFF749
:102A70008DF812216846FFF7E7FD19B030BD000060
:102A800045435531313030313830332530326425CB
:102A9000303264454E4400005553415254315F5228
:102AA0006573706F6E73655F544553542025730AC8
:102AB0000000000010B50E4C40F22551204600F0F9
:102AC0006CF8002812D0204600F0F4F80A4C094AAD
:102AD000A1895054491C8AB2A281B2F5806F05D3F6
:102AE00006A10020FFF752F80020A08110BD0000D1
:102AF00000440040520F0020700000202564200A8E
:102B0000000000000029818902D041F4005101E059
:102B100021F4005181817047174910B588420AD1CC
:102B200001218C032046FEF771FB2046BDE81040D2
:102B30000021FEF76BBB1149884202D101214C04F0
:102B400010E00F49884202D101218C040AE00D49AE
:102B5000884202D10121CC0404E00B4988420AD109
:102B600001210C052046FEF739FB2046BDE8104048
:102B70000021FEF733BB10BD003801400044004087
:102B800000480040004C0040005000400246002039
:102B900012880A4200D00120704730B501F01F02B0
:102BA00001240025C1F3421304FA02F2012B0FD0D5
:102BB000022B0FD0838A4FEA11210088134204FAB6
:102BC00001F400EA040001D000B10125284630BD1F
:102BD0008389F0E7038AEEE710B5C1F3421301F0F1
:102BE0001F040121A140012B07D0022B07D0143074
:102BF000002A026805D00A4304E00C30F8E71030E0
:102C0000F6E78A43026010BD30B50446008A85B0FD
:102C10000D464CF6FF710840E98801432182A189E5
:102C20004EF6F3100140A8882A8910436A890A43A6
:102C30001043A081A08A4FF6FF410840A9890143B3
:102C4000A1826846FEF7EEFA1948844201D1039842
:102C500000E00298A189090400EBC00101EB00101B
:102C6000296801D5490000E08900B0FBF1F0642239
:102C7000B0FBF2F109010B096FF018056B4300EB93
:102C80008300A3891D044FF0320306D503EBC00077
:102C9000B0FBF2F000F0070005E003EB0010B0FB22
:102CA000F2F000F00F000843208105B030BD0000B5
:102CB000003801408088C0F308007047C1F3080164
:102CC0008180704770B500260546741EC82000F04C
:102CD00065FEFDF765FD20B1761C032EF6DB401C7A
:102CE00034D0C82000F05AFE0026C82000F056FE5E
:102CF0002846FDF7CFFD20B1761C032EF5DB401CE6
:102D00001AD00025C82000F049FEFDF775FE002806
:102D100011D06D1C032DF5DB0025C82000F03EFE10
:102D2000FDF782FD20B16D1C032DF6DB401C0DD09C
:102D300000F064F9002070BD0025C82000F02EFED0
:102D4000FDF772FD10B16D1C032DF6DB204670BD42
:102D500070B500260546741EC82000F01FFEFDF762
:102D60001FFD20B1761C032EF6DB401C2DD0C820A1
:102D700000F014FE0026C82000F010FE2846FDF7E3
:102D8000E1FD1DA0FDF786FD20B1761C032EF2DBD0
:102D9000401C25D00025C82000F000FEFDF72CFEC9
:102DA000002811D06D1C032DF5DB0025C82000F094
:102DB000F5FDFDF739FD20B16D1C032DF6DB401C40
:102DC00018D000F01BF9002070BD0025C82000F0CD
:102DD000E5FDFDF729FD68B16D1C032DF6DB09E06B
:102DE0000025C82000F0DAFDFDF71EFD10B16D1CB6
:102DF000032DF6DB204670BD38383838383838387F
:102E0000000000002DE9F047794C8246002525821C
:102E10002046E778774E82894FF001093FB109E0FB
:102E2000131A9BB26382012B07D0401C2082208A98
:102E30009042F5D3012F2DD030E0307861286ED14B
:102E400084F8039026E0022801D170780870208A67
:102E5000032801D1B0784870208A04280AD00528B8
:102E60000BD006280CD007280DD008280ED0092832
:102E700018D00DE0F2788A700AE03279CA7007E063
:102E800072790A7104E0B2794A7101E0F2798A71CB
:102E9000401C2082208AA2899042D4D3E078022864
:102EA00004D027E0307AC8710220E070737AB77AD4
:102EB00096F80BC0A289218A91421BD2501A80B287
:102EC00060820A2806D00B2807D00C2808D00E28CC
:102ED0000AD00CE0412B58D109E0502F55D106E023
:102EE000BCF1530F51D102E00320E07018E0491CFF
:102EF0002182E0E7E078032812D015E00A1A92B2A6
:102F00006282122A02D0401C20820AE039480E3028
:102F100000F0B8FE0930E0810420E07007E034E002
:102F2000A189208A8842E9D3E078042817D1258234
:102F3000E189A289C91E0FE081420BD10520E07012
:102F40000A2000F02BFD41F61F4140F22B10FFF745
:102F500071FA04E0401C2082208A9042ECD3E07891
:102F6000052815D12582E789B4F80CC0B81E791E52
:102F70003E4439E0ACEB02039BB26382984209D134
:102F800016F8038CB8F1450F04D0A5812582E570B1
:102F9000BDE8F087994204D116F8028CB8F14E0FC3
:102FA000F3D19F421ED116F8010C4428EDD14FF405
:102FB00080611148FDF7CFF80E49A7F109020931E8
:102FC0000D48FDF7AFF8E0890B490938CAF8000051
:102FD0000D5484F80290E570A5812582BDE8F04784
:102FE000FFF71CBA521C2282228A6245C2D3CFE765
:102FF00070000020520F00205209002070B5084DCB
:103000004FF4004421462846FDF774FE40F6B830E0
:1030100000F0C4FC21462846FDF76AFE002070BD82
:10302000000C01402DE9F0410E46804600240A4D77
:103030000DE000BF18F8047040212846FFF7A6FDF8
:103040000028F9D039462846FFF738FE641CB44200
:10305000F0DB2046BDE8F0810044004070B500245C
:10306000651EC82000F09AFCFDF79AFB20B1641C95
:10307000032CF6DB401C1DD0C82000F08FFC002480
:10308000C82000F08BFCFDF7B7FC002811D0641CB1
:10309000032CF5DB0024C82000F080FCFDF7C4FB06
:1030A00020B1641C032CF6DB401C0DD0FFF7A6FFFB
:1030B000002070BD0024C82000F070FCFDF7B4FBB8
:1030C00010B1641C032CF6DB284670BD70B50024DB
:1030D000651EC82000F062FCFDF762FB20B1641C95
:1030E000032CF6DB401C0CD00024C82000F056FC5A
:1030F000FDF79AFB002803D0641C032CF5DB28465F
:1031000070BD0024C82000F049FCFDF78DFB0028AD
:10311000F6D0641C032CF5DBF1E700002DE9F0414B
:10312000DFF86C80C7B2C0F307260C461546202195
:103130004046FDF7DDFDFDF723FFA020FDF7E6FE8D
:10314000FDF784FE3046FDF7E1FEFDF77FFE3846D1
:10315000FDF7DCFEFDF77AFE07E02878FDF7D6FEE6
:10316000FDF774FE641EE4B26D1C002CF5D1FDF772
:1031700027FF4AF6C870FDF763FE20214046FDF7A1
:10318000B9FDBDE8F0414FF47A70FDF759BE00007B
:10319000000C014038B50446002000902246022170
:1031A0002020FFF7BBFF6A4602212020FEF794FB98
:1031B000022269462046FCF7E0FF002800D00120EB
:1031C00038BD1CB50446002000900190224606211F
:1031D0001020FFF7A3FF6A4606211020FEF77CFBB4
:1031E000062269462046FCF7C8FF002800D00120CF
:1031F0001CBD38B504460020009022460121302035
:10320000FFF78CFF6A4601213020FEF765FB0122A3
:1032100069462046FCF7B1FF002800D0012038BDE8
:103220003EB5054600200C46009001902A460290CB
:10323000FFF774FF6A4621460020FEF74DFB224649
:1032400069462846FCF799FF002800D001203EBDC2
:103250007CB50546002000900190F82000EBC104E9
:103260002A4606212046FFF759FF20466A460621D6
:10327000FEF732FB062269462846FCF77EFF00284F
:1032800000D001207CBD13B582B000208DF8000075
:10329000FE2000EBC100044602AA0121FFF73EFF19
:1032A00020466A460121FEF717FB0122694602A863
:1032B000FCF763FF002800D0012004B010BD13B557
:1032C00082B000208DF80000FF2000EBC100044612
:1032D00002AA0121FFF722FF20466A460121FEF7DC
:1032E000FBFA0122694602A8FCF747FF002800D03C
:1032F000012004B010BD38B50446002000902246DD
:1033000002214020FFF70AFF6A4602214020FEF713
:10331000E3FA022269462046FCF72FFF002800D07E
:10332000012038BD3EB50546002000900190029076
:103330000C462A465020FFF7F1FE6A4621465020EF
:10334000FEF7CAFA224669462846FCF716FF00280F
:1033500000D001203EBD00002DE9FC5F0E0081463B
:10336000DDE90C47C6F1000098469346824600D43A
:103370000846012503E000BFB0FBFBF06D1C58457B
:10338000FAD2A84500D9454624B1002E01DB7807C2
:1033900000D5641EB80702D5B8F1000F10D0F807A9
:1033A0000ED16CB12046641EA84209D9202148469E
:1033B00000F0A2F8D9F80C000028F2DABDE8FC9F72
:1033C000002E02DA56462D2102E0780707D52B2180
:1033D000484600F091F8D9F80C000028EEDB07F021
:1033E0000300022810D1B8F1000F0DD164B12046BE
:1033F000641EA84208D93021484600F07DF8D9F86B
:103400000C000028F2DAD9E7CDE9004743465A46D6
:103410003146484600F002F8D0E700002DE9F84FA9
:103420008246DDE90A4B0126984691460D4608463C
:10343000374602E0B0FBF9F07F1C4845FAD2B845A8
:1034400000D947465FEACB701CD1DCB15FEA8B70D4
:1034500002D5B8F1000F02D0202000900AE0302001
:10346000FBE75046009900F047F8DAF80C00002816
:103470003EDB3CB12046641EB842F2D802E000BFF9
:1034800006FB09F6B5FBF6F1494501D3012100E041
:1034900000214246A8F10108012A01DD012000E0D7
:1034A00000200143ECD1DFF84C8000BFB5FBF6F003
:1034B00000FB165518F80010504600F01DF8DAF819
:1034C0000C00002803DBB6FBF9F6002EEED15FEA14
:1034D000CB700DD0002C0BD02046641EB84207D90B
:1034E0002021504600F008F8DAF80C000028F1DA44
:1034F000BDE8F88FC049000810B50446D4E9013092
:10350000421C934205DB23681954A260E068401C0A
:10351000E060D4E90102824209D121682069FEF706
:10352000EBFAA168884203D04FF0FF30E06010BD95
:103530000020A06010BD00000FB4084B10B504A916
:1035400002AA039800F036F8044602A9002000F011
:10355000D2F9204610BC5DF814FB0000F7380008D3
:1035600002E008C8121F08C1002AFAD1704770474C
:10357000002001E001C1121F002AFBD170470000AA
:103580000B49498848434FF0E021486100228A6195
:10359000086940F0010008610869C30701D0C00351
:1035A000FAD5086920F0010008618A6170470000BF
:1035B0006C0000202DE9FF4F8BB0884605460026A1
:1035C00006E025280BD0DDE90D1290476D1C761C16
:1035D00028780028F5D10FB03046BDE8F08F0024E0
:1035E000A146A2460122AE4900E0044315F8013F7E
:1035F000203B02FA03F00842F7D128782A2810D09D
:103600006FF02F022878A0F13001092915D809EBB5
:10361000890102EB410144F0020400EB01096D1C39
:10362000F0E758F8041B5FEA010903D544F400549D
:10363000C9F1000944F002046D1C28782E2817D126
:1036400015F8010F44F004042A280ED06FF02F0261
:103650002878A0F1300109290AD80AEB8A0102EB87
:10366000410100EB010A6D1CF2E758F804AB6D1C38
:1036700028786C280FD006DC4C2817D068280DD08D
:103680006A2814D104E0742810D07A280FD10DE0F4
:1036900044F400140AE044F4801401E044F44014BB
:1036A0006978814202D104F580146D1C6D1C287864
:1036B000692865D006DC00288DD0632827D06428CF
:1036C00006D15DE06E2808D073282AD0752877D0FF
:1036D000DDE90D129047761CE0E0C4F302500228A9
:1036E00009D003280DD0D8F8001004280DD00E60A2
:1036F00008F10408D2E0D8F80010F217C1E900621E
:10370000F6E7D8F800100E80F2E70E70F0E718F830
:10371000041B8DF8001000208DF80100EB460120FD
:1037200003E058F804BB4FF0FF3061074FF000078B
:1037300001D40AE07F1C57450DDA8742FADB1BF8FB
:1037400007100029F6D106E07F1C8742FCDB1BF83E
:1037500007100029F8D1DDE90D23A9EB0700814608
:10376000214600F0B1F83044C61904E0DDE90D123D
:103770001BF8010B90477F1EF8D22146484688E08F
:1037800058F8040BC4F302514FF00A0B032900D17F
:1037900000B2042900D140B2002802DA40422D21B3
:1037A00002E0210505D52B218DF82410012104E02C
:1037B00006E0E10710D02021F6E708AF089113E0FA
:1037C00058F8040BC4F302514FF00A0B032900D13F
:1037D00080B2042900D1C0B20021EEE75946FCF7BF
:1037E000E8FC303107F8011D0028F7D1ADEB0700E8
:1037F00000F1200B600702D524F4803401E04FF083
:10380000010ADA4502DDAAEB0B0000E00020824647
:1038100000EB0B0108980144A9EB01000A90E003BA
:1038200006D4DDE90D2321460A9800F04DF8064440
:103830004FF0000908E009A911F80900DDE90D12AF
:10384000904709F10109761C08998945F3DBE003EB
:103850000CD5DDE90D2321460A9800F035F8064421
:1038600004E0DDE90D1230209047761CBAF100012A
:10387000AAF1010AF5DC05E0DDE90D1217F8010BEC
:103880009047761CBBF10001ABF1010BF4DC0A9808
:103890002146DDE90D2300F005F806446D1C97E68E
:1038A000092801002DE9F041044600251E4617466F
:1038B000880404D405E039462020B0476D1C641EFE
:1038C000F9D52846BDE8F0812DE9F04104460025F0
:1038D0001E469046C80301D5302700E02027880403
:1038E00004D505E041463846B0476D1C641EF9D545
:1038F0002846BDE8F0810A68531C0B6010707047C1
:10390000F8B500200090C8170D4601EB1060010AC1
:103910008DF8001028468DF8010016466846FFF71E
:10392000EAFC002412E000BF04EB440006EB400078
:10393000611CFFF78DFC611C0020FFF7A4FC611CDB
:103940000220FFF7BCFC641C642C01DAAC42EBDB08
:103950000020F8BD02480021C1708181704700003D
:103960007000002010B50420FEF78AFC08480949C1
:103970000068B0FBF1F0C1B2074801EB41020170F1
:10398000C2EBC1114FF6FF7202EAC101418010BDC6
:103990004C00002040420F006C00002070B54FF436
:1039A000E9750446A84203DABDE87040FFF7E8BDB8
:1039B0004FF4C8763046FFF7E3FDA4F5C874AC4277
:1039C000F8DAA0B2F0E700000B49097848434FF05D
:1039D000E021486100228A61086940F00100086125
:1039E0000869C30701D0C003FAD5086920F00100B7
:1039F00008618A61704700006C0000201CB5144803
:103A0000FDF7AAFF1349124800F0C6FE1248FDF761
:103A100097FF1148D022114C41780078303800EBE4
:103A2000800002EB40000844C0B2207000F032FE7B
:103A30000B48FDF79DFF0A492078074B0978054A96
:103A4000CDE9000107490020FEF7A0F800201CBDC9
:103A50000000002028020020080000200B000020A9
:103A60000C000020404A0008F0B589B000250795F9
:103A70008DF81C5007468DF8205004468DF81D50D7
:103A80002E46FF2206212046FCF75EFBE5802581BD
:103A900014F80A0F761C20F03E0004F8030B642E85
:103AA000EFDB07A8FDF7A8FF9DF81D009DF81C108F
:103AB000244E00EB01206428306001DD356000E019
:103AC00008B9FDF737FB20A100203268FEF75EF849
:103AD0003C46002530E0691C2046FDF760FF691C6C
:103AE00008A8FDF76BFF9DF820000128A07A02D0FE
:103AF00020F0010001E040F00100A072691C04F117
:103B00000B00FDF76AFFA17AE07A01F00101637909
:103B10002279CDE90510CDE903236078E278A17818
:103B20008DE8070023786A1C0CA10020FEF72EF810
:103B30000D346D1C642D02DA30688542CBDB09B090
:103B40000020F0BD1000002076616C69644E756D38
:103B5000203A256420202020200A00007569642571
:103B6000643A202530327825303278253032782575
:103B70003032782530327825303278202020626942
:103B80006E643A2564206368616E6E656C3A2564E4
:103B90000A000000FDF766BAFFF7E4FEFDF7D2FA6F
:103BA000FDF72AFAFDF7A2FAFCF7B6FFFDF78AFA4D
:103BB000FCF754FF4FF46144204600F025FE2046F8
:103BC00000F090FE41F61F4141F28730FEF7C0FB46
:103BD00000F04EFD1BA10020FDF7D8FFFFF70EFF00
:103BE0001B48FFF741FF1B4E1B4FDFF8708000247E
:103BF000DFF86C9000F0FCFC1A48FEF741FD3078CD
:103C0000012807D1184A19A10020FDF7BFFF00F0D5
:103C1000EBF934703878012802D100F0A5F93C7036
:103C200098F800004546012802D100F0F7FC2C70FE
:103C300099F800004D460128DCD100F03BF82C70CB
:103C4000D8E70000696E6974204F4B200A0000001D
:103C5000350200207000002060000020A10100203B
:103C6000A201002028000020520700205553415295
:103C700054315F526563765F4576656E74202573B7
:103C80000A0000000178C278303901EB4103C3EB30
:103C9000C11102EBC102417880786423594300EBE3
:103CA000800001EB40001044A0F5A050D03880B255
:103CB000704700002DE9F04FDFF888B287B0DBF8DD
:103CC0000000002873DD00F093FC9F4C9F4DA04E38
:103CD0002068DFF880A200EB800101EBC0004119F1
:103CE00001F10802C8887080CDE9002A8B1D921C62
:103CF0009948FDF7BBFB074600F07AFCDFF85C82D1
:103D00004FF00009AFB1A6F80090216801EB8100E7
:103D100000EBC1002844827A22F038028272C27A13
:103D200098F8000082426CD0491CFFF7C8FAE8B34B
:103D300067E0206800EB800101EBC0004119887A40
:103D4000C0071BD100231A468348FDF7B3FA074684
:103D500000F04EFC012F11D121680120491CFFF712
:103D600092FA58B9206800EB800101EBC0002844AA
:103D7000817A21F0380141F001018172206800EB65
:103D8000800101EBC00028444FF00051827A01EB22
:103D9000B2114FEAB161C1F3C2028172032A08D3A2
:103DA00021F03801183121F0020101E005E0C6E000
:103DB00081723088401C308058E020680DF1080E78
:103DC00000EB800101EBC00C0CEB050098F8003013
:103DD0000179C77A42798EE88E00C2788178CDE980
:103DE0000012437815F80C205D490020FDF7CEFE47
:103DF000216898F8000001EB810202EBC10129441F
:103E0000C872206800EB800101EBC0004119887A7C
:103E10004207544800780AD5B8B901F108008A1D54
:103E2000CDE90020831CCDF808A002220AE0012879
:103E30000BD101F108008A1DCDE90020831CCDF8CB
:103E400008A001224448FDF72FFC00F0D1FB2068B8
:103E5000728800EB800101EBC0004119C8889042D4
:103E600004D2087BFF2801D2401C087300F0C0FB7D
:103E7000206800EB800101EBC000284498F8001096
:103E8000C07A88423ED000F005FC2068002300EB99
:103E9000800101EBC000411998F800202E48FDF781
:103EA00009FA01282AD1216898F80000491CFFF777
:103EB00006FA18BB20680DF1080A00EB800101EB3F
:103EC000C00C0CEB050098F800300179C77A4279F4
:103ED0008AE88E00C2788178CDE90012437815F81F
:103EE0000C201F490020FDF751FE226898F80000C1
:103EF00002EB820101EBC2012944C87298F800006C
:103F000000F0C8FB2068401C2060DBF800209042D5
:103F100001DBC4F800903088B0F5616F0FD34846DC
:103F20000146C4F8009007E001EB810303EBC103F5
:103F30002B44491C187321609142F5DB206007B0C7
:103F4000BDE8F08F10000020140000203502002092
:103F5000240200200D000020000000200B000020A3
:103F6000DC4900080C00002010B500240CA12046FC
:103F7000FDF70CFE41F28830FFF710FD0F48FEF709
:103F8000E7FE18B1641C032CF8DB03E008210CA049
:103F9000FFF7C8F9BDE810400CA10020FDF7F6BD01
:103FA0004B45595F466F726D6174574946495F458D
:103FB00076656E742053746172740A0028020020C2
:103FC0003838383838383838000000004B45595FE9
:103FD000466F726D6174574946495F4576656E74E8
:103FE00020456E640A00000070B58AB00024079472
:103FF000039479A0049405940694029408940068AC
:104000000990764A76497748FDF756FD76490028AB
:10401000086016D17148734D744E0068062810D29E
:10402000DFE800F00F037791ADCA6E4B012270A15B
:104030000020FDF7ABFD30681A2804D00120FEF700
:10404000A3FC0AB070BD55F80B0F0490686805908A
:10405000A86806909DF811009DF810109DF8142096
:1040600000EB0110A0F54C708DF808009DF81300CE
:104070009DF8121000EB0111A1F54C718DF809109B
:104080009DF8151001EB0010A0F54C708DF80A009A
:104090009DF8170000EB0210A0F54C708DF80B0096
:1040A0009DF8190000EB0110A0F54C708DF80C0084
:1040B0009DF81B009DF81A1000EB0110A0F54C7044
:1040C0008DF80D0002A8FFF77CF810F0FF0001D07A
:1040D000FEF75AFC09A8FFF75DF84B49012008706C
:1040E0000846FFF786F88DF81C4041F28830FFF74C
:1040F00055FC04A8FEF72CFEC4B2082143A0FFF72C
:1041000011F9FFF77BFC2046FEF73EFCFFF776FC3B
:1041100097E7344B022236A10020FDF737FD02A8B5
:10412000FDF71AFC04A902A800F036FB8DF81C402C
:104130009DF8080004A9FF2803D00020FEF7DAFB51
:104140007FE70120FAE7274B032229A10020FDF792
:104150001DFD287BE97A00EB0110A0F54C70C4B27C
:104160002046FCF71FFEC5B22B4622462AA100209E
:10417000FDF70CFD29462046FEF768FC61E7194B68
:1041800004221BA10020FDF701FD25A10020FDF761
:10419000FDFC30680621113890FBF1F1114A2848E6
:1041A0000E32FFF7ADFB0020FEF71EFC2448FFF7A0
:1041B0005BFCFCF7B7FF44E70A4B05220CA100208B
:1041C000FDF7E4FC08A8FFF796F8C0B2FEF762FB23
:1041D0001B48FFF749FC34E7303200003000002074
:1041E0002C0000205207002034000020280000206E
:1041F000574946495F526563765F4576656E74251B
:10420000642025730A0000000C000020383838387C
:10421000383838380000000025642025640A000082
:10422000434F4D4D414E445F5345544E4554574FB7
:10423000524B2020204D617070696E670A000000AB
:10424000350200202DE9F0438146CFB0984A9949C4
:104250009948FDF711FC99490028086027D1944836
:10426000954CDFF85C820068964E04F10B0704F170
:104270001A0507281BD2DFE800F01A041D3F72AEB2
:10428000FB008D4B012290A10020FDF77FFC012057
:10429000FDF714FB88F8000091A105220096CDE9F6
:1042A0000121034690A291494846FBF7D7FF4FB042
:1042B000BDE8F083804B022283A10020FDF766FC5D
:1042C0000C228A493846FBF758FF60B188A10020CC
:1042D000FDF75CFC00238F4A01214FB04846BDE842
:1042E000F043FCF719B98CA10020FDF74FFC924870
:1042F000884A00210368F0E76F4B032272A1002077
:10430000FDF744FC0C2279493846FBF736FF50B1E3
:1043100001214846FCF798F84FB088A1BDE8F0436A
:104320000020FDF733BC8E48062100681D3890FB45
:10433000F1F422468BA10020FDF728FC2A462146F5
:104340007448FFF7DDFA00214846FCF77DF8714814
:10435000FFF78AFB4FB0BDE8F043FCF7E3BE564BD6
:10436000042259A10020FDF711FC0C225F493846B8
:10437000FBF703FF40B14FB04846BDE8F0430023D0
:104380001A460121FBF7FEBF608B30804D48FEF7D7
:1043900001FF0120FDF792FA88F800000346494A20
:1043A00000214846FBF7EEFF30787178303800EB9B
:1043B0008000D02202EB4000734C0844C0B2207051
:1043C00000F068F923784FB03E4ABDE8F0436FA192
:1043D0000020FDF7DBBB384B05223BA10020FDF799
:1043E000D5FB0C2241493846FBF7C7FE30B14FB030
:1043F0004846BDE8F0430121FCF75AB864211BA8E8
:10440000FBF7A9FE642102A8FBF7A5FE642134A8EE
:10441000FBF7A1FE4EAB02AA4DA91BA80095FDF724
:1044200002FB02A94E98CDE900011BAB65A100205B
:104430004D9AFDF7ABFB642134A8FDF7E9FA1BA9FF
:1044400034A84D9AFBF799FE20B102214846FCF7AB
:104450002FF82CE700214846FCF72AF802A8FEF7BF
:1044600031FC4E98C1B202A8FEF75CFF1FE7FFE7E0
:10447000114B062214A10020FDF788FB0C221B49DA
:104480003846FBF77AFE30B14FB04846BDE8F043FE
:104490000121FBF743BF5549E07D087000214846E4
:1044A000FBF73CFF4FB05148BDE8F043FEF7A1BE1B
:1044B0001C000020180000205209002020000020CD
:1044C0000700002008000020574946495F526563F5
:1044D000765F4576656E7425642025730A000000BA
:1044E0005253312E320000003130310028020020BA
:1044F000434F4D4D414E445F53595354454D494EE2
:10450000464F2020204E6F74204D617070696E6799
:104510000000000035020020434F4D4D414E445FE6
:1045200053595354454D494E464F20204D617070AC
:10453000696E670A0000000010000020434F4D4DD7
:10454000414E445F5345544E4554574F524B2020E3
:10455000204E6F74204D617070696E67000000001E
:1045600024000020434F4D4D414E445F5345544E6F
:104570004554574F524B2020204D617070696E6733
:1045800020202025640A00000B000020434F4D4DE1
:10459000414E445F5345544348414E4E454C2020C4
:1045A0005369676E616C5F4368616E6E656C3A2536
:1045B00073204368616E6E656C5F63686172256429
:1045C0000A000000434F4D4D414E445F5345545740
:1045D00049464950415353574F52442025642025A2
:1045E000732025642025730A000000000C000020C1
:1045F00010B507490748FEF705FC074C207801284D
:1046000004D10348FFF71EFE0020207010BD0000FB
:1046100049070020240000207200002010B500246B
:1046200007A12046FDF7B2FAFEF718FD10B1641C91
:10463000032CF9DBBDE8104007A10020FDF7A6BA66
:1046400070726F636573735F574946495F52535485
:104650002053746172740A0070726F636573735FC4
:10466000574946495F52535420456E640A00000082
:1046700010B545F25550FCF709FD0620FCF7FAFC91
:1046800040F63540FCF7FCFCFCF7ECFCBDE81040C4
:10469000FCF7E0BC10B50446112870D23948012C53
:1046A000A0F180011ED0022C1FD0032C20D0042C9E
:1046B00021D0052C22D0062C23D0072C24D0082C66
:1046C00025D0092C26D00A2C27D00B2C28D00C2C36
:1046D00029D00D2C2AD00E2C47D00F2C48D0102CCE
:1046E00049D029E051F8022F22E051F80A2F1FE0AB
:1046F00051F8122F1CE051F81A2F19E051F8222F0F
:1047000016E051F82A2F13E051F8322F10E051F83B
:104710003A2F0DE051F8422F0AE051F84A2F07E0F6
:1047200051F8522F04E051F85A2F01E051F8622F4E
:1047300040F8532F496841600220FDF779FB00BF24
:10474000FCF728FB0228FBD1FDF73CFB1020FDF70E
:104750006FFB00BFFCF71EFB0128FBD122460AA11C
:104760000020FDF713FA002010BD51F86A2FDFE793
:1047700051F8722FDCE751F87A2FD9E7FFE70120D3
:1047800010BD0000040100207365744368616E6E03
:10479000656C3A25640A00000378302202EB13139B
:1047A0000B70037803F00F0330334B70437802EB48
:1047B00013138B70437803F00F033033CB7083787F
:1047C00002EB13130B71837803F00F0330334B713B
:1047D000C37802EB13138B71C37803F00F033033EC
:1047E000CB71037902EB13130B72037903F00F0300
:1047F00030334B72437902EB13128A72407900F026
:104800000F003030C8727047F0B50446012187B000
:104810008803FCF7EFFC01210420FCF7EBFC2E4E93
:104820003046FEF779F97015ADF8000003258DF8D4
:1048300002501820294F8DF8030069463846FCF7CE
:10484000FFF93015ADF8000004208DF8030069462B
:104850003846FCF7F5F901940024ADF80C400C2023
:10486000ADF80840ADF80E00ADF80A40ADF81040C4
:1048700001A93046FEF7C8F925208DF814008DF8FF
:10488000154002208DF8160001208DF8170005A8AC
:10489000FCF75CFC012240F225513046FEF79CF902
:1048A00001213046FEF72EF901210820FCF7A2FC79
:1048B00010208DF803008DF80250C402084DADF8A9
:1048C000004069462846FCF7BBF921462846FCF71C
:1048D00011FA07B0F0BD00000038014000080140A7
:1048E000000C01402DE9F0418046012186B04804CA
:1048F000FCF768FC01210420FCF77CFC2D4E3046BF
:10490000FEF70AF90424ADF8004003258DF80250A3
:104910001820294F8DF8030069463846FCF790F9B6
:104920000820ADF800008DF8034069463846FCF7D2
:1049300087F90024ADF80C400C20ADF80840ADF824
:104940000E00CDF80480ADF80A40ADF8104001A982
:104950003046FEF759F926208DF814008DF81540E1
:104960008DF8165001208DF8170005A8FCF7EEFB16
:10497000012240F225513046FEF72EF90121304642
:10498000FEF7C0F801210820FCF734FC10208DF858
:1049900003008DF80250C402084DADF8004069468E
:1049A0002846FCF74DF921462846FCF7A3F906B046
:1049B000BDE8F0810044004000080140000C0140C7
:1049C0003031323334353637383941424344454645
:1049D0005465726D696E616C000000006368616E01
:1049E0006765204368616E6E656C202530327825DE
:1049F00030327825303278253032782530327825BB
:104A000030327820204368616E6E656C5F63686148
:104A1000723A2564202020696E7665727465724949
:104A20006E666F5B63757253657175656E63655D08
:104A30002E6368616E6E656C3A25640A00000000A2
:104A4000454355204944203A25732020202020202A
:104A500020205369676E616C5F4368616E6E656CA0
:104A60003A20202025732020202025642020204962
:104A70004F5F496E69745F5374617475733A25783A
:104A80000A000000A44A00080000002028020000DC
:104A900004020008D84B000828020020081E00006D
:104AA00070350008013845020406082D0102030490
:104AB000041506070809845125027914290CB9390F
:104AC0000114186A4271CE1C425B1C1C4298441FA0
:104AD0004282921E43C0BA1143AA081143E7301420
:104AE00043D17E13430FA71643F8F41543361D191F
:104AF00043206B18435D931B4347E11A4385091E0E
:104B0000436F571D44AC7F104396CD1F44D3F5121D
:104B100044BD431244FB6B1544E5B9144422E2172B
:104B2000440C3017444A581A4433A61944681A44AE
:104B3000681A44681A44681A45681A456813693245
:104B4000181766D1690C0A9F392929C050145308D7
:104B50001F90D3641033D135131A4B13180D280A44
:104B600053080F70A6C91020A112131A5A13171454
:104B70000553100750200F66EC1DF08014089103B8
:104B800002D0AEE03516F410E242206A81D1F94637
:104B90001122B4220113120463AA0255D42D011F5D
:104BA00019172360FF161F10504D06130F70D58A7A
:104BB000183F7F600B5345474745522052545429B4
:104BC00041290413D0491408521312200226043933
:084BD000301217032B20100026
:04000005080000ED02
:00000001FF
