:020000040800F2
:100000000005002001010008090100080B0100089B
:100010000D0100080F010008110100080000000098
:1000200000000000000000000000000013010008B4
:100030001501000800000000170100081901000860
:100040001B0100081B0100081B0100081B01000820
:100050001B0100081B0100081B0100081B01000810
:100060001B0100081B0100081B0100081B01000800
:100070001B0100081B0100081B0100081B010008F0
:100080001B0100081B0100081B0100081B010008E0
:100090001B0100081B0100081B01000849010008A2
:1000A0001B0100081B0100081B0100081B010008C0
:1000B0001B0100081B010008000000001B010008D4
:1000C0001B01000800000000000000001B010008E8
:1000D00000000000550700081B0100080000000098
:1000E0001B0100081B0100081B010008DFF80CD0F1
:1000F00000F018F800480047690B000800050020D0
:100100000648804706480047FEE7FEE7FEE7FEE7B1
:10011000FEE7FEE7FEE7FEE7FEE7FEE7050700086D
:10012000ED000008064C074D06E0E06840F00103D2
:1001300094E8070098471034AC42F6D3FFF7DAFF93
:10014000980C0008B80C000810B54FF40074214654
:10015000054800F062F8012804D02046BDE81040B0
:1001600000F004B8FEE70000000C014001490860FF
:100170007047000014040140F0B5CA78002502F071
:100180000F03D20601D58A7813430A784FF00F0E79
:1001900012F0FF0F4FF001021CD004680F8802FA22
:1001A00005F63740B74211D14FEA850C0EFA0CF72D
:1001B00024EA070703FA0CF43C43CF78282F02D037
:1001C000482F02D002E0466100E006616D1C082D58
:1001D000E4D304600C88FF2C1ED944685FF000064D
:1001E00006F1080702FA07F50F882F40AF420FD13A
:1001F0004FEA860C0EFA0CF7BC4303FA0CF73C43AB
:10020000CF78282F00D14561CF78482F00D10561E4
:10021000761C082EE4D34460F0BD024600209268AC
:100220000A4200D001207047416170470161704768
:1002300010B50E4C01212046FFF7F6FF02212046A3
:10024000FFF7F2FF02212046FFF7EEFF0F2000F03C
:100250000FF801212046FFF7E9FF0F2000F008F812
:100260002046BDE810400121FFF7DEBF000C014031
:10027000002100E0491C8142FCD3704770B5124D4B
:10028000002401212846FFF7D1FF0F20FFF7F0FFE0
:1002900002212846FFF7CAFF01E0641CE4B20221F4
:1002A0002846FFF7BAFFC00701D0FF2CF5D3022183
:1002B0002846FFF7B9FF01212846FFF7B5FFBDE843
:1002C00070400F20FFF7D4BF000C014070B51A4EEC
:1002D000002501213046FFF7A7FF0F20FFF7C8FFD9
:1002E00002213046FFF7A2FF0F20FFF7C1FF0221D6
:1002F0003046FFF79BFF002401213046FFF796FFB1
:100300000F20FFF7B5FF02213046FFF786FF00F010
:1003100001020F20FFF7ACFF42EA4500C5B2012100
:100320003046FFF781FF0F20FFF7A2FF641CE4B205
:10033000082CE1D3284670BD000C014070B51B4E5F
:10034000054602213046FFF76FFF002401213046A9
:10035000FFF76AFF0F20FFF78BFFE8094FF002015C
:10036000304602D0FFF762FF01E0FFF75DFF0F208C
:10037000FFF77EFF01213046FFF758FF0F20FFF700
:1003800077FF0F20FFF774FF6806050E641C082C2A
:10039000DCD301213046FFF747FF02213046FFF74B
:1003A00045FFBDE870400F20FFF762BF000C014021
:1003B00010B50E4C02212046FFF736FF02212046E1
:1003C000FFF734FF01212046FFF730FF0F20FFF732
:1003D0004FFF02212046FFF727FF0F20FFF748FFBE
:1003E0002046BDE810400121FFF71EBF000C014070
:1003F00010B50C4C02212046FFF716FF02212046C3
:10040000FFF712FF0F20FFF733FF01212046FFF710
:100410000DFF0F20FFF72CFF2046BDE81040022102
:10042000FFF704BF000C0140F8B50121082000F0DF
:1004300075F80120ADF800001025114E8DF803501D
:1004400003248DF8024069463046FFF795FE0220EE
:10045000ADF8000014208DF803008DF802406946C5
:100460003046FFF789FEA801ADF800008DF8035073
:100470008DF8024069463046FFF77EFEF8BD000069
:10048000000C01404FF4A06000F032B870B50F23AB
:10049000C47801780122F4B1144C2468457804F43E
:1004A000E064C4F5E064240AC4F10406E3408478FF
:1004B000B5401C402C4301F1E021230181F80034B8
:1004C000007800F01F018A404009800000F1E02020
:1004D000C0F8002170BD01F01F0082404809800073
:1004E00000F1E020C0F8802170BD00000CED00E0BC
:1004F0000249084302490860704700000000FA05FD
:100500000CED00E0044A0029116901D0014300E02C
:10051000814311617047000000100240044A002925
:10052000916901D0014300E081439161704700006F
:1005300000100240044A0029D16801D0014300E0C4
:100540008143D160704700000010024030B51F4960
:100550004A6812F00C031E4A03D0042B01D0082B6A
:1005600021D002604A680F231A4C03EA1212A35CDE
:100570000268DA4042604B68072505EA1323E35C12
:1005800022FA03F383604B6805EAD323E35CDA4085
:10059000C2604968032303EA9131231F595CB2FB0F
:1005A000F1F1016130BD4A684B6802F470124FF0FE
:1005B000020413F4803F04EB924202D04B689B0389
:1005C00001D5054B00E0024B5A43CAE70010024038
:1005D00000127A000400002000093D002DE9F041DE
:1005E000C7B2C0F3072615460C46FFF7E1FEA02070
:1005F000FFF7A4FEFFF742FE3046FFF79FFEFFF72E
:100600003DFE3846FFF79AFEFFF738FEFFF7D0FEB3
:10061000A120FFF793FEFFF731FE09E0FFF756FE3A
:100620002870012C01D9FFF703FE641EE4B26D1C93
:10063000002CF3D1FFF7DCFEBDE8F0414FF47A70F7
:10064000FFF716BE0CB50021264801910091026803
:1006500042F4803202604FF4A063026802F4003278
:100660000092019A521C0192009A12B9019A9A4280
:10067000F3D10268920333D5012100911A490A6827
:1006800042F010020A600A6822F003020A600A6857
:1006900042F002020A60416841604168416041687D
:1006A00041F480614160416821F47C1141604168FE
:1006B00041F4E8114160016841F080710160016816
:1006C0008901FCD5416821F003014160416841F096
:1006D000020141604168C1F381010229FAD10CBDD8
:1006E00000910CBD00100240002002404FF0E021BC
:1006F0000428086903D020F004000861704740F026
:100700000400FAE70F4810B5016841F001010160EB
:1007100041680D4A1140416001680C4A1140016076
:10072000016821F480210160416821F4FE014160EB
:100730004FF41F018160FFF785FF05494FF000600E
:10074000086010BD001002400000FFF8FFFFF6FE39
:1007500008ED00E070B5154C40F22551204600F040
:1007600076F800280ED0204600F0FEF8C2B21048FD
:1007700001880B0406D44C044FF0000306D50A2A66
:1007800001D0038070BD41F400410DE00D2A09D075
:10079000C1F30D04074D491C89B22A550180C729B0
:1007A000EFD870BD41F48041018070BD0038014038
:1007B0002C000020340000200029818902D041F45F
:1007C000005101E021F4005181817047174910B5B3
:1007D00088420AD101218C032046FFF7ABFE204658
:1007E000BDE810400021FFF7A5BE1149884202D1A3
:1007F00001214C0410E00F49884202D101218C04F0
:100800000AE00D49884202D10121CC0404E00B49E1
:1008100088420AD101210C052046FFF773FE2046CD
:10082000BDE810400021FFF76DBE10BD003801404B
:100830000044004000480040004C00400050004090
:100840000246002012880A4200D00120704730B5CD
:1008500001F01F0201240025C1F3421304FA02F241
:10086000012B0FD0022B0FD0838A4FEA1121008871
:10087000134204FA01F400EA040001D000B101259A
:10088000284630BD8389F0E7038AEEE710B5C1F34F
:10089000421301F01F040121A140012B07D0022BBC
:1008A00007D01430002A026805D00A4304E00C3057
:1008B000F8E71030F6E78A43026010BD30B5044611
:1008C000008A85B00D464CF6FF710840E988014367
:1008D0002182A1894EF6F3100140A8882A8910438D
:1008E0006A890A431043A081A08A4FF6FF4108405D
:1008F000A9890143A1826846FFF728FE194884426E
:1009000001D1039800E00298A189090400EBC0011D
:1009100001EB0010296801D5490000E08900B0FB17
:10092000F1F06422B0FBF2F109010B096FF0180538
:100930006B4300EB8300A3891D044FF0320306D5FF
:1009400003EBC000B0FBF2F000F0070005E003EBA2
:100950000010B0FBF2F000F00F000843208105B05A
:1009600030BD0000003801408088C0F308007047A7
:10097000C1F30801818070472DE9F047DFF87090DE
:10098000C7B2C0F307260C464FF4806815464146AF
:100990004846FFF749FCFFF70BFDA020FFF7CEFC10
:1009A000FFF76CFC3046FFF7C9FCFFF767FC3846E1
:1009B000FFF7C4FCFFF762FC07E02878FFF7BEFCF6
:1009C000FFF75CFC641EE4B26D1C002CF5D1FFF750
:1009D0000FFD4AF6C870FFF74BFC41464846FFF74B
:1009E00025FCBDE8F0474FF47A70FFF741BC0000EA
:1009F000000C01400FB4054B10B503A9044A02983E
:100A000000F017F810BC5DF814FB0000450B00085F
:100A10003000002002E008C8121F08C1002AFAD1E5
:100A200070477047002001E001C1121F002AFBD16E
:100A300070472DE9F84F99469246884605460027AB
:100A400006E025280AD051464A4690476D1C7F1C77
:100A500028780028F5D13846BDE8F88F002315F82E
:100A6000011F18462E2915D115F8011F04232A2924
:100A70000DD06FF02F022978A1F13004092C09D88C
:100A800000EB800002EB400008446D1CF3E758F8CF
:100A9000040B6D1C2A78002ADDD0632A07D0732A44
:100AA0000FD0104651464A4690477F1C2AE018F85E
:100AB000042B8DF8002000218DF801106E460121D5
:100AC00003E058F8046B4FF0FF315A074FF0000471
:100AD00001D409E0641C84420BDA8C42FADB325DFB
:100AE000002AF7D105E0641C8C42FCDB305D002855
:100AF000F9D1274404E016F8010B51464A469047C5
:100B0000641EF8D26D1CA3E710B56FF00400FFF768
:100B1000EDFD094809490068B0FBF1F0C1B2084891
:100B200001EB41020170C2EBC1114FF6FF7202EA04
:100B3000C101418010BD00001400002000127A00A5
:100B40002800002070B5074D044640212846FFF7D5
:100B500077FE0028F9D0E1B22846FFF709FF2046CA
:100B600070BD00000038014000B512A287B007CA6E
:100B70008DE80700FFF7C8FFFFF784FC4FF416501D
:100B800000F038F8FFF750FC6A460A210020FFF712
:100B9000F3FE69460AA0FFF72DFF03AA0A210020F1
:100BA000FFF71CFD03A90DA0FFF724FF07B00020ED
:100BB00000BD00007161736461736461736400005F
:100BC0000A57726974655F32344C3531325F6E4258
:100BD0007974653A2573200A000000000A526561A5
:100BE000645F32344C3531325F6E427974653A2538
:100BF00073200A00F0B5054687B0012144F20400D5
:100C0000FFF78CFC224E3046FFF7E0FD7015ADF883
:100C1000100003248DF8124018201E4F8DF8130089
:100C200004A93846FFF7A8FA3015ADF810000420E3
:100C30008DF8130004A93846FFF79EFA0020ADF89E
:100C40000400ADF80600ADF80800ADF80C000C206B
:100C5000ADF80A00009569463046FFF72FFE2520C3
:100C60008DF814008DF815408DF8164001208DF890
:100C7000170005A8FFF70AFC012240F22551304673
:100C8000FFF704FE01213046FFF796FD07B0F0BDE7
:100C90000038014000080140B80C000800000020A6
:100CA00034000000140A0008EC0C00083400002096
:100CB000CC040000240A000802040608000000001A
:100CC00001020304010203040607080900A24A0402
:100CD00000000000000000000102030406070809EC
:0C0CE00000000000000000000000000008
:04000005080000ED02
:00000001FF
