:020000040800F2
:100000003816002001010008090100080B01000852
:100010000D0100080F010008110100080000000098
:1000200000000000000000000000000013010008B4
:100030001501000800000000170100081901000860
:100040001B0100081B0100081B0100081B01000820
:100050001B0100081B0100081B0100081B01000810
:100060001B0100081B0100081B0100081B01000800
:100070001B0100081B0100081B0100081B010008F0
:100080001B0100081B0100081B0100081B010008E0
:100090001B0100081B0100081B010008C106000825
:1000A0001B0100081B0100081B0100081B010008C0
:1000B000D114000869150008000000001B010008A9
:1000C0001B01000800000000000000001B010008E8
:1000D000000000001B0100081517000800000000C8
:1000E0001B0100081B0100081B010008DFF80CD0F1
:1000F00000F076F8004800475D240008381600201C
:100100000648804706480047FEE7FEE7FEE7FEE7B1
:10011000FEE7FEE7FEE7FEE7FEE7FEE781140008E4
:10012000ED00000840EA01039B0703D009E008C97D
:10013000121F08C0042AFAD203E011F8013B00F8AC
:10014000013B521EF9D27047D2B201E000F8012BF8
:10015000491EFBD270470022F6E710B513460A4647
:1001600004461946FFF7F0FF204610BD421C10F868
:10017000011B0029FBD1801A704730B504460020CE
:10018000034600E05B1C934203D2E05CCD5C401B65
:10019000F8D030BD30B505460020034600E05B1CBA
:1001A000934205D2EC5CC85C201A01D1002CF6D138
:1001B00030BD30B50B46014600202022012409E065
:1001C00021FA02F59D4205D303FA02F5491B04FA10
:1001D00002F52844151EA2F10102F1DC30BD000039
:1001E000064C074D06E0E06840F0010394E8070084
:1001F00098471034AC42F6D3FFF77CFFFC28000888
:100200001C29000870B58C1810F8015B15F0070365
:1002100001D110F8013B2A1106D110F8012B03E09F
:1002200010F8016B01F8016B5B1EF9D12B0705D4A7
:100230000023521E0DD401F8013BFAE710F8013BF0
:10024000CB1A921C03E013F8015B01F8015B521E0C
:10025000F9D5A142D8D3002070BD00002DE9F041AE
:100260009EB00746DDE924481D461646642105A8D0
:10027000FFF771FF6520CDE90254CDE9000604F1D6
:1002800025023B46CDF81080144608A105A801F0D0
:1002900003FE05AA0DA1002000F03EFE214605A8A0
:1002A00001F060FC1EB0BDE8F08100004150533108
:1002B000312530346430312573253033642573257E
:1002C00073253033642573454E4400004150505F20
:1002D000526573706F6E73655F42617365496E66D8
:1002E0006F2025730A00000070B586B00E460446E4
:1002F000154618216846FFF72EFF012C0BD02B4620
:10030000324608A1684601F0C7FD1521684601F094
:1003100029FC06B070BD09A1684601F0BDFD0D21A4
:10032000F4E7000041505331313030323130343055
:100330003025732573454E44000000004150533171
:1003400031303031333034303100000010B586B0F8
:10035000044614216846FFF7FEFE224604A16846C3
:1003600001F09AFD0D21684601F0FCFB06B010BDBE
:100370004150533131303031333033253032640025
:1003800010B586B0044614216846FFF7E4FE224605
:1003900004A1684601F080FD0D21684601F0E2FBF2
:1003A00006B010BD41505331313030313330352536
:1003B00030326400F0B5ADF25C4D0C46074640F2B9
:1003C0005C416846FFF7C7FE00263546012F05D081
:1003D00029A1684601F060FD694619E02AA1684636
:1003E00001F05AFD41E000BF05EB450000EBC50000
:1003F0000844226840F80D2FA2888280E288C280DB
:1004000022890281A27A6D1C761C8272642E02DA25
:100410006078FF28E8D1002D27DD05EB450000EBD3
:10042000C5014FF47A70103191FBF0F030308DF847
:100430000500642091FBF0F20A2092FBF0F300FB30
:10044000132230328DF8062091FBF0F292FBF0F38C
:1004500000FB132230328DF8072091FBF0F200FBF5
:10046000121030308DF8080000E00D21684601F0D0
:1004700079FB0DF25C4DF0BD4150533131303031DC
:1004800033303230300000004150533131303031A0
:10049000333032303100000070B501F007FF032126
:1004A00016A001F05FFB322001F026FF144C4FF044
:1004B000FF356088B8B1012212A11348FFF75DFE35
:1004C00088B901F0F3FE01210EA001F04BFB3220B0
:1004D00001F012FF6088032805D303220BA10A480C
:1004E000FFF74BFE08B1284670BD09A1002000F0BF
:1004F00013FD01F0DBFE002070BD00002B2B2B0054
:100500004800002061000000260A00202B6F6B00CD
:100510004154203A612B6F6B0A00000010B501F0C6
:10052000C5FE08210EA001F01DFB4FF4967001F0EE
:10053000E3FE0E484FF0FF3440880A2805D303221B
:100540000BA10C48FFF719FE08B1204610BD0AA107
:10055000002000F0E1FC01F0A9FE002010BD000029
:1005600041542B454E544D0A000000004800002025
:100570002B6F6B002F0A002041542B454E544D2009
:100580003A2B6F6B0A00000010B59AB00446642144
:100590006846FFF7E0FD01F089FE224617A1684694
:1005A00001F07AFC6A461CA1002000F0B5FC684608
:1005B000FFF7DCFD411C684601F0D4FA4FF47A7075
:1005C00001F09AFE15484FF0FF3440880A280AD3FC
:1005D0006846FFF7CBFD12490322084411A1401CD5
:1005E000FFF7CBFD10B120461AB010BD0EA10020C0
:1005F00000F092FC01F05AFE0020F5E741542B5721
:10060000414B45593D5750413250534B2C41455376
:100610002C25730A0000000025730000480000200C
:10062000260A00202B6F6B0041542B57414B455934
:10063000203A2B6F6B0A000010B5662000F058FEC0
:1006400000F03F0040F04001BDE81040662000F09F
:10065000ADBE10B500F0E2FD00F0D6FD022000F0C6
:100660007DFD00F045FD002000F01FF800F012F8BD
:10067000222000F0B5F806210A2000F022FD2221F8
:10068000652000F093FEFFF7D7FFBDE81040102073
:1006900000F064BD10B56C2000F02AFE40F00301AC
:1006A000BDE810406E2000F081BE10B507216A2021
:1006B00000F07CFE3F21BDE810406B2000F076BECC
:1006C00070B54FF4007529460A4800F0F2F8012889
:1006D0000BD1094C2268521C2260012A05DD07A1BA
:1006E000002000F019FC002020602846BDE8704082
:1006F00000F038B8000C0140400000204558544933
:10070000395F355F49525148616E646C6572200AE9
:10071000000000003EB500F001FA0121084600F09B
:1007200085FA0921012000F05FF84FF400700024E1
:1007300000908DF8044008208DF8050001258DF803
:100740000650684600F014F817208DF808008DF860
:10075000094003208DF80A008DF80B5002A800F024
:1007600011FA3EBD014908607047000014040140C1
:1007700030B51A498379026853B30B6893430B6011
:100780000A1D13680468A343136002790A441368BE
:10079000046823431360114A083213680468A343B2
:1007A0001360131D1C680568AC431C604479102C51
:1007B00005D021440A68006802430A6030BD116810
:1007C000046821431160196800680143196030BD55
:1007D0000079084401689143016030BD0004014084
:1007E0000146682000F0E2BD10B58A0721F003043D
:1007F0000649130F21440F228C689A4094438C6061
:100800008A68984002438A6010BD000000000140E1
:10081000F0B5CA78002502F00F03D20601D58A7818
:1008200013430A784FF00F0E12F0FF0F4FF0010242
:100830001CD004680F8802FA05F63740B74211D180
:100840004FEA850C0EFA0CF724EA070703FA0CF4BA
:100850003C43CF78282F02D0482F02D002E04661D7
:1008600000E006616D1C082DE4D304600C88FF2CA9
:100870001ED944685FF0000606F1080702FA07F582
:100880000F882F40AF420FD14FEA860C0EFA0CF7BB
:10089000BC4303FA0CF73C43CF78282F00D14561C5
:1008A000CF78482F00D10561761C082EE4D3446030
:1008B000F0BD0246002092680A4200D00120704735
:1008C000416170470161704710B50E4C40212046D0
:1008D000FFF7F6FF80212046FFF7F2FF8021204638
:1008E000FFF7EEFF0F2000F00FF840212046FFF742
:1008F000E9FF0F2000F008F82046BDE81040402135
:10090000FFF7DEBF000C0140002100E0491C8142DE
:10091000FCD3704770B5124D002440212846FFF7E4
:10092000D1FF0F20FFF7F0FF80212846FFF7CAFF15
:1009300001E0641CE4B280212846FFF7BAFFC0073B
:1009400001D0FF2CF5D380212846FFF7B9FF4021C5
:100950002846FFF7B5FFBDE870400F20FFF7D4BF72
:10096000000C014070B51A4E002540213046FFF7BB
:10097000A7FF0F20FFF7C8FF80213046FFF7A2FF37
:100980000F20FFF7C1FF80213046FFF79BFF0024B7
:1009900040213046FFF796FF0F20FFF7B5FF80217B
:1009A0003046FFF786FF00F001020F20FFF7ACFF93
:1009B00042EA4500C5B240213046FFF781FF0F20D3
:1009C000FFF7A2FF641CE4B2082CE1D3284670BDF7
:1009D000000C014070B51B4E054680213046FFF7E4
:1009E0006FFF002440213046FFF76AFF0F20FFF71A
:1009F0008BFFE8094FF08001304602D0FFF762FF1D
:100A000001E0FFF75DFF0F20FFF77EFF402130463A
:100A1000FFF758FF0F20FFF777FF0F20FFF774FF56
:100A20006806050E641C082CDCD340213046FFF715
:100A300047FF80213046FFF745FFBDE870400F209B
:100A4000FFF762BF000C014010B50E4C802120461C
:100A5000FFF736FF80212046FFF734FF4021204674
:100A6000FFF730FF0F20FFF74FFF80212046FFF7F1
:100A700027FF0F20FFF748FF2046BDE81040402128
:100A8000FFF71EBF000C014010B50C4C8021204622
:100A9000FFF716FF80212046FFF712FF0F20FFF718
:100AA00033FF40212046FFF70DFF0F20FFF72CFFFB
:100AB0002046BDE810408021FFF704BF000C014034
:100AC000F8B50121082000F0B1F84020ADF8000091
:100AD0001025114E8DF8035003248DF8024069460D
:100AE0003046FFF795FE8020ADF8000014208DF809
:100AF00003008DF8024069463046FFF789FE20204A
:100B0000ADF800008DF803508DF80240694630467C
:100B1000FFF77EFEF8BD0000000C014008B5012182
:100B2000082000F083F84FF40070ADF80000482072
:100B30008DF8030069460248FFF76AFE08BD000011
:100B4000000C014038B50121042000F06FF810209E
:100B50008DF8030003208DF80200074D4FF4006468
:100B6000ADF8004069462846FFF752FE2146284668
:100B7000FFF7A8FE38BD0000000801404FF4A06058
:100B800000F032B870B50F23C47801780122F4B1B7
:100B9000144C2468457804F4E064C4F5E064240A45
:100BA000C4F10406E3408478B5401C402C4301F1B5
:100BB000E021230181F80034007800F01F018A4011
:100BC0004009800000F1E020C0F8002170BD01F074
:100BD0001F0082404809800000F1E020C0F8802119
:100BE00070BD00000CED00E00249084302490860B6
:100BF000704700000000FA050CED00E0044A0029EF
:100C0000D16901D0014300E08143D1617047000008
:100C100000100240044A0029116901D0014300E09C
:100C2000814311617047000000100240044A00290E
:100C3000916901D0014300E0814391617047000058
:100C400000100240044A0029D16801D0014300E0AD
:100C50008143D160704700000010024030B51F4949
:100C60004A6812F00C031E4A03D0042B01D0082B53
:100C700021D002604A680F231A4C03EA1212A35CC7
:100C80000268DA4042604B68072505EA1323E35CFB
:100C900022FA03F383604B6805EAD323E35CDA406E
:100CA000C2604968032303EA9131231F595CB2FBF8
:100CB000F1F1016130BD4A684B6802F470124FF0E7
:100CC000020413F4803F04EB924202D04B689B0372
:100CD00001D5054B00E0024B5A43CAE70010024021
:100CE00000127A001B00002000093D002DE9F041B0
:100CF000C7B2C0F3072615460C46FFF7A5FEA02095
:100D0000FFF768FEFFF706FE3046FFF763FEFFF7CA
:100D100001FE3846FFF75EFEFFF7FCFDFFF794FE8D
:100D2000A120FFF757FEFFF7F5FD09E0FFF71AFED8
:100D30002870012C01D9FFF7C7FD641EE4B26D1CB9
:100D4000002CF3D1FFF7A0FEBDE8F0414FF47A701C
:100D5000FFF7DABD10B530B1024602216020FFF77F
:100D6000C5FF002010BD4FF0FF3010BD10B530B1F1
:100D7000024606212020FFF7B9FF002010BD4FF0EA
:100D8000FF3010BD10B530B1024603214020FFF7FF
:100D9000ADFF002010BD4FF0FF3010BD10B560B1A9
:100DA00001EB41014FF4CD7202EB410302460621F3
:100DB0001846FFF79BFF002010BD4FF0FF3010BD1D
:100DC00010B538B1024602214FF48870FFF78EFF4C
:100DD000002010BD4FF0FF3010BD10B530B10246FD
:100DE0004FF49070FFF782FF002010BD4FF0FF30EE
:100DF00010BD2DE9F0410D46069C90466FF02F0680
:100E000021786278303901EB810106EB41010A4417
:100E10001F46A11C2A60FFF785F92868E11C425C87
:100E2000A11C241D405C303800EB800006EB400024
:100E300002443A60286801194046FFF773F9002020
:100E4000BDE8F08170B515460E46044603220CA19C
:100E5000FFF7A0F910B14FF0FF3070BD601D01F039
:100E600081FC3060607AA17A303800EB80006FF04E
:100E70002F0202EB400008442860002070BD0000F3
:100E8000415053002DE9F041884600EB40012148D4
:100E9000164600EBC104E16A01F0030002280BD002
:100EA000A06A626A801A401E01D5226A10448642F6
:100EB00002DD89072BD006464EB30027A06A616A7F
:100EC000451A6D1E01D5206A0544D4E90801411A6E
:100ED000A94201DC616A451AB54200DB3546616A08
:100EE000E0692A4608444146FFF71CF9606A2F442E
:100EF000A844761B28446062606A216A884201D156
:100F000000206062002ED9D13846BDE8F081002073
:100F1000FBE70000F00000200FB408B504A9009121
:100F20006A46039900F004F801B05DF814FB000074
:100F30002DE9F04198B0064607A802904020002510
:100F4000CDE90305CDE9055690460C4614F8011B82
:100F5000002971D0252908D002A800F07DFF05984E
:100F60000028F3DA18B0BDE8F081002021782329A9
:100F70001BD02B2916D02D290ED030290FD00022BE
:100F80002178A1F130030A2B13D202EB820201EB8C
:100F90004202303A641CF3E740F0010007E040F001
:100FA000020004E040F0040001E040F00800641C8E
:100FB000DCE70023CFB22E2F0CD100BF14F8011FA5
:100FC000A1F130070A2F05D203EB830301EB4303A2
:100FD000303BF3E76C290DD068290BD0702954D031
:100FE0000BDC252916D0582931D063290CD064296F
:100FF00013D114E014F8011BECE7732934D07529E0
:101000001BD0782909D122E0D8F80000011DC8F8CA
:101010000010017802A800F01FFF641C9FE7D8F8B9
:1010200000100F1DC8F800700968CDE900200A22E1
:1010300002A800F041FEF0E733E0D8F800100F1DE1
:10104000C8F800700968CDE900200A2208E0D8F845
:1010500000100F1DC8F800700968CDE900201022AB
:1010600002A800F08BFED8E7D8F80000011DC8F8F0
:101070000010076817F8011B0029CED002A800F065
:10108000EBFE05980028F5DAC7E7D8F80000011D47
:10109000C8F8001001680820CDE9000503461022B9
:1010A000DEE7059800287FF75DAF049820B102467F
:1010B00007A93046FFF7E6FEDDE904010844059084
:1010C00050E770B505460C46662000F011F900F0B7
:1010D000E0012943662000F069F9672000F008F973
:1010E00000F0E0012143BDE87040672000F05EB9E8
:1010F00070B5194C6178042919D204F15B0000F134
:101100002505012904D002290AD003291BD00EE0AD
:1011100011491122891CFFF705F8B4F8130005E006
:101120000D4911221531FEF7FDFFE08CA8820A4D12
:1011300000243B352046295D00F038F9641CE4B2F8
:10114000602CF7D370BD044911222831FEF7EAFF65
:10115000B4F83900EAE700005200002001466020A0
:1011600000F024B90CB500212548019100910268D6
:1011700042F4803202604FF4A063026802F400324D
:101180000092019A521C0192009A12B9019A9A4255
:10119000F3D10268920331D50121009119490A68FF
:1011A00042F010020A600A6822F003020A600A682C
:1011B00042F001020A604168416041684160416853
:1011C0004160416821F47C114160416841F4F811AB
:1011D0004160016841F08071016001688901FCD5BE
:1011E000416821F003014160416841F00201416022
:1011F0004168C1F381010229FAD10CBD00910CBDF7
:10120000001002400020024010B5FF217F2000F0B6
:10121000CDF8BDE81040142001F06EB82DE9F84F6C
:1012200001210820FFF702FD4FF48046ADF8006071
:1012300014208DF80300DFF8B4A003248DF80240D9
:1012400069465046FFF7E4FA01210820FFF7EEFC5B
:101250007710ADF8007010258DF803508DF802401E
:1012600069465046FFF7D4FA01210820FFF7DEFC5B
:101270004FF48058ADF800808DF803508DF802408F
:1012800069465046FFF7C4FA01210820FFF7CEFC5B
:101290004FF48069ADF800908DF803508DF802404E
:1012A00069465046FFF7B4FA01210820FFF7BEFC5B
:1012B000E801ADF8000048208DF803008DF80240E9
:1012C00069465046FFF7A4FA39465046FFF7FAFA46
:1012D00049465046FFF7F6FA31465046FFF7F2FA14
:1012E00041465046FFF7ECFABDE8F88F000C01408C
:1012F0002DE9F047002440F08007FFF78FFF2A4DCB
:101300004FF400512846FFF7DBFA0A2001F00AF8F3
:1013100000264FF480494FF4805838064946284645
:1013200002D5FFF7CFFA01E0FFF7CAFA4146284697
:10133000FFF7C6FA0A2000F0F5FF41462846FFF7FE
:10134000C1FA0A2000F0EEFF7806761C070EF6B20E
:10135000082EE2D3082647466006040E3946284682
:10136000FFF7AEFA0A2000F0DDFF39462846FFF706
:10137000A9FA0A2000F0D6FF49462846FFF799FA55
:10138000012801D144F00104761E16F0FF06E3D1D6
:1013900039462846FFF794FA0A2000F0C3FFFFF70A
:1013A0003DFF2046BDE8F087000C01402DE9F047E5
:1013B0000E4620F08007FFF731FF2A4C4FF4005112
:1013C0002046FFF77DFA0A2000F0ACFF00254FF41D
:1013D00080494FF4805838064946204602D5FFF729
:1013E00071FA01E0FFF76CFA41462046FFF768FA10
:1013F0000A2000F097FF41462046FFF763FA0A20D3
:1014000000F090FF78066D1C070EEDB2082DE2D3B8
:101410000025474630064946204602D5FFF752FAD6
:1014200001E0FFF74DFA39462046FFF749FA0A2056
:1014300000F078FF39462046FFF744FA0A2000F012
:1014400071FF70066D1C060EEDB2082DE2D3394611
:101450002046FFF735FA0A2000F064FFBDE8F047A8
:10146000FFF7DCBE000C01404FF0E02104280869C2
:1014700003D020F004000861704740F00400FAE750
:101480000F4810B5016841F00101016041680D4A43
:101490001140416001680C4A11400160016821F46B
:1014A00080210160416821F4FE0141604FF41F0179
:1014B0008160FFF757FE05494FF00060086010BDDE
:1014C000001002400000FFF8FFFFF6FE08ED00E00C
:1014D00010B501218C07204600F0B9F800280ED085
:1014E0000121204600F0A6F805488178491CC9B2C0
:1014F0008170C72903D9012141700021817010BD7D
:10150000ED0000207FB50C46054601210846FFF797
:1015100075FBADF80450ADF8004000244FF0804555
:10152000ADF80640ADF802406946284600F0A4F840
:1015300001221146284600F096F81C208DF80C0078
:1015400001218DF80D1003208DF80E008DF80F107D
:1015500003A8FFF717FB0121284600F06EF80148A9
:1015600044707FBDED00002010B50E4C01212046D7
:1015700000F06DF8002813D00121204600F05AF841
:1015800009490878401C40B20870012808DD074965
:101590000020087006490880BDE8104000F00AB835
:1015A00010BD000000040040ED00002049000020B4
:1015B0004A0000200349002008700146024800F05C
:1015C0003CB80000ED000020000400407FB50C4650
:1015D000054601210220FFF711FBADF80450ADF8DC
:1015E00000400024114DADF80640ADF802406946B8
:1015F000284600F041F801221146284600F033F851
:101600001D208DF80C0001218DF80D1003208DF8A0
:101610000E008DF80F1003A8FFF7B4FA0121284639
:1016200000F00BF8024804707FBD00000004004089
:10163000ED000020C943018270470029018802D0D3
:1016400041F0010101E021F00101018070470246F3
:101650000020138A92890B4202EA010202D0002A7A
:1016600000D001207047002A828901D00A4300E09F
:101670008A4382817047000030B502881B4B1C4CA6
:1016800098420DD0A0420BD0B0F1804F08D0194D38
:10169000A84205D0184DA84202D0184DA84203D147
:1016A00022F070054A882A43154DA84206D0154DF0
:1016B000A84203D022F44075CA882A4302808A884F
:1016C00082850A88028598420AD0A04208D00E4A34
:1016D000904205D00D4A904202D00D4A904201D16D
:1016E000097A01860121818230BD0000002C014071
:1016F000003401400004004000080040000C00409D
:10170000001000400014004000400140004401402F
:101710000048014010B5094C40F22551204600F028
:101720005EF8002808D0204600F0E6F8054A044B91
:1017300051885854491C518010BD0000004400409D
:10174000260A0020480000200029818902D041F4A7
:10175000005101E021F4005181817047174910B513
:1017600088420AD101218C032046FFF76BFA2046FC
:10177000BDE810400021FFF765BA1149884202D147
:1017800001214C0410E00F49884202D101218C0450
:101790000AE00D49884202D10121CC0404E00B4942
:1017A00088420AD101210C052046FFF733FA204672
:1017B000BDE810400021FFF72DBA10BD00380140F0
:1017C0000044004000480040004C004000500040F1
:1017D0000246002012880A4200D00120704730B52E
:1017E00001F01F0201240025C1F3421304FA02F2A2
:1017F000012B0FD0022B0FD0838A4FEA11210088D2
:10180000134204FA01F400EA040001D000B10125FA
:10181000284630BD8389F0E7038AEEE710B5C1F3AF
:10182000421301F01F040121A140012B07D0022B1C
:1018300007D01430002A026805D00A4304E00C30B7
:10184000F8E71030F6E78A43026010BD30B5044671
:10185000008A85B00D464CF6FF710840E9880143C7
:101860002182A1894EF6F3100140A8882A891043ED
:101870006A890A431043A081A08A4FF6FF410840BD
:10188000A9890143A1826846FFF7E8F91948844213
:1018900001D1039800E00298A189090400EBC0017E
:1018A00001EB0010296801D5490000E08900B0FB78
:1018B000F1F06422B0FBF2F109010B096FF0180599
:1018C0006B4300EB8300A3891D044FF0320306D560
:1018D00003EBC000B0FBF2F000F0070005E003EB03
:1018E0000010B0FBF2F000F00F000843208105B0BB
:1018F00030BD0000003801408088C0F30800704708
:10190000C1F308018180704770B500260546741E3A
:10191000C82000F0F1FCFEF7BFFD20B1761C032EBD
:10192000F6DB401C29D0C82000F0E6FC0026C820C9
:1019300000F0E2FC2846FEF727FE20B1761C032EBD
:10194000F5DB401C0FD00025C82000F0D5FCFEF7C9
:10195000E5FD20B16D1C032DF6DB401C0DD000F021
:10196000EDF8002070BD0025C82000F0C5FCFEF792
:10197000D5FD10B16D1C032DF6DB204670BD0000B7
:101980002DE9F0476A4C00258246E5806078694E73
:101990004FF0010941F61F4820B327E0FFF70AFE88
:1019A0006088E188401A80B22081012806D0022890
:1019B00008D003280CD005281CD00CE03078412832
:1019C00003D108E07078502805D06580E58002E0FA
:1019D000B0785328F9D141469520FFF7F7FDE0880C
:1019E000401CE080E08861888842D7D36078012875
:1019F00024D028E084F8019041469520FFF7E6FDC9
:101A0000F4E700BFFFF7D6FD6088E188401A80B296
:101A10002081092807D039469520FFF7D7FDE088B7
:101A2000401CE0800BE0701D00F09CFEA0800220B6
:101A3000607039469520FFF7C9FD04E04746E1880C
:101A400060888142DED3607802281BD01FE000BF8F
:101A5000FFF7B0FD6088E188401A80B22081A1883C
:101A6000C91E814206D10320607039469520FFF7D8
:101A7000ADFD0CE039469520FFF7A8FDE088401C3D
:101A8000E08000E04746E08861888842E0D36078E3
:101A9000032848D0BDE8F087FFF78CFD6088E18817
:101AA000401A80B22081A788B91E814206D1F1195F
:101AB00011F8031C452901D06580E580791E81421B
:101AC00006D1F11911F8021C4E2901D06580E5807C
:101AD000874221D1B8B2304410F8010C442801D01B
:101AE0006580E5804FF480611348FEF734FB3A4689
:101AF00010491148FEF716FBA0880F49CAF80000EC
:101B00000D5484F8009065706580E5804146BDE81D
:101B1000F0479520FFF75ABD41469520FFF756FD47
:101B2000E088401CE080E08861888842B4D3B1E757
:101B300048000020260A00202606002070B5084D27
:101B40004FF4004421462846FEF7BCFE4FF4FA60ED
:101B500000F0D2FB21462846FEF7B2FE002070BD01
:101B6000000C01402DE9F0410E46804600240A4D4C
:101B70000DE000BF18F8047040212846FFF728FE4A
:101B80000028F9D039462846FFF7BAFE641CB44253
:101B9000F0DB2046BDE8F081004400402DE9F04133
:101BA000DFF86C80C7B2C0F307260C46154620212B
:101BB0004046FEF785FEFEF747FFA020FEF70AFF2E
:101BC000FEF7A8FE3046FEF705FFFEF7A3FE3846F7
:101BD000FEF700FFFEF79EFE07E02878FEF7FAFE0C
:101BE000FEF798FE641EE4B26D1C002CF5D1FEF7E2
:101BF0004BFF4AF6C870FEF787FE20214046FEF7ED
:101C000061FEBDE8F0414FF47A70FEF77DBE000042
:101C1000000C01407CB5054600200090019001EBCE
:101C200041014FF4CD7000EB41042A4606212046C5
:101C3000FFF7B4FF20466A460621FFF757F8062251
:101C400069462846FEF799FA002800D001207CBD9D
:101C500038B5044600204FF48875009022460221D2
:101C60002846FFF79BFF6A4602212846FFF73EF809
:101C7000062269462046FEF780FA002800D001209F
:101C800038BDFEB505460020009001904FF49076D7
:101C900002900C462A463046FFF780FF6A462146EE
:101CA0003046FFF723F8224669462846FEF765FAD4
:101CB000002800D00120FEBD2DE9FC5F0E0081460A
:101CC000DDE90C47C6F1000098469346824600D4F1
:101CD0000846012503E000BFB0FBFBF06D1C584532
:101CE000FAD2A84500D9454624B1002E01DB780779
:101CF00000D5641EB80702D5B8F1000F10D0F80760
:101D00000ED16CB12046641EA84209D92021484654
:101D100000F0A2F8D9F80C000028F2DABDE8FC9F28
:101D2000002E02DA56462D2102E0780707D52B2136
:101D3000484600F091F8D9F80C000028EEDB07F0D7
:101D40000300022810D1B8F1000F0DD164B1204674
:101D5000641EA84208D93021484600F07DF8D9F821
:101D60000C000028F2DAD9E7CDE9004743465A468D
:101D70003146484600F002F8D0E700002DE9F84F60
:101D80008246DDE90A4B0126984691460D460846F3
:101D9000374602E0B0FBF9F07F1C4845FAD2B8455F
:101DA00000D947465FEACB701CD1DCB15FEA8B708B
:101DB00002D5B8F1000F02D0202000900AE03020B8
:101DC000FBE75046009900F047F8DAF80C000028CD
:101DD0003EDB3CB12046641EB842F2D802E000BFB0
:101DE00006FB09F6B5FBF6F1494501D3012100E0F8
:101DF00000214246A8F10108012A01DD012000E08E
:101E000000200143ECD1DFF84C8000BFB5FBF6F0B9
:101E100000FB165518F80010504600F01DF8DAF8CF
:101E20000C00002803DBB6FBF9F6002EEED15FEACA
:101E3000CB700DD0002C0BD02046641EB84207D9C1
:101E40002021504600F008F8DAF80C000028F1DAFA
:101E5000BDE8F88FE028000810B50446D4E9013049
:101E6000421C934205DB23681954A260E068401CC1
:101E7000E060D4E90102824209D121682069FFF7BC
:101E800001F8A168884203D04FF0FF30E06010BD38
:101E90000020A06010BD00000FB4084B10B504A9CD
:101EA00002AA039800F036F8044602A9002000F0C8
:101EB000D2F9204610BC5DF814FB00005722000840
:101EC00002E008C8121F08C1002AFAD17047704703
:101ED000002001E001C1121F002AFBD17047000061
:101EE0000B49498848434FF0E021486100228A614C
:101EF000086940F0010008610869C30701D0C00308
:101F0000FAD5086920F0010008618A617047000075
:101F1000440000202DE9FF4F8BB08846054600267F
:101F200006E025280BD0DDE90D1290476D1C761CCC
:101F300028780028F5D10FB03046BDE8F08F002496
:101F4000A146A2460122AE4900E0044315F8013F34
:101F5000203B02FA03F00842F7D128782A2810D053
:101F60006FF02F022878A0F13001092915D809EB6C
:101F7000890102EB410144F0020400EB01096D1CF0
:101F8000F0E758F8041B5FEA010903D544F4005454
:101F9000C9F1000944F002046D1C28782E2817D1DD
:101FA00015F8010F44F004042A280ED06FF02F0218
:101FB0002878A0F1300109290AD80AEB8A0102EB3E
:101FC000410100EB010A6D1CF2E758F804AB6D1CEF
:101FD00028786C280FD006DC4C2817D068280DD044
:101FE0006A2814D104E0742810D07A280FD10DE0AB
:101FF00044F400140AE044F4801401E044F4401472
:102000006978814202D104F580146D1C6D1C28781A
:10201000692865D006DC00288DD0632827D0642885
:1020200006D15DE06E2808D073282AD0752877D0B5
:10203000DDE90D129047761CE0E0C4F3025002285F
:1020400009D003280DD0D8F8001004280DD00E6058
:1020500008F10408D2E0D8F80010F217C1E90062D4
:10206000F6E7D8F800100E80F2E70E70F0E718F8E7
:10207000041B8DF8001000208DF80100EB460120B4
:1020800003E058F804BB4FF0FF3061074FF0000742
:1020900001D40AE07F1C57450DDA8742FADB1BF8B2
:1020A00007100029F6D106E07F1C8742FCDB1BF8F5
:1020B00007100029F8D1DDE90D23A9EB07008146BF
:1020C000214600F0B1F83044C61904E0DDE90D12F4
:1020D0001BF8010B90477F1EF8D22146484688E046
:1020E00058F8040BC4F302514FF00A0B032900D136
:1020F00000B2042900D140B2002802DA40422D216A
:1021000002E0210505D52B218DF82410012104E0E2
:1021100006E0E10710D02021F6E708AF089113E0B0
:1021200058F8040BC4F302514FF00A0B032900D1F5
:1021300080B2042900D1C0B20021EEE75946FEF773
:1021400038F8303107F8011D0028F7D1ADEB070052
:1021500000F1200B600702D524F4803401E04FF039
:10216000010ADA4502DDAAEB0B0000E000208246FE
:1021700000EB0B0108980144A9EB01000A90E00371
:1021800006D4DDE90D2321460A9800F04DF80644F7
:102190004FF0000908E009A911F80900DDE90D1266
:1021A000904709F10109761C08998945F3DBE003A2
:1021B0000CD5DDE90D2321460A9800F035F80644D8
:1021C00004E0DDE90D1230209047761CBAF10001E1
:1021D000AAF1010AF5DC05E0DDE90D1217F8010BA3
:1021E0009047761CBBF10001ABF1010BF4DC0A98BF
:1021F0002146DDE90D2300F005F806446D1C97E645
:10220000092801002DE9F041044600251E46174625
:10221000880404D405E039462020B0476D1C641EB4
:10222000F9D52846BDE8F0812DE9F04104460025A6
:102230001E469046C80301D5302700E020278804B9
:1022400004D505E041463846B0476D1C641EF9D5FB
:102250002846BDE8F0810A68531C0B601070704777
:10226000F8B500200090C817154601EB1060020A6F
:102270008DF8002008468DF801006846FFF7E8FC5D
:102280000024094E0AE000BF04EB440005EB4000C7
:10229000611CFFF7BFFC641C642C02DAF068844206
:1022A000F2DB0020F8BD00000000002010B5FFF7B1
:1022B00081F9024800214170418010BD4800002092
:1022C00010B50420FFF7D0F8084809490068B0FBB2
:1022D000F1F0C1B2074801EB41020170C2EBC1113C
:1022E0004FF6FF7202EAC101418010BD2C000020B0
:1022F00040420F004400002070B54FF4E9750446D9
:10230000A84203DABDE87040FFF7EABD4FF4C87693
:102310003046FFF7E5FDA4F5C874AC42F8DAA0B288
:10232000F0E700000B49097848434FF0E02148618D
:1023300000228A61086940F0010008610869C3074A
:1023400001D0C003FAD5086920F0010008618A6154
:10235000704700004400002008B50D48FEF706FD58
:102360000C490B4800F015FA09480A38FEF70AFD37
:1023700007481038FEF7EEFC0548064A1038831D62
:10238000009005A10020FEF7C7FD002008BD000059
:102390001000002068010020454355204944203AA0
:1023A000257320202020205369676E616C5F4C6587
:1023B00076656C3A257320202020205369676E6172
:1023C0006C5F4368616E6E656C3A20202025732037
:1023D0002020200A00000000F8B5002500958DF8A7
:1023E0000050064604468DF801502F46FF22062174
:1023F0002046FDF7A9FEE5802581A5720C347F1CDF
:10240000642FF3DB6846FEF7DBFC9DF801009DF8C6
:1024100000100D4C00EB01206428E06000DDE56059
:102420000AA10020E268FEF777FD002507E0691C9D
:102430003046FEF7B3FC6D1C0C36642D02DAE06802
:102440008542F4DB0020F8BD000000205549445FC0
:102450004E554D202564200A00000000D2B0002512
:102460004F954D954E95FFF72BFFFEF787FBFEF737
:1024700027FBFEF767FBFEF751FBFEF74BF9FEF774
:10248000E8F84FF4614000F0BDF941F61F4143F612
:102490009720FFF737F870A10020FEF73DFDFFF70A
:1024A0005BFF7048FFF798FF704C6F4E04F10B080C
:1024B0006F4F1A343078012804D16EA10020FEF746
:1024C0002BFD35704EA8FFF75BFA3878012876D1DE
:1024D0004DAA4FA96548FEF7B5FC002818D14D98C4
:1024E000062815D2DFE800F08503153258755F4BDA
:1024F000012266A10020FEF70FFD6AA10520CDE9AB
:1025000000016A4B57489A1D69A10E38FDF7A6FED7
:102510006FE0564B02225DA10020FEF7FDFC514901
:102520000C220E394046FDF728FE40B161A1002083
:10253000FEF7F2FC4B490120FDF73CFF59E066A194
:102540000020FEF7E9FC47490020F5E7474B03224E
:102550004EA10020FEF7E0FC42490C220E39404615
:10256000FDF70BFE38B10120FDF7F0FE62A100205F
:10257000FEF7D2FC3DE069A10020FEF7CDFC4E98AD
:1025800006211D3890FBF1F122463648FFF768FE20
:102590000020FDF7DBFE2CE0344B04223BA10020A1
:1025A000FEF7BAFC2F490C220E394046FDF7E5FD37
:1025B00030B1002211460120FDF796FE19E019E026
:1025C0002A493A48498BA0F80310821DC11C0020FB
:1025D000F2E7264B05222DA10020FEF79DFC2149A4
:1025E0000C220E394046FDF7C8FD38B10120FDF739
:1025F000C7FE3D700220FFF795FE5BE764211BA834
:10260000FDF7A9FD642102A8FDF7A5FD642134A80A
:10261000FDF7A1FD50AB02AA51A91BA80094FEF73B
:10262000E8FB02A95098CDE900011BAB43A10020B3
:10263000519AFEF771FC642134A8FEF7CEFB00200E
:10264000FDF79EFE02A8FFF75FF95098C1B202A8FD
:10265000FFF717FBCDE70000696E6974204F4B2030
:102660000A00000076010020EE000020260600206F
:1026700048000020434F4D4D5F54696D656F757480
:102680005F4576656E74200A000000005749464990
:102690005F526563765F4576656E742564202573A9
:1026A0000A0000005253312E3000000000000020CC
:1026B00031303100434F4D4D414E445F53595354D7
:1026C000454D494E464F2020204E6F74204D61707D
:1026D00070696E6700000000434F4D4D414E445FEE
:1026E00053595354454D494E464F20204D6170700B
:1026F000696E670A00000000434F4D4D414E445F34
:102700005345544E4554574F524B2020204E6F7422
:10271000204D617070696E6700000000434F4D4DA1
:10272000414E445F5345544E4554574F524B202021
:10273000204D617070696E6700000000434F4D4D81
:10274000414E445F534554574946495041535357AE
:102750004F52442025642025732025642025730AC8
:10276000000000000178C278303901EB4103C3EB6F
:10277000C11102EBC102417880786423594300EB18
:10278000800001EB40001044A0F5A050D03880B28A
:1027900070470378302202EB13130B70037803F0B9
:1027A0000F0330334B70437802EB13138B70437875
:1027B00003F00F033033CB70837802EB13130B71EC
:1027C000837803F00F0330334B71C37802EB13139C
:1027D0008B71C37803F00F033033CB71037902EBB5
:1027E00013130B72037903F00F0330334B724379E9
:1027F00002EB13128A72407900F00F003030C87279
:10280000704700002DE9F0418046012186B0480460
:10281000FEF7F4F901210420FEF708FA2D4E3046A8
:10282000FEF79CFF0425ADF8005003248DF802400C
:102830001820294F8DF8030069463846FDF7E8FF58
:102840000820ADF800008DF8035069463846FDF7C2
:10285000DFFF0021ADF80C10ADF808100C20ADF82A
:102860000A10ADF81010ADF80E00CDF8048001A9E3
:102870003046FEF7EBFF26208DF814008DF815404A
:102880008DF8164001208DF8170005A8FEF77AF99B
:10289000012240F225513046FEF7C0FF01213046AB
:1028A000FEF752FF01210820FEF7C0F910208DF835
:1028B00003008DF80240C402084DADF8004069469F
:1028C0002846FDF7A5FF21462846FDF7FBFF06B089
:1028D000BDE8F0810044004000080140000C0140C8
:1028E0003031323334353637383941424344454646
:1028F0005465726D696E616C000000001C2900084F
:10290000000000206801000004020008D829000827
:1029100068010020D0140000D01E000801174502F5
:102920000406082D01020304042506070809845142
:10293000250289150112136932181766D1690C0A2C
:102940009F392929C0501453081F90D3641033D1E4
:1029500035131A4B13180D280A53080F70A6C91007
:1029600020A112131A5A1317140553100750200FE1
:1029700066EC1DF0801408910302D0AEE03516F429
:1029800010E24220F80A814271CE1C425B1C1C46B8
:10299000111AB48A211312045AAA9A4DD42D011F78
:1029A000A1212360FF161F10504D06130F70358AAA
:1029B000183F7F580B53454747455220525454E91E
:1029C000590413F0281408260E1220022604393068
:0829D000121203272010000081
:04000005080000ED02
:00000001FF
