:020000040800F2
:100000003020002001010008090100080B01000850
:100010000D0100080F010008110100080000000098
:1000200000000000000000000000000013010008B4
:100030001501000800000000170100081901000860
:100040001B0100081B0100081B0100081B01000820
:100050001B0100081B0100081B0100081B01000810
:100060001B0100081B0100081B0100081B01000800
:100070001B0100081B0100081B0100081B010008F0
:100080001B0100081B0100081B0100081B010008E0
:100090001B0100081B0100081B010008CD0A000815
:1000A0001B0100081B0100081B0100081B010008C0
:1000B000B5220008752300085D2400081B01000814
:1000C0001B0100081B0100081B0100081B010008A0
:1000D0001B01000815280008752A00081B010008EC
:1000E0001B0100081B0100081B010008DFF80CD0F1
:1000F00000F076F800480047553B0008302000200B
:100100000648804706480047FEE7FEE7FEE7FEE7B1
:10011000FEE7FEE7FEE7FEE7FEE7FEE765220008F2
:10012000ED00000840EA01039B0703D009E008C97D
:10013000121F08C0042AFAD203E011F8013B00F8AC
:10014000013B521EF9D27047D2B201E000F8012BF8
:10015000491EFBD270470022F6E710B513460A4647
:1001600004461946FFF7F0FF204610BD421C10F868
:10017000011B0029FBD1801A704730B504460020CE
:10018000034600E05B1C934203D2E05CCD5C401B65
:10019000F8D030BD30B505460020034600E05B1CBA
:1001A000934205D2EC5CC85C201A01D1002CF6D138
:1001B00030BD30B50B46014600202022012409E065
:1001C00021FA02F59D4205D303FA02F5491B04FA10
:1001D00002F52844151EA2F10102F1DC30BD000039
:1001E000064C074D06E0E06840F0010394E8070084
:1001F00098471034AC42F6D3FFF77CFF104A000852
:10020000304A000870B58C1810F8015B15F0070330
:1002100001D110F8013B2A1106D110F8012B03E09F
:1002200010F8016B01F8016B5B1EF9D12B0705D4A7
:100230000023521E0DD401F8013BFAE710F8013BF0
:10024000CB1A921C03E013F8015B01F8015B521E0C
:10025000F9D5A142D8D3002070BD00002DE9F043AC
:1002600085B00F46DDE90D5804461E4640F2C941EF
:100270001748DDF83090FFF76EFF65208DE84102EA
:10028000CDE903583B4613A1114805F1250203F0BF
:1002900033F90F48217800F10902417061788170CB
:1002A000A178C170E1780171217941716179817121
:1002B000A179C171E179017211A1002001F04CFC1A
:1002C00005B005F12F01BDE8F043014802F08ABEF8
:1002D00062170020613030303030303030415053C0
:1002E0003131253034643031257325303364253085
:1002F00033642573253033642573454E440A00006A
:100300004150505F526573706F6E73655F426173E9
:1003100065496E666F2025730A00000070B50D46B2
:10032000044640F2C9410F48FFF715FF2A460EA1C7
:100330000C4803F0E1F80B48217841706178817036
:10034000A178C170E1780171217941716179817180
:10035000A179C171E1790172BDE87040172102F005
:1003600041BE000062170020613030303030303044
:1003700030415053313130303133303625303264F2
:100380000A0000002DE9F0410D4604461E461746BE
:1003900040F2C9411C48FFF7DEFE28461A4D0128ED
:1003A0001BD033463A4619A1284603F0A5F8207819
:1003B00068706078A870A078E870E078287120797B
:1003C00068716079A871A079E871E07928721F21BD
:1003D000BDE8F0410C4802F005BE15A10A4803F043
:1003E0008BF8207868706078A870A078E870E07862
:1003F0002871207968716079A871A079E871E07935
:1004000028721721E4E700006217002061303030C5
:10041000303030303041505331313030323130347F
:100420003030257325303364454E440A0000000007
:100430006130303030303030304150533131303035
:100440003133303430310A0070B50D46044640F285
:10045000C9410F48FFF77FFE2A460EA10C4803F062
:100460004BF80B482178417061788170A178C17098
:10047000E17801712179417161798171A179C1714D
:10048000E1790172BDE87040172102F0ABBD0000B8
:1004900062170020613030303030303030415053FE
:1004A0003131303031333033253032640A000000CE
:1004B00070B50D46044640F2C9410F48FFF74BFEA8
:1004C0002A460EA10C4803F017F80B48217841701A
:1004D00061788170A178C170E178017121794171F1
:1004E00061798171A179C171E1790172BDE87040D2
:1004F000172102F077BD0000621700206130303014
:10050000303030303041505331313030313330358C
:10051000253032640A0000002DE9FF478846054671
:100520001F461446002640F2C9416E48FFF713FEED
:100530004046DFF8B08101281DD06BA1404602F093
:10054000DBFF297888F80110697888F80210A9780B
:1005500088F80310E97888F80410297988F80510DC
:10056000697988F80610A97988F80710E97988F878
:100570000810C14664E062A15A4802F0BDFF297824
:1005800088F80110697888F80210A97888F80310B3
:10059000E97888F80410297988F80510697988F8CD
:1005A0000610A97988F80710E97988F8081017214A
:1005B00091E000BF06EB460109EB81052068C5F814
:1005C0001600A0886883A07863792279E1788DE8A5
:1005D0000F006378227850A1002001F0BDFAE08876
:1005E00057A1000A2877A0796877E288002001F0F7
:1005F000B3FA208957A1000AA877207AE8772289E0
:10060000002001F0A9FAA07AC0F340029046410709
:1006100003D5C0F3800342EA4308C0F3800352A12C
:10062000002001F099FA05F8208F207B687042467F
:1006300053A1002001F090FA0D34761C642E01DAEB
:10064000BE42B7DB0A20002F30DD07EB4701102246
:1006500002EB81044FF47A7194FBF1F2303289F8A5
:100660000E20642294FBF2F292FBF0F300FB1322C3
:10067000303289F80F2094FBF0F292FBF0F300FB8C
:100680001322303289F8102094FBF0F200FB124262
:10069000494630324A7409EB040145228A714E22E0
:1006A000CA7144220A72487200250AE00D490D24DD
:1006B0000025887519F8052036A1002001F04CFAB4
:1006C0006D1C04F109008542F4DB34A1002001F027
:1006D00043FA04F10A0104B00248BDE8F04702F011
:1006E00081BC000062170020613030303030303083
:1006F00030415053313130303133303230300000FE
:100700006130303030303030304150533131303062
:100710003133303230310A0053797374656D496E6C
:10072000666F2025303278253032782530327825B2
:100730003032782530327825303278202020000081
:1007400068656172745F7261746520256420202081
:10075000200000006F66665F74696D657320256414
:1007600020202020000000006D6F733A25642020B7
:100770002066756E6374696F6E20256420202000EA
:100780006D6F735F615F66756E6374696F6E202550
:10079000640A000025303278200000000A000000C2
:1007A00070B503F0B7F8032117A002F01BFC4FF45B
:1007B000AF76304603F0D2F8144C4FF0FF35A089E5
:1007C000B8B1012212A11348FFF7D7FC88B903F092
:1007D000A1F801210EA002F005FC304603F0BEF89E
:1007E000A089032805D303220BA10A48FFF7C5FC03
:1007F00008B1284670BD09A1002001F0ADF903F051
:1008000089F8002070BD00002B2B2B007000002009
:1008100061000000520F00202B6F6B004154203A02
:10082000612B6F6B0A00000010B503F073F808210C
:100830000EA002F0D7FB4FF4967003F08FF80E482D
:100840004FF0FF3480890A2805D303220BA10C48FE
:10085000FFF793FC08B1204610BD0AA1002001F06B
:100860007BF903F057F8002010BD000041542B45E0
:100870004E544D0A00000000700000202B6F6B00EA
:100880005B0F002041542B454E544D203A2B6F6B8B
:100890000A00000010B59AB0044664216846FFF7CC
:1008A0005AFC03F037F8224617A1684602F024FEEE
:1008B0006A461CA1002001F04FF96846FFF756FC7C
:1008C000411C684602F08EFB4FF47A7003F046F844
:1008D00015484FF0FF3480890A280AD36846FFF78D
:1008E00045FC12490322084411A1401CFFF745FCB6
:1008F00010B120461AB010BD0EA1002001F02CF955
:1009000003F008F80020F5E741542B57414B4559B7
:100910003D5750413250534B2C4145532C25730ABF
:10092000000000002573000070000020520F00201E
:100930002B6F6B0041542B57414B4559203A2B6F7D
:100940006B0A000010B59AB0044664216846FFF7B0
:1009500002FC02F0DFFF224617A1684602F0CCFD40
:100960006A461DA1002001F0F7F86846FFF7FEFB7C
:10097000411C684602F036FB4FF47A7002F0EEFF3D
:1009800016484FF0FF3480890A280AD36846FFF7DB
:10099000EDFB13490322084412A1401CFFF7EDFBB5
:1009A00010B120461AB010BD0FA1002001F0D4F8FC
:1009B00002F0B0FF0020F5E741542B5741503D3184
:1009C0003142474E2C4543555F52535F25732C41AE
:1009D00075746F0A0000000025730000700000208D
:1009E000520F00202B6F6B0041542B574150203A7F
:1009F0002B6F6B0A0000000010B502F08BFF052181
:100A00000EA002F0EFFA4FF4967002F0A7FF0D4827
:100A10004FF0FF348089062805D303220AA10B4832
:100A2000FFF7ABFB08B1204610BD09A1002001F083
:100A300093F802F06FFF002010BD000041542B5AC4
:100A40000A000000700000202B6F6B00580F002080
:100A500041542B5A203A2B6F6B0A000010B501F05D
:100A600047FA01F03BFA022001F0C8F901F090F9D1
:100A7000002000F020F800F013F8222000F0B2F877
:100A800006210A2001F03DF92221652001F080FBBA
:100A9000102001F0B3F9BDE81040102001F0AEB90C
:100AA00010B56C2001F0D0FA40F00301BDE8104011
:100AB0006E2001F06DBB10B507216A2001F068FBC4
:100AC0003F21BDE810406B2001F062BB70B51420DF
:100AD00002F044FF0E4C00264FF4007061680129BB
:100AE00007D0054601460B4800F0FBF8012802D06C
:100AF00009E0666008E0A068401CA060012802DDF3
:100B00000120A66020702846BDE8704000F02CB897
:100B100060000020000C01403EB500F0B1FA012158
:100B2000084600F045FB0921012000F075F84FF45C
:100B30000070002400908DF8044008208DF8050016
:100B400001258DF80650684600F014F817208DF83E
:100B500008008DF8094003208DF80A008DF80B502D
:100B600002A800F0D1FA3EBD0149086070470000BC
:100B70001404014030B51A498379026853B30B68F5
:100B800093430B600A1D13680468A3431360027942
:100B90000A441368046823431360114A0832136837
:100BA0000468A3431360131D1C680568AC431C60F4
:100BB0004479102C05D021440A68006802430A6079
:100BC00030BD116804682143116019680068014351
:100BD000196030BD0079084401689143016030BD5F
:100BE000000401400146682001F0D2BA10B5692026
:100BF00001F02AFA20F00101BDE81040692001F05F
:100C0000C7BA10B5692001F01FFA40F00101BDE834
:100C10001040692001F0BCBA10B58A0721F0030426
:100C20000649130F21440F228C689A4094438C602C
:100C30008A68984002438A6010BD000000000140AD
:100C4000F0B5CA78002502F00F03D20601D58A78E4
:100C500013430A784FF00F0E12F0FF0F4FF001020E
:100C60001CD004680F8802FA05F63740B74211D14C
:100C70004FEA850C0EFA0CF724EA070703FA0CF486
:100C80003C43CF78282F02D0482F02D002E04661A3
:100C900000E006616D1C082DE4D304600C88FF2C75
:100CA0001ED944685FF0000606F1080702FA07F54E
:100CB0000F882F40AF420FD14FEA860C0EFA0CF787
:100CC000BC4303FA0CF73C43CF78282F00D1456191
:100CD000CF78482F00D10561761C082EE4D34460FC
:100CE000F0BD0246002092680A4200D00120704701
:100CF00041617047016170476A2001F0A5B90000A9
:100D00002DE9F047214D0646287810B101280BD077
:100D10001DE0082001F072F8FFF768FF00F03AF8D4
:100D20000528FBD101202870DFF8649000244FF4DF
:100D300000684FF4C87741464846FFF7D2FF0128C4
:100D40000BD0012002F00AFE641CBC42F3DB2878C1
:100D5000022804D00020BDE8F0870220287001F0AE
:100D600031F90746002404E001F02CF93055641CE9
:100D7000E4B2BC42F8D3002000F086FD0020FFF76B
:100D80009AFE032028703846E5E700008400002022
:100D9000000C014010B5612001F056F900F00F0081
:100DA00010BD000000B513A387B00ECB8DE80E0078
:100DB000002103910491059120B1012818D0022847
:100DC00016D110E00A21684602F00AFA0A2103A8A7
:100DD00000F0C0FD0A2203A96846FFF7CEF910B162
:100DE000012007B000BD02F051F908B10220F8E778
:100DF0000020F6E759554E454E472041505300001C
:100E000010B50E4C40212046FFF772FF802120468E
:100E1000FFF76EFF80212046FFF76AFF0F2000F0EA
:100E20000FF840212046FFF765FF0F2000F008F87B
:100E30002046BDE810404021FFF75ABF000C01409A
:100E4000002100E0491C8142FCD3704770B5124D6F
:100E5000002440212846FFF74DFF0F20FFF7F0FF49
:100E600080212846FFF746FF01E0641CE4B28021A0
:100E70002846FFF736FFC00701D0FF2CF5D38021AD
:100E80002846FFF735FF40212846FFF731FFBDE830
:100E900070400F20FFF7D4BF000C014070B51A4E10
:100EA000002540213046FFF723FF0F20FFF7C8FF42
:100EB00080213046FFF71EFF0F20FFF7C1FF802182
:100EC0003046FFF717FF002440213046FFF712FF9E
:100ED0000F20FFF7B5FF80213046FFF702FF00F03B
:100EE00001020F20FFF7ACFF42EA4500C5B24021E6
:100EF0003046FFF7FDFE0F20FFF7A2FF641CE4B2AF
:100F0000082CE1D3284670BD000C014070B51B4E83
:100F1000054680213046FFF7EBFE00244021304695
:100F2000FFF7E6FE0F20FFF78BFFE8094FF0800187
:100F3000304602D0FFF7DEFE01E0FFF7D9FE0F20BA
:100F4000FFF77EFF40213046FFF7D4FE0F20FFF76A
:100F500077FF0F20FFF774FF6806050E641C082C4E
:100F6000DCD340213046FFF7C3FE80213046FFF737
:100F7000C1FEBDE870400F20FFF762BF000C0140CA
:100F800010B50E4C80212046FFF7B2FE802120468E
:100F9000FFF7B0FE40212046FFF7ACFE0F20FFF721
:100FA0004FFF80212046FFF7A3FE0F20FFF748FFE9
:100FB0002046BDE810404021FFF79ABE000C0140DA
:100FC00010B50C4C80212046FFF792FE8021204670
:100FD000FFF78EFE0F20FFF733FF40212046FFF77B
:100FE00089FE0F20FFF72CFF2046BDE8104080212E
:100FF000FFF780BE000C0140F8B50121082000F089
:10100000D7F84020ADF800001025114E8DF80350A0
:1010100003248DF8024069463046FFF711FE802018
:10102000ADF8000014208DF803008DF802406946E9
:101030003046FFF705FE2020ADF800008DF8035084
:101040008DF8024069463046FFF7FAFDF8BD000012
:10105000000C014008B50121082000F0A9F84FF468
:101060008040ADF8000004208DF8030003208DF8C7
:10107000020069460148FFF7E3FD08BD000C01408E
:1010800008B50121082000F093F84FF40070ADF886
:10109000000048208DF8030069460248FFF7D0FDA4
:1010A00008BD0000000C014038B50121042000F00B
:1010B0007FF810208DF8030003208DF80200074D03
:1010C0004FF40064ADF8004069462846FFF7B8FDCC
:1010D00021462846FFF70EFE38BD000000080140FB
:1010E0004FF400610148FFF705BE00000008014011
:1010F0004FF400610148FFF7FBBD0000000801400C
:101100004FF4A06000F032B870B50F23C4780178B6
:101110000122F4B1144C2468457804F4E064C4F569
:10112000E064240AC4F10406E3408478B5401C401E
:101130002C4301F1E021230181F80034007800F014
:101140001F018A404009800000F1E020C0F8002122
:1011500070BD01F01F0082404809800000F1E020CE
:10116000C0F8802170BD00000CED00E0024908438A
:1011700002490860704700000000FA050CED00E02D
:10118000044A0029D16901D0014300E08143D161C3
:101190007047000000100240044A0029116901D084
:1011A000014300E0814311617047000000100240DC
:1011B000044A0029916901D0014300E08143916113
:1011C0007047000000100240044A0029D16801D095
:1011D000014300E08143D1607047000000100240ED
:1011E00030B51F494A6812F00C031E4A03D0042B85
:1011F00001D0082B21D002604A680F231A4C03EA61
:101200001212A35C0268DA4042604B68072505EAC7
:101210001323E35C22FA03F383604B6805EAD323CC
:10122000E35CDA40C2604968032303EA9131231F7B
:10123000595CB2FBF1F1016130BD4A684B6802F4C0
:1012400070124FF0020413F4803F04EB924202D07C
:101250004B689B0301D5054B00E0024B5A43CAE79C
:101260000010024000127A003C00002000093D00FE
:101270002DE9F04196B00D460646984617460024E3
:10128000202104A8FEF767FF20210EA8FEF763FFC8
:10129000FB208DF810008DF8110015208DF812003C
:1012A00008218DF8131031788DF8141071788DF8AD
:1012B0001510B1788DF81610F1788DF81710317976
:1012C0008DF8181071798DF8191029788DF81A1089
:1012D00069788DF81B10A9788DF81C10E9788DF8C5
:1012E0001D1029798DF81E1069798DF81F108DF861
:1012F000207000218DF821808DF822108DF82310A8
:101300000991032104AAC01C02E0535C491C1C443F
:101310008842FADCE01704EB1060010A8DF828100F
:1013200020468DF82900FE208DF82A008DF82B002C
:101330001C21104600F0FCFC0EA8FFF7E1FC1C2865
:1013400057D19DF83B00D82853D19DF814009DF843
:101350003C1088424DD19DF815009DF83D10884203
:1013600047D19DF816009DF83E10884241D19DF866
:1013700017009DF83F1088423BD19DF818009DF85A
:101380004010884235D19DF819009DF841108842DF
:101390002FD19DF81A209DF84200824229D19DF854
:1013A0001B309DF84300834223D19DF81C509DF8CB
:1013B000440085421DD19DF81D409DF845008442A2
:1013C00017D19DF81E109DF84600814211D19DF85D
:1013D0001F009DF84760B0420BD1CDE90210CDE966
:1013E000005406A1002000F0B7FB012016B0BDE8B4
:1013F000F081142002F0B2FA0020F7E752464D3394
:1014000030305F42696E645F556964202530327800
:1014100025303278253032782530327825303278D0
:10142000253032780A0000002DE9F0479AB00E46C8
:10143000DDE9229A0746984614460025202109A88E
:10144000FEF789FE202111A8FEF785FEFB208DF80E
:1014500024008DF8250015208DF8260000218DF838
:1014600027103A788DF828207A788DF82920BA78D4
:101470008DF82A20FA788DF82B203A798DF82C20D7
:101480007A798DF82D2032788DF82E2072788DF8AB
:101490002F20B2788DF83020F2788DF83120327913
:1014A0008DF8322072790D910E918DF83320032141
:1014B00009AAC01C02E0535C491C1D448842FADCA6
:1014C000E81705EB1060010A8DF83C1028468DF8EE
:1014D0003D00FE208DF83E008DF83F001C21104697
:1014E00000F026FC11A8FFF70BFC1C287DD19DF80D
:1014F0004700D02879D19DF828009DF848108842EF
:1015000073D19DF829009DF8491088426DD19DF84E
:101510002A009DF84A10884267D19DF82B009DF85B
:101520004B10884261D19DF82C009DF84C108842E8
:101530007BD19DF82D009DF84D10884275D19DF806
:101540002E009DF84E1088426FD19DF82F009DF817
:101550004F10884269D19DF830009DF850108842A4
:1015600063D19DF831009DF8511088425DD19DF8FE
:1015700032009DF85210884257D19DF833009DF8F3
:101580005310884251D19DF854000028207846D04D
:1015900020F0020020709DF855000028207841D0EE
:1015A00020F0040020709DF857009DF8561000EBC5
:1015B0000120A9F800009DF859009DF8581000EB93
:1015C0000120A8F800009DF85A008AF80000217850
:1015D000B9F80020B8F80030CDE90720C1F3800445
:1015E000CDE90543C1F3400000E01EE09DF8332043
:1015F0009DF832309DF83110CDE90320CDE901137B
:101600009DF8300000909DF82F309DF82E2009A104
:10161000002000F0A1FA01201AB0BDE8F08740F0E8
:101620000200B7E740F00400BCE7142002F096F98E
:101630000020F1E752464D3330305F4865617274E7
:101640005F4265617420253032782530327825304C
:1016500032782530327825303278253032782020A3
:101660002564202564202564202564202564200A23
:10167000000000002DE9F04F93B00E46DDE91C9804
:1016800007461C4692460025202103A8DDF878B0C5
:10169000FEF761FD20210BA8FEF75DFDFB208DF814
:1016A0000C008DF80D0015208DF80E008DF80FA0A0
:1016B00039788DF8101079788DF81110B9788DF887
:1016C0001210F9788DF8131039798DF81410797992
:1016D0008DF8151031788DF8161071788DF8171077
:1016E000B1788DF81810F1788DF8191031798DF8DE
:1016F0001A1071798DF81B100021079108910321B0
:1017000003AAC01C02E0535C491C1D448842FADC59
:10171000E81705EB1060010A8DF8241028468DF8B3
:101720002500FE208DF826008DF8270000251C21BD
:1017300003A800F0FDFA0BA8FFF7E2FA1C287DD100
:101740009DF82F00D12879D19DF810009DF8301018
:10175000884273D19DF811009DF8311088427AD1EA
:101760009DF812009DF83210884274D19DF8130044
:101770009DF8331088426ED19DF814009DF8341006
:10178000884268D19DF815009DF83510884262D1D5
:101790009DF816009DF8361088425CD19DF8170020
:1017A0009DF83710884256D19DF818009DF83810E2
:1017B000884250D19DF819009DF8391088424AD1CD
:1017C0009DF81A009DF83A10884244D19DF81B00FC
:1017D0009DF83B1088423ED19DF83C0000282078BF
:1017E00033D020F0020020709DF83D0000282078C2
:1017F0002ED020F0040020709DF83F009DF83E1090
:1018000000EB0120A8F800009DF841009DF8401071
:1018100000EB0120A9F800009DF842208BF8002081
:10182000B9F80000B8F800108DE8070020780DA185
:10183000C0F38003C0F34002002000E00BE000F0A2
:101840008BF9012013B0BDE8F08F40F00200CAE729
:1018500040F00400CFE76D1C032DFFF668AF0020B9
:10186000F0E7000052464D3330305F494F5F496E1C
:1018700069742020256420256420256420256420A7
:101880002564200A0000000010B530B1702000F07F
:10189000DBFBC0F18000C0B210BDBDE810406F207E
:1018A00000F0D2BB2DE9F041C7B2C0F307261546C0
:1018B0000C46FFF765FBA020FFF728FBFFF7C6FAF1
:1018C0003046FFF723FBFFF7C1FA3846FFF71EFB50
:1018D000FFF7BCFAFFF754FBA120FFF717FBFFF758
:1018E000B5FA09E0FFF7DAFA2870012C01D9FFF701
:1018F00087FA641EE4B26D1C002CF3D1FFF760FB85
:10190000BDE8F0414FF47A70FFF79ABA10B530B1E4
:10191000024602212020FFF7C5FF002010BD4FF036
:10192000FF3010BD10B530B1024606211020FFF780
:10193000B9FF002010BD4FF0FF3010BD10B530B121
:10194000024601213020FFF7ADFF002010BD4FF00F
:10195000FF3010BD10B528B102460020FFF7A2FFEE
:10196000002010BD4FF0FF3010BD10B548B1F82277
:1019700002EBC103024606211846FFF793FF002041
:1019800010BD4FF0FF3010BD10B548B1FE2202EB84
:10199000C103024601211846FFF784FF002010BD55
:1019A0004FF0FF3010BD10B548B1FF2202EBC1036C
:1019B000024601211846FFF775FF002010BD4FF0C9
:1019C000FF3010BD10B530B1024602214020FFF7B4
:1019D00069FF002010BD4FF0FF3010BD10B528B1D9
:1019E00002465020FFF75EFF002010BD4FF0FF3091
:1019F00010BD2DE9F0410D46069C90466FF02F0674
:101A000021786278303901EB810106EB41010A440B
:101A10001F46A11C2A60FEF785FB2868E11C425C7A
:101A2000A11C241D405C303800EB800006EB400018
:101A300002443A60286801194046FEF773FB002013
:101A4000BDE8F08170B515460E46044603220CA190
:101A5000FEF7A0FB10B14FF0FF3070BD601D02F02B
:101A6000EDF83060607AA17A303800EB80006FF0DA
:101A70002F0202EB400008442860002070BD0000E7
:101A80004150530070B515460E46044603220CA182
:101A9000FEF780FB10B14FF0FF3070BD601D02F00B
:101AA000CDF83060607AA17A303800EB80006FF0BA
:101AB0002F0202EB400008442860002070BD0000A7
:101AC000454355002DE9F041884600EB400121488F
:101AD000164600EBC104E16A01F0030002280BD0B6
:101AE000A06A626A801A401E01D5226A10448642AA
:101AF00002DD89072BD006464EB30027A06A616A33
:101B0000451A6D1E01D5206A0544D4E90801411A21
:101B1000A94201DC616A451AB54200DB3546616ABB
:101B2000E0692A4608444146FEF7FCFA606A2F4401
:101B3000A844761B28446062606A216A884201D109
:101B400000206062002ED9D13846BDE8F081002027
:101B5000FBE70000AC0100200FB408B504A9009118
:101B60006A46039900F004F801B05DF814FB000028
:101B70002DE9F04198B0064607A8029040200025C4
:101B8000CDE90305CDE9055690460C4614F8011B36
:101B9000002971D0252908D002A801F08DFC0598F4
:101BA0000028F3DA18B0BDE8F0810020217823295D
:101BB0001BD02B2916D02D290ED030290FD0002272
:101BC0002178A1F130030A2B13D202EB820201EB40
:101BD0004202303A641CF3E740F0010007E040F0B5
:101BE000020004E040F0040001E040F00800641C42
:101BF000DCE70023CFB22E2F0CD100BF14F8011F59
:101C0000A1F130070A2F05D203EB830301EB430355
:101C1000303BF3E76C290DD068290BD0702954D0E4
:101C20000BDC252916D0582931D063290CD0642922
:101C300013D114E014F8011BECE7732934D0752993
:101C40001BD0782909D122E0D8F80000011DC8F87E
:101C50000010017802A801F02FFC641C9FE7D8F85F
:101C600000100F1DC8F800700968CDE900200A2295
:101C700002A801F051FBF0E733E0D8F800100F1D87
:101C8000C8F800700968CDE900200A2208E0D8F8F9
:101C900000100F1DC8F800700968CDE9002010225F
:101CA00002A801F09BFBD8E7D8F80000011DC8F896
:101CB0000010076817F8011B0029CED002A801F018
:101CC000FBFB05980028F5DAC7E7D8F80000011DEE
:101CD000C8F8001001680820CDE90005034610226D
:101CE000DEE7059800287FF75DAF049820B1024633
:101CF00007A93046FFF7E6FEDDE904010844059038
:101D000050E770B505460C46662000F09DF900F0DE
:101D1000E0012943662000F03BFA672000F094F9C7
:101D200000F0E0012143BDE87040672000F030BAC8
:101D300070B506460D46084600F0B6F8FEF761FF9E
:101D4000FEF7AEFE022000F059F800BFFFF722F8C0
:101D50000228FBD1002404E0305D00F0D9F9641CB6
:101D6000E4B2AC42F8D3402000F048F8FEF7C4FFDC
:101D70000828FBD10020FEF79EFE102000F03EF860
:101D8000024900200870012070BD0000840000207E
:101D900070B51948417804291AD2DB3000F12504C6
:101DA000A0F15B05012904D002290AD003291BD028
:101DB0000EE0114911228231FEF7B4F9B5F8130093
:101DC00005E00D4911229531FEF7ACF9E88CA082AF
:101DD000094D0024BB352046295D00F0D9F9641C6B
:101DE000E4B2602CF7D370BD03491122A831FEF78D
:101DF00099F9B5F83900EAE784000020014660202F
:101E000000F0C6B90CB50021254801910091026887
:101E100042F4803202604FF4A063026802F40032A0
:101E20000092019A521C0192009A12B9019A9A42A8
:101E3000F3D10268920331D50121009119490A6852
:101E400042F010020A600A6822F003020A600A687F
:101E500042F001020A6041684160416841604168A6
:101E60004160416821F47C114160416841F4F811FE
:101E70004160016841F08071016001688901FCD511
:101E8000416821F003014160416841F00201416075
:101E90004168C1F381010229FAD10CBD00910CBD4A
:101EA000001002400020024010B504460220FFF757
:101EB000A5FF452000F0C8F800F08F00C4F3022110
:101EC00040EA0111452000F063F9E1B2462000F03C
:101ED0005FF9BDE810401020FFF790BF10B5FF215B
:101EE0007F2000F055F9BDE81040142001F036BD08
:101EF0002DE9F84F01210820FFF75AF94FF48046E9
:101F0000ADF800601025DFF8B8A08DF80350032469
:101F10008DF8024069465046FEF792FE01210820E6
:101F2000FFF746F96F02ADF800708DF803508DF899
:101F3000024069465046FEF783FE01210820FFF764
:101F400037F94FF48058ADF800808DF803508DF8C4
:101F5000024069465046FEF773FE01210820FFF754
:101F600027F94FF48069ADF800908DF803508DF893
:101F7000024069465046FEF763FE01210820FFF744
:101F800017F9E801ADF8000048208DF803008DF83E
:101F9000024069465046FEF753FE39465046FEF76A
:101FA000A9FE49465046FEF7A5FE31465046FEF7CB
:101FB000A1FE41465046FEF79BFEBDE8F88F0000AB
:101FC000000C01402DE9F0410024FFF791FF1D4E68
:101FD0004FF480613046FEF78BFEFFF73BF8082098
:101FE00001F0D2FC0025B7144FF480486006040EBF
:101FF00039463046FEF77CFE022001F0C5FC39462A
:102000003046FEF777FE022001F0BEFC4146304626
:10201000FEF767FE012801D144F001046D1CEDB20A
:10202000082DE3D339463046FEF762FE042001F066
:10203000ABFCFFF75DFF082001F0A6FC2046BDE8E1
:10204000F0810000000C01402DE9F047002440F031
:102050008007FFF74DFF2D4E4FF400513046FEF73D
:1020600047FE022001F090FC0025B0464FF4804965
:10207000B61438064946404602D5FEF73BFE01E05D
:10208000FEF736FE31464046FEF732FE022001F0F2
:102090007BFC31464046FEF72DFE022001F074FC29
:1020A00078066D1C070EEDB2082DE2D3494647466F
:1020B0004046FEF71FFEFEF7CDFF08256006040E22
:1020C00031463846FEF714FE022001F05DFC314631
:1020D0003846FEF70FFE022001F056FC494638460E
:1020E000FEF7FFFD012801D144F001046D1E15F03B
:1020F000FF05E3D131463846FEF7FAFD022001F034
:1021000043FCFFF7F5FE2046BDE8F087000C0140D8
:102110002DE9F0410546FFF7EBFE1C4E4FF48061C0
:102120003046FEF7E5FD082001F02EFC00244FF4B8
:102130008048B71428064146304602D5FEF7DAFD3E
:1021400001E0FEF7D5FD39463046FEF7D1FD02200D
:1021500001F01AFC39463046FEF7CCFD022001F0B2
:1021600013FC6806641C050EE4B2082CE2D3394661
:102170003046FEF7BDFD042001F006FCFFF7B8FE77
:10218000BDE8F041082001F0FFBB0000000C014059
:102190002DE9F0470E4620F08007FFF7A9FE2A4CF4
:1021A0004FF400512046FEF7A3FD022001F0ECFBA6
:1021B00000254FF480494FF48058380649462046A0
:1021C00002D5FEF797FD01E0FEF792FD414620465D
:1021D000FEF78EFD022001F0D7FB41462046FEF7B8
:1021E00089FD022001F0D0FB78066D1C070EEDB2D0
:1021F000082DE2D30025474630064946204602D541
:10220000FEF778FD01E0FEF773FD39462046FEF744
:102210006FFD022001F0B8FB39462046FEF76AFD4B
:10222000022001F0B1FB70066D1C060EEDB2082D08
:10223000E2D339462046FEF75BFD022001F0A4FB05
:10224000BDE8F047FFF754BE000C01404FF0E0211D
:102250000428086903D020F004000861704740F0AA
:102260000400FAE70F4810B5016841F00101016070
:1022700041680D4A1140416001680C4A11400160FB
:10228000016821F480210160416821F4FE01416070
:102290004FF41F018160FFF7B5FD05494FF0006065
:1022A000086010BD001002400000FFF8FFFFF6FEBE
:1022B00008ED00E070B501218C07204600F041F9DF
:1022C000002820D00121204600F02EF90E4C0125D7
:1022D0000026A068401CA060A570E6702079012847
:1022E0000BD1607928B10020607120B1FEF700FFAA
:1022F00003E00120F8E7FEF7F3FE0449A0688842F6
:1023000001DD6570A66070BDA00100208051010054
:102310007FB50C46054601210846FEF731FFADF8B2
:102320000450ADF8004000244FF08045ADF8064061
:10233000ADF802406946284600F018F9012211461E
:10234000284600F00AF91C208DF80C0001218DF8B8
:102350000D1003208DF80E008DF80F1003A8FEF766
:10236000D3FE0121284600F0E2F8014884707FBDC9
:10237000A001002010B5104C0121204600F0E1F82A
:10238000002817D00121204600F0CEF80B4908782C
:10239000401C40B2087001280CDD09A10020FFF7A5
:1023A000DBFB0C49002008700B490880BDE8104099
:1023B00000F014B810BD000000040040A00100208F
:1023C00054494D335F49525148616E646C65720ADD
:1023D00000000000730000207C0000200349002062
:1023E00008700146024800F0A2B80000A0010020D9
:1023F000000400407FB50C46054601210220FEF78F
:10240000BFFEADF80450ADF800400024114DADF80A
:102410000640ADF802406946284600F0A7F80122C0
:102420001146284600F099F81D208DF80C00012176
:102430008DF80D1003208DF80E008DF80F1003A8F5
:10244000FEF762FE0121284600F071F80248047090
:102450007FBD000000040040A001002010B50E4C1C
:102460000121204600F06DF8002814D001212046FB
:1024700000F05AF809498879401C40B28871012857
:1024800009DD074902200870064900200880BDE8E0
:10249000104000F009B810BD00080040A001002065
:1024A000710000207400002003490020887101465B
:1024B000024800F03CB80000A001002000080040E5
:1024C0007FB50C46054601210420FEF759FEADF804
:1024D0000450ADF800400024114DADF80640ADF8B1
:1024E00002406946284600F041F80122114628467C
:1024F00000F033F81E208DF80C008DF80D400320FD
:102500008DF80E0001208DF80F0003A8FEF7FCFDEA
:102510000121284600F00BF8024884717FBD0000BD
:1025200000080040A0010020C94301827047002933
:10253000018802D041F0010101E021F00101018098
:10254000704702460020138A92890B4202EA010278
:1025500002D0002A00D001207047002A828901D0D1
:102560000A4300E08A4382817047000030B5028848
:102570001B4B1C4C98420DD0A0420BD0B0F1804FA9
:1025800008D0194DA84205D0184DA84202D0184DC8
:10259000A84203D122F070054A882A43154DA8426B
:1025A00006D0154DA84203D022F44075CA882A43AC
:1025B00002808A8882850A88028598420AD0A042D1
:1025C00008D00E4A904205D00D4A904202D00D4AE2
:1025D000904201D1097A01860121818230BD00003B
:1025E000002C01400034014000040040000800407D
:1025F000000C00400010004000140040004001406A
:1026000000440140004801402DE9F0410E4680465B
:1026100000240A4D0DE000BF18F804704021284640
:1026200000F094FA0028F9D03946284600F026FB3D
:10263000641CB442F0DB2046BDE8F0810038014064
:102640002DE9F047704C00258246258160786F4E59
:102650004FF0020841F61F49022827D02AE000BFA8
:10266000FFF722FFA1882089081A80B26081012823
:1026700006D0022808D003280ED005281ED00EE070
:102680003078452803D10AE07078432807D0A58028
:10269000258184F8018002E0B0785528F7D14946B9
:1026A0009520FFF70DFF2089401C20812189A088FB
:1026B0008142D5D36078032824D028E003206070BD
:1026C00049469520FFF7FCFEF4E700BFFFF7ECFE5C
:1026D000A0882189401A80B26081092807D0394634
:1026E0009520FFF7EDFE2089401C20810BE0701D36
:1026F00001F0A4FAE0800420607039469520FFF7CD
:10270000DFFE04E04F462189A0888142DED3607855
:1027100004281BD01FE000BFFFF7C6FEA088218958
:10272000401A81B26181E088C01E884206D105202E
:10273000607039469520FFF7C3FE0CE039469520BE
:10274000FFF7BEFE2089401C208100E04F46208913
:10275000A1888842E0D3607805284FD0BDE8F08793
:10276000FFF7A2FEA0882189401A80B26081E78825
:10277000B91E814208D1F11911F8031C452903D073
:10278000A580258184F80180791E814208D1F11944
:1027900011F8021C4E2903D0A580258184F8018000
:1027A000874224D1B8B2304410F8010C442803D039
:1027B000A580258184F801804FF400711448FDF74D
:1027C000CAFC3A4611491248FDF7ACFCE0881049B2
:1027D000CAF800000D540120207084F80180A58003
:1027E00025814946BDE8F0479520FFF769BE494677
:1027F0009520FFF765FE2089401C20812089A18853
:102800008842ADD3AAE7000070000020520D0020DE
:102810005207002010B50C4C40F22551204600F024
:102820009CF900280ED0204600F024FA0849074BF6
:102830008A889854521C90B28880B0F5007F01D3EA
:102840000020888010BD000000380140520D00209B
:102850007000002010B59AB0044664216846FDF768
:102860007AFC224607A1684600F046FE6A460AA1A5
:102870000020FFF771F910216846FFF7C5FE1AB076
:1028800010BD0000454355313130303136303525EB
:10289000303264454E4400005553415254315F522A
:1028A0006573706F6E73655F464143544F52592094
:1028B00025730A0030B599B00D4604466421684678
:1028C000FDF749FC7CB122460AA1684600F014FEDF
:1028D0006A4610A10020FFF73FF91C216846FFF768
:1028E00093FE19B030BD2B46224611A1684600F078
:1028F00003FEEDE745435531313030323830322573
:10290000303264303030303030303030303030457C
:102910004E4400005553415254315F526573706FFD
:102920006E73655F524541445F49442025730A0038
:10293000454355313130303238303225303264251C
:1029400073454E440000000010B59AB0044664215F
:102950006846FDF700FC224607A1684600F0CCFD62
:102960006A460AA10020FFF7F7F810216846FFF732
:102970004BFE1AB010BD00004543553131303031A7
:1029800036303125303264454E44000055534152B3
:1029900054315F526573706F6E73655F5345545F5A
:1029A00049442025730A000010B59AB004466421FA
:1029B0006846FDF7D0FB224607A1684600F09CFD63
:1029C0006A460AA10020FFF7C7F810216846FFF702
:1029D0001BFE1AB010BD0000454355313130303177
:1029E00036303425303264454E4400005553415250
:1029F00054315F526573706F6E73655F5345545FFA
:102A00004E4554574F524B2025730A0030B599B0AC
:102A10000C46054664216846FDF79DFB23462A4681
:102A200007A1684600F068FD6A460BA10020FFF789
:102A300093F812216846FFF7E7FD19B030BD00009A
:102A4000454355313130303138303325303264250B
:102A5000303264454E4400005553415254315F5268
:102A60006573706F6E73655F544553542025730A08
:102A70000000000010B50E4C40F22551204600F039
:102A80006CF8002812D0204600F0F4F80A4C094AED
:102A9000A1895054491C8AB2A281B2F5806F05D336
:102AA00006A10020FFF758F80020A08110BD00000B
:102AB00000440040520F0020700000202564200ACE
:102AC000000000000029818902D041F4005101E09A
:102AD00021F4005181817047174910B588420AD10D
:102AE00001218C032046FEF76FFB2046BDE8104015
:102AF0000021FEF769BB1149884202D101214C0433
:102B000010E00F49884202D101218C040AE00D49EE
:102B1000884202D10121CC0404E00B4988420AD149
:102B200001210C052046FEF737FB2046BDE810408A
:102B30000021FEF731BB10BD0038014000440040C9
:102B400000480040004C0040005000400246002079
:102B500012880A4200D00120704730B501F01F02F0
:102B600001240025C1F3421304FA02F2012B0FD015
:102B7000022B0FD0838A4FEA11210088134204FAF6
:102B800001F400EA040001D000B10125284630BD5F
:102B90008389F0E7038AEEE710B5C1F3421301F031
:102BA0001F040121A140012B07D0022B07D01430B4
:102BB000002A026805D00A4304E00C30F8E7103020
:102BC000F6E78A43026010BD30B50446008A85B03E
:102BD0000D464CF6FF710840E98801432182A18926
:102BE0004EF6F3100140A8882A8910436A890A43E7
:102BF0001043A081A08A4FF6FF410840A9890143F4
:102C0000A1826846FEF7ECFA1948844201D1039884
:102C100000E00298A189090400EBC00101EB00105B
:102C2000296801D5490000E08900B0FBF1F0642279
:102C3000B0FBF2F109010B096FF018056B4300EBD3
:102C40008300A3891D044FF0320306D503EBC000B7
:102C5000B0FBF2F000F0070005E003EB0010B0FB62
:102C6000F2F000F00F000843208105B030BD0000F5
:102C7000003801408088C0F308007047C1F30801A4
:102C80008180704770B500260546741EC82000F08C
:102C900065FEFDF785FD20B1761C032EF6DB401C9A
:102CA00034D0C82000F05AFE0026C82000F056FE9E
:102CB0002846FDF7EFFD20B1761C032EF5DB401C06
:102CC0001AD00025C82000F049FEFDF795FE002827
:102CD00011D06D1C032DF5DB0025C82000F03EFE51
:102CE000FDF7A2FD20B16D1C032DF6DB401C0DD0BD
:102CF00000F064F9002070BD0025C82000F02EFE11
:102D0000FDF792FD10B16D1C032DF6DB204670BD62
:102D100070B500260546741EC82000F01FFEFDF7A2
:102D20003FFD20B1761C032EF6DB401C2DD0C820C1
:102D300000F014FE0026C82000F010FE2846FDF723
:102D400001FE1DA0FDF7A6FD20B1761C032EF2DBCF
:102D5000401C25D00025C82000F000FEFDF74CFEE9
:102D6000002811D06D1C032DF5DB0025C82000F0D4
:102D7000F5FDFDF759FD20B16D1C032DF6DB401C60
:102D800018D000F01BF9002070BD0025C82000F00D
:102D9000E5FDFDF749FD68B16D1C032DF6DB09E08B
:102DA0000025C82000F0DAFDFDF73EFD10B16D1CD6
:102DB000032DF6DB204670BD3838383838383838BF
:102DC000000000002DE9F047794C8246002525825D
:102DD0002046E778774E82894FF001093FB109E03C
:102DE000131A9BB26382012B07D0401C2082208AD9
:102DF0009042F5D3012F2DD030E0307861286ED18C
:102E000084F8039026E0022801D170780870208AA7
:102E1000032801D1B0784870208A04280AD00528F8
:102E20000BD006280CD007280DD008280ED0092872
:102E300018D00DE0F2788A700AE03279CA7007E0A3
:102E400072790A7104E0B2794A7101E0F2798A710B
:102E5000401C2082208AA2899042D4D3E0780228A4
:102E600004D027E0307AC8710220E070737AB77A14
:102E700096F80BC0A289218A91421BD2501A80B2C7
:102E800060820A2806D00B2807D00C2808D00E280C
:102E90000AD00CE0412B58D109E0502F55D106E063
:102EA000BCF1530F51D102E00320E07018E0491C3F
:102EB0002182E0E7E078032812D015E00A1A92B2E6
:102EC0006282122A02D0401C20820AE039480E3069
:102ED00000F0B4FE0930E0810420E07007E034E047
:102EE000A189208A8842E9D3E078042817D1258275
:102EF000E189A289C91E0FE081420BD10520E07053
:102F00000A2000F02BFD41F61F4140F22B10FFF785
:102F100071FA04E0401C2082208A9042ECD3E078D1
:102F2000052815D12582E789B4F80CC0B81E791E92
:102F30003E4439E0ACEB02039BB26382984209D174
:102F400016F8038CB8F1450F04D0A5812582E570F1
:102F5000BDE8F087994204D116F8028CB8F14E0F03
:102F6000F3D19F421ED116F8010C4428EDD14FF445
:102F700080611148FDF7EFF80E49A7F10902093108
:102F80000D48FDF7CFF8E0890B490938CAF8000071
:102F90000D5484F80290E570A5812582BDE8F047C4
:102FA000FFF71CBA521C2282228A6245C2D3CFE7A5
:102FB00070000020520F00205209002070B5084D0B
:102FC0004FF4004421462846FDF794FE40F6B83001
:102FD00000F0C4FC21462846FDF78AFE002070BDA3
:102FE000000C01402DE9F0410E46804600240A4DB8
:102FF0000DE000BF18F8047040212846FFF7A6FD39
:103000000028F9D039462846FFF738FE641CB44240
:10301000F0DB2046BDE8F0810044004070B500249C
:10302000651EC82000F09AFCFDF7BAFB20B1641CB5
:10303000032CF6DB401C1DD0C82000F08FFC0024C0
:10304000C82000F08BFCFDF7D7FC002811D0641CD1
:10305000032CF5DB0024C82000F080FCFDF7E4FB26
:1030600020B1641C032CF6DB401C0DD0FFF7A6FF3B
:10307000002070BD0024C82000F070FCFDF7D4FBD8
:1030800010B1641C032CF6DB284670BD70B500241B
:10309000651EC82000F062FCFDF782FB20B1641CB5
:1030A000032CF6DB401C0CD00024C82000F056FC9A
:1030B000FDF7BAFB002803D0641C032CF5DB28467F
:1030C00070BD0024C82000F049FCFDF7ADFB0028CE
:1030D000F6D0641C032CF5DBF1E700002DE9F0418C
:1030E000DFF86C80C7B2C0F307260C4615462021D6
:1030F0004046FDF7FDFDFDF743FFA020FDF706FF6D
:10310000FDF7A4FE3046FDF701FFFDF79FFE3846B0
:10311000FDF7FCFEFDF79AFE07E02878FDF7F6FEC6
:10312000FDF794FE641EE4B26D1C002CF5D1FDF792
:1031300047FF4AF6C870FDF783FE20214046FDF7A1
:10314000D9FDBDE8F0414FF47A70FDF779BE00007B
:10315000000C014038B504460020009022460221B0
:103160002020FFF7BBFF6A4602212020FEF79AFBD2
:10317000022269462046FDF700F8002800D0012011
:1031800038BD1CB50446002000900190224606215F
:103190001020FFF7A3FF6A4606211020FEF782FBEE
:1031A000062269462046FCF7E8FF002800D00120EF
:1031B0001CBD38B504460020009022460121302075
:1031C000FFF78CFF6A4601213020FEF76BFB0122DE
:1031D00069462046FCF7D1FF002800D0012038BD09
:1031E0003EB5054600200C46009001902A4602900C
:1031F000FFF774FF6A4621460020FEF753FB224684
:1032000069462846FCF7B9FF002800D001203EBDE2
:103210007CB50546002000900190F82000EBC10429
:103220002A4606212046FFF759FF20466A46062116
:10323000FEF738FB062269462846FCF79EFF002869
:1032400000D001207CBD13B582B000208DF80000B5
:10325000FE2000EBC100044602AA0121FFF73EFF59
:1032600020466A460121FEF71DFB0122694602A89D
:10327000FCF783FF002800D0012004B010BD13B577
:1032800082B000208DF80000FF2000EBC100044652
:1032900002AA0121FFF722FF20466A460121FEF71C
:1032A00001FB0122694602A8FCF767FF002800D055
:1032B000012004B010BD38B504460020009022461D
:1032C00002214020FFF70AFF6A4602214020FEF754
:1032D000E9FA022269462046FCF74FFF002800D099
:1032E000012038BD3EB505460020009001900290B7
:1032F0000C462A465020FFF7F1FE6A462146502030
:10330000FEF7D0FA224669462846FCF736FF002829
:1033100000D001203EBD00002DE9FC5F0E0081467B
:10332000DDE90C47C6F1000098469346824600D47A
:103330000846012503E000BFB0FBFBF06D1C5845BB
:10334000FAD2A84500D9454624B1002E01DB780702
:1033500000D5641EB80702D5B8F1000F10D0F807E9
:103360000ED16CB12046641EA84209D920214846DE
:1033700000F0A2F8D9F80C000028F2DABDE8FC9FB2
:10338000002E02DA56462D2102E0780707D52B21C0
:10339000484600F091F8D9F80C000028EEDB07F061
:1033A0000300022810D1B8F1000F0DD164B12046FE
:1033B000641EA84208D93021484600F07DF8D9F8AB
:1033C0000C000028F2DAD9E7CDE9004743465A4617
:1033D0003146484600F002F8D0E700002DE9F84FEA
:1033E0008246DDE90A4B0126984691460D4608467D
:1033F000374602E0B0FBF9F07F1C4845FAD2B845E9
:1034000000D947465FEACB701CD1DCB15FEA8B7014
:1034100002D5B8F1000F02D0202000900AE0302041
:10342000FBE75046009900F047F8DAF80C00002856
:103430003EDB3CB12046641EB842F2D802E000BF39
:1034400006FB09F6B5FBF6F1494501D3012100E081
:1034500000214246A8F10108012A01DD012000E017
:1034600000200143ECD1DFF84C8000BFB5FBF6F043
:1034700000FB165518F80010504600F01DF8DAF859
:103480000C00002803DBB6FBF9F6002EEED15FEA54
:10349000CB700DD0002C0BD02046641EB84207D94B
:1034A0002021504600F008F8DAF80C000028F1DA84
:1034B000BDE8F88F4C49000810B50446D4E9013046
:1034C000421C934205DB23681954A260E068401C4B
:1034D000E060D4E90102824209D121682069FEF747
:1034E000F1FAA168884203D04FF0FF30E06010BDD0
:1034F0000020A06010BD00000FB4084B10B504A957
:1035000002AA039800F036F8044602A9002000F051
:10351000D2F9204610BC5DF814FB0000B738000853
:1035200002E008C8121F08C1002AFAD1704770478C
:10353000002001E001C1121F002AFBD170470000EA
:103540000B49498848434FF0E021486100228A61D5
:10355000086940F0010008610869C30701D0C00391
:10356000FAD5086920F0010008618A6170470000FF
:103570006C0000202DE9FF4F8BB0884605460026E1
:1035800006E025280BD0DDE90D1290476D1C761C56
:1035900028780028F5D10FB03046BDE8F08F002420
:1035A000A146A2460122AE4900E0044315F8013FBE
:1035B000203B02FA03F00842F7D128782A2810D0DD
:1035C0006FF02F022878A0F13001092915D809EBF6
:1035D000890102EB410144F0020400EB01096D1C7A
:1035E000F0E758F8041B5FEA010903D544F40054DE
:1035F000C9F1000944F002046D1C28782E2817D167
:1036000015F8010F44F004042A280ED06FF02F02A1
:103610002878A0F1300109290AD80AEB8A0102EBC7
:10362000410100EB010A6D1CF2E758F804AB6D1C78
:1036300028786C280FD006DC4C2817D068280DD0CD
:103640006A2814D104E0742810D07A280FD10DE034
:1036500044F400140AE044F4801401E044F44014FB
:103660006978814202D104F580146D1C6D1C2878A4
:10367000692865D006DC00288DD0632827D064280F
:1036800006D15DE06E2808D073282AD0752877D03F
:10369000DDE90D129047761CE0E0C4F302500228E9
:1036A00009D003280DD0D8F8001004280DD00E60E2
:1036B00008F10408D2E0D8F80010F217C1E900625E
:1036C000F6E7D8F800100E80F2E70E70F0E718F871
:1036D000041B8DF8001000208DF80100EB4601203E
:1036E00003E058F804BB4FF0FF3061074FF00007CC
:1036F00001D40AE07F1C57450DDA8742FADB1BF83C
:1037000007100029F6D106E07F1C8742FCDB1BF87E
:1037100007100029F8D1DDE90D23A9EB0700814648
:10372000214600F0B1F83044C61904E0DDE90D127D
:103730001BF8010B90477F1EF8D22146484688E0CF
:1037400058F8040BC4F302514FF00A0B032900D1BF
:1037500000B2042900D140B2002802DA40422D21F3
:1037600002E0210505D52B218DF82410012104E06C
:1037700006E0E10710D02021F6E708AF089113E03A
:1037800058F8040BC4F302514FF00A0B032900D17F
:1037900080B2042900D1C0B20021EEE75946FCF7FF
:1037A00008FD303107F8011D0028F7D1ADEB070007
:1037B00000F1200B600702D524F4803401E04FF0C3
:1037C000010ADA4502DDAAEB0B0000E00020824688
:1037D00000EB0B0108980144A9EB01000A90E003FB
:1037E00006D4DDE90D2321460A9800F04DF8064481
:1037F0004FF0000908E009A911F80900DDE90D12F0
:10380000904709F10109761C08998945F3DBE0032B
:103810000CD5DDE90D2321460A9800F035F8064461
:1038200004E0DDE90D1230209047761CBAF100016A
:10383000AAF1010AF5DC05E0DDE90D1217F8010B2C
:103840009047761CBBF10001ABF1010BF4DC0A9848
:103850002146DDE90D2300F005F806446D1C97E6CE
:10386000092801002DE9F041044600251E461746AF
:10387000880404D405E039462020B0476D1C641E3E
:10388000F9D52846BDE8F0812DE9F0410446002530
:103890001E469046C80301D5302700E02027880443
:1038A00004D505E041463846B0476D1C641EF9D585
:1038B0002846BDE8F0810A68531C0B601070704701
:1038C000F8B500200090C8170D4601EB1060010A02
:1038D0008DF8001028468DF8010016466846FFF75F
:1038E000EAFC002412E000BF04EB440006EB4000B9
:1038F000611CFFF78DFC611C0020FFF7A4FC611C1C
:103900000120FFF7BCFC641C642C01DAAC42EBDB49
:103910000020F8BD02480021C1708181704700007D
:103920007000002010B50420FEF790FC08480949FB
:103930000068B0FBF1F0C1B2074801EB4102017031
:10394000C2EBC1114FF6FF7202EAC101418010BD06
:103950004C00002040420F006C00002070B54FF476
:10396000E9750446A84203DABDE87040FFF7E8BDF8
:103970004FF4C8763046FFF7E3FDA4F5C874AC42B7
:10398000F8DAA0B2F0E700000B49097848434FF09D
:10399000E021486100228A61086940F00100086165
:1039A0000869C30701D0C003FAD5086920F00100F7
:1039B00008618A61704700006C0000201CB5144843
:1039C000FDF7B0FF1349124800F0ACFE1248FDF7B6
:1039D0009DFF1148D022114C41780078303800EB1F
:1039E000800002EB40000844C0B2207000F018FED6
:1039F0000B48FDF7A3FF0A492078074B0978054AD1
:103A0000CDE9000107490020FEF7A6F800201CBD03
:103A10000000002028020020080000200B000020E9
:103A20000C000020CC490008F0B589B000250795AE
:103A30008DF81C5007468DF8205004468DF81D5017
:103A40002E46FF2206212046FCF77EFBE5802581DD
:103A500014F80A0F761C20F03E0004F8030B642EC5
:103A6000EFDB07A8FDF7AEFF9DF81D009DF81C10C9
:103A7000244E00EB01206428306001DD356000E059
:103A800008B9FDF735FB20A100203268FEF764F885
:103A90003C46002530E0691C2046FDF766FF691CA6
:103AA00008A8FDF771FF9DF820000128A07A02D038
:103AB00020F0010001E040F00100A072691C04F157
:103AC0000B00FDF770FFA17AE07A01F00101637944
:103AD0002279CDE90510CDE903236078E278A17859
:103AE0008DE8070023786A1C0CA10020FEF734F84B
:103AF0000D346D1C642D02DA30688542CBDB09B0D1
:103B00000020F0BD100000207661696C644E756D78
:103B1000203A256420202020200A000075696425B1
:103B2000643A2025303278253032782530327825B5
:103B30003032782530327825303278202020626982
:103B40006E643A2564206368616E6E656C3A256424
:103B50000A000000FFF7E6FEFDF7D2FAFDF74CFA87
:103B6000FDF7A2FAFCF7D8FFFDF78AFAFCF776FF1B
:103B70004FF46144204600F00DFE204600F078FE30
:103B800041F61F4141F28730FEF7C2FB1BA1002026
:103B9000FDF7E2FFFFF712FF1B48FFF745FF1B4E43
:103BA0001B4FDFF870800024DFF86C9000F0F8FC09
:103BB0001A48FEF745FD3078012807D1184A19A1A7
:103BC0000020FDF7C9FF00F0E9F9347038780128CA
:103BD00002D100F0A3F93C7098F800004546012896
:103BE00002D100F0F3FC2C7099F800004D4601283A
:103BF000DCD100F03BF82C70D8E70000696E6974E6
:103C0000204F4B200A0000003502002070000020E9
:103C100060000020A1010020A20100202800002057
:103C2000520700205553415254315F526563765F0D
:103C30004576656E742025730A0000000178C2780D
:103C4000303901EB4103C3EBC11102EBC1024178F2
:103C500080786423594300EB800001EB400010445E
:103C6000A0F5A050D03880B2704700002DE9F04F89
:103C7000DFF884B287B0DBF80000002873DD00F0C5
:103C80008FFC9E4C9E4D9F4E2068DFF87CA200EB7F
:103C9000800101EBC000411901F10802C888708061
:103CA000CDE9002A8B1D921C9848FDF7BDFB074605
:103CB00000F076FCDFF858824FF00009AFB1A6F8AB
:103CC0000090216801EB810000EBC1002844827A5A
:103CD00022F038028272C27A98F8000082426CD0D8
:103CE000491CFFF7CCFAE8B367E0206800EB8001DD
:103CF00001EBC0004119887AC0071BD100231A4686
:103D00008248FDF7B5FA074600F04AFC012F11D1B1
:103D100021680120491CFFF796FA58B9206800EB8A
:103D2000800101EBC0002844817A21F0380141F084
:103D30000101817220684FF0005200EB800101EB1D
:103D4000C0004119887A02EBB0104FEAB060C0F3AE
:103D5000C2028872032A08D320F03800183020F0FD
:103D6000020001E005E0C4E088723088401C308029
:103D700056E020680DF1080E00EB800101EBC00C4D
:103D80000CEB050098F800300179C77A42798EE88B
:103D90008E00C2788178CDE90012437815F80C20A6
:103DA0005C490020FDF7D8FE216898F8000001EB7F
:103DB000810202EBC1012944C872206800EB800136
:103DC00001EBC0004119887A4207534800780AD5B0
:103DD000B8B901F108008A1DCDE90020831CCDF897
:103DE00008A002220AE001280BD101F108008A1D77
:103DF000CDE90020831CCDF808A001224348FDF73F
:103E000039FC00F0CDFB2068728800EB800101EBEB
:103E1000C0002844C188914202D2017B491C017331
:103E200000F0BEFB206800EB800101EBC0002844DD
:103E300098F80010C07A88423ED000F0F1FB20686C
:103E4000002300EB800101EBC000411998F800202D
:103E50002E48FDF70DFA01282AD1216898F80000B4
:103E6000491CFFF70CFA18BB20680DF1080A00EB9B
:103E7000800101EBC00C0CEB050098F800300179D3
:103E8000C77A42798AE88E00C2788178CDE900123B
:103E9000437815F80C201F490020FDF75DFE2268CD
:103EA00098F8000002EB820101EBC2012944C872BC
:103EB00098F8000000F0B4FB2068401C2060DBF89C
:103EC0000020904201DBC4F800903088B0F5616FAB
:103ED0000FD348460146C4F8009007E001EB810388
:103EE00003EBC1032B44491C187321609142F5DB9D
:103EF000206007B0BDE8F08F100000201400002003
:103F000035020020240200200D00002000000020C7
:103F10000B000020684900080C00002010B50024A8
:103F20000CA12046FDF718FE41F28830FFF716FD80
:103F30000F48FEF7EDFE18B1641C032CF8DB03E01C
:103F400008210CA0FFF7CEF9BDE810400CA100201D
:103F5000FDF702BE4B45595F466F726D617457495C
:103F600046495F4576656E742053746172740A0029
:103F70002802002038383838383838380000000037
:103F80004B45595F466F726D6174574946495F45AD
:103F900076656E7420456E640A00000070B58AB0C4
:103FA00000240794039478A0049405940694029442
:103FB000089400680990754A75497648FDF762FDD6
:103FC00075490028086016D17048724D734E00681C
:103FD000062810D2DFE800F00F03758FABC86D4BD9
:103FE00001226FA10020FDF7B7FD30681A2804D028
:103FF0000120FEF7A9FC0AB070BD55F80B0F049024
:1040000068680590A86806909DF811009DF810104A
:104010009DF8142000EB0110A0F54C708DF80800FD
:104020009DF813009DF8121000EB0111A1F54C71E1
:104030008DF809109DF8151001EB0010A0F54C70DB
:104040008DF80A009DF8170000EB0210A0F54C70E7
:104050008DF80B009DF8190000EB0110A0F54C70D5
:104060008DF80C009DF81B009DF81A1000EB011054
:10407000A0F54C708DF80D0002A8FFF782F810F043
:10408000FF0001D0FEF760FC09A8FFF763F84A497A
:10409000012008700846FFF78CF88DF81C4041F2AB
:1040A0008830FFF75BFC04A8FEF732FEC4B208219B
:1040B00042A0FFF717F92046FEF746FCFFF77EFC0B
:1040C00099E7344B022236A10020FDF745FD02A8F6
:1040D000FDF728FC04A902A800F024FB8DF81C4081
:1040E0009DF8080004A9FF2803D00020FEF7E2FB9A
:1040F00081E70120FAE7274B032229A10020FDF7E1
:104100002BFD287BE97A00EB0110A0F54C70C4B2BE
:104110002046FCF747FEC5B22B4622462AA10020C6
:10412000FDF71AFD29462046FEF770FC63E7194BA0
:1041300004221BA10020FDF70FFD25A10020FDF7A3
:104140000BFD30680621113890FBF1F1114A284827
:104150000E32FFF7B5FB0020FEF726FC2448FFF7E0
:1041600063FCFCF7BDFF46E70A4B05220CA10020CB
:10417000FDF7F2FC08A8FFF79EF8C0B2FEF76AFB55
:104180001B48FFF751FC36E73031000030000020BB
:104190002C000020520700203400002028000020BE
:1041A000574946495F526563765F4576656E74256B
:1041B000642025730A0000000C00002038383838CD
:1041C000383838380000000025642025640A0000D3
:1041D000434F4D4D414E445F5345544E4554574F08
:1041E000524B2020204D617070696E670A000000FC
:1041F000350200202DE9F0438146CFB0984A994915
:104200009948FDF71FFC99490028086027D1944878
:10421000954CDFF85C820068964E04F10B0704F1C0
:104220001A0507281BD2DFE800F01A041D3F72AE02
:10423000FB008D4B012290A10020FDF78DFC012099
:10424000FDF722FB88F8000091A105220096CDE938
:104250000121034690A291494846FBF7FFFF4FB06A
:10426000BDE8F083804B022283A10020FDF774FC9F
:104270000C228A493846FBF780FF60B188A10020F4
:10428000FDF76AFC00238F4A01214FB04846BDE884
:10429000F043FCF741B98CA10020FDF75DFC92488A
:1042A000884A00210368F0E76F4B032272A10020C7
:1042B000FDF752FC0C2279493846FBF75EFF50B1FE
:1042C00001214846FCF7C0F84FB088A1BDE8F04393
:1042D0000020FDF741BC8E48062100681D3890FB88
:1042E000F1F422468BA10020FDF736FC2A46214638
:1042F0007448FFF7E5FA00214846FCF7A5F8714835
:10430000FFF792FB4FB0BDE8F043FCF7E9BE564B18
:10431000042259A10020FDF71FFC0C225F493846FA
:10432000FBF72BFF40B14FB04846BDE8F0430023F8
:104330001A460121FCF726B8608B30804D48FEF705
:1043400009FF0120FDF7A0FA88F800000346494A5A
:1043500000214846FCF716F830787178303800EBC9
:104360008000D02202EB4000734C0844C0B22070A1
:1043700000F056F923784FB03E4ABDE8F0436FA1F4
:104380000020FDF7E9BB384B05223BA10020FDF7DB
:10439000E3FB0C2241493846FBF7EFFE30B14FB04A
:1043A0004846BDE8F0430121FCF782B864211BA810
:1043B000FBF7D1FE642102A8FBF7CDFE642134A8EF
:1043C000FBF7C9FE4EAB02AA4DA91BA80095FDF74D
:1043D00010FB02A94E98CDE900011BAB65A100209E
:1043E0004D9AFDF7B9FB642134A8FDF7F7FA1BA934
:1043F00034A84D9AFBF7C1FE20B102214846FCF7D4
:1044000057F82CE700214846FCF752F802A8FEF7BF
:1044100039FC4E98C1B202A8FEF764FF1FE7FFE720
:10442000114B062214A10020FDF796FB0C221B491C
:104430003846FBF7A2FE30B14FB04846BDE8F04326
:104440000121FBF76BBF5549E07D0870002148460C
:10445000FBF764FF4FB05148BDE8F043FEF7A9BE3B
:104460001C0000201800002052090020200000201D
:104470000700002008000020574946495F52656345
:10448000765F4576656E7425642025730A0000000A
:104490005253312E3200000031303100280200200A
:1044A000434F4D4D414E445F53595354454D494E32
:1044B000464F2020204E6F74204D617070696E67EA
:1044C0000000000035020020434F4D4D414E445F37
:1044D00053595354454D494E464F20204D617070FD
:1044E000696E670A0000000010000020434F4D4D28
:1044F000414E445F5345544E4554574F524B202034
:10450000204E6F74204D617070696E67000000006E
:1045100024000020434F4D4D414E445F5345544EBF
:104520004554574F524B2020204D617070696E6783
:1045300020202025640A00000B000020434F4D4D31
:10454000414E445F5345544348414E4E454C202014
:104550005369676E616C5F4368616E6E656C3A2586
:1045600073204368616E6E656C5F63686172256479
:104570000A000000434F4D4D414E445F5345545790
:1045800049464950415353574F52442025642025F2
:10459000732025642025730A000000000C00002011
:1045A00010B507490748FEF70DFC074C2078012895
:1045B00004D10348FFF71EFE0020207010BD00004C
:1045C00049070020240000207200002010B50024BC
:1045D00007A12046FDF7C0FAFEF720FD10B1641CCC
:1045E000032CF9DBBDE8104007A10020FDF7B4BAA9
:1045F00070726F636573735F574946495F525354D6
:104600002053746172740A0070726F636573735F14
:10461000574946495F52535420456E640A000000D2
:1046200010B50446112870D23948012CA0F1800140
:104630001ED0022C1FD0032C20D0042C21D0052CFE
:1046400022D0062C23D0072C24D0082C25D0092CCE
:1046500026D00A2C27D00B2C28D00C2C29D00D2C9E
:104660002AD00E2C47D00F2C48D0102C49D029E04E
:1046700051F8022F22E051F80A2F1FE051F8122FB3
:104680001CE051F81A2F19E051F8222F16E051F8CA
:104690002A2F13E051F8322F10E051F83A2F0DE095
:1046A00051F8422F0AE051F84A2F07E051F8522FF3
:1046B00004E051F85A2F01E051F8622F40F8532FCF
:1046C000496841600220FDF799FB00BFFCF762FBDF
:1046D0000228FBD1FDF75CFB1020FDF78FFB00BF2C
:1046E000FCF758FB0128FBD122460AA10020FDF768
:1046F00033FA002010BD51F86A2FDFE751F8722F0E
:10470000DCE751F87A2FD9E7FFE7012010BD000060
:10471000040100207365744368616E6E656C3A2510
:10472000640A00000378302202EB13130B70037845
:1047300003F00F0330334B70437802EB13138B708D
:10474000437803F00F033033CB70837802EB1313FD
:104750000B71837803F00F0330334B71C37802EB96
:1047600013138B71C37803F00F033033CB710379CC
:1047700002EB13130B72037903F00F0330334B7208
:10478000437902EB13128A72407900F00F00303047
:10479000C8727047F0B50446012187B08803FCF762
:1047A00007FD01210420FCF703FD2E4E3046FEF7E5
:1047B00093F97015ADF8000003258DF8025018200C
:1047C000294F8DF8030069463846FCF739FA301551
:1047D000ADF8000004208DF8030069463846FCF768
:1047E0002FFA01940024ADF80C400C20ADF80840DD
:1047F000ADF80E00ADF80A40ADF8104001A9304602
:10480000FEF7E2F925208DF814008DF815400220FE
:104810008DF8160001208DF8170005A8FCF774FC30
:10482000012240F225513046FEF7B6F9012130460B
:10483000FEF748F901210820FCF7BAFC10208DF89A
:1048400003008DF80250C402084DADF800406946DF
:104850002846FCF7F5F921462846FCF74BFA07B045
:10486000F0BD00000038014000080140000C01408C
:104870002DE9F0418046012186B04804FCF780FC18
:1048800001210420FCF794FC2D4E3046FEF724F95C
:104890000424ADF8004003258DF802501820294F5C
:1048A0008DF8030069463846FCF7CAF90820ADF8D0
:1048B00000008DF8034069463846FCF7C1F9002432
:1048C000ADF80C400C20ADF80840ADF80E00CDF866
:1048D0000480ADF80A40ADF8104001A93046FEF75B
:1048E00073F926208DF814008DF815408DF81650B8
:1048F00001208DF8170005A8FCF706FC012240F204
:1049000025513046FEF748F901213046FEF7DAF826
:1049100001210820FCF74CFC10208DF803008DF8D5
:104920000250C402084DADF8004069462846FCF725
:1049300087F921462846FCF7DDF906B0BDE8F0818D
:104940000044004000080140000C01403031323387
:104950003435363738394142434445465465726DE3
:10496000696E616C000000006368616E67652043DA
:1049700068616E6E656C202530327825303278257E
:104980003032782530327825303278253032782030
:10499000204368616E6E656C5F636861723A25647E
:1049A000202020696E766572746572496E666F5B51
:1049B00063757253657175656E63655D2E636861BD
:1049C0006E6E656C3A25640A000000004543552070
:1049D0004944203A2573202020202020202053699C
:1049E000676E616C5F4368616E6E656C3A20202073
:1049F0002573202020202564202020494F5F496E08
:104A000069745F5374617475733A25780A00000005
:104A1000304A0008000000202802000004020008BC
:104A2000644B000828020020081E000030350008F2
:104A3000013845020406082D010203040415060787
:104A40000809845125027914290CB9390114186A0E
:104A50004271CE1C425B1C1C4298441F4282921E33
:104A600043C0BA1143AA081143E7301443D17E135F
:104A7000430FA71643F8F41543361D1943206B184E
:104A8000435D931B4347E11A4385091E436F571D3E
:104A900044AC7F104396CD1F44D3F51244BD43125E
:104AA00044FB6B1544E5B9144422E217440C30175B
:104AB000444A581A4433A61944681A44681A446888
:104AC0001A44681A45681A4568136932181766D17E
:104AD000690C0A9F392929C0501453081F90D364C8
:104AE0001033D135131A4B13180D280A53080F70C1
:104AF000A6C91020A112131A5A1317140553100730
:104B000050200F66EC1DF0801408910302D0AEE037
:104B10003516F410E242206A81D1F9461122B422FE
:104B20000113120463AA0255D42D011F1917236023
:104B3000FF161F10504D06130F70D58A183F7F6067
:104B40000B534547474552205254542941290413D9
:104B50005C4914085213122002260439301217033C
:044B60002B201000F6
:04000005080000ED02
:00000001FF
