:020000040800F2
:10000000981F002001010008090100080B010008E9
:100010000D0100080F010008110100080000000098
:1000200000000000000000000000000013010008B4
:100030001501000800000000170100081901000860
:100040001B0100081B0100081B0100081B01000820
:100050001B0100081B0100081B0100081B01000810
:100060001B0100081B0100081B0100081B01000800
:100070001B0100081B0100081B0100081B010008F0
:100080001B0100081B0100081B0100081B010008E0
:100090001B0100081B0100081B010008E108000803
:1000A0001B0100081B0100081B0100081B010008C0
:1000B0005520000815210008E12100081B01000857
:1000C0001B0100081B0100081B0100081B010008A0
:1000D0001B01000889250008E92700081B0100080A
:1000E0001B0100081B0100081B010008DFF80CD0F1
:1000F00000F076F80048004715390008981F0020E6
:100100000648804706480047FEE7FEE7FEE7FEE7B1
:10011000FEE7FEE7FEE7FEE7FEE7FEE70520000854
:10012000ED00000840EA01039B0703D009E008C97D
:10013000121F08C0042AFAD203E011F8013B00F8AC
:10014000013B521EF9D27047D2B201E000F8012BF8
:10015000491EFBD270470022F6E710B513460A4647
:1001600004461946FFF7F0FF204610BD421C10F868
:10017000011B0029FBD1801A704730B504460020CE
:10018000034600E05B1C934203D2E05CCD5C401B65
:10019000F8D030BD30B505460020034600E05B1CBA
:1001A000934205D2EC5CC85C201A01D1002CF6D138
:1001B00030BD30B50B46014600202022012409E065
:1001C00021FA02F59D4205D303FA02F5491B04FA10
:1001D00002F52844151EA2F10102F1DC30BD000039
:1001E000064C074D06E0E06840F0010394E8070084
:1001F00098471034AC42F6D3FFF77CFF84430008E5
:10020000A443000870B58C1810F8015B15F00703C3
:1002100001D110F8013B2A1106D110F8012B03E09F
:1002200010F8016B01F8016B5B1EF9D12B0705D4A7
:100230000023521E0DD401F8013BFAE710F8013BF0
:10024000CB1A921C03E013F8015B01F8015B521E0C
:10025000F9D5A142D8D3002070BD00002DE9F041AE
:1002600086B00746DDE90C481D46164640F25C4163
:100270000E48FFF770FF6520CDE90006CDE9025476
:100280003B460BA1CDF81080084804F1250202F08E
:10029000B7FF064A0FA1002001F02EFB06B004F1C3
:1002A0002601BDE8F041014802F03CBD3A170020AC
:1002B000415053313125303464303125732530338A
:1002C00064253033642573253033642573454E44EB
:1002D0000A0000004150505F526573706F6E736585
:1002E0005F42617365496E666F2025730A000000E6
:1002F00010B5044640F25C410648FFF72CFF224649
:1003000005A1044802F07CFFBDE810400E21014821
:1003100002F008BD3A1700204150533131303031DE
:10032000333036253032640A0000000070B50E46C6
:100330000446154640F25C410B48FFF70CFF012CC8
:100340000BD02B46324609A1074802F059FF16216F
:10035000BDE87040044802F0E5BC0AA1024802F082
:100360004FFF0E21F4E700003A17002041505331AF
:1003700031303032313034303025732530336445FC
:100380004E440A0041505331313030313330343033
:10039000310A000010B5044640F25C410648FFF700
:1003A000DAFE224605A1044802F02AFFBDE810400B
:1003B0000E21014802F0B6BC3A17002041505331DB
:1003C00031303031333033253032640A00000000E0
:1003D00010B5044640F25C410648FFF7BCFE2246D9
:1003E00005A1044802F00CFFBDE810400E210148B1
:1003F00002F098BC3A17002041505331313030316F
:10040000333035253032640A000000002DE9FF4109
:1004100007460C461646002540F25C414448FFF76B
:100420009AFE012F06D043A1414802F0E9FEDFF811
:1004300000813DE043A13E4802F0E2FE0E213C482F
:1004400071E000BF05EB450000EBC50101EB0807BB
:10045000206847F80D0FA088B880A07863792279CA
:10046000E1788DE80F00637822783AA1002001F04E
:1004700043FAE08841A1000AB871A079F871E288D6
:10048000002001F039FA208941A1000A3872207A4F
:1004900078722289002001F02FFAA07AB872A27A2D
:1004A00040A1002001F028FA0E346D1C642D01DA01
:1004B000B542C7DB0A20002E30DD06EB460101EB1A
:1004C000C6014FF47A72103191FBF2F3303388F8A1
:1004D0000530642391FBF3F393FBF0F400FB14333A
:1004E000303388F8063091FBF0F393FBF0F400FB17
:1004F0001433303388F8073091FBF0F300FB13130B
:100500004246303313725318452403F8034D4E24EA
:100510005C7044249C7008F8010002E00D2188F80A
:100520000D000348491C04B0BDE8F04102F0FABBDD
:100530003A170020415053313130303133303230AE
:1005400030000000415053313130303133303230DF
:10055000310A000053797374656D496E666F20250A
:10056000303278253032782530327825303278258F
:1005700030327825303278202020000068656172A2
:10058000745F7261746520256420202020000000C3
:100590006F66665F74696D65732025642020202076
:1005A000000000006D6F735F7374617475732025B4
:1005B000640A000070B503F0ABF8032117A002F045
:1005C000B1FB4FF4AF76304603F0C8F8144C4FF04F
:1005D000FF35A089B8B1012212A11348FFF7CDFD64
:1005E00088B903F095F801210EA002F09BFB30467C
:1005F00003F0B4F8A089032805D303220BA10A480D
:10060000FFF7BBFD08B1284670BD09A1002001F02D
:1006100073F903F07DF8002070BD00002B2B2B0038
:1006200070000020610000002A0F00202B6F6B007B
:100630004154203A612B6F6B0A00000010B503F0A3
:1006400067F808210EA002F06DFB4FF4967003F0DE
:1006500085F80E484FF0FF3480890A2805D303221D
:100660000BA10C48FFF789FD08B1204610BD0AA177
:10067000002001F041F903F04BF8002010BD00000C
:1006800041542B454E544D0A0000000070000020DC
:100690002B6F6B00330F002041542B454E544D20DF
:1006A0003A2B6F6B0A00000010B59AB00446642123
:1006B0006846FFF750FD03F02BF8224617A1684665
:1006C00002F09EFD6A461CA1002001F015F9684663
:1006D000FFF74CFD411C684602F024FB4FF47A7092
:1006E00003F03CF815484FF0FF3480890A280AD3FC
:1006F0006846FFF73BFD12490322084411A1401C44
:10070000FFF73BFD10B120461AB010BD0EA100202E
:1007100001F0F2F802F0FCFF0020F5E741542B57FE
:10072000414B45593D5750413250534B2C41455355
:100730002C25730A000000002573000070000020C3
:100740002A0F00202B6F6B0041542B57414B45590A
:10075000203A2B6F6B0A000010B59AB00446642152
:100760006846FFF7F8FC02F0D3FF224617A168465F
:1007700002F046FD6A461DA1002001F0BDF8684662
:10078000FFF7F4FC411C684602F0CCFA4FF47A7093
:1007900002F0E4FF16484FF0FF3480890A280AD39C
:1007A0006846FFF7E3FC13490322084412A1401CEA
:1007B000FFF7E3FC10B120461AB010BD0FA10020D6
:1007C00001F09AF802F0A4FF0020F5E741542B57FE
:1007D00041503D313142474E2C4543555F52535FA6
:1007E00025732C4175746F0A00000000257300000A
:1007F000700000202A0F00202B6F6B0041542B57F4
:100800004150203A2B6F6B0A0000000010B502F037
:100810007FFF05210EA002F085FA4FF4967002F0DA
:100820009DFF0D484FF0FF348089062805D3032231
:100830000AA10B48FFF7A1FC08B1204610BD09A191
:10084000002001F059F802F063FF002010BD000005
:1008500041542B5A0A000000700000202B6F6B00DF
:10086000300F002041542B5A203A2B6F6B0A0000A6
:1008700010B501F00DFA01F001FA022001F08EF935
:1008800001F056F9002000F020F800F013F82220C3
:1008900000F0B2F806210A2001F003F922216520B8
:1008A00001F046FB102001F079F9BDE8104010205E
:1008B00001F074B910B56C2001F096FA40F0030114
:1008C000BDE810406E2001F033BB10B507216A204F
:1008D00001F02EFB3F21BDE810406B2001F028BB4A
:1008E00070B5142002F03AFF0E4C00264FF4007051
:1008F0006168012907D0054601460B4800F0FBF866
:10090000012802D009E0666008E0A068401CA060F1
:10091000012802DD0120A66020702846BDE8704055
:1009200000F02CB860000020000C01403EB500F043
:10093000B1FA0121084600F045FB0921012000F031
:1009400075F84FF40070002400908DF804400820E2
:100950008DF8050001258DF80650684600F014F862
:1009600017208DF808008DF8094003208DF80A0043
:100970008DF80B5002A800F0D1FA3EBD0149086085
:10098000704700001404014030B51A4983790268A9
:1009900053B30B6893430B600A1D13680468A343A9
:1009A000136002790A441368046823431360114AF0
:1009B000083213680468A3431360131D1C6805689C
:1009C000AC431C604479102C05D021440A680068AF
:1009D00002430A6030BD1168046821431160196840
:1009E00000680143196030BD0079084401689143F3
:1009F000016030BD000401400146682001F098BA52
:100A000010B5692001F0F0F920F00101BDE81040B7
:100A1000692001F08DBA10B5692001F0E5F940F0C8
:100A20000101BDE81040692001F082BA10B58A07C3
:100A300021F003040649130F21440F228C689A40C9
:100A400094438C608A68984002438A6010BD00001D
:100A500000000140F0B5CA78002502F00F03D2066D
:100A600001D58A7813430A784FF00F0E12F0FF0F6A
:100A70004FF001021CD004680F8802FA05F63740D7
:100A8000B74211D14FEA850C0EFA0CF724EA07079A
:100A900003FA0CF43C43CF78282F02D0482F02D021
:100AA00002E0466100E006616D1C082DE4D304609D
:100AB0000C88FF2C1ED944685FF0000606F1080779
:100AC00002FA07F50F882F40AF420FD14FEA860C8C
:100AD0000EFA0CF7BC4303FA0CF73C43CF78282FEF
:100AE00000D14561CF78482F00D10561761C082ED2
:100AF000E4D34460F0BD0246002092680A4200D070
:100B00000120704741617047016170476A2001F020
:100B10006BB900002DE9F047214D0646287810B149
:100B200001280BD01DE0082001F038F8FFF768FF1E
:100B300000F03AF80528FBD101202870DFF8649016
:100B400000244FF400684FF4FA7741464846FFF717
:100B5000D2FF01280BD0012002F000FE641CBC4231
:100B6000F3DB2878022804D00020BDE8F0870220BB
:100B7000287001F0F7F80746002404E001F0F2F8CD
:100B80003055641CE4B2BC42F8D3002000F066FD8E
:100B90000020FFF79AFE032028703846E5E70000A2
:100BA00084000020000C014010B5612001F01CF908
:100BB00000F00F0010BD000000B513A387B00ECBEE
:100BC0008DE80E00002103910491059120B10128C8
:100BD00018D0022816D110E00A21684602F0BCF9AC
:100BE0000A2103A800F0A3FD0A2203A96846FFF723
:100BF000C4FA10B1012007B000BD02F0E7F808B157
:100C00000220F8E70020F6E759554E454E472041AF
:100C10005053000010B50E4C40212046FFF772FFE4
:100C200080212046FFF76EFF80212046FFF76AFFF4
:100C30000F2000F00FF840212046FFF765FF0F203E
:100C400000F008F82046BDE810404021FFF75ABFE9
:100C5000000C0140002100E0491C8142FCD3704798
:100C600070B5124D002440212846FFF74DFF0F209C
:100C7000FFF7F0FF80212846FFF746FF01E0641CE4
:100C8000E4B280212846FFF736FFC00701D0FF2CD1
:100C9000F5D380212846FFF735FF40212846FFF78E
:100CA00031FFBDE870400F20FFF7D4BF000C0140BA
:100CB00070B51A4E002540213046FFF723FF0F2064
:100CC000FFF7C8FF80213046FFF71EFF0F20FFF718
:100CD000C1FF80213046FFF717FF00244021304636
:100CE000FFF712FF0F20FFF7B5FF80213046FFF717
:100CF00002FF00F001020F20FFF7ACFF42EA4500BF
:100D0000C5B240213046FFF7FDFE0F20FFF7A2FFDE
:100D1000641CE4B2082CE1D3284670BD000C0140ED
:100D200070B51B4E054680213046FFF7EBFE0024D0
:100D300040213046FFF7E6FE0F20FFF78BFFE80962
:100D40004FF08001304602D0FFF7DEFE01E0FFF7F2
:100D5000D9FE0F20FFF77EFF40213046FFF7D4FE7B
:100D60000F20FFF777FF0F20FFF774FF6806050ECF
:100D7000641C082CDCD340213046FFF7C3FE8021E1
:100D80003046FFF7C1FEBDE870400F20FFF762BF9D
:100D9000000C014010B50E4C80212046FFF7B2FE3A
:100DA00080212046FFF7B0FE40212046FFF7ACFE31
:100DB0000F20FFF74FFF80212046FFF7A3FE0F20F3
:100DC000FFF748FF2046BDE810404021FFF79ABEDC
:100DD000000C014010B50C4C80212046FFF792FE1C
:100DE00080212046FFF78EFE0F20FFF733FF4021C2
:100DF0002046FFF789FE0F20FFF72CFF2046BDE8B5
:100E000010408021FFF780BE000C0140F8B50121A1
:100E1000082000F0D7F84020ADF800001025114E52
:100E20008DF8035003248DF8024069463046FFF7E1
:100E300011FE8020ADF8000014208DF803008DF81D
:100E4000024069463046FFF705FE2020ADF800005D
:100E50008DF803508DF8024069463046FFF7FAFDE1
:100E6000F8BD0000000C014008B50121082000F089
:100E7000A9F84FF48040ADF8000004208DF803007D
:100E800003208DF8020069460148FFF7E3FD08BD25
:100E9000000C014008B50121082000F093F84FF440
:100EA0000070ADF8000048208DF803006946024844
:100EB000FFF7D0FD08BD0000000C014038B501214E
:100EC000042000F07FF810208DF8030003208DF837
:100ED0000200074D4FF40064ADF800406946284613
:100EE000FFF7B8FD21462846FFF70EFE38BD00008B
:100EF000000801404FF400610148FFF705BE000003
:100F0000000801404FF400610148FFF7FBBD0000FD
:100F1000000801404FF4A06000F032B870B50F2314
:100F2000C47801780122F4B1144C2468457804F4A3
:100F3000E064C4F5E064240AC4F10406E340847864
:100F4000B5401C402C4301F1E021230181F800341D
:100F5000007800F01F018A404009800000F1E02085
:100F6000C0F8002170BD01F01F00824048098000D8
:100F700000F1E020C0F8802170BD00000CED00E021
:100F80000249084302490860704700000000FA0562
:100F90000CED00E0044A0029D16901D0014300E0D2
:100FA0008143D1617047000000100240044A0029CB
:100FB000116901D0014300E08143116170470000D5
:100FC00000100240044A0029916901D0014300E069
:100FD000814391617047000000100240044A0029DB
:100FE000D16801D0014300E08143D1607047000027
:100FF0000010024030B51F494A6812F00C031E4A27
:1010000003D0042B01D0082B21D002604A680F23A3
:101010001A4C03EA1212A35C0268DA4042604B6881
:10102000072505EA1323E35C22FA03F383604B6888
:1010300005EAD323E35CDA40C2604968032303EA8C
:101040009131231F595CB2FBF1F1016130BD4A6857
:101050004B6802F470124FF0020413F4803F04EB6B
:10106000924202D04B689B0301D5054B00E0024B36
:101070005A43CAE70010024000127A003C000020E8
:1010800000093D002DE9F04196B00D460646984610
:1010900017460024202104A8FFF75DF820210EA8A0
:1010A000FFF759F8FB208DF810008DF8110015207E
:1010B0008DF8120008218DF8131031788DF8141076
:1010C00071788DF81510B1788DF81610F1788DF8CB
:1010D000171031798DF8181071798DF81910297859
:1010E0008DF81A1069788DF81B10A9788DF81C10EE
:1010F000E9788DF81D1029798DF81E1069798DF821
:101100001F108DF8207000218DF821808DF822109D
:101110008DF823100991032104AAC01C02E0535C3E
:10112000491C1C448842FADCE01704EB1060010AF9
:101130008DF8281020468DF82900FE208DF82A0011
:101140008DF82B001C21104600F0C2FC0EA8FFF702
:10115000E1FC1C2857D19DF83B00D82853D19DF8BD
:1011600014009DF83C1088424DD19DF815009DF863
:101170003D10884247D19DF816009DF83E108842E8
:1011800041D19DF817009DF83F1088423BD19DF852
:1011900018009DF84010884235D19DF819009DF83F
:1011A000411088422FD19DF81A209DF842008242BA
:1011B00029D19DF81B309DF84300834223D19DF82F
:1011C0001C509DF8440085421DD19DF81D409DF89E
:1011D0004500844217D19DF81E109DF846008142BB
:1011E00011D19DF81F009DF84760B0420BD1CDE9A9
:1011F0000210CDE9005406A1002000F07DFB012083
:1012000016B0BDE8F081142002F0A8FA0020F7E73C
:1012100052464D3330305F42696E645F55696420D9
:1012200025303278253032782530327825303278C2
:1012300025303278253032780A0000002DE9F04F51
:1012400099B00D46DDE922A906461F4690460024C6
:10125000202109A8DDF890B0FEF77DFF202111A81C
:10126000FEF779FFFB208DF824008DF8250015206E
:101270008DF8260000218DF8271032788DF828206F
:1012800072788DF82920B2788DF82A20F2788DF8BE
:101290002B2032798DF82C2072798DF82D202A7828
:1012A0008DF82E206A788DF82F20AA788DF83020BE
:1012B000EA788DF831202A798DF832206A790D91FB
:1012C0000E918DF83320032109AAC01C02E0535C63
:1012D000491C1C448842FADCE01704EB1060010A48
:1012E0008DF83C1020468DF83D00FE208DF83E0024
:1012F0008DF83F001C21104600F0EAFB11A8FFF713
:1013000009FC1C287DD19DF84700D02879D19DF893
:1013100028009DF84810884273D19DF829009DF857
:10132000491088427AD19DF82A009DF84A108842D7
:1013300074D19DF82B009DF84B1088426ED19DF81A
:101340002C009DF84C10884268D19DF82D009DF826
:101350004D10884262D19DF82E009DF84E108842B3
:101360005CD19DF82F009DF84F10884256D19DF812
:1013700030009DF85010884250D19DF831009DF802
:10138000511088424AD19DF832009DF8521088428F
:1013900044D19DF833009DF8531088423ED19DF80A
:1013A000541088F800109DF8550038709DF85700CB
:1013B0009DF8561005AC00EB0120A9F800009DF83F
:1013C00059009DF8581000EB0120AAF800009DF884
:1013D0005A308BF800303878B9F80020BAF800108D
:1013E00084E80F009DF8310001AC98F800309DF8BA
:1013F00033209DF8321084E80F009DF830000090F3
:1014000000E00BE09DF82F309DF82E2006A1002073
:1014100000F072FA012019B0BDE8F08F142002F03C
:101420009DF90020F7E7000052464D3330305F4809
:10143000656172745F4265617420253032782530B1
:1014400032782530327825303278253032782530A0
:1014500032782020256420256420256420256420FE
:101460002564200A000000002DE9F04F93B00D46DE
:10147000DDE91D9806461F4693460024202103A857
:10148000DDF870A0FEF767FE20210BA8FEF763FED3
:10149000FB208DF80C008DF80D0015208DF80E0046
:1014A0008DF80FB031788DF8101071788DF811101B
:1014B000B1788DF81210F1788DF8131031798DF81C
:1014C000141071798DF8151029788DF81610697837
:1014D0008DF81710A9788DF81810E9788DF8191083
:1014E00029798DF81A1069798DF81B100021079160
:1014F0000891032103AAC01C02E0535C491C1C4450
:101500008842FADCE01704EB1060010A8DF8241021
:1015100020468DF82500FE208DF826008DF8270046
:1015200000241C2103A800F0D3FA0BA8FFF7F2FA5D
:101530001C287AD19DF82F00D12876D19DF8100073
:101540009DF83010884270D19DF811009DF831103F
:1015500088426AD19DF812009DF83210884264D109
:101560009DF813009DF8331088425ED19DF8140059
:101570009DF83410884258D19DF815009DF835101B
:10158000884252D19DF816009DF8361088424CD101
:101590009DF817009DF83710884246D19DF8180035
:1015A0009DF83810884240D19DF819009DF83910F7
:1015B00088423AD19DF81A009DF83A10884234D1F9
:1015C0009DF81B009DF83B1088422ED19DF83C00F1
:1015D00038709DF83D108AF800109DF83F009DF886
:1015E0003E1000EB0120A8F800009DF841009DF896
:1015F000401000EB0120A9F800001F999DF842005F
:101600000870B8F80010B9F800200092CDE9011078
:101610009AF800303A7800E007E007A1002000F0D7
:101620006BF9012013B0BDE8F08F641C032CFFF6AA
:1016300078AF0020F6E7000052464D3330305F4966
:101640004F5F496E6974202025642025642025643D
:10165000202564202564200A0000000010B530B168
:10166000702000F0C1FBC0F18000C0B210BDBDE829
:1016700010406F2000F0B8BB2DE9F041C7B2C0F3B5
:10168000072615460C46FFF785FBA020FFF748FB11
:10169000FFF7E6FA3046FFF743FBFFF7E1FA38467B
:1016A000FFF73EFBFFF7DCFAFFF774FBA120FFF723
:1016B00037FBFFF7D5FA09E0FFF7FAFA2870012C9B
:1016C00001D9FFF7A7FA641EE4B26D1C002CF3D118
:1016D000FFF780FBBDE8F0414FF47A70FFF7BABA2C
:1016E00010B548B1FE2202EBC103024601211846A3
:1016F000FFF7C2FF002010BD4FF0FF3010BD10B546
:1017000030B1024602212020FFF7B6FF002010BDB5
:101710004FF0FF3010BD10B530B102460621102049
:10172000FFF7AAFF002010BD4FF0FF3010BD10B52D
:1017300028B102460020FFF79FFF002010BD4FF0A8
:10174000FF3010BD10B548B1F82202EBC1030246CC
:1017500006211846FFF790FF002010BD4FF0FF3024
:1017600010BD10B530B1024602214020FFF784FFC2
:10177000002010BD4FF0FF3010BD10B528B102465B
:101780005020FFF779FF002010BD4FF0FF3010BD53
:101790002DE9F0410D46069C90466FF02F0621780A
:1017A0006278303901EB810106EB41010A441F46A2
:1017B000A11C2A60FEF7B6FC2868E11C425CA11C53
:1017C000241D405C303800EB800006EB40000244F2
:1017D0003A60286801194046FEF7A4FC0020BDE8E5
:1017E000F081000070B515460E46044603220CA198
:1017F000FEF7D0FC10B14FF0FF3070BD601D02F05D
:101800000BF93060607AA17A303800EB80006FF01D
:101810002F0202EB400008442860002070BD000049
:101820004150530070B515460E46044603220CA1E4
:10183000FEF7B0FC10B14FF0FF3070BD601D02F03C
:10184000EBF83060607AA17A303800EB80006FF0FE
:101850002F0202EB400008442860002070BD000009
:10186000454355002DE9F041884600EB40012148F1
:10187000164600EBC104E16A01F0030002280BD018
:10188000A06A626A801A401E01D5226A104486420C
:1018900002DD89072BD006464EB30027A06A616A95
:1018A000451A6D1E01D5206A0544D4E90801411A84
:1018B000A94201DC616A451AB54200DB3546616A1E
:1018C000E0692A4608444146FEF72CFC606A2F4432
:1018D000A844761B28446062606A216A884201D16C
:1018E00000206062002ED9D13846BDE8F08100208A
:1018F000FBE700002C0100200FB408B504A90091FB
:101900006A46039900F004F801B05DF814FB00008A
:101910002DE9F04198B0064607A802904020002526
:10192000CDE90305CDE9055690460C4614F8011B98
:10193000002971D0252908D002A801F041FC0598A2
:101940000028F3DA18B0BDE8F081002021782329BF
:101950001BD02B2916D02D290ED030290FD00022D4
:101960002178A1F130030A2B13D202EB820201EBA2
:101970004202303A641CF3E740F0010007E040F017
:10198000020004E040F0040001E040F00800641CA4
:10199000DCE70023CFB22E2F0CD100BF14F8011FBB
:1019A000A1F130070A2F05D203EB830301EB4303B8
:1019B000303BF3E76C290DD068290BD0702954D047
:1019C0000BDC252916D0582931D063290CD0642985
:1019D00013D114E014F8011BECE7732934D07529F6
:1019E0001BD0782909D122E0D8F80000011DC8F8E1
:1019F0000010017802A801F0E3FB641C9FE7D8F80F
:101A000000100F1DC8F800700968CDE900200A22F7
:101A100002A801F005FBF0E733E0D8F800100F1D35
:101A2000C8F800700968CDE900200A2208E0D8F85B
:101A300000100F1DC8F800700968CDE900201022C1
:101A400002A801F04FFBD8E7D8F80000011DC8F844
:101A50000010076817F8011B0029CED002A801F07A
:101A6000AFFB05980028F5DAC7E7D8F80000011D9C
:101A7000C8F8001001680820CDE9000503461022CF
:101A8000DEE7059800287FF75DAF049820B1024695
:101A900007A93046FFF7E6FEDDE90401084405909A
:101AA00050E770B505460C46662000F09DF900F041
:101AB000E0012943662000F03BFA672000F094F92A
:101AC00000F0E0012143BDE87040672000F030BA2B
:101AD00070B506460D46084600F0B6F8FEF79BFFC7
:101AE000FEF7E8FE022000F059F800BFFFF75CF8AF
:101AF0000228FBD1002404E0305D00F0D9F9641C19
:101B0000E4B2AC42F8D3402000F048F8FEF7FEFF04
:101B10000828FBD10020FEF7D8FE102000F03EF888
:101B2000024900200870012070BD000084000020E0
:101B300070B5194C6178042919D204F15B0000F1E9
:101B40002505012904D002290AD003291BD00EE063
:101B500011491122891CFEF7E5FAB4F8130005E0DB
:101B60000D4911221531FEF7DDFAE08CA8820A4DED
:101B700000243B352046295D00F0DAF9641CE4B20C
:101B8000602CF7D370BD044911222831FEF7CAFA40
:101B9000B4F83900EAE70000840000200146602024
:101BA00000F0C6B90CB500212548019100910268EA
:101BB00042F4803202604FF4A063026802F4003203
:101BC0000092019A521C0192009A12B9019A9A420B
:101BD000F3D10268920331D50121009119490A68B5
:101BE00042F010020A600A6822F003020A600A68E2
:101BF00042F001020A604168416041684160416809
:101C00004160416821F47C114160416841F4F81160
:101C10004160016841F08071016001688901FCD573
:101C2000416821F003014160416841F002014160D7
:101C30004168C1F381010229FAD10CBD00910CBDAC
:101C4000001002400020024010B504460220FFF7B9
:101C5000A5FF452000F0C8F800F08F00C4F3022172
:101C600040EA0111452000F063F9E1B2462000F09E
:101C70005FF9BDE810401020FFF790BF10B5FF21BD
:101C80007F2000F055F9BDE81040142001F066BD3A
:101C90002DE9F84F01210820FFF794F94FF4804611
:101CA000ADF800601025DFF8B8A08DF803500324CC
:101CB0008DF8024069465046FEF7CCFE012108200F
:101CC000FFF780F96F02ADF800708DF803508DF8C2
:101CD000024069465046FEF7BDFE01210820FFF78D
:101CE00071F94FF48058ADF800808DF803508DF8ED
:101CF000024069465046FEF7ADFE01210820FFF77D
:101D000061F94FF48069ADF800908DF803508DF8BB
:101D1000024069465046FEF79DFE01210820FFF76C
:101D200051F9E801ADF8000048208DF803008DF866
:101D3000024069465046FEF78DFE39465046FEF792
:101D4000E3FE49465046FEF7DFFE31465046FEF7B9
:101D5000DBFE41465046FEF7D5FEBDE8F88F000099
:101D6000000C01402DE9F0410024FFF791FF1D4ECA
:101D70004FF480613046FEF7C5FEFFF775F8082086
:101D800001F002FD0025B7144FF480486006040EF0
:101D900039463046FEF7B6FE022001F0F5FC394622
:101DA0003046FEF7B1FE022001F0EEFC414630461F
:101DB000FEF7A1FE012801D144F001046D1CEDB233
:101DC000082DE3D339463046FEF79CFE042001F08F
:101DD000DBFCFFF75DFF082001F0D6FC2046BDE8E4
:101DE000F0810000000C01402DE9F047002440F094
:101DF0008007FFF74DFF2D4E4FF400513046FEF7A0
:101E000081FE022001F0C0FC0025B0464FF480495D
:101E1000B61438064946404602D5FEF775FE01E085
:101E2000FEF770FE31464046FEF76CFE022001F0E0
:101E3000ABFC31464046FEF767FE022001F0A4FCF1
:101E400078066D1C070EEDB2082DE2D349464746D1
:101E50004046FEF759FEFFF707F808256006040E16
:101E600031463846FEF74EFE022001F08DFC314629
:101E70003846FEF749FE022001F086FC4946384606
:101E8000FEF739FE012801D144F001046D1E15F062
:101E9000FF05E3D131463846FEF734FE022001F05B
:101EA00073FCFFF7F5FE2046BDE8F087000C01400B
:101EB0002DE9F0410546FFF7EBFE1C4E4FF4806123
:101EC0003046FEF71FFE082001F05EFC00244FF4B0
:101ED0008048B71428064146304602D5FEF714FE66
:101EE00001E0FEF70FFE39463046FEF70BFE0220FA
:101EF00001F04AFC39463046FEF706FE022001F0AA
:101F000043FC6806641C050EE4B2082CE2D3394693
:101F10003046FEF7F7FD042001F036FCFFF7B8FE6F
:101F2000BDE8F041082001F02FBC0000000C01408A
:101F30002DE9F0470E4620F08007FFF7A9FE2A4C56
:101F40004FF400512046FEF7DDFD022001F01CFC9D
:101F500000254FF480494FF4805838064946204602
:101F600002D5FEF7D1FD01E0FEF7CCFD414620464B
:101F7000FEF7C8FD022001F007FC41462046FEF7AF
:101F8000C3FD022001F000FC78066D1C070EEDB2C7
:101F9000082DE2D30025474630064946204602D5A3
:101FA000FEF7B2FD01E0FEF7ADFD39462046FEF733
:101FB000A9FD022001F0E8FB39462046FEF7A4FD0A
:101FC000022001F0E1FB70066D1C060EEDB2082D3B
:101FD000E2D339462046FEF795FD022001F0D4FBFE
:101FE000BDE8F047FFF754BE000C01404FF0E02180
:101FF0000428086903D020F004000861704740F00D
:102000000400FAE70F4810B5016841F001010160D2
:1020100041680D4A1140416001680C4A114001605D
:10202000016821F480210160416821F4FE014160D2
:102030004FF41F018160FFF7B5FD05494FF00060C7
:10204000086010BD001002400000FFF8FFFFF6FE20
:1020500008ED00E070B501218C07204600F033F94F
:10206000002820D00121204600F020F90E4C012547
:102070000026A068401CA060A570E67020790128A9
:102080000BD1607928B10020607120B1FEF73AFFD2
:1020900003E00120F8E7FEF72DFF0449A06888421D
:1020A00001DD6570A66070BD200100208051010037
:1020B0007FB50C46054601210846FEF76BFFADF8DB
:1020C0000450ADF8004000244FF08045ADF80640C4
:1020D000ADF802406946284600F00AF9012211468F
:1020E000284600F0FCF81C208DF80C0001218DF82A
:1020F0000D1003208DF80E008DF80F1003A8FEF7C9
:102100000DFF0121284600F0D4F8014884707FBDFE
:102110002001002010B50E4C0121204600F0D3F81C
:10212000002813D00121204600F0C0F809490878A2
:10213000401C40B20870012808DD074900200870E3
:1021400006490880BDE8104000F00AB810BD000044
:102150000004004020010020730000207C000020CB
:102160000349002008700146024800F0A2B80000B0
:1021700020010020000400407FB50C4605460121E7
:102180000220FEF707FFADF80450ADF80040002430
:10219000114DADF80640ADF802406946284600F002
:1021A000A7F801221146284600F099F81D208DF865
:1021B0000C0001218DF80D1003208DF80E008DF814
:1021C0000F1003A8FEF7AAFE0121284600F071F8BF
:1021D000024804707FBD0000000400402001002080
:1021E00010B50E4C0121204600F06DF8002813D0E8
:1021F0000121204600F05AF809498879401C40B274
:102200008871012808DD0749002008700649088008
:10221000BDE8104000F00AB810BD00000008004002
:1022200020010020710000207400002003490020DC
:1022300088710146024800F03CB8000020010020EF
:10224000000800407FB50C46054601210420FEF73A
:10225000A1FEADF80450ADF800400024114DADF8DA
:102260000640ADF802406946284600F041F80122D8
:102270001146284600F033F81E208DF80C008DF82A
:102280000D4003208DF80E0001208DF80F0003A8EB
:10229000FEF744FE0121284600F00BF80248847145
:1022A0007FBD00000008004020010020C9430182DA
:1022B00070470029018802D041F0010101E021F0BE
:1022C00001010180704702460020138A92890B4267
:1022D00002EA010202D0002A00D001207047002A41
:1022E000828901D00A4300E08A438281704700005E
:1022F00030B502881B4B1C4C98420DD0A0420BD02D
:10230000B0F1804F08D0194DA84205D0184DA84211
:1023100002D0184DA84203D122F070054A882A4302
:10232000154DA84206D0154DA84203D022F44075A1
:10233000CA882A4302808A8882850A880285984250
:102340000AD0A04208D00E4A904205D00D4A9042D1
:1023500002D00D4A904201D1097A01860121818281
:1023600030BD0000002C014000340140000400405A
:1023700000080040000C0040001000400014004025
:102380000040014000440140004801402DE9F04177
:102390000E46804600240A4D0DE000BF18F8047078
:1023A0004021284600F08CFA0028F9D0394628460A
:1023B00000F01EFB641CB442F0DB2046BDE8F08157
:1023C000003801402DE9F0476C4C002582462581FC
:1023D00060786B4E4FF0010941F61F4828B328E0A2
:1023E000FFF724FFA1882089081A80B260810128A4
:1023F00006D0022808D003280DD005281DD00DE0F6
:102400003078452803D109E07078432806D0A580AC
:102410002581657002E0B0785528F8D141469520B5
:10242000FFF710FF2089401C20812189A08881426C
:10243000D6D36078012823D027E084F80190414664
:102440009520FFF7FFFEF4E7FFF7F0FEA088218953
:10245000401A80B26081092807D039469520FFF7DD
:10246000F1FE2089401C20810BE0701D01F0D4FAA0
:10247000E0800220607039469520FFF7E3FE04E01B
:1024800047462189A0888142DED3607802281BD08C
:102490001FE000BFFFF7CAFEA0882189401A80B262
:1024A0006081E188C91E814206D1032060703946EF
:1024B0009520FFF7C7FE0CE039469520FFF7C2FED6
:1024C0002089401C208100E047462189A088814264
:1024D000E0D3607803284BD0BDE8F087FFF7A6FE75
:1024E000A1882089081A80B26081E788B91E8142DC
:1024F00007D1F11911F8031C452902D0A5802581C7
:102500006570791E814207D1F11911F8021C4E291C
:1025100002D0A58025816570874222D1B8B23044AF
:1025200010F8010C442802D0A580258165704FF475
:1025300000711448FDF70FFE3A4611491148FDF7A6
:10254000F1FDE0880F49CAF800000D5484F80090AE
:102550006570A58025814146BDE8F0479520FFF7CD
:1025600071BE41469520FFF76DFE2089401C2081F9
:102570002189A0888142B1D3AEE70000700000201D
:102580002A0D00202A07002010B50C4C40F22551DE
:10259000204600F09CF900280ED0204600F024FAD6
:1025A0000849074B8A889854521C90B28880B0F52D
:1025B000007F01D30020888010BD0000003801405A
:1025C0002A0D00207000002010B59AB00446642146
:1025D0006846FDF7C0FD224607A1684600F010FEE0
:1025E0006A460AA10020FFF787F910216846FFF725
:1025F000CDFE1AB010BD00004543553131303031A9
:1026000036303525303264454E4400005553415232
:1026100054315F526573706F6E73655F464143540A
:102620004F52592025730A0030B599B00D46044623
:1026300064216846FDF78FFD7CB122460AA16846F9
:1026400000F0DEFD6A4610A10020FFF755F91C21BD
:102650006846FFF79BFE19B030BD2B46224611A1FC
:10266000684600F0CDFDEDE745435531313030325D
:102670003830322530326430303030303030303025
:10268000303030454E4400005553415254315F5272
:102690006573706F6E73655F524541445F494420B6
:1026A00025730A00454355313130303238303225F8
:1026B0003032642573454E440000000010B59AB0D6
:1026C000044664216846FDF746FD224607A1684698
:1026D00000F096FD6A460AA10020FFF70DF91021CF
:1026E0006846FFF753FE1AB010BD00004543553150
:1026F0003130303136303125303264454E440000BF
:102700005553415254315F526573706F6E73655FFC
:102710005345545F49442025730A000010B59AB010
:10272000044664216846FDF716FD224607A1684667
:1027300000F066FD6A460AA10020FFF7DDF81021CF
:102740006846FFF723FE1AB010BD0000454355311F
:102750003130303136303425303264454E4400005B
:102760005553415254315F526573706F6E73655F9C
:102770005345545F4E4554574F524B2025730A0022
:1027800030B599B00C46054664216846FDF7E3FC78
:1027900023462A4607A1684600F032FD6A460BA18F
:1027A0000020FFF7A9F812216846FFF7EFFD19B0E6
:1027B00030BD00004543553131303031383033259C
:1027C00030326425303264454E4400005553415246
:1027D00054315F526573706F6E73655F5445535427
:1027E0002025730A0000000010B50E4C40F2255160
:1027F000204600F06CF8002812D0204600F0F4F8D3
:102800000A4C094AA1895054491C8AB2A281B2F5E6
:10281000806F05D306A10020FFF76EF80020A0818D
:1028200010BD0000004400402A0F0020700000206E
:102830002564200A000000000029818902D041F4AB
:10284000005101E021F4005181817047174910B512
:1028500088420AD101218C032046FEF7BFFB2046A7
:10286000BDE810400021FEF7B9BB1149884202D1F2
:1028700001214C0410E00F49884202D101218C044F
:102880000AE00D49884202D10121CC0404E00B4941
:1028900088420AD101210C052046FEF787FB20461D
:1028A000BDE810400021FEF781BB10BD003801409B
:1028B0000044004000480040004C004000500040F0
:1028C0000246002012880A4200D00120704730B52D
:1028D00001F01F0201240025C1F3421304FA02F2A1
:1028E000012B0FD0022B0FD0838A4FEA11210088D1
:1028F000134204FA01F400EA040001D000B10125FA
:10290000284630BD8389F0E7038AEEE710B5C1F3AE
:10291000421301F01F040121A140012B07D0022B1B
:1029200007D01430002A026805D00A4304E00C30B6
:10293000F8E71030F6E78A43026010BD30B5044670
:10294000008A85B00D464CF6FF710840E9880143C6
:102950002182A1894EF6F3100140A8882A891043EC
:102960006A890A431043A081A08A4FF6FF410840BC
:10297000A9890143A1826846FEF73CFB19488442BD
:1029800001D1039800E00298A189090400EBC0017D
:1029900001EB0010296801D5490000E08900B0FB77
:1029A000F1F06422B0FBF2F109010B096FF0180598
:1029B0006B4300EB8300A3891D044FF0320306D55F
:1029C00003EBC000B0FBF2F000F0070005E003EB02
:1029D0000010B0FBF2F000F00F000843208105B0BA
:1029E00030BD0000003801408088C0F30800704707
:1029F000C1F308018180704770B500260546741E3A
:102A0000C82000F0ABFEFDF7D5FD20B1761C032EEB
:102A1000F6DB401C34D0C82000F0A0FE0026C82001
:102A200000F09CFE2846FDF73FFE20B1761C032EE9
:102A3000F5DB401C1AD00025C82000F08FFEFDF702
:102A4000E5FE002811D06D1C032DF5DB0025C82004
:102A500000F084FEFDF7F2FD20B16D1C032DF6DBC6
:102A6000401C0DD000F04AF9002070BD0025C820A0
:102A700000F074FEFDF7E2FD10B16D1C032DF6DBD6
:102A8000204670BD70B500260546741EC82000F0B3
:102A900065FEFDF78FFD20B1761C032EF6DB401C92
:102AA0002DD0C82000F05AFE0026C82000F056FEA7
:102AB0002846FDF751FE1DA0FDF7F6FD20B1761C5E
:102AC000032EF2DB401C25D00025C82000F046FE76
:102AD000FDF79CFE002811D06D1C032DF5DB0025B1
:102AE000C82000F03BFEFDF7A9FD20B16D1C032DB1
:102AF000F6DB401C18D000F001F9002070BD002565
:102B0000C82000F02BFEFDF799FD68B16D1C032D68
:102B1000F6DB09E00025C82000F020FEFDF78EFD61
:102B200010B16D1C032DF6DB204670BD38383838E7
:102B300038383838000000002DE9F0476C4C00258B
:102B400082462582E0786B4E4FF0010941F61F481E
:102B500028B328E0FFF704FBA189208A081A80B275
:102B60006082012806D0022808D003280DD005284D
:102B70001DD00DE03078412803D109E0707850284D
:102B800006D0A5812582E57002E0B0785328F8D1FF
:102B900041469520FFF7F0FA208A401C2082218AC6
:102BA000A0898142D6D3E078012823D027E084F899
:102BB000039041469520FFF7DFFAF4E7FFF7D0FADC
:102BC000A089218A401A80B26082092807D039463C
:102BD0009520FFF7D1FA208A401C20820BE0701D5F
:102BE00000F01AFFE0810220E07039469520FFF7DF
:102BF000C3FA04E04746218AA0898142DED3E07807
:102C000002281BD01FE000BFFFF7AAFAA089218A83
:102C1000401A80B26082E189C91E814206D1032038
:102C2000E07039469520FFF7A7FA0CE03946952069
:102C3000FFF7A2FA208A401C208200E04746218A42
:102C4000A0898142E0D3E07803284BD0BDE8F0872B
:102C5000FFF786FAA189208A081A80B26082E78984
:102C6000B91E814207D1F11911F8031C452902D080
:102C7000A5812582E570791E814207D1F11911F8ED
:102C8000021C4E2902D0A5812582E570874222D1FF
:102C9000B8B2304410F8010C442802D0A581258236
:102CA000E5704FF480611448FDF755FA3A46114932
:102CB0001148FDF737FAE0890F49CAF800000D54B2
:102CC00084F80290E570A58125824146BDE8F04771
:102CD0009520FFF751BA41469520FFF74DFA208A1B
:102CE000401C2082218AA0898142B1D3AEE7000036
:102CF000700000202A0F00202A09002070B5084D1E
:102D00004FF4004421462846FDF7FEFE40F6B83059
:102D100000F024FD21462846FDF7F4FE002070BD9A
:102D2000000C01402DE9F0410E46804600240A4D7A
:102D30000DE000BF18F8047040212846FFF7C0FDE1
:102D40000028F9D039462846FFF752FE641CB442E9
:102D5000F0DB2046BDE8F0810044004070B500245F
:102D6000651EC82000F0FAFCFDF724FC20B1641CAD
:102D7000032CF6DB401C1DD0C82000F0EFFC002423
:102D8000C82000F0EBFCFDF741FD002811D0641CC9
:102D9000032CF5DB0024C82000F0E0FCFDF74EFC1E
:102DA00020B1641C032CF6DB401C0DD0FFF7A6FFFE
:102DB000002070BD0024C82000F0D0FCFDF73EFCD0
:102DC00010B1641C032CF6DB284670BD70B50024DE
:102DD000651EC82000F0C2FCFDF7ECFB20B1641CAE
:102DE000032CF6DB401C0CD00024C82000F0B6FCFD
:102DF000FDF724FC002803D0641C032CF5DB2846D7
:102E000070BD0024C82000F0A9FCFDF717FC0028C5
:102E1000F6D0641C032CF5DBF1E700002DE9F0414E
:102E2000DFF86C80C7B2C0F307260C461546202198
:102E30004046FDF767FEFDF7ADFFA020FDF770FFF0
:102E4000FDF70EFF3046FDF76BFFFDF709FF384633
:102E5000FDF766FFFDF704FF07E02878FDF760FF48
:102E6000FDF7FEFE641EE4B26D1C002CF5D1FDF7EB
:102E7000B1FF4AF6C870FDF7EDFE20214046FDF790
:102E800043FEBDE8F0414FF47A70FDF7E3BE000069
:102E9000000C014013B582B000208DF80000FE2028
:102EA00000EBC100044602AA0121FFF7B7FF20464C
:102EB0006A460121FEF7E0FB0122694602A8FDF700
:102EC0005CF9002800D0012004B010BD38B50446DC
:102ED00000200090224602212020FFF79FFF6A4633
:102EE00002212020FEF7C8FB022269462046FDF79A
:102EF00044F9002800D0012038BD1CB5044600204C
:102F000000900190224606211020FFF787FF6A46B5
:102F100006211020FEF7B0FB062269462046FDF789
:102F20002CF9002800D001201CBD38B50446002033
:102F30000090224601213020FFF770FF6A460121F0
:102F40003020FEF799FB012269462046FDF715F96E
:102F5000002800D0012038BD3EB5054600200C46B3
:102F6000009001902A460290FFF758FF6A462146DA
:102F70000020FEF781FB224669462846FDF7FDF852
:102F8000002800D001203EBD7CB505460020009001
:102F90000190F82000EBC1042A4606212046FFF7E5
:102FA0003DFF20466A460621FEF766FB062269467B
:102FB0002846FDF7E2F8002800D001207CBD38B596
:102FC000044600200090224602214020FFF726FF01
:102FD0006A4602214020FEF74FFB02226946204646
:102FE000FDF7CBF8002800D0012038BD3EB50546DE
:102FF00000200090019002900C462A465020FFF7D6
:103000000DFF6A4621465020FEF736FB22466946F0
:103010002846FDF7B2F8002800D001203EBD000090
:103020002DE9FC5F0E008146DDE90C47C6F100008A
:1030300098469346824600D40846012503E000BF27
:10304000B0FBFBF06D1C5845FAD2A84500D94546A7
:1030500024B1002E01DB780700D5641EB80702D525
:10306000B8F1000F10D0F8070ED16CB12046641EE5
:10307000A84209D92021484600F0A2F8D9F80C004E
:103080000028F2DABDE8FC9F002E02DA56462D2118
:1030900002E0780707D52B21484600F091F8D9F8CF
:1030A0000C000028EEDB07F00300022810D1B8F175
:1030B000000F0DD164B12046641EA84208D930210A
:1030C000484600F07DF8D9F80C000028F2DAD9E77C
:1030D000CDE9004743465A463146484600F002F8DB
:1030E000D0E700002DE9F84F8246DDE90A4B0126C2
:1030F000984691460D460846374602E0B0FBF9F087
:103100007F1C4845FAD2B84500D947465FEACB70E4
:103110001CD1DCB15FEA8B7002D5B8F1000F02D090
:10312000202000900AE03020FBE75046009900F094
:1031300047F8DAF80C0000283EDB3CB12046641E5C
:10314000B842F2D802E000BF06FB09F6B5FBF6F183
:10315000494501D3012100E000214246A8F10108C0
:10316000012A01DD012000E000200143ECD1DFF85D
:103170004C8000BFB5FBF6F000FB165518F80010A8
:10318000504600F01DF8DAF80C00002803DBB6FB0F
:10319000F9F6002EEED15FEACB700DD0002C0BD0EB
:1031A0002046641EB84207D92021504600F008F896
:1031B000DAF80C000028F1DABDE8F88F684300085F
:1031C00010B50446D4E90130421C934205DB236864
:1031D0001954A260E068401CE060D4E90102824218
:1031E00009D121682069FEF73DFBA168884203D020
:1031F0004FF0FF30E06010BD0020A06010BD000067
:103200000FB4084B10B504A902AA039800F036F8D1
:10321000044602A9002000F0D2F9204610BC5DF857
:1032200014FB0000BF35000802E008C8121F08C1E7
:10323000002AFAD170477047002001E001C1121F37
:10324000002AFBD1704700000B49498848434FF0E2
:10325000E021486100228A61086940F001000861AC
:103260000869C30701D0C003FAD5086920F001003E
:1032700008618A61704700006C0000202DE9FF4F53
:103280008BB088460546002606E025280BD0DDE9F0
:103290000D1290476D1C761C28780028F5D10FB0D0
:1032A0003046BDE8F08F0024A146A2460122AE4977
:1032B00000E0044315F8013F203B02FA03F0084206
:1032C000F7D128782A2810D06FF02F022878A0F1A3
:1032D0003001092915D809EB890102EB410144F0BD
:1032E000020400EB01096D1CF0E758F8041B5FEACB
:1032F000010903D544F40054C9F1000944F0020463
:103300006D1C28782E2817D115F8010F44F00404FD
:103310002A280ED06FF02F022878A0F13001092959
:103320000AD80AEB8A0102EB410100EB010A6D1C8D
:10333000F2E758F804AB6D1C28786C280FD006DC37
:103340004C2817D068280DD06A2814D104E07428BE
:1033500010D07A280FD10DE044F400140AE044F4B0
:10336000801401E044F440146978814202D104F5EC
:1033700080146D1C6D1C2878692865D006DC002837
:103380008DD0632827D0642806D15DE06E2808D050
:1033900073282AD0752877D0DDE90D129047761C66
:1033A000E0E0C4F30250022809D003280DD0D8F879
:1033B000001004280DD00E6008F10408D2E0D8F8FF
:1033C0000010F217C1E90062F6E7D8F800100E808D
:1033D000F2E70E70F0E718F8041B8DF800100020DB
:1033E0008DF80100EB46012003E058F804BB4FF0D4
:1033F000FF3061074FF0000701D40AE07F1C5745FA
:103400000DDA8742FADB1BF807100029F6D106E037
:103410007F1C8742FCDB1BF807100029F8D1DDE98F
:103420000D23A9EB07008146214600F0B1F8304496
:10343000C61904E0DDE90D121BF8010B90477F1E51
:10344000F8D22146484688E058F8040BC4F30251EC
:103450004FF00A0B032900D100B2042900D140B279
:10346000002802DA40422D2102E0210505D52B215A
:103470008DF82410012104E006E0E10710D020219E
:10348000F6E708AF089113E058F8040BC4F30251B3
:103490004FF00A0B032900D180B2042900D1C0B239
:1034A0000021EEE75946FCF784FE303107F8011D94
:1034B0000028F7D1ADEB070000F1200B600702D523
:1034C00024F4803401E04FF0010ADA4502DDAAEB72
:1034D0000B0000E00020824600EB0B01089801443D
:1034E000A9EB01000A90E00306D4DDE90D23214693
:1034F0000A9800F04DF806444FF0000908E009A9C9
:1035000011F80900DDE90D12904709F10109761C57
:1035100008998945F3DBE0030CD5DDE90D2321464D
:103520000A9800F035F8064404E0DDE90D12302079
:103530009047761CBAF10001AAF1010AF5DC05E01A
:10354000DDE90D1217F8010B9047761CBBF1000165
:10355000ABF1010BF4DC0A982146DDE90D2300F004
:1035600005F806446D1C97E6092801002DE9F04195
:10357000044600251E461746880404D405E0394653
:103580002020B0476D1C641EF9D52846BDE8F081A7
:103590002DE9F041044600251E469046C80301D59A
:1035A000302700E02027880404D505E0414638464E
:1035B000B0476D1C641EF9D52846BDE8F0810A6845
:1035C000531C0B60107070472DE9F04186B000204D
:1035D0000590C817174601EB1060C0F30722084694
:1035E000C3B20D468DF814208DF8153017A10020B8
:1035F000FEF782F905A8FFF7E2FC002420E000BFF7
:1036000004EB440807EB4806611C3046FFF7BCFC9E
:10361000611C0020FFF73EFCB0780DF1040C7379BB
:103620003279F1788CE80F007078009017F8183034
:10363000621C0CA10020FEF75FF9641C642C01DA07
:10364000AC42DDDB06B00020BDE8F0813131313124
:10365000313131313131313131313120257820254D
:10366000780A00006164645F696E766572746572E1
:103670002075696425643A20253032782530327807
:10368000253032782530327825303278253032783E
:1036900020200A002DE9FF5F82468B46002401208E
:1036A00000F042FDDFF85080144D154EDFF85490C5
:1036B000154F17E02968CDF80090C1EBC10106EB6A
:1036C000410303F108019A1DCDF80C80CDE90121D9
:1036D000C4EBC4010AEB41015A460C480A33FDF71A
:1036E000C3FE641C38688442E4DB04B00020BDE8FB
:1036F000F05F00F019BD00000F0000201400002052
:10370000B20100200E000020100000200000002068
:1037100010B5FEF725FD02480021C170818110BD62
:103720007000002010B50420FEF760FC084809492D
:103730000068B0FBF1F0C1B2074801EB4102017033
:10374000C2EBC1114FF6FF7202EAC101418010BD08
:103750004C00002040420F006C00002070B54FF478
:10376000E9750446A84203DABDE87040FFF76CBD76
:103770004FF4C8763046FFF767FDA4F5C874AC4235
:10378000F8DAA0B2F0E700000B49097848434FF09F
:10379000E021486100228A61086940F00100086167
:1037A0000869C30701D0C003FAD5086920F00100F9
:1037B00008618A61704700006C00002010B509485C
:1037C000FDF7A9FF0849074800F0BAFC0748FDF7D4
:1037D00096FF064B044A06A10020FEF78DF8002054
:1037E00010BD000000000020A401002008000020FF
:1037F000454355204944203A25732020202020208D
:1038000020205369676E616C5F4368616E6E656C02
:103810003A2020202573202020200A00F0B587B010
:10382000002606968DF81860054604468DF8196046
:103830003746FF2206212046FCF786FCE6802681DB
:10384000A6720E347F1C642FF3DB06A8FDF789FFF8
:103850009DF819009DF818101D4C00EB01206428FC
:10386000206001DD266000E008B9FDF74BFB19A1DF
:1038700000202268FEF740F8002722E0791C284645
:10388000FDF760FF791C05F10B00FDF729FFE87AD1
:10389000012800D0EE72E8780DF1080CEB7A6A7915
:1038A00029798CE80F00A9786878CDE900012B7898
:1038B0007A1C0DA10020FEF71FF80E357F1C642F27
:1038C00002DA20688742D9DB07B00020F0BD000093
:1038D000100000207661696C644E756D203A256495
:1038E00020202020200A000075696425643A2025E4
:1038F00030327825303278253032782530327825CC
:103900003032782530327820202062696E643A2582
:10391000640A0000FFF706FFFDF7FCFAFDF776FAF0
:10392000FDF7CCFAFDF702F8FDF7B4FAFCF7A0FFBB
:103930004FF46144204600F03BFC204600F0A6FC1A
:1039400041F61F4141F28730FEF7B2FB21A1002072
:10395000FDF7D2FFFFF732FF2148FFF75FFF214E4F
:10396000214FDFF88880DFF88890DFF888A00024F6
:103970002148FFF7E1F83078012802D100F00AFA77
:1039800034701D48001DFEF71DFD3878012807D151
:103990001A4A1BA10020FDF7AFFF00F0DFF83C70D2
:1039A00098F800004546012802D100F097F82C70E5
:1039B00099F800004D46012802D100F08BFB2C70D5
:1039C0009AF8000055460128D2D100F03DF82C703D
:1039D000CEE70000696E6974204F4B200A0000009A
:1039E000B201002072000020700000206000002062
:1039F0002101002022010020240000202A070020AD
:103A00005553415254315F526563765F4576656E1A
:103A1000742025730A0000000178C278303901EB68
:103A20004103C3EBC11102EBC102417880786423EA
:103A3000594300EB800001EB40001044A0F5A0507A
:103A4000D03880B270470000FEB51E4E30680028A6
:103A500036DD1E4C1E4D1C4A2068C0EBC00005EB35
:103A600040018B1D009301F10800CDE90102821C89
:103A7000184B1948FDF7E2FBD0B92068C0EBC00035
:103A800005EB4001C87A012812D000231A461248DB
:103A9000FDF7F8FA01280BD12168491CFFF7FAF964
:103AA00030B921680120C1EBC10105EB4101C872A9
:103AB0002068401C20603168884201DB00202060C3
:103AC000FEBD0000100000200F00002014000020A8
:103AD000B20100200E0000200000002010B50024DC
:103AE0000CA12046FDF708FF41F28830FFF736FEB3
:103AF0000F48FEF7C7FF18B1641C032CF8DB03E086
:103B000008210CA0FFF772FABDE810400CA10020BC
:103B1000FDF7F2BE4B45595F466F726D61745749B0
:103B200046495F4576656E742053746172740A006D
:103B3000A401002038383838383838380000000000
:103B40004B45595F466F726D6174574946495F45F1
:103B500076656E7420456E640A00000070B58AB008
:103B60000024079403940494059406940294704AE4
:103B7000704971480894FDF755FE704900280860A7
:103B800016D16B486C4D6E4E0068062810D2DFE8E7
:103B900000F00F036C86A2BF674B012269A10020D1
:103BA000FDF7AAFE30681A2804D00120FEF786FD32
:103BB0000AB070BD55F80B0F049068680590A868AE
:103BC00006909DF811009DF810109DF8142000EB50
:103BD0000110A0F54C708DF808009DF813109DF8A9
:103BE000120001EB0010A0F54C708DF809009DF853
:103BF000150000EB0111A1F54C718DF80A109DF82C
:103C0000171001EB0211A1F54C718DF80B109DF806
:103C1000191001EB0010A0F54C708DF80C009DF808
:103C20001B009DF81A1000EB0110A0F54C708DF8E8
:103C30000D0002A8FFF761F910F0FF0001D0FEF7B8
:103C40003DFD8DF81C4041F28830FFF787FD04A848
:103C5000FEF718FFC4B2082140A0FFF7C7F92046BD
:103C6000FEF72CFDFFF7AAFDA2E7334B022235A198
:103C70000020FDF741FE02A8FDF74DFD04A902A8B2
:103C800000F05EFA8DF81C409DF8080004A9FF289A
:103C900003D00020FEF7C8FC8AE70120FAE7264B94
:103CA000032228A10020FDF727FE287BE97A00EBFC
:103CB0000110A0F54C70C4B22046FCF77DFFC5B2E0
:103CC0002B46224628A10020FDF716FE2946204655
:103CD000FEF756FD6CE7184B04221AA10020FDF7F1
:103CE0000BFE23A10020FDF707FE306806211138E6
:103CF00090FBF1F1104A26480E32FFF765FC0020D8
:103D0000FEF70CFD2248FFF789FDFDF7F3F84FE7BA
:103D1000094B05220BA10020FDF7EEFD08A8FFF7D7
:103D20004EF9C0B2FEF750FC1948FFF777FD3FE7A8
:103D3000300000202C0000202A0700203400002042
:103D400028000020574946495F526563765F4576F3
:103D5000656E7425642025730A00000038383838F1
:103D6000383838380000000025642025640A000037
:103D7000434F4D4D414E445F5345544E4554574F6C
:103D8000524B2020204D617070696E670A00000060
:103D9000B2010020F0B5CFB08C4A8D498D48FDF7B7
:103DA00021FD8D490028086023D18848894C8B4D1E
:103DB000006804F10B0704F11A06072819D2DFE89E
:103DC00000F018041A3B6A94DD00824B012284A1A2
:103DD0000020FDF791FD0120FDF740FC287086A230
:103DE0000521CDE90012024685A386A18648FCF78D
:103DF00035FA4FB0F0BD774B022279A10020FDF7D4
:103E00007BFD0C2280493846FCF7B7F958B17FA1F9
:103E10000020FDF771FD0022854901204FB0BDE86B
:103E2000F040FCF7F3BA83A10020FDF765FD894857
:103E30007F4902680020F1E7664B032268A1002059
:103E4000FDF75AFD0C2270493846FCF796F948B147
:103E50000120FCF79FFA4FB07FA1BDE8F0400020A1
:103E6000FDF74ABD85A10020FDF746FD8B480621E0
:103E7000324600681D3890FBF1F16D48FFF7A4FB56
:103E80000020FCF787FA6A48FFF7C8FC4FB0BDE88E
:103E9000F040FDF72FB84F4B042251A10020FDF751
:103EA0002BFD0C2258493846FCF767F938B14FB062
:103EB0000022BDE8F04011460120FCF737BA784EE9
:103EC000608B30800120FDF7C9FB28700246314627
:103ED0000020FCF72BFA734831880180B17881709B
:103EE0004FB0BDE8F040FEF7F1BF3A4B05223CA1D0
:103EF0000020FDF701FD0C2243493846FCF73DF94F
:103F000028B14FB00120BDE8F040FCF761BA642150
:103F10001BA8FCF720F9642102A8FCF71CF9642116
:103F200034A8FCF718F94EAB02AA4DA91BA80096BD
:103F3000FDF72EFC02A94E98CDE900011BAB5AA15A
:103F400000204D9AFDF7D8FC642134A8FDF715FC3C
:103F50001BA934A84D9AFCF710F918B10220FCF700
:103F600037FA46E70020FCF733FA02A8FEF744FDD3
:103F70004E98C1B202A8FFF739F83AE7154B06226E
:103F800017A10020FDF7B8FC0C221F493846FCF7AA
:103F9000F4F828B14FB00120BDE8F040FCF7A8B913
:103FA000E07D4B4C20700020FCF7A2F92A783C49B8
:103FB0000020FCF7BBF921781D48FFF76BFB4FB0E1
:103FC0002046BDE8F040FEF7B0BF00001C00002016
:103FD000180000202A0900202000002007000020EF
:103FE000574946495F526563765F4576656E74252D
:103FF000642025730A0000005253312E3000000067
:104000003030000031303100A4010020434F4D4DCD
:10401000414E445F53595354454D494E464F20201D
:10402000204E6F74204D617070696E670000000053
:10403000B2010020434F4D4D414E445F53595354FC
:10404000454D494E464F20204D617070696E670A9C
:104050000000000010000020434F4D4D414E445FD2
:104060005345544E4554574F524B2020204E6F74A9
:10407000204D617070696E6700000000434F4D4D28
:10408000414E445F5345544E4554574F524B2020A8
:10409000204D617070696E670000000024000020F0
:1040A0000B00002008000020434F4D4D414E445F5F
:1040B0005345545749464950415353574F52442052
:1040C00025642025732025642025730A0000000044
:1040D0000E00002010B5002407A12046FDF70CFCBF
:1040E000FEF73CFE10B1641C032CF9DBBDE8104068
:1040F00007A10020FDF700BC70726F636573735FEA
:10410000574946495F5253542053746172740A00F0
:1041100070726F636573735F574946495F525354BA
:1041200020456E640A000000044910B101200871A6
:10413000704700200871FCF7DDBE00002001002060
:104140000378302202EB13130B70037803F00F0394
:1041500030334B70437802EB13138B70437803F0CA
:104160000F033033CB70837802EB13130B7183781A
:1041700003F00F0330334B71C37802EB13138B71D1
:10418000C37803F00F033033CB71037902EB1313C1
:104190000B72037903F00F0330334B72437902EB58
:1041A00013128A72407900F00F003030C8727047E5
:1041B000F0B50446012187B08803FCF703FF012115
:1041C0000420FCF7FFFE2E4E3046FEF73FFB701535
:1041D000ADF8000003258DF802501820294F8DF806
:1041E000030069463846FCF735FC3015ADF8000091
:1041F00004208DF8030069463846FCF72BFC019437
:104200000024ADF80C400C20ADF80840ADF80E00CD
:10421000ADF80A40ADF8104001A93046FEF78EFB1C
:1042200025208DF814008DF8154002208DF8160019
:1042300001208DF8170005A8FCF770FE012240F25E
:1042400025513046FEF762FB01213046FEF7F4FAB5
:1042500001210820FCF7B6FE10208DF803008DF830
:104260000250C402084DADF8004069462846FCF7EC
:10427000F1FB21462846FCF747FC07B0F0BD0000E3
:104280000038014000080140000C01402DE9F041D8
:104290008046012186B04804FCF77CFE0121042001
:1042A000FCF790FE2D4E3046FEF7D0FA0424ADF810
:1042B000004003258DF802501820294F8DF8030087
:1042C00069463846FCF7C6FB0820ADF800008DF8BB
:1042D000034069463846FCF7BDFB0024ADF80C40AE
:1042E0000C20ADF80840ADF80E00CDF80480ADF814
:1042F0000A40ADF8104001A93046FEF71FFB26200A
:104300008DF814008DF815408DF8165001208DF8A9
:10431000170005A8FCF702FE012240F225513046A5
:10432000FEF7F4FA01213046FEF786FA0121082053
:10433000FCF748FE10208DF803008DF80250C402EF
:10434000084DADF8004069462846FCF783FB21463E
:104350002846FCF7D9FB06B0BDE8F08100440040D8
:1043600000080140000C014030313233343536371B
:1043700038394142434445465465726D696E616CFB
:1043800000000000A443000800000020A401000079
:104390000402000860440008A4010020F41D00008D
:1043A00038320008013845020406082D01020304D2
:1043B000041506070809845125027914290C0121E6
:1043C000136932181766D1690C0A9F392929C05020
:1043D0001453081F90D3641033D135131A4B13189C
:1043E0000D280A53080F70A6C91020A112131A5ADB
:1043F0001317140553100750200F66EC1DF080149E
:1044000008910302D0AEE03516F410E24220F80A1B
:10441000814271CE1C425B1C1C46113AB4901312AF
:10442000045AAAAC4DD42D011FB3212360FF161FDF
:1044300010504D06130F70D58A183F7F600B5345FF
:1044400047474552205254542941290413784314B4
:10445000082A1312200226043930121703272010CD
:04000005080000ED02
:00000001FF
