:020000040800F2
:100000004022002001010008090100080B0100083E
:100010000D0100080F010008110100080000000098
:1000200000000000000000000000000013010008B4
:100030001501000800000000170100081901000860
:100040001B0100081B0100081B0100081B01000820
:100050001B0100081B0100081B0100081B01000810
:100060001B0100081B0100081B0100081B01000800
:100070001B0100081B0100081B0100081B010008F0
:100080001B0100081B0100081B0100081B010008E0
:100090001B0100081B0100081B010008E50A0008FD
:1000A0001B0100081B0100081B0100081B010008C0
:1000B000F9220008C5230008AD2400081B01000830
:1000C0001B0100081B0100081B0100081B010008A0
:1000D0001B01000861280008BD2A00081B01000858
:1000E0001B0100081B0100081B010008DFF80CD0F1
:1000F00000F076F800480047B93B00084022002095
:100100000648804706480047FEE7FEE7FEE7FEE7B1
:10011000FEE7FEE7FEE7FEE7FEE7FEE7A9220008AE
:10012000ED00000840EA01039B0703D009E008C97D
:10013000121F08C0042AFAD203E011F8013B00F8AC
:10014000013B521EF9D27047D2B201E000F8012BF8
:10015000491EFBD270470022F6E710B513460A4647
:1001600004461946FFF7F0FF204610BD421C10F868
:10017000011B0029FBD1801A704730B504460020CE
:10018000034600E05B1C934203D2E05CCD5C401B65
:10019000F8D030BD30B505460020034600E05B1CBA
:1001A000934205D2EC5CC85C201A01D1002CF6D138
:1001B00030BD30B50B46014600202022012409E065
:1001C00021FA02F59D4205D303FA02F5491B04FA10
:1001D00002F52844151EA2F10102F1DC30BD000039
:1001E000064C074D06E0E06840F0010394E8070084
:1001F00098471034AC42F6D3FFF77CFF1C4B000845
:100200003C4B000870B58C1810F8015B15F0070323
:1002100001D110F8013B2A1106D110F8012B03E09F
:1002200010F8016B01F8016B5B1EF9D12B0705D4A7
:100230000023521E0DD401F8013BFAE710F8013BF0
:10024000CB1A921C03E013F8015B01F8015B521E0C
:10025000F9D5A142D8D3002070BD00002DE9F047A8
:1002600086B08846DDE911121F46DDE90F59CB7AC9
:100270000446002003F00F06DDF838A00FE000BFB1
:10028000C0EBC00303EB43030B44DB7A03F00F0323
:10029000B34201D0022604E0401C642801DA9042F7
:1002A000EEDB40F2E9711848FFF755FF6520CDF805
:1002B00014908DE88104CDE90365434613A11248EB
:1002C00005F1260203F03CF90F48217800F10902FC
:1002D000417061788170A178C170E17801712179F4
:1002E000417161798171A179C171E179017213A1C3
:1002F000002001F053FC06B005F12F01BDE8F047E6
:10030000014802F093BE00005216002061303030E8
:100310003030303030415053313125303464303159
:1003200025732530336425303364257325316425E6
:100330003033642573454E440A0000004150505F3D
:10034000526573706F6E73655F42617365496E6667
:100350006F2025730A00000070B50D46044640F278
:10036000E9710F48FFF7F7FE2A460EA10C4803F08B
:10037000E7F80B482178417061788170A178C170ED
:10038000E17801712179417161798171A179C1713E
:10039000E1790172BDE87040172102F047BE00000C
:1003A0005216002061303030303030303041505300
:1003B0003131303031333036253032640A000000BC
:1003C0002DE9F0410D4604461E46174640F2E971FC
:1003D0001C48FFF7C0FE28461A4D01281BD03346A3
:1003E0003A4619A1284603F0ABF820786870607887
:1003F000A870A078E870E078287120796871607939
:10040000A871A079E871E07928721F21BDE8F04158
:100410000C4802F00BBE15A10A4803F091F82078B1
:1004200068706078A870A078E870E078287120790A
:1004300068716079A871A079E871E0792872172154
:10044000E4E70000521600206130303030303030A8
:100450003041505331313030323130343030257307
:1004600025303364454E440A0000000061303030CE
:10047000303030303041505331313030313330341E
:1004800030310A0070B50D46044640F2E9710F485C
:10049000FFF761FE2A460EA10C4803F051F80B4805
:1004A0002178417061788170A178C170E178017123
:1004B0002179417161798171A179C171E17901720B
:1004C000BDE87040172102F0B1BD000052160020B7
:1004D0006130303030303030304150533131303095
:1004E00031333033253032640A00000070B50D46D8
:1004F000044640F2E9710F48FFF72DFE2A460EA18F
:100500000C4803F01DF80B48217841706178817028
:10051000A178C170E17801712179417161798171AE
:10052000A179C171E1790172BDE87040172102F033
:100530007DBD000052160020613030303030303048
:100540003041505331313030313330352530326421
:100550000A0000002DE9F04387B0894605461E4693
:1005600014464FF0000818216846FFF7F4FD0027F5
:1005700040F2E9718348FFF7EEFD4846DFF8049248
:10058000012826D080A1484602F0DAFF297889F8B0
:100590000110697889F80210A97889F80310E978C0
:1005A00089F80410297989F80510697989F8061005
:1005B000A97989F80710E97989F80810F11706EB8D
:1005C00011610A0A48463146827589F817101825C4
:1005D0009CE073A16B4802F0B3FF297889F8011001
:1005E000697889F80210A97889F80310E97889F800
:1005F0000410297989F80510697989F80610A97914
:1006000089F80710E97989F8081017215D48B4E0E6
:1006100018216846FFF79FFDE17A01F00F000128DD
:1006200002D0090725D066E021680091A188ADF8C5
:1006300004108DF80600A17A9DF80700C1F340026E
:100640001043C1F3800140EA41008DF80700E088C3
:100650004FF00D08010A8DF808108DF80900208967
:10066000010A8DF80A108DF80B00607B8DF80C00E4
:1006700041E021680091A188ADF804108DF80600D2
:10068000A07A9DF80710C0F340021143C0F3800226
:1006900041EA4201C0F3801241EA8201C00941EA05
:1006A000C0008DF80700E0884FF01408010A8DF8AB
:1006B00008108DF809002089010A8DF80A108DF8BC
:1006C0000B00607B8DF80C00A07B8DF80D00E07BAB
:1006D0008DF80E00207C8DF80F00B4F81100010A8F
:1006E0008DF810108DF81100B4F81300010A8DF880
:1006F00012108DF8130009EB050042466946FFF71A
:1007000011FD15347F1C4544642F02DAB742FFF611
:100710007FAF0A20002E2BDDA91F4FF47A7291FBC8
:10072000F2F3303389F80E30642391FBF3F393FB3B
:10073000F0F400FB1433303389F80F3091FBF0F301
:1007400093FBF0F400FB1433303389F8103091FB45
:10075000F0F300FB13134A463033537409EB0102E4
:10076000452393714E23D37144231372507202E0D8
:10077000044A0D21907503480A3102F057FC07B076
:10078000BDE8F08352160020613030303030303018
:10079000304150533131303031333032303000005D
:1007A00061303030303030303041505331313030C2
:1007B0003133303230310A0070B503F0CFF8032105
:1007C00017A002F033FC4FF4AF76304603F0EAF89E
:1007D000144C4FF0FF35A089B8B1012212A1134883
:1007E000FFF7CBFC88B903F0B9F801210EA002F0A5
:1007F0001DFC304603F0D6F8A089032805D3032258
:100800000BA10A48FFF7B9FC08B1284670BD09A141
:10081000002001F0C3F903F0A1F8002070BD000032
:100820002B2B2B007000002061000000220F002005
:100830002B6F6B004154203A612B6F6B0A00000054
:1008400010B503F08BF808210EA002F0EFFB4FF477
:10085000967003F0A7F80E484FF0FF3480890A28FD
:1008600005D303220BA10C48FFF787FC08B12046F3
:1008700010BD0AA1002001F091F903F06FF80020EB
:1008800010BD000041542B454E544D0A000000009D
:10089000700000202B6F6B002B0F002041542B4564
:1008A0004E544D203A2B6F6B0A00000010B59AB0E1
:1008B000044664216846FFF74EFC03F04FF82246D9
:1008C00017A1684602F03CFE6A461CA1002001F018
:1008D00065F96846FFF74AFC411C684602F0A6FB32
:1008E0004FF47A7003F05EF815484FF0FF348089BA
:1008F0000A280AD36846FFF739FC12490322084444
:1009000011A1401CFFF739FC10B120461AB010BDF0
:100910000EA1002001F042F903F020F80020F5E7D5
:1009200041542B57414B45593D5750413250534B41
:100930002C4145532C25730A00000000257300004C
:1009400070000020220F00202B6F6B0041542B57AA
:10095000414B4559203A2B6F6B0A000010B59AB0F5
:10096000044664216846FFF7F6FB02F0F7FF2246D3
:1009700017A1684602F0E4FD6A461DA1002001F0BF
:100980000DF96846FFF7F2FB411C684602F04EFB8A
:100990004FF47A7003F006F816484FF0FF34808960
:1009A0000A280AD36846FFF7E1FB134903220844EB
:1009B00012A1401CFFF7E1FB10B120461AB010BD98
:1009C0000FA1002001F0EAF802F0C8FF0020F5E7CF
:1009D00041542B5741503D313142474E2C454355F0
:1009E0005F52535F25732C4175746F0A000000003D
:1009F0002573000070000020220F00202B6F6B0079
:100A000041542B574150203A2B6F6B0A00000000D5
:100A100010B502F0A3FF05210EA002F007FB4FF472
:100A2000967002F0BFFF0D484FF0FF348089062812
:100A300005D303220AA10B48FFF79FFB08B120460C
:100A400010BD09A1002001F0A9F802F087FF0020E5
:100A500010BD000041542B5A0A0000007000002015
:100A60002B6F6B00280F002041542B5A203A2B6F1C
:100A70006B0A000010B501F05DFA01F051FA022096
:100A800001F0DEF901F0A6F9002000F020F800F0F6
:100A900013F8222000F0B2F806210A2001F053F9E1
:100AA0002221652001F096FB102001F0C9F9BDE874
:100AB0001040102001F0C4B910B56C2001F0E6FA26
:100AC00040F00301BDE810406E2001F083BB10B57B
:100AD00007216A2001F07EFB3F21BDE810406B201A
:100AE00001F078BB70B5142002F05CFF0E4C0026BC
:100AF0004FF400706168012907D0054601460B4894
:100B000000F0FBF8012802D009E0666008E0A06868
:100B1000401CA060012802DD0120A660207028464C
:100B2000BDE8704000F02CB860000020000C0140CF
:100B30003EB500F0D3FA0121084600F067FB092119
:100B4000012000F075F84FF40070002400908DF83B
:100B5000044008208DF8050001258DF806506846F0
:100B600000F014F817208DF808008DF809400320D4
:100B70008DF80A008DF80B5002A800F0F3FA3EBD84
:100B800001490860704700001404014030B51A495B
:100B90008379026853B30B6893430B600A1D136893
:100BA0000468A343136002790A441368046823436A
:100BB0001360114A083213680468A3431360131DBD
:100BC0001C680568AC431C604479102C05D0214496
:100BD0000A68006802430A6030BD11680468214356
:100BE0001160196800680143196030BD007908443C
:100BF00001689143016030BD000401400146682056
:100C000001F0E8BA10B5692001F040FA20F00101C6
:100C1000BDE81040692001F0DDBA10B5692001F08F
:100C200035FA40F00101BDE81040692001F0D2BA68
:100C300010B58A0721F003040649130F21440F223F
:100C40008C689A4094438C608A68984002438A601A
:100C500010BD000000000140F0B5CA78002502F088
:100C60000F03D20601D58A7813430A784FF00F0E8E
:100C700012F0FF0F4FF001021CD004680F8802FA37
:100C800005F63740B74211D14FEA850C0EFA0CF742
:100C900024EA070703FA0CF43C43CF78282F02D04C
:100CA000482F02D002E0466100E006616D1C082D6D
:100CB000E4D304600C88FF2C1ED944685FF0000662
:100CC00006F1080702FA07F50F882F40AF420FD14F
:100CD0004FEA860C0EFA0CF7BC4303FA0CF73C43C0
:100CE000CF78282F00D14561CF78482F00D10561FA
:100CF000761C082EE4D34460F0BD024600209268C2
:100D00000A4200D00120704741617047016170477D
:100D10006A2001F0BBB900002DE9F047214D0646DD
:100D2000287810B101280BD01DE0082001F088F8C8
:100D3000FFF768FF00F03AF80528FBD10120287082
:100D4000DFF8649000244FF400684FF4C877414600
:100D50004846FFF7D2FF01280BD0012002F022FE07
:100D6000641CBC42F3DB2878022804D00020BDE8D4
:100D7000F0870220287001F047F90746002404E0BC
:100D800001F042F93055641CE4B2BC42F8D30020B3
:100D900000F09CFD0020FFF79AFE032028703846E3
:100DA000E5E7000084000020000C014010B5612040
:100DB00001F06CF900F00F0010BD000000B513A3A6
:100DC00087B00ECB8DE80E000021039104910591B0
:100DD00020B1012818D0022816D110E00A21684657
:100DE00002F022FA0A2103A800F0D6FD0A2203A984
:100DF0006846FFF7C2F910B1012007B000BD02F04C
:100E000069F908B10220F8E70020F6E759554E4588
:100E10004E4720415053000010B50E4C4021204653
:100E2000FFF772FF80212046FFF76EFF80212046EA
:100E3000FFF76AFF0F2000F00FF840212046FFF770
:100E400065FF0F2000F008F82046BDE81040402163
:100E5000FFF75ABF000C0140002100E0491C81420D
:100E6000FCD3704770B5124D002440212846FFF78F
:100E70004DFF0F20FFF7F0FF80212846FFF746FFC8
:100E800001E0641CE4B280212846FFF736FFC0076A
:100E900001D0FF2CF5D380212846FFF735FF4021F4
:100EA0002846FFF731FFBDE870400F20FFF7D4BFA1
:100EB000000C014070B51A4E002540213046FFF766
:100EC00023FF0F20FFF7C8FF80213046FFF71EFFEA
:100ED0000F20FFF7C1FF80213046FFF717FF0024E6
:100EE00040213046FFF712FF0F20FFF7B5FF8021AA
:100EF0003046FFF702FF00F001020F20FFF7ACFFC2
:100F000042EA4500C5B240213046FFF7FDFE0F2002
:100F1000FFF7A2FF641CE4B2082CE1D3284670BDA1
:100F2000000C014070B51B4E054680213046FFF78E
:100F3000EBFE002440213046FFF7E6FE0F20FFF7CE
:100F40008BFFE8094FF08001304602D0FFF7DEFE4C
:100F500001E0FFF7D9FE0F20FFF77EFF402130466A
:100F6000FFF7D4FE0F20FFF777FF0F20FFF774FF86
:100F70006806050E641C082CDCD340213046FFF7C0
:100F8000C3FE80213046FFF7C1FEBDE870400F2050
:100F9000FFF762BF000C014010B50E4C80212046C7
:100FA000FFF7B2FE80212046FFF7B0FE4021204629
:100FB000FFF7ACFE0F20FFF74FFF80212046FFF721
:100FC000A3FE0F20FFF748FF2046BDE81040402158
:100FD000FFF79ABE000C014010B50C4C8021204652
:100FE000FFF792FE80212046FFF78EFE0F20FFF7CD
:100FF00033FF40212046FFF789FE0F20FFF72CFF2B
:101000002046BDE810408021FFF780BE000C014063
:10101000F8B50121082000F0F9F84020ADF80000F3
:101020001025114E8DF8035003248DF802406946B7
:101030003046FFF711FE8020ADF8000014208DF837
:1010400003008DF8024069463046FFF705FE202078
:10105000ADF800008DF803508DF802406946304627
:10106000FFF7FAFDF8BD0000000C014002494CF604
:10107000CC400860704700000030004002494AF64A
:10108000AA20086070470000003000400149486015
:101090007047000000300040014988607047000040
:1010A00000300040014908607047000000300040F7
:1010B00008B50121082000F0A9F84FF48040ADF8F0
:1010C000000004208DF8030003208DF8020069461B
:1010D0000148FFF7C1FD08BD000C014008B5012122
:1010E000082000F093F84FF40070ADF8000048209D
:1010F0008DF8030069460248FFF7AEFD08BD000009
:10110000000C014038B50121042000F07FF81020C8
:101110008DF8030003208DF80200074D4FF40064A2
:10112000ADF8004069462846FFF796FD214628465F
:10113000FFF7ECFD38BD0000000801404FF40061EE
:101140000148FFF7E3BD0000000801404FF40061D3
:101150000148FFF7D9BD0000000801404FF4A0602E
:1011600000F032B870B50F23C47801780122F4B1D1
:10117000144C2468457804F4E064C4F5E064240A5F
:10118000C4F10406E3408478B5401C402C4301F1CF
:10119000E021230181F80034007800F01F018A402B
:1011A0004009800000F1E020C0F8002170BD01F08E
:1011B0001F0082404809800000F1E020C0F8802133
:1011C00070BD00000CED00E00249084302490860D0
:1011D000704700000000FA050CED00E0044A002909
:1011E000D16901D0014300E08143D1617047000023
:1011F00000100240044A0029116901D0014300E0B7
:10120000814311617047000000100240044A002928
:10121000916901D0014300E0814391617047000072
:1012200000100240044A0029D16801D0014300E0C7
:101230008143D160704700000010024030B51F4963
:101240004A6812F00C031E4A03D0042B01D0082B6D
:1012500021D002604A680F231A4C03EA1212A35CE1
:101260000268DA4042604B68072505EA1323E35C15
:1012700022FA03F383604B6805EAD323E35CDA4088
:10128000C2604968032303EA9131231F595CB2FB12
:10129000F1F1016130BD4A684B6802F470124FF001
:1012A000020413F4803F04EB924202D04B689B038C
:1012B00001D5054B00E0024B5A43CAE7001002403B
:1012C00000127A003C00002000093D002DE9F043A7
:1012D00095B00D4606461F4690460024202104A8DE
:1012E000DDF87090FEF737FF20210CA8FEF733FFE2
:1012F000FB208DF810008DF8110015208DF81200DC
:1013000008218DF8131031788DF8141071788DF84C
:101310001510B1788DF81610F1788DF81710317915
:101320008DF8181071798DF8191029788DF81A1028
:1013300069788DF81B10A9788DF81C10E9788DF864
:101340001D1029798DF81E1069798DF81F108DF800
:10135000208000218DF821708DF822108DF8231047
:101360000991032104AAC01C02E0535C491C1C44DF
:101370008842FADCE01704EB1060010A8DF82810AF
:1013800020468DF82900FE208DF82A008DF82B00CC
:101390001C21104600F0EEFC0CA8FFF7BDFC1C2839
:1013A00065D19DF83300D82861D19DF814009DF8CF
:1013B000341088425BD19DF815009DF835108842A5
:1013C00055D19DF816009DF8361088424FD19DF8F2
:1013D00017009DF83710884249D19DF818009DF8F4
:1013E0003810884243D19DF819009DF83910884281
:1013F0003DD19DF81A009DF83A10884237D19DF8EA
:101400001B009DF83B10884231D19DF81C009DF8CF
:101410003C1088422BD19DF81D009DF83D1088425C
:1014200025D19DF81E009DF83E1088421FD19DF8E1
:101430001F009DF83F10884219D19DF8421089F88D
:1014400000109DF81C009DF81F309DF81E209DF88F
:101450001D108DE80F009DF81B309DF81A2006A185
:10146000002000F09BFB012015B0BDE8F0831420A4
:1014700002F098FA0020F7E752464D3330305F42D1
:10148000696E645F55696420253032782530327882
:101490002530327825303278253032782530327850
:1014A0000A0000002DE9F0439FB00C4606460025D7
:1014B00020210FA8FEF74FFE202117A8FEF74BFEB4
:1014C000FB208DF83C008DF83D0015208DF83E0086
:1014D00000218DF83F1032788DF8402072788DF819
:1014E0004120B2788DF84220F2788DF8432032798D
:1014F0008DF8442072798DF8452022788DF84620A9
:1015000062788DF84720A2788DF84820E2788DF82F
:10151000492022798DF84A206279139114918DF82F
:101520004B2003210FAAC01C02E0535C491C1D4440
:101530008842FADCE81705EB1060010A8DF85410B8
:1015400028468DF85500FE208DF856008DF857007E
:101550001C21104600F00EFC17A8FFF7DDFB202829
:101560007ED19DF840009DF86010884278D19DF8AA
:1015700041009DF86110884272D19DF842009DF8AB
:10158000621088426CD19DF843009DF86310884238
:1015900066D19DF844009DF86410884260D19DF8A2
:1015A00045009DF8651088425AD19DF846009DF887
:1015B0006610884254D19DF847009DF86710884214
:1015C0004ED19DF848009DF86810884248D19DF89A
:1015D00049009DF86910884242D19DF84A009DF863
:1015E0006A1088427BD19DF84B009DF86B108842B1
:1015F00075D19DF85F00D02802D0D12804D008E032
:10160000E07A20F00F0003E0E07A20F00F00401CA9
:10161000E0729DF86C00A0739DF86D70E7739DF803
:101620006E60267481469DF870109DF86F0001EB86
:10163000002085B2A4F811509DF872009DF8711039
:1016400000EB012083B2A4F813309DF874009DF8DC
:10165000731000EB012082B222819DF8760000E039
:101660003DE09DF8751000EB012081B2E180A07A89
:1016700040F00200A0729DF877C06CF382004FF03A
:10168000000C6CF38610A0724FEAD01CC0F38018D7
:10169000C0F38000CDE90B10CDE90932CDE9076533
:1016A000CDE90D8CE17A9DF84B2001F00F01CDE9D9
:1016B0000321CDE905979DF848009DF84A209DF843
:1016C00049108DE807009DF847309DF846200649EF
:1016D000002000F063FA01201FB0BDE8F083142061
:1016E00002F060F90020F7E7F84900082DE9F0431F
:1016F00093B00E460746994690460024202168463E
:101700001A9DFEF728FD202109A8FEF724FDFB20E5
:101710008DF800008DF8010015208DF802005A2187
:101720008DF8031039788DF8041079788DF805104C
:10173000B9788DF80610F9788DF8071039798DF899
:10174000081079798DF8091031788DF80A107178C0
:101750008DF80B10B1788DF80C10F1788DF80D1014
:1017600031798DF80E1071798DF80F108DF8108089
:1017700000218DF811908DF812108DF8131005913D
:1017800003216A46C01C02E0535C491C1C44884289
:10179000FADCE01704EB1060010A8DF818102046FF
:1017A0008DF81900FE208DF81A008DF81B0000241A
:1017B0001C21684600F0DEFA09A8FFF7ADFA1C28E4
:1017C00064D19DF82700DE2860D19DF804009DF8C3
:1017D000281088425AD19DF805009DF829108842AA
:1017E00054D19DF806009DF82A1088424ED19DF8EC
:1017F00007009DF82B10884248D19DF808009DF8FD
:101800002C10884242D19DF809009DF82D10884285
:101810003CD19DF80A009DF82E10884236D19DF8E3
:101820000B009DF82F10884230D19DF80C009DF8D8
:10183000301088422AD19DF80D009DF83110884261
:1018400024D19DF80E009DF8321088421ED19DF8DB
:101850000F009DF83310884218D19DF834000128FC
:1018600028780AD020F0040028709DF8350001285F
:10187000687820F00F0003D003E040F00400F3E7A5
:10188000401C6870012013B0BDE8F083641C022C7A
:101890008EDB0020F7E7000038B501210820FFF7B4
:1018A000B5FC10208DF8030003208DF80200012004
:1018B000054CADF8000069462046FFF7CDF901213F
:1018C0002046FFF723FA38BD000C014010B530B1B7
:1018D000702000F0DBFBC0F18000C0B210BDBDE89D
:1018E00010406F2000F0D2BB2DE9F041C7B2C0F329
:1018F000072615460C46FFF74FFBA020FFF712FB0B
:10190000FFF7B0FA3046FFF70DFBFFF7ABFA3846AA
:10191000FFF708FBFFF7A6FAFFF73EFBA120FFF752
:1019200001FBFFF79FFA09E0FFF7C4FA2870012CCA
:1019300001D9FFF771FA641EE4B26D1C002CF3D1DB
:10194000FFF74AFBBDE8F0414FF47A70FFF784BA25
:1019500010B530B1024602212020FFF7C5FF00205C
:1019600010BD4FF0FF3010BD10B530B1024606215A
:101970001020FFF7B9FF002010BD4FF0FF3010BD61
:1019800010B530B1024601213020FFF7ADFF002035
:1019900010BD4FF0FF3010BD10B528B10246002039
:1019A000FFF7A2FF002010BD4FF0FF3010BD10B5B3
:1019B00048B1F82202EBC103024606211846FFF7A0
:1019C00093FF002010BD4FF0FF3010BD10B548B19F
:1019D000FE2202EBC103024601211846FFF784FFF5
:1019E000002010BD4FF0FF3010BD10B548B1FF22F0
:1019F00002EBC103024601211846FFF775FF0020E4
:101A000010BD4FF0FF3010BD10B530B102460221BD
:101A10004020FFF769FF002010BD4FF0FF3010BDE0
:101A200010B528B102465020FFF75EFF002010BD20
:101A30004FF0FF3010BD2DE9F0410D46069C904659
:101A40006FF02F0621786278303901EB810106EBC7
:101A500041010A441F46A11C2A60FEF763FB286867
:101A6000E11C425CA11C241D405C303800EB80006E
:101A700006EB400002443A60286801194046FEF730
:101A800051FB0020BDE8F08170B515460E460446B6
:101A900003220CA1FEF77EFB10B14FF0FF3070BDAA
:101AA000601D02F001F93060607AA17A303800EBF5
:101AB00080006FF02F0202EB4000084428600020F5
:101AC00070BD00004150530070B515460E460446E7
:101AD00003220CA1FEF75EFB10B14FF0FF3070BD8A
:101AE000601D02F0E1F83060607AA17A303800EBD6
:101AF00080006FF02F0202EB4000084428600020B5
:101B000070BD0000454355002DE9F041884600EBCB
:101B100040012148164600EBC104E16A01F00300D0
:101B200002280BD0A06A626A801A401E01D5226A80
:101B30001044864202DD89072BD006464EB30027AB
:101B4000A06A616A451A6D1E01D5206A0544D4E970
:101B50000801411AA94201DC616A451AB54200DB5D
:101B60003546616AE0692A4608444146FEF7DAFADA
:101B7000606A2F44A844761B28446062606A216A28
:101B8000884201D100206062002ED9D13846BDE8DC
:101B9000F0810020FBE70000AC0100200FB408B585
:101BA00004A900916A46039900F004F801B05DF8B9
:101BB00014FB00002DE9F04198B0064607A80290FA
:101BC00040200025CDE90305CDE9055690460C4699
:101BD00014F8011B002971D0252908D002A801F0B2
:101BE0008FFC05980028F3DA18B0BDE8F0810020DA
:101BF000217823291BD02B2916D02D290ED030294E
:101C00000FD000222178A1F130030A2B13D202EB6E
:101C1000820201EB4202303A641CF3E740F001001B
:101C200007E040F0020004E040F0040001E040F072
:101C30000800641CDCE70023CFB22E2F0CD100BFBC
:101C400014F8011FA1F130070A2F05D203EB83031B
:101C500001EB4303303BF3E76C290DD068290BD02F
:101C6000702954D00BDC252916D0582931D063298E
:101C70000CD0642913D114E014F8011BECE773298C
:101C800034D075291BD0782909D122E0D8F800007A
:101C9000011DC8F80010017802A801F031FC641C95
:101CA0009FE7D8F800100F1DC8F800700968CDE94B
:101CB00000200A2202A801F053FBF0E733E0D8F835
:101CC00000100F1DC8F800700968CDE900200A2235
:101CD00008E0D8F800100F1DC8F800700968CDE9B9
:101CE0000020102202A801F09DFBD8E7D8F80000E0
:101CF000011DC8F80010076817F8011B0029CED095
:101D000002A801F0FDFB05980028F5DAC7E7D8F82E
:101D10000000011DC8F8001001680820CDE9000589
:101D200003461022DEE7059800287FF75DAF049890
:101D300020B1024607A93046FFF7E6FEDDE90401BF
:101D40000844059050E770B505460C46662000F043
:101D50009DF900F0E0012943662000F03BFA67207E
:101D600000F094F900F0E0012143BDE870406720E5
:101D700000F030BA70B506460D46084600F0B6F8D9
:101D8000FEF74BFFFEF798FE022000F059F800BF67
:101D9000FFF70CF80228FBD1002404E0305D00F0CE
:101DA000D9F9641CE4B2AC42F8D3402000F048F802
:101DB000FEF7AEFF0828FBD10020FEF788FE1020BA
:101DC00000F03EF8024900200870012070BD0000BC
:101DD0008400002070B51948417804291AD2DB30FC
:101DE00000F12504A0F15B05012904D002290AD0E5
:101DF00003291BD00EE0114911228231FEF792F91E
:101E0000B5F8130005E00D4911229531FEF78AF966
:101E1000E88CA082094D0024BB352046295D00F0E6
:101E2000D9F9641CE4B2602CF7D370BD03491122C8
:101E3000A831FEF777F9B5F83900EAE78400002009
:101E40000146602000F0C6B90CB50021254801917B
:101E50000091026842F4803202604FF4A06302688D
:101E600002F400320092019A521C0192009A12B9B7
:101E7000019A9A42F3D10268920331D5012100916F
:101E800019490A6842F010020A600A6822F0030247
:101E90000A600A6842F001020A60416841604168D4
:101EA000416041684160416821F47C1141604168B2
:101EB00041F4F8114160016841F0807101600168EE
:101EC0008901FCD5416821F003014160416841F07E
:101ED000020141604168C1F381010229FAD10CBDC0
:101EE00000910CBD001002400020024010B50446D5
:101EF0000220FFF7A5FF452000F0C8F800F08F0092
:101F0000C4F3022140EA0111452000F063F9E1B277
:101F1000462000F05FF9BDE810401020FFF790BFA9
:101F200010B5FF217F2000F055F9BDE810401420C6
:101F300001F038BD2DE9F84F01210820FFF766F9BF
:101F40004FF48046ADF800601025DFF8B8A08DF89A
:101F5000035003248DF8024069465046FEF77CFE8C
:101F600001210820FFF752F96F02ADF800708DF8DB
:101F700003508DF8024069465046FEF76DFE012180
:101F80000820FFF743F94FF48058ADF800808DF832
:101F900003508DF8024069465046FEF75DFE012170
:101FA0000820FFF733F94FF48069ADF800908DF801
:101FB00003508DF8024069465046FEF74DFE012160
:101FC0000820FFF723F9E801ADF8000048208DF85C
:101FD00003008DF8024069465046FEF73DFE394643
:101FE0005046FEF793FE49465046FEF78FFE3146B7
:101FF0005046FEF78BFE41465046FEF785FEBDE893
:10200000F88F0000000C01402DE9F0410024FFF79B
:1020100091FF1D4E4FF480613046FEF775FEFFF7CD
:1020200047F8082001F0D4FC0025B7144FF480488D
:102030006006040E39463046FEF766FE022001F0C7
:10204000C7FC39463046FEF761FE022001F0C0FCB5
:1020500041463046FEF751FE012801D144F001040B
:102060006D1CEDB2082DE3D339463046FEF74CFE29
:10207000042001F0ADFCFFF75DFF082001F0A8FC93
:102080002046BDE8F0810000000C01402DE9F0473A
:10209000002440F08007FFF74DFF2D4E4FF4005114
:1020A0003046FEF731FE022001F092FC0025B046DA
:1020B0004FF48049B61438064946404602D5FEF72B
:1020C00025FE01E0FEF720FE31464046FEF71CFEED
:1020D000022001F07DFC31464046FEF717FE02204B
:1020E00001F076FC78066D1C070EEDB2082DE2D3E8
:1020F000494647464046FEF709FEFEF7D9FF082548
:102100006006040E31463846FEF7FEFD022001F05F
:102110005FFC31463846FEF7F9FD022001F058FC1D
:1021200049463846FEF7E9FD012801D144F0010493
:102130006D1E15F0FF05E3D131463846FEF7E4FD8C
:10214000022001F045FCFFF7F5FE2046BDE8F087D0
:10215000000C01402DE9F0410546FFF7EBFE1C4E57
:102160004FF480613046FEF7CFFD082001F030FCCF
:1021700000244FF48048B71428064146304602D563
:10218000FEF7C4FD01E0FEF7BFFD39463046FEF71D
:10219000BBFD022001F01CFC39463046FEF7B6FDBF
:1021A000022001F015FC6806641C050EE4B2082C40
:1021B000E2D339463046FEF7A7FD042001F008FCC3
:1021C000FFF7B8FEBDE8F041082001F001BC0000B7
:1021D000000C01402DE9F0470E4620F08007FFF784
:1021E000A9FE2A4C4FF400512046FEF78DFD022037
:1021F00001F0EEFB00254FF480494FF4805838067B
:102200004946204602D5FEF781FD01E0FEF77CFD40
:1022100041462046FEF778FD022001F0D9FB4146F9
:102220002046FEF773FD022001F0D2FB78066D1CFC
:10223000070EEDB2082DE2D3002547463006494689
:10224000204602D5FEF762FD01E0FEF75DFD39464E
:102250002046FEF759FD022001F0BAFB3946204620
:10226000FEF754FD022001F0B3FB70066D1C060E54
:10227000EDB2082DE2D339462046FEF745FD022097
:1022800001F0A6FBBDE8F047FFF754BE000C01408B
:102290004FF0E0210428086903D020F00400086111
:1022A000704740F00400FAE70F4810B5016841F0AC
:1022B0000101016041680D4A1140416001680C4A0A
:1022C00011400160016821F480210160416821F41E
:1022D000FE0141604FF41F018160FFF7B5FD054924
:1022E0004FF00060086010BD001002400000FFF8D1
:1022F000FFFFF6FE08ED00E070B501218C072046D7
:1023000000F047F9002825D00121204600F034F9DB
:10231000114C0125E078401CE070A068401CA060D2
:10232000A57001F047FC0026E670207901280BD14A
:10233000607928B10020607120B1FEF707FF03E04B
:102340000120F8E7FEF7FAFE0449A068884201DDA3
:102350006570A66070BD0000A001002080510100E2
:102360007FB50C46054601210846FEF737FFADF85C
:102370000450ADF8004000244FF08045ADF8064011
:10238000ADF802406946284600F018F901221146CE
:10239000284600F00AF91C208DF80C0001218DF868
:1023A0000D1003208DF80E008DF80F1003A8FEF716
:1023B000D9FE0121284600F0E2F8014884707FBD73
:1023C000A001002010B5104C0121204600F0E1F8DA
:1023D000002817D00121204600F0CEF80B490878DC
:1023E000401C40B2087001280CDD09A10020FFF755
:1023F000D5FB0C49002008700B490880BDE810404F
:1024000000F014B810BD000000040040A00100203E
:1024100054494D335F49525148616E646C65720A8C
:1024200000000000730000207C0000200349002011
:1024300008700146024800F0A2B80000A001002088
:10244000000400407FB50C46054601210220FEF73E
:10245000C5FEADF80450ADF800400024114DADF8B4
:102460000640ADF802406946284600F0A7F8012270
:102470001146284600F099F81D208DF80C00012126
:102480008DF80D1003208DF80E008DF80F1003A8A5
:10249000FEF768FE0121284600F071F8024804703A
:1024A0007FBD000000040040A001002010B50E4CCC
:1024B0000121204600F06DF8002814D001212046AB
:1024C00000F05AF809498879401C40B28871012807
:1024D00009DD074902200870064900200880BDE890
:1024E000104000F009B810BD00080040A001002015
:1024F000710000207400002003490020887101460B
:10250000024800F03CB80000A00100200008004094
:102510007FB50C46054601210420FEF75FFEADF8AD
:102520000450ADF800400024114DADF80640ADF860
:1025300002406946284600F041F80122114628462B
:1025400000F033F81E208DF80C008DF80D400320AC
:102550008DF80E0001208DF80F0003A8FEF702FE93
:102560000121284600F00BF8024884717FBD00006D
:1025700000080040A0010020C943018270470029E3
:10258000018802D041F0010101E021F00101018048
:10259000704702460020138A92890B4202EA010228
:1025A00002D0002A00D001207047002A828901D081
:1025B0000A4300E08A4382817047000030B50288F8
:1025C0001B4B1C4C98420DD0A0420BD0B0F1804F59
:1025D00008D0194DA84205D0184DA84202D0184D78
:1025E000A84203D122F070054A882A43154DA8421B
:1025F00006D0154DA84203D022F44075CA882A435C
:1026000002808A8882850A88028598420AD0A04280
:1026100008D00E4A904205D00D4A904202D00D4A91
:10262000904201D1097A01860121818230BD0000EA
:10263000002C01400034014000040040000800402C
:10264000000C004000100040001400400040014019
:1026500000440140004801402DE9F0410E4680460B
:1026600000240A4D0DE000BF18F8047040212846F0
:1026700000F090FA0028F9D03946284600F022FBF5
:10268000641CB442F0DB2046BDE8F0810038014014
:102690002DE9F0476F4C00258246258160786E4E0B
:1026A0004FF0020841F61F49022827D02AE000BF58
:1026B000FFF722FFA1882089081A80B260810128D3
:1026C00006D0022808D003280ED005281ED00EE020
:1026D0003078452803D10AE07078432807D0A580D8
:1026E000258184F8018002E0B0785528F7D1494669
:1026F0009520FFF70DFF2089401C20812189A088AB
:102700008142D5D36078032824D028E0032060706C
:1027100049469520FFF7FCFEF4E700BFFFF7ECFE0B
:10272000A0882189401A80B26081092807D03946E3
:102730009520FFF7EDFE2089401C20810BE0701DE5
:1027400001F0B2FAE0800420607039469520FFF76E
:10275000DFFE04E04F462189A0888142DED3607805
:1027600004281BD01FE000BFFFF7C6FEA088218908
:10277000401A81B26181E088C01E884206D10520DE
:10278000607039469520FFF7C3FE0CE0394695206E
:10279000FFF7BEFE2089401C208100E04F462089C3
:1027A000A1888842E0D3607805284ED0BDE8F08744
:1027B000FFF7A2FEA0882189401A80B26081E788D5
:1027C000B91E814208D1F11911F8031C452903D023
:1027D000A580258184F80180791E814208D1F119F4
:1027E00011F8021C4E2903D0A580258184F80180B0
:1027F000874223D1B8B2304410F8010C442803D0EA
:10280000A580258184F80180C8211448FDF7A3FC28
:102810003A4611491148FDF785FCE0880F49CAF88E
:1028200000000D540120207084F80180A5802581CE
:102830004946BDE8F0479520FFF76ABE4946952016
:10284000FFF766FE2089401C20812089A1888842EC
:10285000AED3ABE7700000205A0E0020720A0020B1
:1028600010B50B4C40F22551204600F09AF9002893
:102870000DD0204600F022FA0749064B8A8898546A
:10288000521C90B28880C82801D30020888010BDD7
:10289000003801405A0E00207000002010B59AB098
:1028A000044664216846FDF756FC224607A16846A7
:1028B00000F046FE6A460AA10020FFF76FF91021DA
:1028C0006846FFF7C9FE1AB010BD000045435531F8
:1028D0003130303136303525303264454E440000D9
:1028E0005553415254315F526573706F6E73655F1B
:1028F000464143544F52592025730A0030B599B0D0
:102900000D46044664216846FDF725FC7CB122464D
:102910000AA1684600F014FE6A4610A10020FFF7E5
:102920003DF91C216846FFF797FE19B030BD2B46D4
:10293000224611A1684600F003FEEDE745435531FC
:10294000313030323830322530326430303030304F
:1029500030303030303030454E4400005553415215
:1029600054315F526573706F6E73655F52454144B9
:102970005F49442025730A004543553131303032D8
:10298000383032253032642573454E440000000053
:1029900010B59AB0044664216846FDF7DCFB224678
:1029A00007A1684600F0CCFD6A460AA10020FFF7A7
:1029B000F5F810216846FFF74FFE1AB010BD000071
:1029C0004543553131303031363031253032644570
:1029D0004E4400005553415254315F526573706F3D
:1029E0006E73655F5345545F49442025730A0000A8
:1029F00010B59AB0044664216846FDF7ACFB224648
:102A000007A1684600F09CFD6A460AA10020FFF776
:102A1000C5F810216846FFF71FFE1AB010BD000070
:102A2000454355313130303136303425303264450C
:102A30004E4400005553415254315F526573706FDC
:102A40006E73655F5345545F4E4554574F524B204C
:102A500025730A0030B599B00C46054664216846D6
:102A6000FDF779FB23462A4607A1684600F068FD7A
:102A70006A460BA10020FFF791F812216846FFF784
:102A8000EBFD19B030BD00004543553131303031D8
:102A90003830332530326425303264454E440000EE
:102AA0005553415254315F526573706F6E73655F59
:102AB000544553542025730A0000000010B50E4CF5
:102AC00040F22551204600F06CF8002812D0204634
:102AD00000F0F4F80A4C094AA1895054491C8AB202
:102AE000A281B2F5487F05D306A10020FFF756F872
:102AF0000020A08110BD000000440040220F0020F3
:102B0000700000202564200A00000000002981894F
:102B100002D041F4005101E021F40051818170475D
:102B2000174910B588420AD101218C032046FEF7CF
:102B300079FB2046BDE810400021FEF773BB114928
:102B4000884202D101214C0410E00F49884202D191
:102B500001218C040AE00D49884202D10121CC04F4
:102B600004E00B4988420AD101210C052046FEF7FA
:102B700041FB2046BDE810400021FEF73BBB10BDE5
:102B8000003801400044004000480040004C004034
:102B9000005000400246002012880A4200D0012066
:102BA000704730B501F01F0201240025C1F3421324
:102BB00004FA02F2012B0FD0022B0FD0838A4FEAC6
:102BC00011210088134204FA01F400EA040001D044
:102BD00000B10125284630BD8389F0E7038AEEE77E
:102BE00010B5C1F3421301F01F040121A140012BD4
:102BF00007D0022B07D01430002A026805D00A4300
:102C000004E00C30F8E71030F6E78A43026010BDAC
:102C100030B50446008A85B00D464CF6FF71084079
:102C2000E98801432182A1894EF6F3100140A8886A
:102C30002A8910436A890A431043A081A08A4FF66B
:102C4000FF410840A9890143A1826846FEF7F6FAD0
:102C50001948844201D1039800E00298A18909042F
:102C600000EBC00101EB0010296801D5490000E02C
:102C70008900B0FBF1F06422B0FBF2F109010B090D
:102C80006FF018056B4300EB8300A3891D044FF020
:102C9000320306D503EBC000B0FBF2F000F00700F2
:102CA00005E003EB0010B0FBF2F000F00F0008436A
:102CB000208105B030BD0000003801408088C0F39D
:102CC00008007047C1F308018180704770B5002685
:102CD0000546741EC82000F065FEFDF76DFD20B1AD
:102CE000761C032EF6DB401C34D0C82000F05AFEC0
:102CF0000026C82000F056FE2846FDF7D7FD20B17B
:102D0000761C032EF5DB401C1AD00025C82000F0ED
:102D100049FEFDF77DFE002811D06D1C032DF5DB6B
:102D20000025C82000F03EFEFDF78AFD20B16D1C95
:102D3000032DF6DB401C0DD000F064F9002070BDBF
:102D40000025C82000F02EFEFDF77AFD10B16D1CA5
:102D5000032DF6DB204670BD70B500260546741EB7
:102D6000C82000F01FFEFDF727FD20B1761C032EC2
:102D7000F6DB401C2DD0C82000F014FE0026C82031
:102D800000F010FE2846FDF7E9FD1DA0FDF78EFDC1
:102D900020B1761C032EF2DB401C25D00025C82074
:102DA00000F000FEFDF734FE002811D06D1C032D4D
:102DB000F5DB0025C82000F0F5FDFDF741FD20B151
:102DC0006D1C032DF6DB401C18D000F01BF9002011
:102DD00070BD0025C82000F0E5FDFDF731FD68B1AC
:102DE0006D1C032DF6DB09E00025C82000F0DAFD9C
:102DF000FDF726FD10B16D1C032DF6DB204670BDDE
:102E00003838383838383838000000002DE9F047B5
:102E1000794C8246002525822046E778774E8289C4
:102E20004FF001093FB109E0131A9BB26382012BF5
:102E300007D0401C2082208A9042F5D3012F2DD04C
:102E400030E0307861286ED184F8039026E00228C3
:102E500001D170780870208A032801D1B0784870B9
:102E6000208A04280AD005280BD006280CD0072871
:102E70000DD008280ED0092818D00DE0F2788A70FD
:102E80000AE03279CA7007E072790A7104E0B27917
:102E90004A7101E0F2798A71401C2082208AA2895D
:102EA0009042D4D3E078022804D027E0307AC87169
:102EB0000220E070737AB77A96F80BC0A289218A53
:102EC00091421BD2501A80B260820A2806D00B2889
:102ED00007D00C2808D00E280AD00CE0412B58D17E
:102EE00009E0502F55D106E0BCF1530F51D102E05B
:102EF0000320E07018E0491C2182E0E7E078032815
:102F000012D015E00A1A92B26282122A02D0401C34
:102F100020820AE039480E3000F0C6FE0930E08118
:102F20000420E07007E034E0A189208A8842E9D3D8
:102F3000E078042817D12582E189A289C91E0FE013
:102F400081420BD10520E0700A2000F02BFD41F6F4
:102F50001F4140F22B10FFF775FA04E0401C20825D
:102F6000208A9042ECD3E078052815D12582E789A4
:102F7000B4F80CC0B81E791E3E4439E0ACEB020335
:102F80009BB26382984209D116F8038CB8F1450FC1
:102F900004D0A5812582E570BDE8F087994204D16F
:102FA00016F8028CB8F14E0FF3D19F421ED116F8DD
:102FB000010C4428EDD14FF448711148FDF7CBF8CE
:102FC0000E49A7F1090209310D48FDF7ABF8E08978
:102FD0000B490938CAF800000D5484F80290E570D6
:102FE000A5812582BDE8F047FFF720BA521C228256
:102FF000228A6245C2D3CFE770000020220F002052
:103000003A0B002070B5084D4FF400442146284685
:10301000FDF77CFE40F6B83000F0C4FC214628469F
:10302000FDF772FE002070BD000C01402DE9F0415B
:103030000E46804600240A4D0DE000BF18F80470CB
:1030400040212846FFF7A6FD0028F9D0394628463A
:10305000FFF738FE641CB442F0DB2046BDE8F08187
:103060000044004070B50024651EC82000F09AFCA2
:10307000FDF7A2FB20B1641C032CF6DB401C1DD025
:10308000C82000F08FFC0024C82000F08BFCFDF766
:10309000BFFC002811D0641C032CF5DB0024C820E1
:1030A00000F080FCFDF7CCFB20B1641C032CF6DBA8
:1030B000401C0DD0FFF7A6FF002070BD0024C820E3
:1030C00000F070FCFDF7BCFB10B1641C032CF6DBB8
:1030D000284670BD70B50024651EC82000F062FC53
:1030E000FDF76AFB20B1641C032CF6DB401C0CD0FE
:1030F0000024C82000F056FCFDF7A2FB002803D0F6
:10310000641C032CF5DB284670BD0024C82000F0A9
:1031100049FCFDF795FB0028F6D0641C032CF5DB79
:10312000F1E700002DE9F041DFF86C80C7B2C0F391
:1031300007260C46154620214046FDF7E5FDFDF724
:103140002BFFA020FDF7EEFEFDF78CFE3046FDF7CD
:10315000E9FEFDF787FE3846FDF7E4FEFDF782FE47
:1031600007E02878FDF7DEFEFDF77CFE641EE4B282
:103170006D1C002CF5D1FDF72FFF4AF6C870FDF746
:103180006BFE20214046FDF7C1FDBDE8F0414FF444
:103190007A70FDF761BE0000000C014038B50446AE
:1031A00000200090224602212020FFF7BBFF6A4644
:1031B00002212020FEF798FB022269462046FCF7F8
:1031C000DCFF002800D0012038BD1CB504460020DB
:1031D00000900190224606211020FFF7A3FF6A46C7
:1031E00006211020FEF780FB062269462046FCF7E8
:1031F000C4FF002800D001201CBD38B504460020C3
:103200000090224601213020FFF78CFF6A46012101
:103210003020FEF769FB012269462046FCF7ADFF2E
:10322000002800D0012038BD3EB5054600200C46E0
:10323000009001902A460290FFF774FF6A462146EB
:103240000020FEF751FB224669462846FCF795FF11
:10325000002800D001203EBD7CB50546002000902E
:103260000190F82000EBC1042A4606212046FFF712
:1032700059FF20466A460621FEF736FB06226946BC
:103280002846FCF77AFF002800D001207CBD13B54A
:1032900082B000208DF80000FE2000EBC100044643
:1032A00002AA0121FFF73EFF20466A460121FEF7F0
:1032B0001BFB0122694602A8FCF75FFF002800D033
:1032C000012004B010BD13B582B000208DF80000BD
:1032D000FF2000EBC100044602AA0121FFF722FFF4
:1032E00020466A460121FEF7FFFA0122694602A83C
:1032F000FCF743FF002800D0012004B010BD38B512
:10330000044600200090224602214020FFF70AFFD9
:103310006A4602214020FEF7E7FA0222694620466B
:10332000FCF72BFF002800D0012038BD3EB5054634
:1033300000200090019002900C462A465020FFF792
:10334000F1FE6A4621465020FEF7CEFA2246694633
:103350002846FCF712FF002800D001203EBD0000E7
:103360002DE9FC5F0E008146DDE90C47C6F1000047
:1033700098469346824600D40846012503E000BFE4
:10338000B0FBFBF06D1C5845FAD2A84500D9454664
:1033900024B1002E01DB780700D5641EB80702D5E2
:1033A000B8F1000F10D0F8070ED16CB12046641EA2
:1033B000A84209D92021484600F0A2F8D9F80C000B
:1033C0000028F2DABDE8FC9F002E02DA56462D21D5
:1033D00002E0780707D52B21484600F091F8D9F88C
:1033E0000C000028EEDB07F00300022810D1B8F132
:1033F000000F0DD164B12046641EA84208D93021C7
:10340000484600F07DF8D9F80C000028F2DAD9E738
:10341000CDE9004743465A463146484600F002F897
:10342000D0E700002DE9F84F8246DDE90A4B01267E
:10343000984691460D460846374602E0B0FBF9F043
:103440007F1C4845FAD2B84500D947465FEACB70A1
:103450001CD1DCB15FEA8B7002D5B8F1000F02D04D
:10346000202000900AE03020FBE75046009900F051
:1034700047F8DAF80C0000283EDB3CB12046641E19
:10348000B842F2D802E000BF06FB09F6B5FBF6F140
:10349000494501D3012100E000214246A8F101087D
:1034A000012A01DD012000E000200143ECD1DFF81A
:1034B0004C8000BFB5FBF6F000FB165518F8001065
:1034C000504600F01DF8DAF80C00002803DBB6FBCC
:1034D000F9F6002EEED15FEACB700DD0002C0BD0A8
:1034E0002046641EB84207D92021504600F008F853
:1034F000DAF80C000028F1DABDE8F88FDC490008A2
:1035000010B50446D4E90130421C934205DB236820
:103510001954A260E068401CE060D4E901028242D4
:1035200009D121682069FEF7EFFAA168884203D02B
:103530004FF0FF30E06010BD0020A06010BD000023
:103540000FB4084B10B504A902AA039800F036F88E
:10355000044602A9002000F0D2F9204610BC5DF814
:1035600014FB0000FF38000802E008C8121F08C161
:10357000002AFAD170477047002001E001C1121FF4
:10358000002AFBD1704700000B49498848434FF09F
:10359000E021486100228A61086940F00100086169
:1035A0000869C30701D0C003FAD5086920F00100FB
:1035B00008618A61704700006C0000202DE9FF4F10
:1035C0008BB088460546002606E025280BD0DDE9AD
:1035D0000D1290476D1C761C28780028F5D10FB08D
:1035E0003046BDE8F08F0024A146A2460122AE4934
:1035F00000E0044315F8013F203B02FA03F00842C3
:10360000F7D128782A2810D06FF02F022878A0F15F
:103610003001092915D809EB890102EB410144F079
:10362000020400EB01096D1CF0E758F8041B5FEA87
:10363000010903D544F40054C9F1000944F002041F
:103640006D1C28782E2817D115F8010F44F00404BA
:103650002A280ED06FF02F022878A0F13001092916
:103660000AD80AEB8A0102EB410100EB010A6D1C4A
:10367000F2E758F804AB6D1C28786C280FD006DCF4
:103680004C2817D068280DD06A2814D104E074287B
:1036900010D07A280FD10DE044F400140AE044F46D
:1036A000801401E044F440146978814202D104F5A9
:1036B00080146D1C6D1C2878692865D006DC0028F4
:1036C0008DD0632827D0642806D15DE06E2808D00D
:1036D00073282AD0752877D0DDE90D129047761C23
:1036E000E0E0C4F30250022809D003280DD0D8F836
:1036F000001004280DD00E6008F10408D2E0D8F8BC
:103700000010F217C1E90062F6E7D8F800100E8049
:10371000F2E70E70F0E718F8041B8DF80010002097
:103720008DF80100EB46012003E058F804BB4FF090
:10373000FF3061074FF0000701D40AE07F1C5745B6
:103740000DDA8742FADB1BF807100029F6D106E0F4
:103750007F1C8742FCDB1BF807100029F8D1DDE94C
:103760000D23A9EB07008146214600F0B1F8304453
:10377000C61904E0DDE90D121BF8010B90477F1E0E
:10378000F8D22146484688E058F8040BC4F30251A9
:103790004FF00A0B032900D100B2042900D140B236
:1037A000002802DA40422D2102E0210505D52B2117
:1037B0008DF82410012104E006E0E10710D020215B
:1037C000F6E708AF089113E058F8040BC4F3025170
:1037D0004FF00A0B032900D180B2042900D1C0B2F6
:1037E0000021EEE75946FCF7E4FC303107F8011DF3
:1037F0000028F7D1ADEB070000F1200B600702D5E0
:1038000024F4803401E04FF0010ADA4502DDAAEB2E
:103810000B0000E00020824600EB0B0108980144F9
:10382000A9EB01000A90E00306D4DDE90D2321464F
:103830000A9800F04DF806444FF0000908E009A985
:1038400011F80900DDE90D12904709F10109761C14
:1038500008998945F3DBE0030CD5DDE90D2321460A
:103860000A9800F035F8064404E0DDE90D12302036
:103870009047761CBAF10001AAF1010AF5DC05E0D7
:10388000DDE90D1217F8010B9047761CBBF1000122
:10389000ABF1010BF4DC0A982146DDE90D2300F0C1
:1038A00005F806446D1C97E6092801002DE9F04152
:1038B000044600251E461746880404D405E0394610
:1038C0002020B0476D1C641EF9D52846BDE8F08164
:1038D0002DE9F041044600251E469046C80301D557
:1038E000302700E02027880404D505E0414638460B
:1038F000B0476D1C641EF9D52846BDE8F0810A6802
:10390000531C0B6010707047F8B500200090C8176A
:103910000D4601EB1060010A8DF8001028468DF865
:10392000010016466846FFF7EAFC002412E000BFDB
:1039300004EB440006EB4000611CFFF78DFC611CAA
:103940000020FFF7A4FC611C0220FFF7BCFC641CF4
:10395000642C01DAAC42EBDB0020F8BD0248002108
:10396000C1708181704700007000002010B50420F4
:10397000FEF78EFC084809490068B0FBF1F0C1B2BF
:10398000074801EB41020170C2EBC1114FF6FF7213
:1039900002EAC101418010BD4C00002040420F00EE
:1039A0006C00002070B54FF4E9750446A84203DAB4
:1039B000BDE87040FFF7E8BD4FF4C8763046FFF72A
:1039C000E3FDA4F5C874AC42F8DAA0B2F0E7000059
:1039D0000B49097848434FF0E021486100228A6191
:1039E000086940F0010008610869C30701D0C003FD
:1039F000FAD5086920F0010008618A61704700006B
:103A00006C0000201CB51448FDF7AEFF13491248A6
:103A100000F0D0FE1248FDF79BFF1148D022114C58
:103A200041780078303800EB800002EB4000084419
:103A3000C0B2207000F03CFE0B48FDF7A1FF0A4920
:103A40002078074B0978054ACDE900010749002095
:103A5000FEF7A4F800201CBD000000202802002072
:103A6000080000200B0000200C000020D84A0008AD
:103A7000F0B589B0002507958DF81C5007468DF8E4
:103A8000205004468DF81D502E46FF220621204668
:103A9000FCF75AFBE5802581A07A761C20F0FE0019
:103AA000A072E07A20F00F00401CE0726573A573ED
:103AB000E5732574A4F81150A4F813501534642E3E
:103AC000E3DB07A8FDF7A0FF9DF81D009DF81C1083
:103AD000244E00EB01206428306001DD356000E0F9
:103AE00008B9FDF733FB20A100203268FEF756F835
:103AF0003C46002530E0691C2046FDF758FF691C54
:103B000008A8FDF763FF9DF820000128A07A02D0E5
:103B100020F0010001E040F00100A072691C04F1F6
:103B20000C00FDF762FFA17A207B01F001016379AF
:103B30002279CDE90510CDE903236078E278A178F8
:103B40008DE8070023786A1C0CA10020FEF726F8F8
:103B500015346D1C642D02DA30688542CBDB09B068
:103B60000020F0BD1000002076616C69644E756D18
:103B7000203A256420202020200A00007569642551
:103B8000643A202530327825303278253032782555
:103B90003032782530327825303278202020626922
:103BA0006E643A2564206368616E6E656C3A2564C4
:103BB0000A000000FDF762BAFFF7D8FEFDF7CEFA63
:103BC000FDF726FAFDF79EFAFCF7B2FFFDF786FA3D
:103BD000FDF762FEFCF74EFF4FF46144204600F013
:103BE00021FE204600F08CFE41F61F4141F2873055
:103BF000FEF7B6FB00F04AFD1BA10020FDF7CEFF4B
:103C0000FFF700FF1B48FFF733FF1B4E1B4FDFF88A
:103C100070800024DFF86C9000F0F8FC1A48FEF782
:103C200037FD3078012807D1184A19A10020FDF787
:103C3000B5FF00F0DFF934703878012802D100F0C8
:103C400099F93C7098F800004546012802D100F02F
:103C5000F3FC2C7099F800004D460128DCD100F0EF
:103C60003BF82C70D8E70000696E6974204F4B2038
:103C70000A000000350200207000002060000020D3
:103C8000A1010020A201002028000020720A0020CB
:103C90005553415254315F526563765F4576656E88
:103CA000742025730A0000000178C278303901EBD6
:103CB0004103C3EBC11102EBC10241788078642358
:103CC000594300EB800001EB40001044A0F5A050E8
:103CD000D03880B2704700002DE9F04F9C4987B082
:103CE0000868002873DD9B4C8B464FF00009226862
:103CF000824201DBC4F8009000F088FC2068964DF9
:103D0000C0EBC00000EB40004119944EC8887080A1
:103D10009348FDF7C7FB074600F078FCDFF844A2A4
:103D2000DFF84482AFB1A6F800902168C1EBC10072
:103D300000EB40002844827A22F038028272027B33
:103D400098F8000082426ED0491CFFF7BCFAE8B335
:103D500069E02068C0EBC00000EB40004119887AA0
:103D6000C0071DD100231A467D48CDF800A0FDF7FD
:103D7000ADFA074600F04AFC012F11D1216801205D
:103D8000491CFFF784FA58B92068C0EBC00000EB6B
:103D900040004119887A20F0380040F00100887214
:103DA00020684FF00052C0EBC00000EB40002844F8
:103DB000817A02EBB1114FEAB161C1F3C2028172A3
:103DC000032A08D321F03801183101E007E0BCE0F4
:103DD00021F0020181723088401C308050E0206860
:103DE0000DF1080EC0EBC00000EB400C0CEB050021
:103DF00098F800300179077B42798EE88E00C2780E
:103E00008178CDE90012437815F80C20574900203D
:103E1000FDF7C4FE216898F80000C1EBC10101EB79
:103E20004101294408732068C0EBC00000EB40004A
:103E30004119887A42074E48007806D578B901F1D1
:103E40000A0000230222009006E0012807D101F1B8
:103E50000A000023012200904148FDF747FC00F0D2
:103E6000D5FB20687288C0EBC00000EB4000411910
:103E7000C888904204D2487BFF2801D2401C487376
:103E800000F0C4FB206898F80010C0EBC00000EB05
:103E9000400028444746007B88423CD000F008FCA4
:103EA000CDF800A020680023C0EBC00000EB40006C
:103EB00041193A782A48FDF709FA012828D12168E2
:103EC0003878491CFFF7FFF910BB20680DF1080A8C
:103ED000C0EBC00000EB400808EB05003B7801791F
:103EE00090F80CC042798AE80E10C2788178CDE94A
:103EF0000012437815F808201C490020FDF74EFEFB
:103F000021683878C1EBC10101EB410129440873F4
:103F1000387800F0CDFB2068401C20603088B0F578
:103F2000616F12D34846C4F800900146DBF80020C8
:103F300008E000BFC1EBC10303EB43032B44491C62
:103F4000587321609142F5DB206007B0BDE8F08F27
:103F50001000002014000020350200202402002060
:103F6000000000200D0000200B000020744A000813
:103F70000C00002010B500240CA12046FDF70EFE19
:103F800041F28830FFF70EFD0F48FEF7E5FE18B14D
:103F9000641C032CF8DB03E008210CA0FFF7C6F932
:103FA000BDE810400CA10020FDF7F8BD4B45595F5E
:103FB000466F726D6174574946495F4576656E7408
:103FC0002053746172740A0028020020383838388F
:103FD00038383838000000004B45595F466F726D25
:103FE0006174574946495F4576656E7420456E6435
:103FF0000A00000070B58AB000240794039479A0E9
:104000000494059406940294089400680990764AF2
:1040100076497748FDF758FD76490028086016D1A3
:104020007148734D744E0068062810D2DFE800F026
:104030000F037791ADCA6E4B012270A10020FDF7EE
:10404000ADFD30681A2804D00120FEF7A1FC0AB0AB
:1040500070BD55F80B0F049068680590A86806902D
:104060009DF811009DF810109DF8142000EB011030
:10407000A0F54C708DF808009DF813009DF8121003
:1040800000EB0111A1F54C718DF809109DF8151088
:1040900001EB0010A0F54C708DF80A009DF8170098
:1040A00000EB0210A0F54C708DF80B009DF8190084
:1040B00000EB0110A0F54C708DF80C009DF81B0072
:1040C0009DF81A1000EB0110A0F54C708DF80D0052
:1040D00002A8FFF77AF810F0FF0001D0FEF758FCB5
:1040E00009A8FFF75BF84B49012008700846FFF765
:1040F00084F88DF81C4041F28830FFF753FC04A887
:10410000FEF72AFEC4B2082143A0FFF70FF9FFF71C
:1041100079FC2046FEF73CFCFFF774FC97E7344B34
:10412000022236A10020FDF739FD02A8FDF71CFC94
:1041300004A902A800F03EFB8DF81C409DF8080081
:1041400004A9FF2803D00020FEF7D8FB7FE7012059
:10415000FAE7274B032229A10020FDF71FFD287B4A
:10416000E97A00EB0110A0F54C70C4B22046FCF7D0
:1041700025FEC5B22B4622462AA10020FDF70EFDE2
:1041800029462046FEF766FC61E7194B04221BA175
:104190000020FDF703FD25A10020FDF7FFFC30689E
:1041A0000621113890FBF1F1114A28480E32FFF731
:1041B000ABFB0020FEF71CFC2448FFF759FCFCF782
:1041C000BDFF44E70A4B05220CA10020FDF7E6FCE9
:1041D00008A8FFF794F8C0B2FEF760FB1B48FFF792
:1041E00047FC34E730320000300000202C00002073
:1041F000720A002034000020280000205749464958
:104200005F526563765F4576656E7425642025731D
:104210000A0000000C0000203838383838383838A8
:104220000000000025642025640A0000434F4D4D26
:10423000414E445F5345544E4554574F524B2020F6
:10424000204D617070696E670A0000003502002021
:104250002DE9F0478246D0B09C4A9D499D48FDF724
:1042600013FC9D49002808602DD19848994C9B4F1C
:104270000068DFF86C92DFF86C8204F10B0604F141
:104280001A0507281FD2DFE800F01E04214376B389
:10429000F200904B012294A10020FDF77FFC012049
:1042A000FDF714FB3870D9F80010954A95A3CDE9B5
:1042B00002320524CDE900840491034693A2944977
:1042C0005046FBF7CBFF50B0BDE8F087814B022290
:1042D00085A10020FDF762FC0C228D493046FBF7DA
:1042E0004CFF60B18BA10020FDF758FC0023844AED
:1042F000012150B05046BDE8F047FCF72BB98EA124
:104300000020FDF74BFC7E4A0021D9F80030F0E791
:10431000704B032274A10020FDF740FC0C227C4965
:104320003046FBF72AFF50B101215046FCF7AAF8AE
:1043300050B089A1BDE8F0470020FDF72FBC8F48A1
:10434000062100681D3890FBF1F422468CA1002064
:10435000FDF724FC2A4621466948FFF7D5FA0021DB
:104360005046FCF78FF86648FFF782FB50B0BDE877
:10437000F047FCF7E3BE574B04225BA10020FDF79A
:104380000DFC0C2262493046FBF7F7FE40B150B0FD
:104390005046BDE8F04700231A460121FCF710B84B
:1043A000608BA8F8000045464E48FEF7F7FE012056
:1043B000FDF78CFA387003464A4A00215046FBF755
:1043C000FFFF28786978303800EB8000D02202EBBC
:1043D0004000744C0844C0B2207000F069F92378A2
:1043E00050B0404ABDE8F0476FA10020FDF7D6BBB2
:1043F000384B05223CA10020FDF7D0FB0C2244499C
:104400003046FBF7BAFE30B150B05046BDE8F04739
:104410000121FCF76BB864211BA8FBF79CFE64210B
:1044200002A8FBF798FE642134A8FBF794FE4EAB7C
:1044300002AA4DA91BA80095FDF7FDFA02A94E9806
:10444000CDE900011BAB66A100204D9AFDF7A6FB4C
:10445000642134A8FDF7E4FA1BA934A84D9AFBF7B0
:104460008CFE28B102215046FCF740F82BE70CE007
:1044700000215046FCF73AF802A8FEF727FC4E98B8
:10448000C1B202A8FEF752FF1DE7124B062216A189
:104490000020FDF783FB0C221D493046FBF76DFE23
:1044A00030B150B05046BDE8F0470121FBF754BF92
:1044B0005549E07D087000215046FBF74DFF50B094
:1044C0005148BDE8F047FEF798BE00001C000020F0
:1044D000180000203A0B00202000002007000020D8
:1044E0001000002008000020574946495F526563CC
:1044F000765F4576656E7425642025730A0000009A
:10450000350200205253312E33000000313031008B
:1045100028020020434F4D4D414E445F53595354A0
:10452000454D494E464F2020204E6F74204D6170FE
:1045300070696E6700000000434F4D4D414E445F6F
:1045400053595354454D494E464F20204D6170708C
:10455000696E670A00000000434F4D4D414E445FB5
:104560005345544E4554574F524B2020204E6F74A4
:10457000204D617070696E6700000000240000200B
:10458000434F4D4D414E445F5345544E4554574F54
:10459000524B2020204D617070696E6720202025CD
:1045A000640A00000B000020434F4D4D414E445F14
:1045B0005345544348414E4E454C20205369676E45
:1045C000616C5F4368616E6E656C3A257320436869
:1045D000616E6E656C5F6368617225640A0000003D
:1045E000434F4D4D414E445F534554574946495002
:1045F000415353574F52442025642025732025648E
:104600002025730A000000000C00002010B50749A7
:104610000748FEF7FBFB074C2078012804D103482C
:10462000FFF716FE0020207010BD0000690A002070
:10463000240000207200002010B5002407A12046AD
:10464000FDF7ACFAFEF70EFD10B1641C032CF9DB8C
:10465000BDE8104007A10020FDF7A0BA70726F639B
:104660006573735F574946495F52535420537461D1
:1046700072740A0070726F636573735F57494649BD
:104680005F52535420456E640A00000010B545F295
:104690005550FCF707FD0620FCF7F8FC40F63540C6
:1046A000FCF7FAFCFCF7EAFCBDE81040FCF7DEBCC6
:1046B00010B50446112870D23948012CA0F18001B0
:1046C0001ED0022C1FD0032C20D0042C21D0052C6E
:1046D00022D0062C23D0072C24D0082C25D0092C3E
:1046E00026D00A2C27D00B2C28D00C2C29D00D2C0E
:1046F0002AD00E2C47D00F2C48D0102C49D029E0BE
:1047000051F8022F22E051F80A2F1FE051F8122F22
:104710001CE051F81A2F19E051F8222F16E051F839
:104720002A2F13E051F8322F10E051F83A2F0DE004
:1047300051F8422F0AE051F84A2F07E051F8522F62
:1047400004E051F85A2F01E051F8622F40F8532F3E
:10475000496841600220FDF773FB00BFFCF726FBB0
:104760000228FBD1FDF736FB1020FDF769FB00BFE7
:10477000FCF71CFB0128FBD122460AA10020FDF713
:104780000DFA002010BD51F86A2FDFE751F8722FA3
:10479000DCE751F87A2FD9E7FFE7012010BD0000D0
:1047A000040100207365744368616E6E656C3A2580
:1047B000640A00000378302202EB13130B700378B5
:1047C00003F00F0330334B70437802EB13138B70FD
:1047D000437803F00F033033CB70837802EB13136D
:1047E0000B71837803F00F0330334B71C37802EB06
:1047F00013138B71C37803F00F033033CB7103793C
:1048000002EB13130B72037903F00F0330334B7277
:10481000437902EB13128A72407900F00F003030B6
:10482000C8727047F0B50446012187B08803FCF7D1
:10483000EDFC01210420FCF7E9FC2E4E3046FEF78A
:104840006FF97015ADF8000003258DF8025018209F
:10485000294F8DF8030069463846FCF7FDF93015FD
:10486000ADF8000004208DF8030069463846FCF7D7
:10487000F3F901940024ADF80C400C20ADF8084089
:10488000ADF80E00ADF80A40ADF8104001A9304671
:10489000FEF7BEF925208DF814008DF81540022092
:1048A0008DF8160001208DF8170005A8FCF75AFCBA
:1048B000012240F225513046FEF792F9012130469F
:1048C000FEF724F901210820FCF7A0FC10208DF848
:1048D00003008DF80250C402084DADF8004069464F
:1048E0002846FCF7B9F921462846FCF70FFA07B02D
:1048F000F0BD00000038014000080140000C0140FC
:104900002DE9F0418046012186B04804FCF766FCA1
:1049100001210420FCF77AFC2D4E3046FEF700F909
:104920000424ADF8004003258DF802501820294FCB
:104930008DF8030069463846FCF78EF90820ADF87B
:1049400000008DF8034069463846FCF785F90024DD
:10495000ADF80C400C20ADF80840ADF80E00CDF8D5
:104960000480ADF80A40ADF8104001A93046FEF7CA
:104970004FF926208DF814008DF815408DF816504B
:1049800001208DF8170005A8FCF7ECFB012240F28E
:1049900025513046FEF724F901213046FEF7B6F8DE
:1049A00001210820FCF732FC10208DF803008DF85F
:1049B0000250C402084DADF8004069462846FCF795
:1049C0004BF921462846FCF7A1F906B0BDE8F08175
:1049D0000044004000080140000C014030313233F7
:1049E0003435363738394142434445465465726D53
:1049F000696E616C0000000052464D3330305F48F4
:104A0000656172745F4265617420253032782530AB
:104A1000327825303278253032782530327825309A
:104A20003278202064743A2564207076313A256407
:104A3000207076323A25642070693A2564207031FE
:104A40003A25642070323A2564206F743A25642038
:104A500068723A25642066733A2564207076316C5A
:104A60006F773A2564207076326C6F773A25640A46
:104A7000000000006368616E6765204368616E6EC8
:104A8000656C202530327825303278253032782513
:104A900030327825303278253032782020436861F2
:104AA0006E6E656C5F636861723A256420202069D0
:104AB0006E766572746572496E666F5B637572536C
:104AC000657175656E63655D2E6368616E6E656C9C
:104AD0003A25640A00000000454355204944203A25
:104AE000257320202020202020205369676E616CD0
:104AF0005F4368616E6E656C3A202020257320202C
:104B000020202564202020494F5F496E69745F533F
:104B100074617475733A25780A0000003C4B0008F4
:104B2000000000202802000004020008704C000869
:104B300028020020182000007835000801384502BE
:104B40000406082D01020304041506070809845110
:104B500025027914290CB9390114186A4271CE1C46
:104B6000425B1C1C4298441F4282921E43C0BA11F1
:104B700043AA081143E7301443D17E13430FA7160D
:104B800043F8F41543361D1943206B18435D931BFE
:104B90004347E11A4385091E436F571D44AC7F10FC
:104BA0004396CD1F44D3F51244BD431244FB6B150D
:104BB00044E5B9144422E217440C3017444A581A09
:104BC0004433A61944681A44681A44681A44681A97
:104BD00045681A4568136932181766D1690C0A9F2F
:104BE000392929C0501453081F90D3641033D1358C
:104BF000131A4B13180D280A53080F70A6C910205A
:104C0000A112131A5A1317140553100750200F66D8
:104C1000EC1DF0801408910302D0AEE03516F410BC
:104C2000E242206A81D1F9461122B4220113120412
:104C300063AA0255D42D011F19172360FF161F10F8
:104C4000504D06130F70D58A183F7F600B534547B0
:104C5000474552205254542941290413EC49140861
:104C60004212122002260439301216032B201000A3
:04000005080000ED02
:00000001FF
