:020000040800F2
:10000000C80C002001010008090100080B010008CC
:100010000D0100080F010008110100080000000098
:1000200000000000000000000000000013010008B4
:100030001501000800000000170100081901000860
:100040001B0100081B0100081B0100081B01000820
:100050001B0100081B0100081B0100081B01000810
:100060001B0100081B0100081B0100081B01000800
:100070001B0100081B0100081B0100081B010008F0
:100080001B0100081B0100081B0100081B010008E0
:100090001B0100081B0100081B010008AD0100083E
:1000A0001B0100081B0100081B0100081B010008C0
:1000B0001B010008790B0008000000001B0100086C
:1000C0001B01000800000000000000001B010008E8
:1000D000000000001B010008250D000800000000C2
:1000E0001B0100081B0100081B010008DFF80CD0F1
:1000F00000F04AF800480047C1130008C80C00206F
:100100000648804706480047FEE7FEE7FEE7FEE7B1
:10011000FEE7FEE7FEE7FEE7FEE7FEE7290B000845
:10012000ED00000840EA01039B0703D009E008C97D
:10013000121F08C0042AFAD203E011F8013B00F8AC
:10014000013B521EF9D27047D2B201E000F8012BF8
:10015000491EFBD270470022F6E710B513460A4647
:1001600004461946FFF7F0FF204610BD30B504469F
:100170000020034600E05B1C934203D2E05CCD5CB0
:10018000401BF8D030BD0000064C074D06E0E0688B
:1001900040F0010394E8070098471034AC42F6D3CE
:1001A000FFF7A8FFF81400081815000870B54FF401
:1001B000007529460A4800F0EEF801280BD1094CD9
:1001C0002268521C2260012A05DD07A1002000F0F0
:1001D00077FB002020602846BDE8704000F038B86A
:1001E000000C01402800002045585449395F355F14
:1001F00049525148616E646C6572200A000000002B
:100200003EB500F0FDF90121084600F07BFA092116
:10021000012000F05BF84FF40070002400908DF88E
:10022000044008208DF8050001258DF80650684629
:1002300000F014F817208DF808008DF8094003200D
:100240008DF80A008DF80B5002A800F007FA3EBDA9
:1002500001490860704700001404014030B51A4994
:100260008379026853B30B6893430B600A1D1368CC
:100270000468A343136002790A44136804682343A3
:100280001360114A083213680468A3431360131DF6
:100290001C680568AC431C604479102C05D02144CF
:1002A0000A68006802430A6030BD1168046821438F
:1002B0001160196800680143196030BD0079084475
:1002C00001689143016030BD0004014010B58A0708
:1002D00021F003040649130F21440F228C689A4031
:1002E00094438C608A68984002438A6010BD000085
:1002F00000000140F0B5CA78002502F00F03D206D5
:1003000001D58A7813430A784FF00F0E12F0FF0FD1
:100310004FF001021CD004680F8802FA05F637403E
:10032000B74211D14FEA850C0EFA0CF724EA070701
:1003300003FA0CF43C43CF78282F02D0482F02D088
:1003400002E0466100E006616D1C082DE4D3046004
:100350000C88FF2C1ED944685FF0000606F10807E0
:1003600002FA07F50F882F40AF420FD14FEA860CF3
:100370000EFA0CF7BC4303FA0CF73C43CF78282F56
:1003800000D14561CF78482F00D10561761C082E39
:10039000E4D34460F0BD0246002092680A4200D0D7
:1003A00001207047416170470161704710B50E4CE4
:1003B00040212046FFF7F6FF80212046FFF7F2FF9D
:1003C00080212046FFF7EEFF0F2000F00FF84021BC
:1003D0002046FFF7E9FF0F2000F008F82046BDE8AF
:1003E00010404021FFF7DEBF000C0140002100E07B
:1003F000491C8142FCD3704770B5124D0024402146
:100400002846FFF7D1FF0F20FFF7F0FF8021284695
:10041000FFF7CAFF01E0641CE4B280212846FFF721
:10042000BAFFC00701D0FF2CF5D380212846FFF783
:10043000B9FF40212846FFF7B5FFBDE870400F2007
:10044000FFF7D4BF000C014070B51A4E00254021C3
:100450003046FFF7A7FF0F20FFF7C8FF8021304687
:10046000FFF7A2FF0F20FFF7C1FF80213046FFF703
:100470009BFF002440213046FFF796FF0F20FFF737
:10048000B5FF80213046FFF786FF00F001020F2004
:10049000FFF7ACFF42EA4500C5B240213046FFF706
:1004A00081FF0F20FFF7A2FF641CE4B2082CE1D308
:1004B000284670BD000C014070B51B4E05468021DA
:1004C0003046FFF76FFF002440213046FFF76AFFF8
:1004D0000F20FFF78BFFE8094FF08001304602D074
:1004E000FFF762FF01E0FFF75DFF0F20FFF77EFFE0
:1004F00040213046FFF758FF0F20FFF777FF0F200E
:10050000FFF774FF6806050E641C082CDCD340213D
:100510003046FFF747FF80213046FFF745FFBDE833
:1005200070400F20FFF762BF000C014010B50E4C69
:1005300080212046FFF736FF80212046FFF734FF59
:1005400040212046FFF730FF0F20FFF74FFF8021AB
:100550002046FFF727FF0F20FFF748FF2046BDE8A2
:1005600010404021FFF71EBF000C014010B50C4C9D
:1005700080212046FFF716FF80212046FFF712FF5B
:100580000F20FFF733FF40212046FFF70DFF0F201C
:10059000FFF72CFF2046BDE810408021FFF704BF85
:1005A000000C0140F8B50121082000F0ABF8402014
:1005B000ADF800001025114E8DF8035003248DF87E
:1005C000024069463046FFF795FE8020ADF80000F6
:1005D00014208DF803008DF8024069463046FFF77D
:1005E00089FE2020ADF800008DF803508DF8024000
:1005F00069463046FFF77EFEF8BD0000000C014062
:1006000008B50121082000F07DF84FF40070ADF826
:10061000000048208DF8030069460248FFF76AFE93
:1006200008BD0000000C014008B50121042000F0C5
:1006300069F810208DF8030003208DF802004FF4B4
:100640000060ADF8000069460148FFF753FE08BDA1
:10065000000801404FF4A06000F032B870B50F23DD
:10066000C47801780122F4B1144C2468457804F46C
:10067000E064C4F5E064240AC4F10406E34084782D
:10068000B5401C402C4301F1E021230181F80034E6
:10069000007800F01F018A404009800000F1E0204E
:1006A000C0F8002170BD01F01F00824048098000A1
:1006B00000F1E020C0F8802170BD00000CED00E0EA
:1006C0000249084302490860704700000000FA052B
:1006D0000CED00E0044A0029D16901D0014300E09B
:1006E0008143D1617047000000100240044A002994
:1006F000116901D0014300E081431161704700009E
:1007000000100240044A0029916901D0014300E031
:10071000814391617047000000100240044A0029A3
:10072000D16801D0014300E08143D16070470000EF
:100730000010024030B51F494A6812F00C031E4AEF
:1007400003D0042B01D0082B21D002604A680F236C
:100750001A4C03EA1212A35C0268DA4042604B684A
:10076000072505EA1323E35C22FA03F383604B6851
:1007700005EAD323E35CDA40C2604968032303EA55
:100780009131231F595CB2FBF1F1016130BD4A6820
:100790004B6802F470124FF0020413F4803F04EB34
:1007A000924202D04B689B0301D5054B00E0024BFF
:1007B0005A43CAE70010024000127A0004000020E9
:1007C00000093D002DE9F041C7B2C0F307261546E8
:1007D0000C46FFF7ABFEA020FFF76EFEFFF70CFE06
:1007E0003046FFF769FEFFF707FE3846FFF764FE65
:1007F000FFF702FEFFF79AFEA120FFF75DFEFFF76D
:10080000FBFD09E0FFF720FE2870012C01D9FFF75E
:10081000CDFD641EE4B26D1C002CF3D1FFF7A6FEE3
:10082000BDE8F0414FF47A70FFF7E0BD2DE9F041EB
:10083000884600EB40012148164600EBC104E16AFE
:1008400001F0030002280BD0A06A626A801A401EE1
:1008500001D5226A1044864202DD89072BD0064664
:100860004EB30027A06A616A451A6D1E01D5206A41
:100870000544D4E90801411AA94201DC616A451A1C
:10088000B54200DB3546616AE0692A4608444146C4
:10089000FFF748FC606A2F44A844761B2844606236
:1008A000606A216A884201D100206062002ED9D19D
:1008B0003846BDE8F0810020FBE700003C00002046
:1008C0000FB408B504A900916A46039900F004F832
:1008D00001B05DF814FB00002DE9F04198B0064628
:1008E00007A8029040200025CDE90305CDE9055673
:1008F00090460C4614F8011B002971D0252908D018
:1009000002A800F013FD05980028F3DA18B0BDE83E
:10091000F0810020217823291BD02B2916D02D29E6
:100920000ED030290FD000222178A1F130030A2BFC
:1009300013D202EB820201EB4202303A641CF3E76D
:1009400040F0010007E040F0020004E040F0040045
:1009500001E040F00800641CDCE70023CFB22E2F3A
:100960000CD100BF14F8011FA1F130070A2F05D2E6
:1009700003EB830301EB4303303BF3E76C290DD01A
:1009800068290BD0702954D00BDC252916D05829A2
:1009900031D063290CD0642913D114E014F8011B61
:1009A000ECE7732934D075291BD0782909D122E0CE
:1009B000D8F80000011DC8F80010017802A800F066
:1009C000B5FC641C9FE7D8F800100F1DC8F8007034
:1009D0000968CDE900200A2202A800F0D7FBF0E761
:1009E00033E0D8F800100F1DC8F800700968CDE991
:1009F00000200A2208E0D8F800100F1DC8F8007087
:100A00000968CDE90020102202A800F021FCD8E7F7
:100A1000D8F80000011DC8F80010076817F8011B7E
:100A20000029CED002A800F081FC05980028F5DA54
:100A3000C7E7D8F80000011DC8F8001001680820B9
:100A4000CDE9000503461022DEE7059800287FF770
:100A50005DAF049820B1024607A93046FFF7E6FED5
:100A6000DDE904010844059050E700000CB50021C1
:100A7000254801910091026842F4803202604FF4EF
:100A8000A063026802F400320092019A521C0192A3
:100A9000009A12B9019A9A42F3D10268920331D5B1
:100AA0000121009119490A6842F010020A600A689F
:100AB00022F003020A600A6842F001020A604168FB
:100AC00041604168416041684160416821F47C11A6
:100AD0004160416841F4F8114160016841F0807162
:100AE000016001688901FCD5416821F00301416082
:100AF000416841F0020141604168C1F3810102296E
:100B0000FAD10CBD00910CBD001002400020024043
:100B10004FF0E0210428086903D020F004000861A8
:100B2000704740F00400FAE70F4810B5016841F043
:100B30000101016041680D4A1140416001680C4AA1
:100B400011400160016821F480210160416821F4B5
:100B5000FE0141604FF41F018160FFF787FF0549E7
:100B60004FF00060086010BD001002400000FFF868
:100B7000FFFFF6FE08ED00E010B50E4C0121204607
:100B800000F06DF8002813D00121204600F05AF83B
:100B900009490878401C40B20870012808DD07495F
:100BA0000020087006490880BDE8104000F00AB82F
:100BB00010BD0000000400403A0000203100002079
:100BC000320000200349002008700146024800F06E
:100BD0003CB800003A000020000400407FB50C46FD
:100BE000054601210220FFF775FDADF80450ADF870
:100BF00000400024114DADF80640ADF802406946B2
:100C0000284600F041F801221146284600F033F84A
:100C10001D208DF80C0002208DF80D0003208DF8AA
:100C20000E0001208DF80F0003A8FFF717FD01212A
:100C3000284600F00AF8024804707FBD0004004016
:100C40003A000020C943018270470029018802D080
:100C500041F0010101E021F00101018070470246ED
:100C60000020138A92890B4202EA010202D0002A74
:100C700000D001207047002A828901D00A4300E099
:100C80008A4382817047000030B502881B4B1C4CA0
:100C900098420DD0A0420BD0B0F1804F08D0194D32
:100CA000A84205D0184DA84202D0184DA84203D141
:100CB00022F070054A882A43154DA84206D0154DEA
:100CC000A84203D022F44075CA882A4302808A8849
:100CD00082850A88028598420AD0A04208D00E4A2E
:100CE000904205D00D4A904202D00D4A904201D167
:100CF000097A01860121818230BD0000002C01406B
:100D0000003401400004004000080040000C004096
:100D10000010004000140040004001400044014029
:100D2000004801402DE9F0477A4C40F22551204619
:100D300000F046F900287AD0204600F0CFF9774C31
:100D4000754E4FF00109618841F61F487054491CE7
:100D500061800025E580607820B327E0FFF732FF4F
:100D60006188E088081A80B22081012806D0022814
:100D700008D003280CD005281CD00CE0307841287E
:100D800003D108E07078502805D06580E58002E046
:100D9000B0785328F9D141469520FFF71FFFE0882E
:100DA000401CE080E08861888842D7D360780128C1
:100DB00018D01BE084F8019041469520FFF70EFF04
:100DC000F4E700BFFFF7FEFE6188E088081A80B2F2
:100DD000208109280ED041469520FFF7FFFEE088CC
:100DE000401CE080E08861888842EBD3607803286B
:100DF00067D06AE07179327A303901EB4103C3EB95
:100E0000C11102EBC102B179F0796423594300EBBF
:100E1000800001EB40001044A0F5A050D038A08025
:100E20000220607041469520FFF7D8FEDEE76FE0B4
:100E3000FFF7C8FE6088E188401A80B22081A78849
:100E4000B91E814206D1F11911F8031C452901D0C0
:100E50006580E580791E814206D1F11911F8021CE6
:100E60004E2901D06580E580874223D1B8B2304455
:100E700010F8010C442801D06580E5804FF4007122
:100E80002748FFF768F93A4623492548FFF74AF90A
:100E90002348A1880246455484F8009021A10020EF
:100EA000FFF70EFD65706580E58041469520FFF7F0
:100EB00095FE0AE041469520FFF790FEE088401C31
:100EC000E080E18860888142B2D3607802281FD137
:100ED0004546E088618888421AD2FFF773FE608831
:100EE000E188401A80B22081A188C91E814207D1C1
:100EF000032060702946BDE8F0479520FFF76EBEDD
:100F000029469520FFF76AFEE088401CE080E0E774
:100F1000BDE8F08700440040B4020020300000200B
:100F2000B4000020574946495F52656376446174B6
:100F300061203A25730A00000029818902D041F41A
:100F4000005101E021F4005181817047174910B52B
:100F500088420AD101218C032046FFF7DFFB20469F
:100F6000BDE810400021FFF7D9BB1149884202D1EA
:100F700001214C0410E00F49884202D101218C0468
:100F80000AE00D49884202D10121CC0404E00B495A
:100F900088420AD101210C052046FFF7A7FB204615
:100FA000BDE810400021FFF7A1BB10BD0038014093
:100FB0000044004000480040004C00400050004009
:100FC00030B501F01F0201240025C1F3421304FAD9
:100FD00002F2012B0FD0022B0FD0838A4FEA11218E
:100FE0000088134204FA01F400EA040001D000B1C1
:100FF0000125284630BD8389F0E7038AEEE710B566
:10100000C1F3421301F01F040121A140012B07D0BD
:10101000022B07D01430002A026805D00A4304E0EE
:101020000C30F8E71030F6E78A43026010BD00008C
:1010300030B50446008A85B00D464CF6FF71084075
:10104000E98801432182A1894EF6F3100140A88866
:101050002A8910436A890A431043A081A08A4FF667
:10106000FF410840A9890143A1826846FFF762FB5E
:101070001948844201D1039800E00298A18909042B
:1010800000EBC00101EB0010296801D5490000E028
:101090008900B0FBF1F06422B0FBF2F109010B0909
:1010A0006FF018056B4300EB8300A3891D044FF01C
:1010B000320306D503EBC000B0FBF2F000F00700EE
:1010C00005E003EB0010B0FBF2F000F00F00084366
:1010D000208105B030BD0000003801408088C0F399
:1010E000080070472DE9F041DFF86C80C7B2C0F30B
:1010F00007260C46154620214046FFF753F9FFF717
:1011000015FAA020FFF7D8F9FFF776F93046FFF778
:10111000D3F9FFF771F93846FFF7CEF9FFF76CF90D
:1011200007E02878FFF7C8F9FFF766F9641EE4B214
:101130006D1C002CF5D1FFF719FA4AF6C870FFF7BD
:1011400055F920214046FFF72FF9BDE8F0414FF453
:101150007A70FFF74BB90000000C01403EB5054620
:1011600000200C46009001902A460290FFF7BAFF3B
:101170006A4621460020FFF725FB2246694628469D
:10118000FEF7F4FF002800D001203EBD2DE9FC5FF2
:101190000E008146DDE90C47C6F1000098469346F3
:1011A000824600D40846012503E000BFB0FBFBF0F7
:1011B0006D1C5845FAD2A84500D9454624B1002EE9
:1011C00001DB780700D5641EB80702D5B8F1000F1F
:1011D00010D0F8070ED16CB12046641EA84209D980
:1011E0002021484600F0A2F8D9F80C000028F2DAD5
:1011F000BDE8FC9F002E02DA56462D2102E078075A
:1012000007D52B21484600F091F8D9F80C000028AA
:10121000EEDB07F00300022810D1B8F1000F0DD16A
:1012200064B12046641EA84208D93021484600F027
:101230007DF8D9F80C000028F2DAD9E7CDE90047AB
:1012400043465A463146484600F002F8D0E70000CF
:101250002DE9F84F8246DDE90A4B01269846914672
:101260000D460846374602E0B0FBF9F07F1C4845C2
:10127000FAD2B84500D947465FEACB701CD1DCB141
:101280005FEA8B7002D5B8F1000F02D020200090E9
:101290000AE03020FBE75046009900F047F8DAF802
:1012A0000C0000283EDB3CB12046641EB842F2D858
:1012B00002E000BF06FB09F6B5FBF6F1494501D394
:1012C000012100E000214246A8F10108012A01DDC8
:1012D000012000E000200143ECD1DFF84C8000BF8A
:1012E000B5FBF6F000FB165518F80010504600F05C
:1012F0001DF8DAF80C00002803DBB6FBF9F6002E27
:10130000EED15FEACB700DD0002C0BD02046641ECE
:10131000B84207D92021504600F008F8DAF80C004E
:101320000028F1DABDE8F88FDC14000810B5044697
:10133000D4E90130421C934205DB23681954A260B2
:10134000E068401CE060D4E90102824209D12168D2
:101350002069FFF76BFAA168884203D04FF0FF3095
:10136000E06010BD0020A06010BD02E008C8121FA0
:1013700008C1002AFAD170477047002001E001C17E
:10138000121F002AFBD1704710B50420FFF7C0FBE5
:10139000084809490068B0FBF1F0C1B2074801EB09
:1013A00041020170C2EBC1114FF6FF7202EAC101A6
:1013B000418010BD1400002040420F002C0000208E
:1013C00010B5FFF7E1FFFFF745F9FFF7EBF8FFF77F
:1013D0002BF9FFF715F9FEF713FF4FF4614000F00A
:1013E00025F807A10020FFF76BFA0A2107A0FFF7F5
:1013F000B5FEC2B208A10020FFF762FA002010BDBE
:10140000696E6974204F4B200A00000079756E6583
:101410006E6720415053000057726974655F5465D0
:1014200073743A20202025640A0000002DE9F04161
:101430008046012186B04804FFF74CF901210420C1
:10144000FFF760F9234E3046FFF780FD0425ADF825
:10145000105003248DF8124018201F4F8DF81300F0
:1014600004A93846FEF746FF0820ADF810008DF8B5
:10147000135004A93846FEF73DFF0021ADF80810CF
:10148000ADF804100C20ADF80610ADF80C10ADF856
:101490000A00CDF8008069463046FFF7C9FD2620D6
:1014A0008DF814008DF815408DF8164001208DF848
:1014B000170005A8FFF7D2F8012240F22551304667
:1014C000FFF79DFD01213046FFF736FD06B0BDE870
:1014D000F081000000440040000801403031323308
:1014E0003435363738394142434445465465726D88
:1014F000696E616C000000001815000800000020F3
:10150000B40000006A130008CC150008B4000020E5
:10151000140C00007A130008020406080000000002
:101520000102030401020304060708090051250211
:101530000000000000000000010203040607080983
:10154000000000000000000000000000000000009B
:1015500000000000534547474552205254540000B4
:10156000000000000200000002000000EC1400086F
:10157000B40400200004000000000000000000008F
:10158000000000000000000000000000000000005B
:10159000000000000000000000000000EC14000843
:1015A000B40800201000000000000000000000004F
:1015B000000000000000000000000000000000002B
:0C15C0000000000000000000000000001F
:04000005080000ED02
:00000001FF
