:020000040800F2
:10000000A80C002001010008090100080B010008EC
:100010000D0100080F010008110100080000000098
:1000200000000000000000000000000013010008B4
:100030001501000800000000170100081901000860
:100040001B0100081B0100081B0100081B01000820
:100050001B0100081B0100081B0100081B01000810
:100060001B0100081B0100081B0100081B01000800
:100070001B0100081B0100081B0100081B010008F0
:100080001B0100081B0100081B0100081B010008E0
:100090001B0100081B0100081B0100086D0100087E
:1000A0001B0100081B0100081B0100081B010008C0
:1000B0001B0100081B010008000000001B010008D4
:1000C0001B01000800000000000000001B010008E8
:1000D00000000000350600081B01000800000000B9
:1000E0001B0100081B0100081B010008DFF80CD0F1
:1000F00000F02AF80048004751090008A80C002029
:100100000648804706480047FEE7FEE7FEE7FEE7B1
:10011000FEE7FEE7FEE7FEE7FEE7FEE7E50500088F
:10012000ED00000840EA01039B0703D009E008C97D
:10013000121F08C0042AFAD203E011F8013B00F8AC
:10014000013B521EF9D27047064C074D06E0E068AD
:1001500040F0010394E8070098471034AC42F6D30E
:10016000FFF7C8FF140A0008340A000810B54FF45E
:1001700000742146054800F062F8012804D02046AA
:10018000BDE8104000F004B8FEE70000000C01409C
:10019000014908607047000014040140F0B5CA78B6
:1001A000002502F00F03D20601D58A7813430A789E
:1001B0004FF00F0E12F0FF0F4FF001021CD0046839
:1001C0000F8802FA05F63740B74211D14FEA850C85
:1001D0000EFA0CF724EA070703FA0CF43C43CF7835
:1001E000282F02D0482F02D002E0466100E00661CD
:1001F0006D1C082DE4D304600C88FF2C1ED94468C4
:100200005FF0000606F1080702FA07F50F882F4095
:10021000AF420FD14FEA860C0EFA0CF7BC4303FA3B
:100220000CF73C43CF78282F00D14561CF78482F79
:1002300000D10561761C082EE4D34460F0BD02466F
:10024000002092680A4200D0012070474161704747
:1002500001617047F8B50121082000F037F840200F
:10026000ADF800001425114E8DF8035003248DF8CD
:10027000024069463046FFF791FF8020ADF800004C
:100280008DF803508DF8024069463046FFF786FF2F
:100290002020ADF8000010208DF803008DF80240FA
:1002A00069463046FFF77AFFF8BD0000000C0140B8
:1002B0004FF4A060AFF30080024908430249086090
:1002C000704700000000FA050CED00E0044A002928
:1002D000916901D0014300E08143916170470000C2
:1002E000001002402DE9F041884600EB4001214812
:1002F000164600EBC104E16A01F0030002280BD0AE
:10030000A06A626A801A401E01D5226A10448642A1
:1003100002DD89072BD006464EB30027A06A616A2A
:10032000451A6D1E01D5206A0544D4E90801411A19
:10033000A94201DC616A451AB54200DB3546616AB3
:10034000E0692A4608444146FFF7ECFE606A2F4404
:10035000A844761B28446062606A216A884201D101
:1003600000206062002ED9D13846BDE8F08100201F
:10037000FBE700001C0000200FB408B504A90091A1
:100380006A46039900F004F801B05DF814FB000020
:100390002DE9F04198B0064607A8029040200025BC
:1003A000CDE90305CDE9055690460C4614F8011B2E
:1003B000002971D0252908D002A800F063FA059819
:1003C0000028F3DA18B0BDE8F08100202178232955
:1003D0001BD02B2916D02D290ED030290FD000226A
:1003E0002178A1F130030A2B13D202EB820201EB38
:1003F0004202303A641CF3E740F0010007E040F0AD
:10040000020004E040F0040001E040F00800641C39
:10041000DCE70023CFB22E2F0CD100BF14F8011F50
:10042000A1F130070A2F05D203EB830301EB43034D
:10043000303BF3E76C290DD068290BD0702954D0DC
:100440000BDC252916D0582931D063290CD064291A
:1004500013D114E014F8011BECE7732934D075298B
:100460001BD0782909D122E0D8F80000011DC8F876
:100470000010017802A800F005FA641C9FE7D8F884
:1004800000100F1DC8F800700968CDE900200A228D
:1004900002A800F027F9F0E733E0D8F800100F1DAC
:1004A000C8F800700968CDE900200A2208E0D8F8F1
:1004B00000100F1DC8F800700968CDE90020102257
:1004C00002A800F071F9D8E7D8F80000011DC8F8BB
:1004D0000010076817F8011B0029CED002A800F011
:1004E000D1F905980028F5DAC7E7D8F80000011D12
:1004F000C8F8001001680820CDE900050346102265
:10050000DEE7059800287FF75DAF049820B102462A
:1005100007A93046FFF7E6FEDDE90401084405902F
:1005200050E700000CB500212648019100910268B7
:1005300042F4803202604FF4A063026802F4003299
:100540000092019A521C0192009A12B9019A9A42A1
:10055000F3D10268920333D5012100911A490A6848
:1005600042F010020A600A6822F003020A600A6878
:1005700042F002020A60416841604168416041689E
:1005800041F480614160416821F47C11416041681F
:1005900041F4E8114160016841F080710160016837
:1005A0008901FCD5416821F003014160416841F0B7
:1005B000020141604168C1F381010229FAD10CBDF9
:1005C00000910CBD00100240002002404FF0E021DD
:1005D0000428086903D020F004000861704740F047
:1005E0000400FAE70F4810B5016841F0010101600D
:1005F00041680D4A1140416001680C4A1140016098
:10060000016821F480210160416821F4FE0141600C
:100610004FF41F018160FFF785FF05494FF000602F
:10062000086010BD001002400000FFF8FFFFF6FE5A
:1006300008ED00E070B5164C40F22551204600F060
:100640002DF800280ED0204600F047F8C2B211481D
:1006500001880B0406D44C044FF0000306D50A2A87
:1006600001D0038070BD41F400410EE00D2A0AD094
:10067000C1F30D04084D491C89B22A550180B1F51A
:10068000806FEED270BD41F48041018070BD0000EA
:1006900000380140180000209400002030B501F01F
:1006A0001F0201240025C1F3421304FA02F2012BB8
:1006B0000FD0022B0FD0838A4FEA112100881342FA
:1006C00004FA01F400EA040001D000B10125284633
:1006D00030BD8389F0E7038AEEE78088C0F3080025
:1006E000704700002DE9FC5F0E008146DDE90C47F4
:1006F000C6F1000098469346824600D4084601257C
:1007000003E000BFB0FBFBF06D1C5845FAD2A845D2
:1007100000D9454624B1002E01DB780700D5641EC0
:10072000B80702D5B8F1000F10D0F8070ED16CB1A0
:100730002046641EA84209D92021484600F0A2F8AC
:10074000D9F80C000028F2DABDE8FC9F002E02DA8E
:1007500056462D2102E0780707D52B21484600F0A8
:1007600091F8D9F80C000028EEDB07F0030002280E
:1007700010D1B8F1000F0DD164B12046641EA8421B
:1007800008D93021484600F07DF8D9F80C0000283F
:10079000F2DAD9E7CDE9004743465A4631464846A2
:1007A00000F002F8D0E700002DE9F84F8246DDE9BD
:1007B0000A4B0126984691460D460846374602E008
:1007C000B0FBF9F07F1C4845FAD2B84500D947463E
:1007D0005FEACB701CD1DCB15FEA8B7002D5B8F157
:1007E000000F02D0202000900AE03020FBE75046A6
:1007F000009900F047F8DAF80C0000283EDB3CB125
:100800002046641EB842F2D802E000BF06FB09F69B
:10081000B5FBF6F1494501D3012100E00021424634
:10082000A8F10108012A01DD012000E000200143B8
:10083000ECD1DFF84C8000BFB5FBF6F000FB16559D
:1008400018F80010504600F01DF8DAF80C000028E7
:1008500003DBB6FBF9F6002EEED15FEACB700DD0CC
:10086000002C0BD02046641EB84207D920215046E8
:1008700000F008F8DAF80C000028F1DABDE8F88F8B
:10088000F809000810B50446D4E90130421C93422F
:1008900005DB23681954A260E068401CE060D4E9DD
:1008A0000102824209D121682069FFF71BFDA1687E
:1008B000884203D04FF0FF30E06010BD0020A06000
:1008C00010BD02E008C8121F08C1002AFAD1704703
:1008D0007047002001E001C1121F002AFBD17047C0
:1008E00010B56FF00400FFF771FE09480949006870
:1008F000B0FBF1F0C1B2084801EB41020170C2EB5C
:10090000C1114FF6FF7202EAC101418010BD000023
:100910000000002000127A00140000200B494988D2
:1009200048434FF0E021486100228A61086940F0A5
:10093000010008610869C30701D0C003FAD508693E
:1009400020F0010008618A61704700001400002057
:10095000FFF7C6FFFFF7ACFCFFF77CFC00F026F8C2
:100960004FF47A7400F040F808A10020FFF704FD6E
:100970002046FFF7D3FF00F02FF808A10020FFF773
:10098000FBFC2046FFF7CAFFECE7000072745F68CB
:10099000775F6C65645F6F6E0A00000072745F6859
:1009A000775F6C65645F6F66660A000008B50121B9
:1009B0000420FFF78BFC10208DF8030003208DF836
:1009C00002004FF40060ADF8000069460148FFF7EF
:1009D000E5FB08BD000801404FF400610148FFF746
:1009E00037BC0000000801404FF400610148FFF7E8
:1009F0002DBC000000080140303132333435363729
:100A000038394142434445465465726D696E616CA4
:100A100000000000340A00080000002094000000DC
:100A2000C2080008C80A000894000020140C000046
:100A3000D208000800A24A040000000000000000E4
:100A4000010203040607080900000000000000007E
:100A500053454747455220525454000000000000BF
:100A60000200000002000000080A000894040020B0
:100A70000004000000000000000000000000000072
:100A80000000000000000000000000000000000066
:100A90000000000000000000080A00089408002080
:100AA0001000000000000000000000000000000036
:100AB0000000000000000000000000000000000036
:080AC00000000000000000002E
:04000005080000ED02
:00000001FF
