:020000040800F2
:10000000A81F002001010008090100080B010008D9
:100010000D0100080F010008110100080000000098
:1000200000000000000000000000000013010008B4
:100030001501000800000000170100081901000860
:100040001B0100081B0100081B0100081B01000820
:100050001B0100081B0100081B0100081B01000810
:100060001B0100081B0100081B0100081B01000800
:100070001B0100081B0100081B0100081B010008F0
:100080001B0100081B0100081B0100081B010008E0
:100090001B0100081B0100081B010008610A000881
:1000A0001B0100081B0100081B0100081B010008C0
:1000B000E11F0008A12000086D2100081B010008B5
:1000C0001B0100081B0100081B0100081B010008A0
:1000D0001B01000825250008852700081B010008D2
:1000E0001B0100081B0100081B010008DFF80CD0F1
:1000F00000F076F80048004715390008A81F0020D6
:100100000648804706480047FEE7FEE7FEE7FEE7B1
:10011000FEE7FEE7FEE7FEE7FEE7FEE7911F0008C9
:10012000ED00000840EA01039B0703D009E008C97D
:10013000121F08C0042AFAD203E011F8013B00F8AC
:10014000013B521EF9D27047D2B201E000F8012BF8
:10015000491EFBD270470022F6E710B513460A4647
:1001600004461946FFF7F0FF204610BD421C10F868
:10017000011B0029FBD1801A704730B504460020CE
:10018000034600E05B1C934203D2E05CCD5C401B65
:10019000F8D030BD30B505460020034600E05B1CBA
:1001A000934205D2EC5CC85C201A01D1002CF6D138
:1001B00030BD30B50B46014600202022012409E065
:1001C00021FA02F59D4205D303FA02F5491B04FA10
:1001D00002F52844151EA2F10102F1DC30BD000039
:1001E000064C074D06E0E06840F0010394E8070084
:1001F00098471034AC42F6D3FFF77CFF78430008F1
:100200009843000870B58C1810F8015B15F00703CF
:1002100001D110F8013B2A1106D110F8012B03E09F
:1002200010F8016B01F8016B5B1EF9D12B0705D4A7
:100230000023521E0DD401F8013BFAE710F8013BF0
:10024000CB1A921C03E013F8015B01F8015B521E0C
:10025000F9D5A142D8D3002070BD00002DE9F043AC
:1002600085B00F46DDE90D5804461E4640F2654153
:100270001748DDF83090FFF76EFF65208DE84102EA
:10028000CDE903583B4613A1114805F1250202F0C0
:10029000F5FF0F48217800F1090241706178817003
:1002A000A178C170E1780171217941716179817121
:1002B000A179C171E179017211A1002001F0E2FA86
:1002C00005B005F12F01BDE8F043014802F068BD1B
:1002D00042170020613030303030303030415053E0
:1002E0003131253034643031257325303364253085
:1002F00033642573253033642573454E440A00006A
:100300004150505F526573706F6E73655F426173E9
:1003100065496E666F2025730A00000070B50D46B2
:10032000044640F265410F48FFF715FF2A460EA12B
:100330000C4802F0A3FF0B4821784170617881706E
:10034000A178C170E1780171217941716179817180
:10035000A179C171E1790172BDE87040172102F005
:100360001FBD000042170020613030303030303087
:1003700030415053313130303133303625303264F2
:100380000A0000002DE9F0410D4604461E461746BE
:1003900040F265411C48FFF7DEFE28461A4D012851
:1003A0001BD033463A4619A1284602F067FF207851
:1003B00068706078A870A078E870E078287120797B
:1003C00068716079A871A079E871E07928721F21BD
:1003D000BDE8F0410C4802F0E3BC15A10A4802F068
:1003E0004DFF207868706078A870A078E870E07899
:1003F0002871207968716079A871A079E871E07935
:1004000028721721E4E700004217002061303030E5
:10041000303030303041505331313030323130347F
:100420003030257325303364454E440A0000000007
:100430006130303030303030304150533131303035
:100440003133303430310A0070B50D46044640F285
:1004500065410F48FFF77FFE2A460EA10C4802F0C7
:100460000DFF0B482178417061788170A178C170CF
:10047000E17801712179417161798171A179C1714D
:10048000E1790172BDE87040172102F089BC0000DB
:10049000421700206130303030303030304150531E
:1004A0003131303031333033253032640A000000CE
:1004B00070B50D46044640F265410F48FFF74BFE0C
:1004C0002A460EA10C4802F0D9FE0B482178417053
:1004D00061788170A178C170E178017121794171F1
:1004E00061798171A179C171E1790172BDE87040D2
:1004F000172102F055BC0000421700206130303057
:10050000303030303041505331313030313330358C
:10051000253032640A0000002DE9FF418846054677
:100520001F461446002640F265415D48FFF713FE62
:100530004046DFF86C8101281CD05AA1404602F0E9
:100540009DFE297888F80110697888F80210A9784A
:1005500088F80310E97888F80410297988F80510DC
:10056000697988F80610A97988F80710E97988F878
:10057000081055E051A14A4802F080FE297888F819
:100580000110697888F80210A97888F80310E978D2
:1005900088F80410297988F80510697988F8061018
:1005A000A97988F80710E97988F8081017213C48DC
:1005B00070E000BF06EB460000EBC60101EB08054A
:1005C000206845F8160FA088A880A0786379227962
:1005D000E1788DE80F00637822783EA1002001F0D9
:1005E00051F9E08845A1000AA871A079E871E28874
:1005F000002001F047F9208945A1000A2872207ADD
:1006000068722289002001F03DF9A07AA872A27ACE
:1006100044A1002001F036F90E34761C642E01DA74
:10062000BE42C7DB0A20002F2FDD07EB470101EB9D
:10063000C7014FF47A72103191FBF2F3303388F82E
:100640000E30642391FBF3F393FBF0F400FB1433BF
:10065000303388F80F3091FBF0F393FBF0F400FB9C
:100660001433303388F8103091FBF0F300FB131390
:1006700042463033537408EB0102452393714E23F5
:10068000D37144231372507202E0054A0D21907514
:1006900003480A3104B0BDE8F04102F081BB00001C
:1006A000421700206130303030303030304150530C
:1006B0003131303031333032303000006130303061
:1006C00030303030304150533131303031333032CE
:1006D00030310A0053797374656D496E666F202559
:1006E000303278253032782530327825303278250E
:1006F0003032782530327820202000006865617221
:10070000745F726174652025642020202000000041
:100710006F66665F74696D657320256420202020F4
:10072000000000006D6F735F737461747573202532
:10073000640A000070B502F0EBFF032117A002F07D
:100740002FFB4FF4AF76304603F008F8144C4FF00F
:10075000FF35A089B8B1012212A11348FFF70DFDA2
:1007600088B902F0D5FF01210EA002F019FB304636
:1007700002F0F4FFA089032805D303220BA10A4845
:10078000FFF7FBFC08B1284670BD09A1002001F06D
:1007900079F802F0BDFF002070BD00002B2B2B006C
:1007A0007800002061000000320F00202B6F6B00EA
:1007B0004154203A612B6F6B0A00000010B502F023
:1007C000A7FF08210EA002F0EBFA4FF4967002F09A
:1007D000C5FF0E484FF0FF3480890A2805D3032255
:1007E0000BA10C48FFF7C9FC08B1204610BD0AA1B7
:1007F000002001F047F802F08BFF002010BD000040
:1008000041542B454E544D0A000000007800002052
:100810002B6F6B003B0F002041542B454E544D2055
:100820003A2B6F6B0A00000010B59AB004466421A1
:100830006846FFF790FC02F06BFF224617A168465E
:1008400002F01CFD6A461CA1002001F01BF868465E
:10085000FFF78CFC411C684602F0A2FA4FF47A7054
:1008600002F07CFF15484FF0FF3480890A280AD334
:100870006846FFF77BFC12490322084411A1401C83
:10088000FFF77BFC10B120461AB010BD0EA100206E
:1008900000F0F8FF02F03CFF0020F5E741542B5731
:1008A000414B45593D5750413250534B2C414553D4
:1008B0002C25730A0000000025730000780000203A
:1008C000320F00202B6F6B0041542B57414B455981
:1008D000203A2B6F6B0A000010B59AB004466421D1
:1008E0006846FFF738FC02F013FF224617A168465E
:1008F00002F0C4FC6A461DA1002000F0C3FF684658
:10090000FFF734FC411C684602F04AFA4FF47A7053
:1009100002F024FF16484FF0FF3480890A280AD3DA
:100920006846FFF723FC13490322084412A1401C28
:10093000FFF723FC10B120461AB010BD0FA1002014
:1009400000F0A0FF02F0E4FE0020F5E741542B5731
:1009500041503D313142474E2C4543555F52535F24
:1009600025732C4175746F0A000000002573000088
:1009700078000020320F00202B6F6B0041542B5762
:100980004150203A2B6F6B0A0000000010B502F0B6
:10099000BFFE05210EA002F003FA4FF4967002F09C
:1009A000DDFE0D484FF0FF348089062805D3032271
:1009B0000AA10B48FFF7E1FB08B1204610BD09A1D1
:1009C000002000F05FFF02F0A3FE002010BD000039
:1009D00041542B5A0A000000780000202B6F6B0056
:1009E000380F002041542B5A203A2B6F6B0A00001D
:1009F00010B501F013F901F007F9022001F094F8A5
:100A000001F05CF8002000F020F800F013F822203C
:100A100000F0B2F806210A2001F009F82221652031
:100A200001F04CFA102001F07FF8BDE810401020D2
:100A300001F07AB810B56C2001F09CF940F0030188
:100A4000BDE810406E2001F039BA10B507216A20C8
:100A500001F034FA3F21BDE810406B2001F02EBABE
:100A600070B5142002F07AFE0E4C00264FF4007090
:100A70006168012907D0054601460B4800F0FBF8E4
:100A8000012802D009E0666008E0A068401CA06070
:100A9000012802DD0120A66020702846BDE87040D4
:100AA00000F02CB868000020000C01403EB500F0BA
:100AB000B1FA0121084600F045FB0921012000F0B0
:100AC00075F84FF40070002400908DF80440082061
:100AD0008DF8050001258DF80650684600F014F8E1
:100AE00017208DF808008DF8094003208DF80A00C2
:100AF0008DF80B5002A800F0D1FA3EBD0149086004
:100B0000704700001404014030B51A498379026827
:100B100053B30B6893430B600A1D13680468A34327
:100B2000136002790A441368046823431360114A6E
:100B3000083213680468A3431360131D1C6805681A
:100B4000AC431C604479102C05D021440A6800682D
:100B500002430A6030BD11680468214311601968BE
:100B600000680143196030BD007908440168914371
:100B7000016030BD000401400146682001F09EB9CB
:100B800010B5692001F0F6F820F00101BDE8104031
:100B9000692001F093B910B5692001F0EBF840F03D
:100BA0000101BDE81040692001F088B910B58A073D
:100BB00021F003040649130F21440F228C689A4048
:100BC00094438C608A68984002438A6010BD00009C
:100BD00000000140F0B5CA78002502F00F03D206EC
:100BE00001D58A7813430A784FF00F0E12F0FF0FE9
:100BF0004FF001021CD004680F8802FA05F6374056
:100C0000B74211D14FEA850C0EFA0CF724EA070718
:100C100003FA0CF43C43CF78282F02D0482F02D09F
:100C200002E0466100E006616D1C082DE4D304601B
:100C30000C88FF2C1ED944685FF0000606F10807F7
:100C400002FA07F50F882F40AF420FD14FEA860C0A
:100C50000EFA0CF7BC4303FA0CF73C43CF78282F6D
:100C600000D14561CF78482F00D10561761C082E50
:100C7000E4D34460F0BD0246002092680A4200D0EE
:100C80000120704741617047016170476A2001F09F
:100C900071B800002DE9F047214D0646287810B1C3
:100CA00001280BD01DE0082000F03EFFFFF768FF91
:100CB00000F03AF80528FBD101202870DFF8649095
:100CC00000244FF400684FF4FA7741464846FFF796
:100CD000D2FF01280BD0012002F040FD641CBC4271
:100CE000F3DB2878022804D00020BDE8F08702203A
:100CF000287000F0FDFF0746002404E000F0F8FF34
:100D00003055641CE4B2BC42F8D3002000F06CFC07
:100D10000020FFF79AFE032028703846E5E7000020
:100D20008C000020000C014010B5612001F022F879
:100D300000F00F0010BD000000B513A387B00ECB6C
:100D40008DE80E00002103910491059120B1012846
:100D500018D0022816D110E00A21684602F01EF9C8
:100D60000A2103A800F09AFC0A2203A96846FFF7AB
:100D700004FA10B1012007B000BD02F065F808B117
:100D80000220F8E70020F6E759554E454E4720412E
:100D90005053000010B50E4C40212046FFF772FF63
:100DA00080212046FFF76EFF80212046FFF76AFF73
:100DB0000F2000F00FF840212046FFF765FF0F20BD
:100DC00000F008F82046BDE810404021FFF75ABF68
:100DD000000C0140002100E0491C8142FCD3704717
:100DE00070B5124D002440212846FFF74DFF0F201B
:100DF000FFF7F0FF80212846FFF746FF01E0641C63
:100E0000E4B280212846FFF736FFC00701D0FF2C4F
:100E1000F5D380212846FFF735FF40212846FFF70C
:100E200031FFBDE870400F20FFF7D4BF000C014038
:100E300070B51A4E002540213046FFF723FF0F20E2
:100E4000FFF7C8FF80213046FFF71EFF0F20FFF796
:100E5000C1FF80213046FFF717FF002440213046B4
:100E6000FFF712FF0F20FFF7B5FF80213046FFF795
:100E700002FF00F001020F20FFF7ACFF42EA45003D
:100E8000C5B240213046FFF7FDFE0F20FFF7A2FF5D
:100E9000641CE4B2082CE1D3284670BD000C01406C
:100EA00070B51B4E054680213046FFF7EBFE00244F
:100EB00040213046FFF7E6FE0F20FFF78BFFE809E1
:100EC0004FF08001304602D0FFF7DEFE01E0FFF771
:100ED000D9FE0F20FFF77EFF40213046FFF7D4FEFA
:100EE0000F20FFF777FF0F20FFF774FF6806050E4E
:100EF000641C082CDCD340213046FFF7C3FE802160
:100F00003046FFF7C1FEBDE870400F20FFF762BF1B
:100F1000000C014010B50E4C80212046FFF7B2FEB8
:100F200080212046FFF7B0FE40212046FFF7ACFEAF
:100F30000F20FFF74FFF80212046FFF7A3FE0F2071
:100F4000FFF748FF2046BDE810404021FFF79ABE5A
:100F5000000C014010B50C4C80212046FFF792FE9A
:100F600080212046FFF78EFE0F20FFF733FF402140
:100F70002046FFF789FE0F20FFF72CFF2046BDE833
:100F800010408021FFF780BE000C0140F8B5012120
:100F9000082000F0D7F84020ADF800001025114ED1
:100FA0008DF8035003248DF8024069463046FFF760
:100FB00011FE8020ADF8000014208DF803008DF89C
:100FC000024069463046FFF705FE2020ADF80000DC
:100FD0008DF803508DF8024069463046FFF7FAFD60
:100FE000F8BD0000000C014008B50121082000F008
:100FF000A9F84FF48040ADF8000004208DF80300FC
:1010000003208DF8020069460148FFF7E3FD08BDA3
:10101000000C014008B50121082000F093F84FF4BE
:101020000070ADF8000048208DF8030069460248C2
:10103000FFF7D0FD08BD0000000C014038B50121CC
:10104000042000F07FF810208DF8030003208DF8B5
:101050000200074D4FF40064ADF800406946284691
:10106000FFF7B8FD21462846FFF70EFE38BD000009
:10107000000801404FF400610148FFF705BE000081
:10108000000801404FF400610148FFF7FBBD00007C
:10109000000801404FF4A06000F032B870B50F2393
:1010A000C47801780122F4B1144C2468457804F422
:1010B000E064C4F5E064240AC4F10406E3408478E3
:1010C000B5401C402C4301F1E021230181F800349C
:1010D000007800F01F018A404009800000F1E02004
:1010E000C0F8002170BD01F01F0082404809800057
:1010F00000F1E020C0F8802170BD00000CED00E0A0
:101100000249084302490860704700000000FA05E0
:101110000CED00E0044A0029D16901D0014300E050
:101120008143D1617047000000100240044A002949
:10113000116901D0014300E0814311617047000053
:1011400000100240044A0029916901D0014300E0E7
:10115000814391617047000000100240044A002959
:10116000D16801D0014300E08143D16070470000A5
:101170000010024030B51F494A6812F00C031E4AA5
:1011800003D0042B01D0082B21D002604A680F2322
:101190001A4C03EA1212A35C0268DA4042604B6800
:1011A000072505EA1323E35C22FA03F383604B6807
:1011B00005EAD323E35CDA40C2604968032303EA0B
:1011C0009131231F595CB2FBF1F1016130BD4A68D6
:1011D0004B6802F470124FF0020413F4803F04EBEA
:1011E000924202D04B689B0301D5054B00E0024BB5
:1011F0005A43CAE70010024000127A00440000205F
:1012000000093D002DE9F04196B00D46064698468E
:1012100017460024202104A8FEF79DFF20210EA8D8
:10122000FEF799FFFB208DF810008DF811001520B6
:101230008DF8120008218DF8131031788DF81410F4
:1012400071788DF81510B1788DF81610F1788DF849
:10125000171031798DF8181071798DF819102978D7
:101260008DF81A1069788DF81B10A9788DF81C106C
:10127000E9788DF81D1029798DF81E1069798DF89F
:101280001F108DF8207000218DF821808DF822101C
:101290008DF823100991032104AAC01C02E0535CBD
:1012A000491C1C448842FADCE01704EB1060010A78
:1012B0008DF8281020468DF82900FE208DF82A0090
:1012C0008DF82B001C21104600F0C8FB0EA8FFF77C
:1012D000E1FC1C2857D19DF83B00D82853D19DF83C
:1012E00014009DF83C1088424DD19DF815009DF8E2
:1012F0003D10884247D19DF816009DF83E10884267
:1013000041D19DF817009DF83F1088423BD19DF8D0
:1013100018009DF84010884235D19DF819009DF8BD
:10132000411088422FD19DF81A209DF84200824238
:1013300029D19DF81B309DF84300834223D19DF8AD
:101340001C509DF8440085421DD19DF81D409DF81C
:101350004500844217D19DF81E109DF84600814239
:1013600011D19DF81F009DF84760B0420BD1CDE927
:101370000210CDE9005406A1002000F083FA0120FC
:1013800016B0BDE8F081142002F0E8F90020F7E77C
:1013900052464D3330305F42696E645F5569642058
:1013A0002530327825303278253032782530327841
:1013B00025303278253032780A0000002DE9F04FD0
:1013C00099B00D46DDE922A906461F469046002445
:1013D000202109A8DDF890B0FEF7BDFE202111A85C
:1013E000FEF7B9FEFB208DF824008DF825001520AE
:1013F0008DF8260000218DF8271032788DF82820EE
:1014000072788DF82920B2788DF82A20F2788DF83C
:101410002B2032798DF82C2072798DF82D202A78A6
:101420008DF82E206A788DF82F20AA788DF830203C
:10143000EA788DF831202A798DF832206A790D9179
:101440000E918DF83320032109AAC01C02E0535CE1
:10145000491C1C448842FADCE01704EB1060010AC6
:101460008DF83C1020468DF83D00FE208DF83E00A2
:101470008DF83F001C21104600F0F0FA11A8FFF78C
:1014800009FC1C287DD19DF84700D02879D19DF812
:1014900028009DF84810884273D19DF829009DF8D6
:1014A000491088427AD19DF82A009DF84A10884256
:1014B00074D19DF82B009DF84B1088426ED19DF899
:1014C0002C009DF84C10884268D19DF82D009DF8A5
:1014D0004D10884262D19DF82E009DF84E10884232
:1014E0005CD19DF82F009DF84F10884256D19DF891
:1014F00030009DF85010884250D19DF831009DF881
:10150000511088424AD19DF832009DF8521088420D
:1015100044D19DF833009DF8531088423ED19DF888
:10152000541088F800109DF8550038709DF8570049
:101530009DF8561005AC00EB0120A9F800009DF8BD
:1015400059009DF8581000EB0120AAF800009DF802
:101550005A308BF800303878B9F80020BAF800100B
:1015600084E80F009DF8310001AC98F800309DF838
:1015700033209DF8321084E80F009DF83000009071
:1015800000E00BE09DF82F309DF82E2006A10020F2
:1015900000F078F9012019B0BDE8F08F142002F0B6
:1015A000DDF80020F7E7000052464D3330305F4849
:1015B000656172745F426561742025303278253030
:1015C000327825303278253032782530327825301F
:1015D000327820202564202564202564202564207D
:1015E0002564200A0000000010B530B1702000F022
:1015F000C1FBC0F18000C0B210BDBDE810406F203B
:1016000000F0B8BB2DE9F041C7B2C0F3072615467C
:101610000C46FFF77FFCA020FFF742FCFFF7E0FB42
:101620003046FFF73DFCFFF7DBFB3846FFF738FCA1
:10163000FFF7D6FBFFF76EFCA120FFF731FCFFF7A9
:10164000CFFB09E0FFF7F4FB2870012C01D9FFF76D
:10165000A1FB641EE4B26D1C002CF3D1FFF77AFCF1
:10166000BDE8F0414FF47A70FFF7B4BB10B530B16C
:10167000024602212020FFF7C5FF002010BD4FF0D9
:10168000FF3010BD10B530B1024606211020FFF723
:10169000B9FF002010BD4FF0FF3010BD10B528B1CC
:1016A00002460020FFF7AEFF002010BD4FF0FF30D4
:1016B00010BD10B548B1F82202EBC1030246062165
:1016C0001846FFF79FFF002010BD4FF0FF3010BD00
:1016D00010B548B1FE2202EBC103024601211846B3
:1016E000FFF790FF002010BD4FF0FF3010BD10B588
:1016F00030B1024602214020FFF784FF002010BDD8
:101700004FF0FF3010BD10B528B102465020FFF752
:1017100079FF002010BD4FF0FF3010BD2DE9F041E2
:101720000D46069C90466FF02F062178627830397E
:1017300001EB810106EB41010A441F46A11C2A600E
:10174000FEF7F0FC2868E11C425CA11C241D405CF3
:10175000303800EB800006EB400002443A60286815
:1017600001194046FEF7DEFC0020BDE8F0810000D4
:1017700070B515460E46044603220CA1FEF70AFD7D
:1017800010B14FF0FF3070BD601D02F047F93060BE
:10179000607AA17A303800EB80006FF02F0202EB04
:1017A000400008442860002070BD000041505300F4
:1017B00070B515460E46044603220CA1FEF7EAFC5E
:1017C00010B14FF0FF3070BD601D02F027F930609E
:1017D000607AA17A303800EB80006FF02F0202EBC4
:1017E000400008442860002070BD000045435500BB
:1017F0002DE9F041884600EB40012148164600EBF8
:10180000C104E16A01F0030002280BD0A06A626AF9
:10181000801A401E01D5226A1044864202DD8907E3
:101820002BD006464EB30027A06A616A451A6D1E8A
:1018300001D5206A0544D4E90801411AA94201DC16
:10184000616A451AB54200DB3546616AE0692A469D
:1018500008444146FEF766FC606A2F44A844761BA4
:1018600028446062606A216A884201D10020606277
:10187000002ED9D13846BDE8F0810020FBE70000FA
:10188000340100200FB408B504A900916A460399F9
:1018900000F004F801B05DF814FB00002DE9F04100
:1018A00098B0064607A8029040200025CDE9030520
:1018B000CDE9055690460C4614F8011B002971D05D
:1018C000252908D002A801F0B9FC05980028F3DA10
:1018D00018B0BDE8F0810020217823291BD02B29E6
:1018E00016D02D290ED030290FD000222178A1F159
:1018F00030030A2B13D202EB820201EB4202303A90
:10190000641CF3E740F0010007E040F0020004E04F
:1019100040F0040001E040F00800641CDCE7002314
:10192000CFB22E2F0CD100BF14F8011FA1F1300748
:101930000A2F05D203EB830301EB4303303BF3E7AC
:101940006C290DD068290BD0702954D00BDC2529C7
:1019500016D0582931D063290CD0642913D114E052
:1019600014F8011BECE7732934D075291BD07829B2
:1019700009D122E0D8F80000011DC8F80010017854
:1019800002A801F05BFC641C9FE7D8F800100F1D53
:10199000C8F800700968CDE900200A2202A801F009
:1019A0007DFBF0E733E0D8F800100F1DC8F8007099
:1019B0000968CDE900200A2208E0D8F800100F1DC0
:1019C000C8F800700968CDE90020102202A801F0D3
:1019D000C7FBD8E7D8F80000011DC8F80010076859
:1019E00017F8011B0029CED002A801F027FC0598AA
:1019F0000028F5DAC7E7D8F80000011DC8F8001084
:101A000001680820CDE9000503461022DEE70598AD
:101A100000287FF75DAF049820B1024607A9304641
:101A2000FFF7E6FEDDE904010844059050E770B5D4
:101A300005460C46662000F09DF900F0E0012943C0
:101A4000662000F03BFA672000F094F900F0E00116
:101A50002143BDE87040672000F030BA70B50646FB
:101A60000D46084600F0B6F8FFF795F8FEF7E2FFDE
:101A7000022000F059F800BFFFF756F90228FBD109
:101A8000002404E0305D00F0D9F9641CE4B2AC42FB
:101A9000F8D3402000F048F8FFF7F8F80828FBD109
:101AA0000020FEF7D2FF102000F03EF8024900208F
:101AB0000870012070BD00008C00002070B5194C2A
:101AC0006178042919D204F15B0000F12505012990
:101AD00004D002290AD003291BD00EE0114911229B
:101AE000891CFEF71FFBB4F8130005E00D49112215
:101AF0001531FEF717FBE08CA8820A4D00243B3518
:101B00002046295D00F0DAF9641CE4B2602CF7D3BA
:101B100070BD044911222831FEF704FBB4F83900E6
:101B2000EAE700008C0000200146602000F0C6B902
:101B30000CB50021254801910091026842F48032E1
:101B400002604FF4A063026802F400320092019A2E
:101B5000521C0192009A12B9019A9A42F3D102687A
:101B6000920331D50121009119490A6842F010020F
:101B70000A600A6822F003020A600A6842F0010261
:101B80000A60416841604168416041684160416864
:101B900021F47C114160416841F4F8114160016811
:101BA00041F08071016001688901FCD5416821F034
:101BB00003014160416841F0020141604168C1F3A5
:101BC00081010229FAD10CBD00910CBD0010024028
:101BD0000020024010B504460220FFF7A5FF452073
:101BE00000F0C8F800F08F00C4F3022140EA0111B0
:101BF000452000F063F9E1B2462000F05FF9BDE84E
:101C000010401020FFF790BF10B5FF217F2000F09B
:101C100055F9BDE81040142001F0A0BD2DE9F84FA2
:101C200001210820FFF78EFA4FF48046ADF80060DE
:101C30001025DFF8B8A08DF8035003248DF802407A
:101C400069465046FEF7C6FF01210820FFF77AFAE1
:101C50006F02ADF800708DF803508DF802406946B0
:101C60005046FEF7B7FF01210820FFF76BFA4FF44B
:101C70008058ADF800808DF803508DF80240694619
:101C80005046FEF7A7FF01210820FFF75BFA4FF44B
:101C90008069ADF800908DF803508DF802406946D8
:101CA0005046FEF797FF01210820FFF74BFAE801A5
:101CB000ADF8000048208DF803008DF80240694619
:101CC0005046FEF787FF39465046FEF7DDFF49468E
:101CD0005046FEF7D9FF31465046FEF7D5FF414644
:101CE0005046FEF7CFFFBDE8F88F0000000C014022
:101CF0002DE9F0410024FFF791FF1D4E4FF4806164
:101D00003046FEF7BFFFFFF76FF9082001F03CFDFA
:101D10000025B7144FF480486006040E394630465B
:101D2000FEF7B0FF022001F02FFD39463046FEF7E6
:101D3000ABFF022001F028FD41463046FEF79BFF35
:101D4000012801D144F001046D1CEDB2082DE3D34C
:101D500039463046FEF796FF042001F015FDFFF7E7
:101D60005DFF082001F010FD2046BDE8F081000075
:101D7000000C01402DE9F047002440F08007FFF7F8
:101D80004DFF2D4E4FF400513046FEF77BFF0220F1
:101D900001F0FAFC0025B0464FF48049B61438062D
:101DA0004946404602D5FEF76FFF01E0FEF76AFFA5
:101DB00031464046FEF766FF022001F0E5FC314661
:101DC0004046FEF761FF022001F0DEFC78066D1C44
:101DD000070EEDB2082DE2D3494647464046FEF7CE
:101DE00053FFFFF701F908256006040E3146384617
:101DF000FEF748FF022001F0C7FC31463846FEF7E7
:101E000043FF022001F0C0FC49463846FEF733FF8D
:101E1000012801D144F001046D1E15F0FF05E3D146
:101E200031463846FEF72EFF022001F0ADFCFFF7E9
:101E3000F5FE2046BDE8F087000C01402DE9F04199
:101E40000546FFF7EBFE1C4E4FF480613046FEF76F
:101E500019FF082001F098FC00244FF48048B714C3
:101E600028064146304602D5FEF70EFF01E0FEF798
:101E700009FF39463046FEF705FF022001F084FCD9
:101E800039463046FEF700FF022001F07DFC68066F
:101E9000641C050EE4B2082CE2D339463046FEF746
:101EA000F1FE042001F070FCFFF7B8FEBDE8F04140
:101EB000082001F069BC0000000C01402DE9F0474A
:101EC0000E4620F08007FFF7A9FE2A4C4FF4005180
:101ED0002046FEF7D7FE022001F056FC00254FF405
:101EE00080494FF4805838064946204602D5FEF70F
:101EF000CBFE01E0FEF7C6FE41462046FEF7C2FEDD
:101F0000022001F041FC41462046FEF7BDFE0220C2
:101F100001F03AFC78066D1C070EEDB2082DE2D3F5
:101F20000025474630064946204602D5FEF7ACFE5E
:101F300001E0FEF7A7FE39462046FEF7A3FE022089
:101F400001F022FC39462046FEF79EFE022001F0F9
:101F50001BFC70066D1C060EEDB2082DE2D339464F
:101F60002046FEF78FFE022001F00EFCBDE8F04790
:101F7000FFF754BE000C01404FF0E021042808692F
:101F800003D020F004000861704740F00400FAE735
:101F90000F4810B5016841F00101016041680D4A28
:101FA0001140416001680C4A11400160016821F450
:101FB00080210160416821F4FE0141604FF41F015E
:101FC0008160FFF7B5FD05494FF00060086010BD66
:101FD000001002400000FFF8FFFFF6FE08ED00E0F1
:101FE00070B501218C07204600F033F9002820D07D
:101FF0000121204600F020F90E4C01250026A068A2
:10200000401CA060A570E670207901280BD1607992
:1020100028B10020607120B1FFF734F803E00120FF
:10202000F8E7FFF727F80449A068884201DD6570EA
:10203000A66070BD28010020805101007FB50C46CC
:10204000054601210846FFF765F8ADF80450ADF8E4
:10205000004000244FF08045ADF80640ADF8024046
:102060006946284600F00AF901221146284600F088
:10207000FCF81C208DF80C0001218DF80D100320B8
:102080008DF80E008DF80F1003A8FFF707F8012157
:10209000284600F0D4F8014884707FBD2801002054
:1020A00010B50E4C0121204600F0D3F8002813D0C3
:1020B0000121204600F0C0F809490878401C40B2D0
:1020C0000870012808DD07490020087006490880CB
:1020D000BDE8104000F00AB810BD00000004004048
:1020E000280100207B0000208400002003490020FC
:1020F00008700146024800F0A2B800002801002044
:10210000000400407FB50C46054601210220FFF780
:1021100001F8ADF80450ADF800400024114DADF8C1
:102120000640ADF802406946284600F0A7F80122B3
:102130001146284600F099F81D208DF80C00012169
:102140008DF80D1003208DF80E008DF80F1003A8E8
:10215000FEF7A4FF0121284600F071F80248047040
:102160007FBD0000000400402801002010B50E4C87
:102170000121204600F06DF8002814D001212046EE
:1021800000F05AF809498879401C40B2887101284A
:1021900009DD074902200870064900200880BDE8D3
:1021A000104000F009B810BD0008004028010020D0
:1021B000790000207C00002003490020887101463E
:1021C000024800F03CB80000280100200008004050
:1021D0007FB50C46054601210420FEF79BFFADF8B4
:1021E0000450ADF800400024114DADF80640ADF8A4
:1021F00002406946284600F041F80122114628466F
:1022000000F033F81E208DF80C008DF80D400320EF
:102210008DF80E0001208DF80F0003A8FEF73EFF99
:102220000121284600F00BF8024884717FBD0000B0
:102230000008004028010020C9430182704700299E
:10224000018802D041F0010101E021F0010101808B
:10225000704702460020138A92890B4202EA01026B
:1022600002D0002A00D001207047002A828901D0C4
:102270000A4300E08A4382817047000030B502883B
:102280001B4B1C4C98420DD0A0420BD0B0F1804F9C
:1022900008D0194DA84205D0184DA84202D0184DBB
:1022A000A84203D122F070054A882A43154DA8425E
:1022B00006D0154DA84203D022F44075CA882A439F
:1022C00002808A8882850A88028598420AD0A042C4
:1022D00008D00E4A904205D00D4A904202D00D4AD5
:1022E000904201D1097A01860121818230BD00002E
:1022F000002C014000340140000400400008004070
:10230000000C00400010004000140040004001405C
:1023100000440140004801402DE9F0410E4680464E
:1023200000240A4D0DE000BF18F804704021284633
:1023300000F094FA0028F9D03946284600F026FB30
:10234000641CB442F0DB2046BDE8F0810038014057
:102350002DE9F047704C00258246258160786F4E4C
:102360004FF0020841F61F49022827D02AE000BF9B
:10237000FFF722FFA1882089081A80B26081012816
:1023800006D0022808D003280ED005281ED00EE063
:102390003078452803D10AE07078432807D0A5801B
:1023A000258184F8018002E0B0785528F7D14946AC
:1023B0009520FFF70DFF2089401C20812189A088EE
:1023C0008142D5D36078032824D028E003206070B0
:1023D00049469520FFF7FCFEF4E700BFFFF7ECFE4F
:1023E000A0882189401A80B26081092807D0394627
:1023F0009520FFF7EDFE2089401C20810BE0701D29
:1024000001F00CFBE0800420607039469520FFF756
:10241000DFFE04E04F462189A0888142DED3607848
:1024200004281BD01FE000BFFFF7C6FEA08821894B
:10243000401A81B26181E088C01E884206D1052021
:10244000607039469520FFF7C3FE0CE039469520B1
:10245000FFF7BEFE2089401C208100E04F46208906
:10246000A1888842E0D3607805284FD0BDE8F08786
:10247000FFF7A2FEA0882189401A80B26081E78818
:10248000B91E814208D1F11911F8031C452903D066
:10249000A580258184F80180791E814208D1F11937
:1024A00011F8021C4E2903D0A580258184F80180F3
:1024B000874224D1B8B2304410F8010C442803D02C
:1024C000A580258184F801804FF400711448FDF740
:1024D00042FE3A4611491248FDF724FEE0881049B1
:1024E000CAF800000D540120207084F80180A580F6
:1024F00025814946BDE8F0479520FFF769BE49466A
:102500009520FFF765FE2089401C20812089A18845
:102510008842ADD3AAE7000078000020320D0020E9
:102520003207002010B50C4C40F22551204600F037
:102530009CF900280ED0204600F024FA0849074BE9
:102540008A889854521C90B28880B0F5007F01D3DD
:102550000020888010BD000000380140320D0020AE
:102560007800002010B59AB0044664216846FDF753
:10257000F2FD224607A1684600F080FE6A460AA1E5
:102580000020FFF77FF910216846FFF7C5FE1AB05B
:1025900010BD0000454355313130303136303525DE
:1025A000303264454E4400005553415254315F521D
:1025B0006573706F6E73655F464143544F52592087
:1025C00025730A0030B599B00D460446642168466B
:1025D000FDF7C1FD7CB122460AA1684600F04EFE1F
:1025E0006A4610A10020FFF74DF91C216846FFF74D
:1025F00093FE19B030BD2B46224611A1684600F06B
:102600003DFEEDE74543553131303032383032252B
:10261000303264303030303030303030303030456F
:102620004E4400005553415254315F526573706FF0
:102630006E73655F524541445F49442025730A002B
:10264000454355313130303238303225303264250F
:1026500073454E440000000010B59AB00446642152
:102660006846FDF778FD224607A1684600F006FEA1
:102670006A460AA10020FFF705F910216846FFF716
:102680004BFE1AB010BD000045435531313030319A
:1026900036303125303264454E44000055534152A6
:1026A00054315F526573706F6E73655F5345545F4D
:1026B00049442025730A000010B59AB004466421ED
:1026C0006846FDF748FD224607A1684600F0D6FDA2
:1026D0006A460AA10020FFF7D5F810216846FFF7E7
:1026E0001BFE1AB010BD000045435531313030316A
:1026F00036303425303264454E4400005553415243
:1027000054315F526573706F6E73655F5345545FEC
:102710004E4554574F524B2025730A0030B599B09F
:102720000C46054664216846FDF715FD23462A46FA
:1027300007A1684600F0A2FD6A460BA10020FFF742
:10274000A1F812216846FFF7E7FD19B030BD00007F
:1027500045435531313030313830332530326425FE
:10276000303264454E4400005553415254315F525B
:102770006573706F6E73655F544553542025730AFB
:102780000000000010B50E4C40F22551204600F02C
:102790006CF8002812D0204600F0F4F80A4C094AE0
:1027A000A1895054491C8AB2A281B2F5806F05D329
:1027B00006A10020FFF766F80020A08110BD0000F0
:1027C00000440040320F0020780000202564200AD9
:1027D000000000000029818902D041F4005101E08D
:1027E00021F4005181817047174910B588420AD100
:1027F00001218C032046FEF7B1FC2046BDE81040C5
:102800000021FEF7ABBC1149884202D101214C04E2
:1028100010E00F49884202D101218C040AE00D49E1
:10282000884202D10121CC0404E00B4988420AD13C
:1028300001210C052046FEF779FC2046BDE810403A
:102840000021FEF773BC10BD003801400044004079
:1028500000480040004C004000500040024600206C
:1028600012880A4200D00120704730B501F01F02E3
:1028700001240025C1F3421304FA02F2012B0FD008
:10288000022B0FD0838A4FEA11210088134204FAE9
:1028900001F400EA040001D000B10125284630BD52
:1028A0008389F0E7038AEEE710B5C1F3421301F024
:1028B0001F040121A140012B07D0022B07D01430A7
:1028C000002A026805D00A4304E00C30F8E7103013
:1028D000F6E78A43026010BD30B50446008A85B031
:1028E0000D464CF6FF710840E98801432182A18919
:1028F0004EF6F3100140A8882A8910436A890A43DA
:102900001043A081A08A4FF6FF410840A9890143E6
:10291000A1826846FEF72EFC1948844201D1039833
:1029200000E00298A189090400EBC00101EB00104E
:10293000296801D5490000E08900B0FBF1F064226C
:10294000B0FBF2F109010B096FF018056B4300EBC6
:102950008300A3891D044FF0320306D503EBC000AA
:10296000B0FBF2F000F0070005E003EB0010B0FB55
:10297000F2F000F00F000843208105B030BD0000E8
:10298000003801408088C0F308007047C1F3080197
:102990008180704770B500260546741EC82000F07F
:1029A000DDFEFDF7C7FE20B1761C032EF6DB401CD2
:1029B00034D0C82000F0D2FE0026C82000F0CEFEA1
:1029C0002846FDF731FF20B1761C032EF5DB401CB5
:1029D0001AD00025C82000F0C1FEFDF7D7FF00285F
:1029E00011D06D1C032DF5DB0025C82000F0B6FECC
:1029F000FDF7E4FE20B16D1C032DF6DB401C0DD06D
:102A000000F0BAF9002070BD0025C82000F0A6FE35
:102A1000FDF7D4FE10B16D1C032DF6DB204670BD12
:102A200070B500260546741EC82000F097FEFDF71D
:102A300081FE20B1761C032EF6DB401C2DD0C82071
:102A400000F08CFE0026C82000F088FE2846FDF726
:102A500043FF1DA0FDF7E8FE20B1761C032EF2DB3C
:102A6000401C25D00025C82000F078FEFDF78EFF21
:102A7000002811D06D1C032DF5DB0025C82000F0C7
:102A80006DFEFDF79BFE20B16D1C032DF6DB401C97
:102A900018D000F071F9002070BD0025C82000F0AA
:102AA0005DFEFDF78BFE68B16D1C032DF6DB09E0C2
:102AB0000025C82000F052FEFDF780FE10B16D1C0D
:102AC000032DF6DB204670BD3838383838383838B2
:102AD000000000002DE9F047A44C00258246258225
:102AE000E078A34E0F464FF0010941F61F4898B118
:102AF00016E000BFFFF7FAFAA089218A401A80B2D7
:102B00006082012805D1307861280DD0A581258209
:102B1000E570208A401C2082208AA1898842E9D35E
:102B2000E07801283BD03EE084F8039041469520B0
:102B3000FFF7E8FAF4E700BFFFF7D8FAA189208A87
:102B4000081A80B26082022801D170783870608AD9
:102B5000032801D1B0787870608A04280AD005284B
:102B60000BD006280CD007280DD008280ED0092835
:102B70001DD00DE0F078B8700AE03079F87007E009
:102B80007079387104E0B079787101E0F079B8714A
:102B900041469520FFF7B6FA208A401C2082218A00
:102BA000A0898142C8D3E07802282ED031E0307A63
:102BB000F8710220E07041469520FFF7A3FAF2E792
:102BC000FFF794FAA089218A401A80B260820A280D
:102BD00006D00B2808D00C280DD00E281DD00DE0F3
:102BE000707A412803D109E0B07A502806D0A58137
:102BF0002582E57002E0F07A5328F8D1414695200D
:102C0000FFF780FA208A401C2082208AA18988420E
:102C1000D6D3E078032825D029E00320E070414690
:102C20009520FFF76FFAF4E7FFF760FAA189208A91
:102C3000081A80B26082122807D039469520FFF723
:102C400061FA208A401C20820DE049480E3000F0D5
:102C5000E5FE0930E0810420E07039469520FFF759
:102C600051FA04E04746208AA1898842DCD3E07803
:102C700004281BD01FE000BFFFF738FAA189208A83
:102C8000081A80B26082E189C91E814206D10520FE
:102C9000E07039469520FFF735FA0CE0394695206B
:102CA000FFF730FA208A401C208200E04746218A44
:102CB000A0898142E0D3E078052851D0BDE8F087B3
:102CC000FFF714FAA089218A401A80B26082E7894E
:102CD000B91E814207D1F11911F8031C452902D010
:102CE000A5812582E570791E814207D1F11911F87D
:102CF000021C4E2902D0A5812582E570874228D189
:102D0000B8B2304410F8010C442802D0A5812582C5
:102D1000E5704FF480611748FDF71DFA1449A7F1DB
:102D2000090209311348FDF7FDF9E089A0F1090115
:102D3000CAF800100F490844414600F8095C84F8BD
:102D40000290E570A5812582BDE8F0479520FFF748
:102D5000D9B941469520FFF7D5F9208A401C208239
:102D6000208AA1898842ABD3A8E700007800002020
:102D7000320F00203209002070B5084D4FF4004496
:102D800021462846FDF780FF40F6B83000F0E6FC0B
:102D900021462846FDF776FF002070BD000C01405B
:102DA0002DE9F0410E46804600240A4D0DE000BF9B
:102DB00018F8047040212846FFF750FD0028F9D08C
:102DC00039462846FFF7E2FD641CB442F0DB20469A
:102DD000BDE8F0810044004070B50024651EC820A5
:102DE00000F0BCFCFDF7A6FC20B1641C032CF6DB54
:102DF000401C1DD0C82000F0B1FC0024C82000F009
:102E0000ADFCFDF7C3FD002811D0641C032CF5DBDD
:102E10000024C82000F0A2FCFDF7D0FC20B1641C07
:102E2000032CF6DB401C0DD0FFF7A6FF002070BD81
:102E30000024C82000F092FCFDF7C0FC10B1641C17
:102E4000032CF6DB284670BD70B50024651EC82033
:102E500000F084FCFDF76EFC20B1641C032CF6DB53
:102E6000401C0CD00024C82000F078FCFDF7A6FC24
:102E7000002803D0641C032CF5DB284670BD002419
:102E8000C82000F06BFCFDF799FC0028F6D0641C0C
:102E9000032CF5DBF1E700002DE9F041DFF86C8051
:102EA000C7B2C0F307260C46154620214046FDF761
:102EB000E9FEFEF72FF8A020FDF7F2FFFDF790FFE7
:102EC0003046FDF7EDFFFDF78BFF3846FDF7E8FFD5
:102ED000FDF786FF07E02878FDF7E2FFFDF780FFAA
:102EE000641EE4B26D1C002CF5D1FEF733F84AF6EF
:102EF000C870FDF76FFF20214046FDF7C5FEBDE815
:102F0000F0414FF47A70FDF765BF0000000C0140FE
:102F100038B5044600200090224602212020FFF709
:102F2000BBFF6A4602212020FEF76CFB02226946A5
:102F30002046FDF722F9002800D0012038BD1CB53D
:102F40000446002000900190224606211020FFF741
:102F5000A3FF6A4606211020FEF754FB06226946AD
:102F60002046FDF70AF9002800D001201CBD38B525
:102F7000044600200090224601213020FFF78CFFFC
:102F80006A4601213020FEF73DFB012269462046BA
:102F9000FDF7F3F8002800D0012038BD3EB5054606
:102FA00000200C46009001902A460290FFF774FF23
:102FB0006A4621460020FEF725FB22466946284640
:102FC000FDF7DBF8002800D001203EBD7CB50546AA
:102FD000002000900190F82000EBC1042A46062151
:102FE0002046FFF759FF20466A460621FEF70AFBF6
:102FF000062269462846FDF7C0F8002800D00120C7
:103000007CBD13B582B000208DF80000FE2000EBDF
:10301000C100044602AA0121FFF73EFF20466A468E
:103020000121FEF7EFFA0122694602A8FDF7A5F893
:10303000002800D0012004B010BD38B5044600209F
:103040000090224602214020FFF726FF6A46022117
:103050004020FEF7D7FA022269462046FDF78DF898
:10306000002800D0012038BD3EB505460020009064
:10307000019002900C462A465020FFF70DFF6A4649
:1030800021465020FEF7BEFA224669462846FDF743
:1030900074F8002800D001203EBD00002DE9FC5F3F
:1030A0000E008146DDE90C47C6F1000098469346C4
:1030B000824600D40846012503E000BFB0FBFBF0C8
:1030C0006D1C5845FAD2A84500D9454624B1002EBA
:1030D00001DB780700D5641EB80702D5B8F1000FF0
:1030E00010D0F8070ED16CB12046641EA84209D951
:1030F0002021484600F0A2F8D9F80C000028F2DAA6
:10310000BDE8FC9F002E02DA56462D2102E078072A
:1031100007D52B21484600F091F8D9F80C0000287B
:10312000EEDB07F00300022810D1B8F1000F0DD13B
:1031300064B12046641EA84208D93021484600F0F8
:103140007DF8D9F80C000028F2DAD9E7CDE900477C
:1031500043465A463146484600F002F8D0E70000A0
:103160002DE9F84F8246DDE90A4B01269846914643
:103170000D460846374602E0B0FBF9F07F1C484593
:10318000FAD2B84500D947465FEACB701CD1DCB112
:103190005FEA8B7002D5B8F1000F02D020200090BA
:1031A0000AE03020FBE75046009900F047F8DAF8D3
:1031B0000C0000283EDB3CB12046641EB842F2D829
:1031C00002E000BF06FB09F6B5FBF6F1494501D365
:1031D000012100E000214246A8F10108012A01DD99
:1031E000012000E000200143ECD1DFF84C8000BF5B
:1031F000B5FBF6F000FB165518F80010504600F02D
:103200001DF8DAF80C00002803DBB6FBF9F6002EF7
:10321000EED15FEACB700DD0002C0BD02046641E9F
:10322000B84207D92021504600F008F8DAF80C001F
:103230000028F1DABDE8F88F5C43000810B50446B9
:10324000D4E90130421C934205DB23681954A26083
:10325000E068401CE060D4E90102824209D12168A3
:103260002069FEF7C5FAA168884203D04FF0FF300D
:10327000E06010BD0020A06010BD00000FB4084B3E
:1032800010B504A902AA039800F036F8044602A972
:10329000002000F0D2F9204610BC5DF814FB0000BD
:1032A0003B36000802E008C8121F08C1002AFAD104
:1032B00070477047002001E001C1121F002AFBD1B6
:1032C000704700000B49498848434FF0E0214861AE
:1032D00000228A61086940F0010008610869C3079B
:1032E00001D0C003FAD5086920F0010008618A61A5
:1032F00070470000740000202DE9FF4F8BB0884616
:103300000546002606E025280BD0DDE90D12904782
:103310006D1C761C28780028F5D10FB03046BDE82A
:10332000F08F0024A146A2460122AE4900E00443EA
:1033300015F8013F203B02FA03F00842F7D1287844
:103340002A2810D06FF02F022878A0F13001092927
:1033500015D809EB890102EB410144F0020400EBAE
:1033600001096D1CF0E758F8041B5FEA010903D559
:1033700044F40054C9F1000944F002046D1C28789B
:103380002E2817D115F8010F44F004042A280ED076
:103390006FF02F022878A0F1300109290AD80AEB32
:1033A0008A0102EB410100EB010A6D1CF2E758F8BB
:1033B00004AB6D1C28786C280FD006DC4C2817D085
:1033C00068280DD06A2814D104E0742810D07A2817
:1033D0000FD10DE044F400140AE044F4801401E03D
:1033E00044F440146978814202D104F580146D1CC4
:1033F0006D1C2878692865D006DC00288DD06328EC
:1034000027D0642806D15DE06E2808D073282AD022
:10341000752877D0DDE90D129047761CE0E0C4F303
:103420000250022809D003280DD0D8F80010042833
:103430000DD00E6008F10408D2E0D8F80010F217A1
:10344000C1E90062F6E7D8F800100E80F2E70E70CE
:10345000F0E718F8041B8DF8001000208DF801002B
:10346000EB46012003E058F804BB4FF0FF30610742
:103470004FF0000701D40AE07F1C57450DDA874260
:10348000FADB1BF807100029F6D106E07F1C874203
:10349000FCDB1BF807100029F8D1DDE90D23A9EBAF
:1034A00007008146214600F0B1F83044C61904E017
:1034B000DDE90D121BF8010B90477F1EF8D2214663
:1034C000484688E058F8040BC4F302514FF00A0B49
:1034D000032900D100B2042900D140B2002802DA49
:1034E00040422D2102E0210505D52B218DF8241025
:1034F000012104E006E0E10710D02021F6E708AF43
:10350000089113E058F8040BC4F302514FF00A0B72
:10351000032900D180B2042900D1C0B20021EEE716
:103520005946FCF746FE303107F8011D0028F7D157
:10353000ADEB070000F1200B600702D524F48034C6
:1035400001E04FF0010ADA4502DDAAEB0B0000E0D2
:103550000020824600EB0B0108980144A9EB010012
:103560000A90E00306D4DDE90D2321460A9800F015
:103570004DF806444FF0000908E009A911F80900C8
:10358000DDE90D12904709F10109761C089989457A
:10359000F3DBE0030CD5DDE90D2321460A9800F0AA
:1035A00035F8064404E0DDE90D1230209047761C22
:1035B000BAF10001AAF1010AF5DC05E0DDE90D121E
:1035C00017F8010B9047761CBBF10001ABF1010B22
:1035D000F4DC0A982146DDE90D2300F005F80644E5
:1035E0006D1C97E6092801002DE9F04104460025ED
:1035F0001E461746880404D405E039462020B0470B
:103600006D1C641EF9D52846BDE8F0812DE9F04116
:10361000044600251E469046C80301D5302700E029
:103620002027880404D505E041463846B0476D1C84
:10363000641EF9D52846BDE8F0810A68531C0B606A
:10364000107070472DE9F04186B000200590C81732
:10365000174601EB1060C0F307220846C3B20D46BF
:103660008DF814208DF8153017A10020FEF70AF907
:1036700005A8FFF7E2FC002420E000BF04EB4408AB
:1036800007EB4806611C3046FFF7A0FC611C0020D8
:10369000FFF7B7FCB0780DF1040C73793279F1784B
:1036A0008CE80F007078009017F81830621C0CA19D
:1036B0000020FEF7E7F8641C642C01DAAC42DDDB85
:1036C00006B00020BDE8F081313131313131313186
:1036D000313131313131312025782025780A00000F
:1036E0006164645F696E7665727465722075696481
:1036F00025643A20253032782530327825303278EA
:1037000025303278253032782530327820200A0072
:1037100010B5FEF7EBFC02480021C170818110BD9D
:103720007800002010B50420FEF726FC084809495F
:103730000068B0FBF1F0C1B2074801EB4102017033
:10374000C2EBC1114FF6FF7202EAC101418010BD08
:103750005400002040420F007400002070B54FF468
:10376000E9750446A84203DABDE87040FFF7AABD38
:103770004FF4C8763046FFF7A5FDA4F5C874AC42F7
:10378000F8DAA0B2F0E700000B49097848434FF09F
:10379000E021486100228A61086940F00100086167
:1037A0000869C30701D0C003FAD5086920F00100F9
:1037B00008618A61704700007400002010B5094854
:1037C000FDF760FF0849074800F0B4FC0748FDF723
:1037D0004DFF064B044A06A10020FEF753F80020D7
:1037E00010BD000000000020AC01002008000020F7
:1037F000454355204944203A25732020202020208D
:1038000020205369676E616C5F4368616E6E656C02
:103810003A2020202573202020200A00F0B587B010
:10382000002606968DF81860054604468DF8196046
:103830003746FF2206212046FCF786FCE6802681DB
:10384000A6720E347F1C642FF3DB06A8FDF74FFF32
:103850009DF819009DF818101D4C00EB01206428FC
:10386000206001DD266000E008B9FDF70BFC19A11E
:1038700000202268FEF706F8002722E0791C28467F
:10388000FDF717FF791C05F10B00FDF721FFE87A22
:10389000012800D0EE72E8780DF1080CEB7A6A7915
:1038A00029798CE80F00A9786878CDE900012B7898
:1038B0007A1C0DA10020FDF7E5FF0E357F1C642F5B
:1038C00002DA20688742D9DB07B00020F0BD000093
:1038D000100000207661696C644E756D203A256495
:1038E00020202020200A000075696425643A2025E4
:1038F00030327825303278253032782530327825CC
:103900003032782530327820202062696E643A2582
:10391000640A0000FFF706FFFDF7BCFBFDF736FB6E
:10392000FDF78CFBFDF7C2F8FDF774FBFDF760F8BF
:103930004FF46144204600F035FC204600F0A0FC26
:1039400041F61F4141F28730FEF778FB22A10020AB
:10395000FDF798FFFFF732FF2248FFF75FFF224E87
:10396000224FDFF88C80DFF88C90DFF88CA00024E9
:103970002249A1F10800FFF7ADF83078012803D102
:103980001E4800F009FA34701C48001FFEF7E0FCE6
:103990003878012807D11A4A1AA10020FDF772FFD2
:1039A00000F0DEF83C7098F800004546012802D18E
:1039B00000F096F82C7099F800004D46012802D1CD
:1039C00000F08EFB2C709AF8000055460128CFD1EC
:1039D00000F03CF82C70CBE7696E6974204F4B20E7
:1039E0000A000000BA0100207A00002078000020C0
:1039F00068000020290100202A0100202C0000205E
:103A0000320700205553415254315F526563765F4F
:103A10004576656E742025730A0000000178C2782F
:103A2000303901EB4103C3EBC11102EBC102417814
:103A300080786423594300EB800001EB4000104480
:103A4000A0F5A050D03880B270470000FEB51E4EE1
:103A50003068002836DD1E4C1E4D1C4A2068C0EB25
:103A6000C00005EB40018B1D009301F10800CDE97A
:103A70000102821C184B1948FDF7A0FCD0B9206840
:103A8000C0EBC00005EB4001C87A012812D000232A
:103A90001A461248FDF7B6FB01280BD12168491CD4
:103AA000FFF7AFFA30B921680120C1EBC10105EB86
:103AB0004101C8722068401C20603168884201DBE7
:103AC00000202060FEBD0000100000200F0000203C
:103AD00014000020BA0100200E0000200000002089
:103AE00010B500240CA12046FDF7CCFE41F2883031
:103AF000FFF734FE0F48FEF793FF18B1641C032C48
:103B0000F8DB03E008210CA0FFF7AEFABDE8104097
:103B10000CA10020FDF7B6BE4B45595F466F726D94
:103B20006174574946495F4576656E7420537461E8
:103B300072740A00AC010020383838383838383808
:103B4000000000004B45595F466F726D6174574924
:103B500046495F4576656E7420456E640A00000034
:103B600070B58AB0002407940394049405940694D5
:103B70000294704A704971480894FDF719FE704923
:103B80000028086016D16B486C4D6E4E0068062800
:103B900010D2DFE800F00F036C86A2BF674B012252
:103BA00069A10020FDF76EFE30681A2804D00120BC
:103BB000FEF752FD0AB070BD55F80B0F049068680F
:103BC0000590A86806909DF811009DF810109DF8CA
:103BD000142000EB0110A0F54C708DF808009DF842
:103BE00013109DF8120001EB0010A0F54C708DF839
:103BF00009009DF8150000EB0111A1F54C718DF83D
:103C00000A109DF8171001EB0211A1F54C718DF807
:103C10000B109DF8191001EB0010A0F54C708DF8F9
:103C20000C009DF81B009DF81A1000EB0110A0F588
:103C30004C708DF80D0002A8FFF781F910F0FF001D
:103C400001D0FEF709FD8DF81C4041F28830FFF7E6
:103C500085FD04A8FEF7E4FEC4B2082140A0FFF7EA
:103C600003FA2046FEF7F8FCFFF7A8FDA2E7334B66
:103C7000022235A10020FDF705FE02A8FDF702FD96
:103C800004A902A800F056FA8DF81C409DF808001F
:103C900004A9FF2803D00020FEF794FC8AE7012046
:103CA000FAE7264B032228A10020FDF7EBFD287B35
:103CB000E97A00EB0110A0F54C70C4B22046FDF784
:103CC0003BF8C5B22B46224628A10020FDF7DAFDBD
:103CD00029462046FEF722FD6CE7184B04221AA164
:103CE0000020FDF7CFFD23A10020FDF7CBFD3068BC
:103CF0000621113890FBF1F1104A26480E32FFF7E9
:103D0000A1FC0020FEF7D8FC2248FFF787FDFDF755
:103D1000B1F94FE7094B05220BA10020FDF7B2FDD9
:103D200008A8FFF78AF9C0B2FEF71CFC1948FFF794
:103D300075FD3FE7380000203400002032070020E6
:103D40003C00002028000020574946495F52656327
:103D5000765F4576656E7425642025730A00000041
:103D600038383838383838380000000025642025C5
:103D7000640A0000434F4D4D414E445F5345544E3D
:103D80004554574F524B2020204D617070696E672B
:103D90000A000000BA0100202DE9F0418046D0B0B1
:103DA0008D4A8E498E48FDF7E3FC8E490028086055
:103DB00024D189488A4C8C4F006804F10B0604F129
:103DC0001A0507281AD2DFE800F019041C3E6F9B81
:103DD000E700834B012285A10020FDF753FD012060
:103DE000FDF702FC387087A3052288A18DE80E003C
:103DF000034687A287494046FCF730FA50B0BDE839
:103E0000F081774B022279A10020FDF73BFD0C22C7
:103E100080493046FCF7B1F960B17FA10020FDF781
:103E200031FD0023854A012150B04046BDE8F041F4
:103E3000FCF772BB82A10020FDF724FD88487F4A71
:103E400000210368F0E7664B032268A10020FDF71C
:103E500019FD0C226F493046FCF78FF950B1012152
:103E60004046FCF7F1FA50B07EA1BDE8F0410020D9
:103E7000FDF708BD84A10020FDF704FD8A48062156
:103E80002A4600681D3890FBF1F16C48FFF7DAFB19
:103E900000214046FCF7D8FA6848FFF7BFFC50B055
:103EA000BDE8F041FDF7E6B84D4B04224FA10020DC
:103EB000FDF7E8FC0C2257493046FCF75EF940B1AB
:103EC00050B04046BDE8F04100231A460121FCF7FE
:103ED00059BA764D608B28800120FDF785FB38703C
:103EE00003462A4600214046FCF74CFA70482988D0
:103EF0000180A978817050B0BDE8F041FFF708B8A3
:103F0000374B052239A10020FDF7BCFC0C224149AA
:103F10003046FCF732F930B150B04046BDE8F041D0
:103F20000121FCF7C5BA64211BA8FCF714F9642130
:103F300002A8FCF710F9642134A8FCF70CF94EAB89
:103F400002AA4DA91BA80095FDF7E8FB02A94E980F
:103F5000CDE900011BAB57A100204D9AFDF792FC63
:103F6000642134A8FDF7CFFB1BA934A84D9AFCF7B8
:103F700004F920B102214046FCF79AFA3EE70021FD
:103F80004046FCF795FA02A8FEF704FD4E98C1B230
:103F900002A8FFF769F831E7114B062213A10020B0
:103FA000FDF770FC0C221B493046FCF7E6F830B1F7
:103FB00050B04046BDE8F0410121FCF7AFB9474998
:103FC000E07D087000214046FCF7A8F950B0434856
:103FD000BDE8F041FEF7CBBF1C0000201800002018
:103FE00032090020200000200700002057494649E0
:103FF0005F526563765F4576656E74256420257330
:104000000A0000005253312E300000003030000012
:1040100031303100AC010020434F4D4D414E445FE3
:1040200053595354454D494E464F2020204E6F74EE
:10403000204D617070696E6700000000BA010020B9
:10404000434F4D4D414E445F53595354454D494E96
:10405000464F20204D617070696E670A00000000B5
:1040600010000020434F4D4D414E445F5345544E88
:104070004554574F524B2020204E6F74204D617095
:1040800070696E6700000000434F4D4D414E445F24
:104090005345544E4554574F524B2020204D61708C
:1040A00070696E6700000000240000200B000020F3
:1040B00008000020434F4D4D414E445F5345545737
:1040C00049464950415353574F52442025642025B7
:1040D000732025642025730A000000000E000020D4
:1040E00010B5002407A12046FDF7CCFBFEF774FEB7
:1040F00010B1641C032CF9DBBDE8104007A10020BF
:10410000FDF7C0BB70726F636573735F57494649B3
:104110005F5253542053746172740A0070726F635B
:104120006573735F574946495F52535420456E6427
:104130000A0000000378302202EB13130B7003789F
:1041400003F00F0330334B70437802EB13138B7083
:10415000437803F00F033033CB70837802EB1313F3
:104160000B71837803F00F0330334B71C37802EB8C
:1041700013138B71C37803F00F033033CB710379C2
:1041800002EB13130B72037903F00F0330334B72FE
:10419000437902EB13128A72407900F00F0030303D
:1041A000C8727047F0B50446012187B08803FCF758
:1041B000C9FF01210420FCF7C5FF2E4E3046FEF753
:1041C00013FB7015ADF8000003258DF80250182080
:1041D000294F8DF8030069463846FCF7FBFC301583
:1041E000ADF8000004208DF8030069463846FCF75E
:1041F000F1FC01940024ADF80C400C20ADF808400F
:10420000ADF80E00ADF80A40ADF8104001A93046F7
:10421000FEF762FB25208DF814008DF81540022072
:104220008DF8160001208DF8170005A8FCF736FF61
:10423000012240F225513046FEF736FB012130467F
:10424000FEF7C8FA01210820FCF77CFF10208DF84A
:1042500003008DF80250C402084DADF800406946D5
:104260002846FCF7B7FC21462846FCF70DFD07B0B1
:10427000F0BD00000038014000080140000C014082
:104280002DE9F0418046012186B04804FCF742FF49
:1042900001210420FCF756FF2D4E3046FEF7A4FA0C
:1042A0000424ADF8004003258DF802501820294F52
:1042B0008DF8030069463846FCF78CFC0820ADF801
:1042C00000008DF8034069463846FCF783FC002463
:1042D000ADF80C400C20ADF80840ADF80E00CDF85C
:1042E0000480ADF80A40ADF8104001A93046FEF751
:1042F000F3FA26208DF814008DF815408DF816502D
:1043000001208DF8170005A8FCF7C8FE012240F235
:1043100025513046FEF7C8FA01213046FEF75AFA19
:1043200001210820FCF70EFF10208DF803008DF806
:104330000250C402084DADF8004069462846FCF71B
:1043400049FC21462846FCF79FFC06B0BDE8F081F9
:104350000044004000080140000C0140303132337D
:104360003435363738394142434445465465726DD9
:10437000696E616C00000000984300080000002096
:10438000AC0100000402000858440008AC01002001
:10439000FC1D0000B4320008014045020406082D4F
:1043A0000102030404150607080984512502791443
:1043B000290CB9390114136932181766D1690C0A2E
:1043C0009F392929C0501453081F90D3641033D14A
:1043D00035131A4B13180D280A53080F70A6C9106D
:1043E00020A112131A5A1317140553100750200F47
:1043F00066EC1DF0801408910302D0AEE03516F48F
:1044000010E24220F80A814271CE1C425B1C1C461D
:10441000113AB4901312045AAA8A4DD42D011FB335
:10442000212360FF161F10504D06130F70D58A18F8
:104430003F7F880B53454747455220525454CB2960
:1044400004136C431408321312200226043930126C
:084450001703272010000000F3
:04000005080000ED02
:00000001FF
