:020000040800F2
:100000004816002001010008090100080B01000842
:100010000D0100080F010008110100080000000098
:1000200000000000000000000000000013010008B4
:100030001501000800000000170100081901000860
:100040001B0100081B0100081B0100081B01000820
:100050001B0100081B0100081B0100081B01000810
:100060001B0100081B0100081B0100081B01000800
:100070001B0100081B0100081B0100081B010008F0
:100080001B0100081B0100081B0100081B010008E0
:100090001B0100081B0100081B010008D90700080C
:1000A0001B0100081B0100081B0100081B010008C0
:1000B000791A0008291B0008000000001B01000835
:1000C0001B01000800000000000000001B010008E8
:1000D000000000001B010008D51C00080000000003
:1000E0001B0100081B0100081B010008DFF80CD0F1
:1000F00000F076F8004800474D2B00084816002015
:100100000648804706480047FEE7FEE7FEE7FEE7B1
:10011000FEE7FEE7FEE7FEE7FEE7FEE7291A000836
:10012000ED00000840EA01039B0703D009E008C97D
:10013000121F08C0042AFAD203E011F8013B00F8AC
:10014000013B521EF9D27047D2B201E000F8012BF8
:10015000491EFBD270470022F6E710B513460A4647
:1001600004461946FFF7F0FF204610BD421C10F868
:10017000011B0029FBD1801A704730B504460020CE
:10018000034600E05B1C934203D2E05CCD5C401B65
:10019000F8D030BD30B505460020034600E05B1CBA
:1001A000934205D2EC5CC85C201A01D1002CF6D138
:1001B00030BD30B50B46014600202022012409E065
:1001C00021FA02F59D4205D303FA02F5491B04FA10
:1001D00002F52844151EA2F10102F1DC30BD000039
:1001E000064C074D06E0E06840F0010394E8070084
:1001F00098471034AC42F6D3FFF77CFFC4300008B8
:10020000E430000870B58C1810F8015B15F0070396
:1002100001D110F8013B2A1106D110F8012B03E09F
:1002200010F8016B01F8016B5B1EF9D12B0705D4A7
:100230000023521E0DD401F8013BFAE710F8013BF0
:10024000CB1A921C03E013F8015B01F8015B521E0C
:10025000F9D5A142D8D3002070BD00002DE9F041AE
:100260009EB00746DDE924481D461646642105A8D0
:10027000FFF771FF6520CDE90254CDE9000604F1D6
:1002800025023B46CDF81080144608A105A802F0CF
:1002900049F905AA0EA1002001F050F8214605A851
:1002A00001F08EFF1EB0BDE8F081000041505331D7
:1002B00031253034643031257325303364253033B3
:1002C000642573253033642573454E4400000000D7
:1002D0004150505F526573706F6E73655F4261731A
:1002E00065496E666F2025730A00000070B586B000
:1002F0000E460446154618216846FFF72CFF012CD0
:100300000BD02B46324608A1684602F00BF91521A6
:10031000684601F055FF06B070BD09A1684602F0BD
:1003200001F90D21F4E700004150533131303032F2
:100330003130343030257325303364454E4400006D
:1003400041505331313030313330343031000000DE
:1003500010B586B0044614216846FFF7FCFE22461D
:1003600004A1684602F0DEF80D21684601F028FF7E
:1003700006B010BD41505331313030313330332568
:100380003032640010B586B0044614216846FFF789
:10039000E2FE224604A1684602F0C4F80D21684638
:1003A00001F00EFF06B010BD4150533131303031F5
:1003B00033303525303264002DE9F041ADF58C6DD8
:1003C0000C468046174640F25C416846FFF7C3FE84
:1003D00000263546B8F1010F05D029A1684602F084
:1003E000A1F8694618E02AA1684602F09BF83FE0B0
:1003F00005EB450000EBC5000844226840F80D2FCE
:10040000A2888280E288C28022890281A27A6D1C41
:10041000761C8272642E01DABE42E9DB002D27DDF4
:1004200005EB450000EBC5014FF47A70103191FBEC
:10043000F0F030308DF80500642091FBF0F20A20D6
:1004400092FBF0F300FB132230328DF8062091FB73
:10045000F0F292FBF0F300FB132230328DF807200C
:1004600091FBF0F200FB121030308DF8080000E034
:100470000D21684601F0A4FE0DF58C6DBDE8F081FC
:1004800041505331313030313330323030000000A0
:10049000415053313130303133303230310000008F
:1004A00070B502F087FA032116A001F089FE322010
:1004B00002F0A6FA144C4FF0FF356088B8B1012263
:1004C00012A11348FFF759FE88B902F073FA01210F
:1004D0000EA001F075FE322002F092FA6088032827
:1004E00005D303220BA10A48FFF747FE08B12846AF
:1004F00070BD09A1002000F021FF02F05BFA00208E
:1005000070BD00002B2B2B0050000020610000006C
:10051000320A00202B6F6B004154203A612B6F6B25
:100520000A00000010B502F045FA08210EA001F003
:1005300047FE4FF4967002F063FA0E484FF0FF3416
:1005400040880A2805D303220BA10C48FFF715FEAB
:1005500008B1204610BD0AA1002000F0EFFE02F015
:1005600029FA002010BD000041542B454E544D0A7D
:1005700000000000500000202B6F6B003B0A0020A1
:1005800041542B454E544D203A2B6F6B0A0000000E
:1005900010B59AB0044664216846FFF7DCFD02F00E
:1005A00009FA224617A1684601F0BCFF6A461CA161
:1005B000002000F0C3FE6846FFF7D8FD411C6846E6
:1005C00001F0FEFD4FF47A7002F01AFA15484FF070
:1005D000FF3440880A280AD36846FFF7C7FD12494E
:1005E0000322084411A1401CFFF7C7FD10B12046AB
:1005F0001AB010BD0EA1002000F0A0FE02F0DAF942
:100600000020F5E741542B57414B45593D57504188
:100610003250534B2C4145532C25730A00000000E7
:100620002573000050000020320A00202B6F6B0061
:1006300041542B57414B4559203A2B6F6B0A000010
:1006400010B59AB064216846FFF785FD02F0B2F953
:1006500017A1684601F066FF6A461AA1002000F063
:100660006DFE6846FFF782FD411C684601F0A8FD5B
:100670004FF47A7002F0C4F913484FF0FF34408809
:100680000A280AD36846FFF771FD1049032208447F
:100690000FA1401CFFF771FD10B120461AB010BD2C
:1006A0000CA1002000F04AFE02F084F90020F5E7DA
:1006B00041542B57414B45593D4F50454E2C4E4FC1
:1006C0004E450A002573000050000020320A002029
:1006D0002B6F6B0041542B57414B455920436C65A0
:1006E0006172203A2B6F6B0A0000000010B502F017
:1006F00061F905210EA001F063FD4FF4967002F040
:100700007FF90D484FF0FF344088062805D30322B7
:100710000AA10B48FFF731FD08B1204610BD09A121
:10072000002000F00BFE02F045F9002010BD000093
:1007300041542B5A0A000000500000202B6F6B0020
:10074000380A002041542B5A203A2B6F6B0A0000C4
:1007500010B5662001F060F800F03F0040F0400165
:10076000BDE81040662001F0F5B810B500F0AAFF12
:1007700000F09EFF022000F02BFF00F0F3FE0020AF
:1007800000F01FF800F012F8222000F0A7F8062170
:100790000A2000F0A8FE2221652001F0DBF8FFF717
:1007A000D7FFBDE81040102000F012BF10B56C203C
:1007B00001F032F840F00301BDE810406E2001F076
:1007C000C9B810B507216A2001F0C4F83F21BDE87F
:1007D00010406B2001F0BEB810B54FF400742146F4
:1007E000094800F0FAF8012809D1084A53685B1C4F
:1007F0005360012B03DD0020506001201070204663
:10080000BDE8104000F02CB8000C0140440000206E
:100810003EB500F063FA0121084600F0F7FA09211D
:10082000012000F075F84FF40070002400908DF85E
:10083000044008208DF8050001258DF80650684613
:1008400000F014F817208DF808008DF809400320F7
:100850008DF80A008DF80B5002A800F083FA3EBD17
:1008600001490860704700001404014030B51A497E
:100870008379026853B30B6893430B600A1D1368B6
:100880000468A343136002790A441368046823438D
:100890001360114A083213680468A3431360131DE0
:1008A0001C680568AC431C604479102C05D02144B9
:1008B0000A68006802430A6030BD11680468214379
:1008C0001160196800680143196030BD007908445F
:1008D00001689143016030BD000401400146682079
:1008E00001F038B810B5692000F096FF20F0010142
:1008F000BDE81040692001F02DB810B5692000F066
:100900008BFF40F00101BDE81040692001F022B8E2
:1009100010B58A0721F003040649130F21440F2262
:100920008C689A4094438C608A68984002438A603D
:1009300010BD000000000140F0B5CA78002502F0AB
:100940000F03D20601D58A7813430A784FF00F0EB1
:1009500012F0FF0F4FF001021CD004680F8802FA5A
:1009600005F63740B74211D14FEA850C0EFA0CF765
:1009700024EA070703FA0CF43C43CF78282F02D06F
:10098000482F02D002E0466100E006616D1C082D90
:10099000E4D304600C88FF2C1ED944685FF0000685
:1009A00006F1080702FA07F50F882F40AF420FD172
:1009B0004FEA860C0EFA0CF7BC4303FA0CF73C43E3
:1009C000CF78282F00D14561CF78482F00D105611D
:1009D000761C082EE4D34460F0BD024600209268E5
:1009E0000A4200D0012070474161704701617047A1
:1009F0002DE9F0411E4D06460024287810B101284B
:100A000007D016E0082000F0E3FDFFF76BFF0120A0
:100A10002870DFF860804FF4006739464046FFF7E2
:100A2000DCFF01280BD0192001F0EAFF641CC82C60
:100A3000F3DB2878022804D00020BDE8F0810220F2
:100A4000287000F0A9FE0746002404E000F0A4FE90
:100A50003055641CE4B2BC42F8D3002000F055FBD2
:100A60000020FFF7AEFE002028703846E5E70000C2
:100A70005A000020000C014010B5612000F0CCFEAF
:100A800000F00F0010BD000010B50E4C40212046B4
:100A9000FFF7AAFF80212046FFF7A6FF802120460E
:100AA000FFF7A2FF0F2000F00FF840212046FFF7CC
:100AB0009DFF0F2000F008F82046BDE810404021BF
:100AC000FFF792BF000C0140002100E0491C814269
:100AD000FCD3704770B5124D002440212846FFF723
:100AE00085FF0F20FFF7F0FF80212846FFF77EFFEC
:100AF00001E0641CE4B280212846FFF76EFFC007C6
:100B000001D0FF2CF5D380212846FFF76DFF40214F
:100B10002846FFF769FFBDE870400F20FFF7D4BFFC
:100B2000000C014070B51A4E002540213046FFF7F9
:100B30005BFF0F20FFF7C8FF80213046FFF756FF0D
:100B40000F20FFF7C1FF80213046FFF74FFF002441
:100B500040213046FFF74AFF0F20FFF7B5FF802105
:100B60003046FFF73AFF00F001020F20FFF7ACFF1D
:100B700042EA4500C5B240213046FFF735FF0F205D
:100B8000FFF7A2FF641CE4B2082CE1D3284670BD35
:100B9000000C014070B51B4E054680213046FFF722
:100BA00023FF002440213046FFF71EFF0F20FFF7F0
:100BB0008BFFE8094FF08001304602D0FFF716FFA7
:100BC00001E0FFF711FF0F20FFF77EFF40213046C5
:100BD000FFF70CFF0F20FFF777FF0F20FFF774FFE1
:100BE0006806050E641C082CDCD340213046FFF754
:100BF000FBFE80213046FFF7F9FEBDE870400F2074
:100C0000FFF762BF000C014010B50E4C802120465A
:100C1000FFF7EAFE80212046FFF7E8FE402120464C
:100C2000FFF7E4FE0F20FFF74FFF80212046FFF77C
:100C3000DBFE0F20FFF748FF2046BDE810404021B3
:100C4000FFF7D2BE000C014010B50C4C80212046AD
:100C5000FFF7CAFE80212046FFF7C6FE0F20FFF7F0
:100C600033FF40212046FFF7C1FE0F20FFF72CFF86
:100C70002046BDE810408021FFF7B8BE000C0140BF
:100C8000F8B50121082000F0C1F84020ADF80000BF
:100C90001025114E8DF8035003248DF8024069464B
:100CA0003046FFF749FE8020ADF8000014208DF893
:100CB00003008DF8024069463046FFF73DFE2020D4
:100CC000ADF800008DF803508DF8024069463046BB
:100CD000FFF732FEF8BD0000000C014008B501210D
:100CE000082000F093F84FF40070ADF800004820A1
:100CF0008DF8030069460248FFF71EFE08BD00009C
:100D0000000C014038B50121042000F07FF81020CC
:100D10008DF8030003208DF80200074D4FF40064A6
:100D2000ADF8004069462846FFF706FE21462846F2
:100D3000FFF75CFE38BD0000000801404FF4006181
:100D40000148FFF753BE0000000801404FF4006166
:100D50000148FFF749BE0000000801404FF4A060C1
:100D600000F032B870B50F23C47801780122F4B1D5
:100D7000144C2468457804F4E064C4F5E064240A63
:100D8000C4F10406E3408478B5401C402C4301F1D3
:100D9000E021230181F80034007800F01F018A402F
:100DA0004009800000F1E020C0F8002170BD01F092
:100DB0001F0082404809800000F1E020C0F8802137
:100DC00070BD00000CED00E00249084302490860D4
:100DD000704700000000FA050CED00E0044A00290D
:100DE000D16901D0014300E08143D1617047000027
:100DF00000100240044A0029116901D0014300E0BB
:100E0000814311617047000000100240044A00292C
:100E1000916901D0014300E0814391617047000076
:100E200000100240044A0029D16801D0014300E0CB
:100E30008143D160704700000010024030B51F4967
:100E40004A6812F00C031E4A03D0042B01D0082B71
:100E500021D002604A680F231A4C03EA1212A35CE5
:100E60000268DA4042604B68072505EA1323E35C19
:100E700022FA03F383604B6805EAD323E35CDA408C
:100E8000C2604968032303EA9131231F595CB2FB16
:100E9000F1F1016130BD4A684B6802F470124FF005
:100EA000020413F4803F04EB924202D04B689B0390
:100EB00001D5054B00E0024B5A43CAE7001002403F
:100EC00000127A001F00002000093D002DE9F041CA
:100ED00094B00D460646984617460024202102A8E5
:100EE000FFF739F920210AA8FFF735F9FB208DF823
:100EF00008008DF8090015218DF80A1008208DF8DA
:100F00000B0030788DF80C0070788DF80D00B078FB
:100F10008DF80E00F0788DF80F0030798DF8100004
:100F200070798DF8110028788DF8120068788DF8A6
:100F30001300A8788DF81400E8788DF8150028794A
:100F40008DF8160068798DF8170000208DF818705C
:100F50008DF819808DF81A0004228DF81B0002AD5F
:100F6000091D079002E0A85C521C04449142FADC7F
:100F7000E01704EB1060010A8DF8201020468DF870
:100F80002100FE208DF822008DF8230000240AAEF7
:100F90001C2102A800F0BEFA142001F031FD0AA8BD
:100FA000FFF726FD1C2809D19DF82B00D82805D174
:100FB0001422311D281DFFF7EDF848B1142001F06F
:100FC0001FFD641C032CE3DB002014B0BDE8F0819E
:100FD0000120FAE72DE9F04F93B00D46DDE91CA999
:100FE00006461F4690460024202102A8DDF878B06E
:100FF000FFF7B1F820210AA8FFF7ADF8FB208DF824
:1010000008008DF8090015208DF80A0000218DF8E0
:101010000B1032788DF80C2072788DF80D20B27894
:101020008DF80E20F2788DF80F2032798DF810208F
:1010300072798DF811202A788DF812206A788DF84F
:101040001320AA788DF81420EA788DF815202A79D3
:101050008DF816206A790691079104218DF81720E2
:1010600002AD001D02E06A5C491C14448842FADCAF
:10107000E01704EB1060010A8DF8201020468DF86F
:101080002100FE208DF822008DF8230000240AAEF6
:101090001C2102A800F03EFA142001F0B1FC0AA8BD
:1010A000FFF7A6FC1C2809D19DF82B00D02805D1FC
:1010B0000C22311D281DFFF76DF848B1142001F0F6
:1010C0009FFC641C032CE3DB002013B0BDE8F08F11
:1010D0009DF8181088F800109DF8190038709DF8D8
:1010E0001B009DF81A1000EB0120AAF800009DF8E3
:1010F0001D009DF81C1000EB0120A9F800009DF8D0
:101100001E108BF800100120DFE710B530B1702001
:1011100000F082FBC0F18000C0B210BDBDE81040FD
:101120006F2000F079BB2DE9F041C7B2C0F307266C
:1011300015460C46FFF768FDA020FFF72BFDFFF7D3
:10114000C9FC3046FFF726FDFFF7C4FC3846FFF721
:1011500021FDFFF7BFFCFFF757FDA120FFF71AFDA8
:10116000FFF7B8FC09E0FFF7DDFC2870012C01D97E
:10117000FFF78AFC641EE4B26D1C002CF3D1FFF76C
:1011800063FDBDE8F0414FF47A70FFF79DBC10B5E8
:1011900030B1024602216020FFF7C5FF002010BDDC
:1011A0004FF0FF3010BD10B530B1024606212020AF
:1011B000FFF7B9FF002010BD4FF0FF3010BD10B594
:1011C00060B101EB41014FF4CD7202EB41030246E5
:1011D00006211846FFF7A7FF002010BD4FF0FF3093
:1011E00010BD10B538B1024602214FF48870FFF7E8
:1011F0009AFF002010BD4FF0FF3010BD10B530B188
:1012000002464FF49070FFF78EFF002010BD4FF0A4
:10121000FF3010BD2DE9F0410D46069C90466FF061
:101220002F0621786278303901EB810106EB41010C
:101230000A441F46A11C2A60FEF774FF2868E11CBF
:10124000425CA11C241D405C303800EB800006EBA2
:10125000400002443A60286801194046FEF762FFE8
:101260000020BDE8F081000070B515460E4604462A
:1012700003220CA1FEF78EFF10B14FF0FF3070BDBE
:10128000601D01F047FE3060607AA17A303800EBD3
:1012900080006FF02F0202EB40000844286000201D
:1012A00070BD0000415053002DE9F041884600EB2D
:1012B00040012148164600EBC104E16A01F0030039
:1012C00002280BD0A06A626A801A401E01D5226AE9
:1012D0001044864202DD89072BD006464EB3002714
:1012E000A06A616A451A6D1E01D5206A0544D4E9D9
:1012F0000801411AA94201DC616A451AB54200DBC6
:101300003546616AE0692A4608444146FEF70AFF0D
:10131000606A2F44A844761B28446062606A216A90
:10132000884201D100206062002ED9D13846BDE844
:10133000F0810020FBE70000FC0000200FB408B59E
:1013400004A900916A46039900F004F801B05DF821
:1013500014FB00002DE9F04198B0064607A8029062
:1013600040200025CDE90305CDE9055690460C4601
:1013700014F8011B002971D0252908D002A801F01A
:10138000B1F805980028F3DA18B0BDE8F081002024
:10139000217823291BD02B2916D02D290ED03029B6
:1013A0000FD000222178A1F130030A2B13D202EBD7
:1013B000820201EB4202303A641CF3E740F0010084
:1013C00007E040F0020004E040F0040001E040F0DB
:1013D0000800641CDCE70023CFB22E2F0CD100BF25
:1013E00014F8011FA1F130070A2F05D203EB830384
:1013F00001EB4303303BF3E76C290DD068290BD098
:10140000702954D00BDC252916D0582931D06329F6
:101410000CD0642913D114E014F8011BECE77329F4
:1014200034D075291BD0782909D122E0D8F80000E2
:10143000011DC8F80010017802A801F053F8641CDF
:101440009FE7D8F800100F1DC8F800700968CDE9B3
:1014500000200A2202A800F075FFF0E733E0D8F878
:1014600000100F1DC8F800700968CDE900200A229D
:1014700008E0D8F800100F1DC8F800700968CDE921
:101480000020102202A800F0BFFFD8E7D8F8000023
:10149000011DC8F80010076817F8011B0029CED0FD
:1014A00002A801F01FF805980028F5DAC7E7D8F878
:1014B0000000011DC8F8001001680820CDE90005F2
:1014C00003461022DEE7059800287FF75DAF0498F9
:1014D00020B1024607A93046FFF7E6FEDDE9040128
:1014E0000844059050E770B505460C46662000F0AC
:1014F00093F900F0E0012943662000F02BFA672001
:1015000000F08AF900F0E0012143BDE87040672057
:1015100000F020BA70B506460D46084600F0AEF859
:10152000402000F055F800BFFFF7A6FA0628FBD1CF
:10153000FFF7E3F9002404E0305D00F0CBF9641C10
:10154000E4B2AC42F8D34FF4FA7001F059FA10202B
:1015500000F03EF8024900200870012070BD000034
:101560005A00002070B5194C6178042919D204F191
:101570005B0000F12505012904D002290AD00329C6
:101580001BD00EE011491122891CFEF7CBFDB4F8E7
:10159000130005E00D4911221531FEF7C3FDE08C63
:1015A000A8820A4D00243B352046295D00F0D2F97F
:1015B000641CE4B2602CF7D370BD044911222831B9
:1015C000FEF7B0FDB4F83900EAE700005A00002049
:1015D0000146602000F0BEB90CB5002125480191FC
:1015E0000091026842F4803202604FF4A063026806
:1015F00002F400320092019A521C0192009A12B930
:10160000019A9A42F3D10268920331D501210091E7
:1016100019490A6842F010020A600A6822F00302BF
:101620000A600A6842F001020A604168416041684C
:10163000416041684160416821F47C11416041682A
:1016400041F4F8114160016841F080710160016866
:101650008901FCD5416821F003014160416841F0F6
:10166000020141604168C1F381010229FAD10CBD38
:1016700000910CBD001002400020024010B504464D
:101680000220FFF7A5FF452000F0C6F800F08F000C
:10169000C4F3022140EA0111452000F05BF9E1B2F8
:1016A000462000F057F9BDE810401020FFF790BF2A
:1016B00010B5FF217F2000F04DF9BDE81040142047
:1016C00001F09EB92DE9F84F01210820FFF79EFB9C
:1016D0004FF48046ADF8006014208DF80300DFF869
:1016E000B4A003248DF8024069465046FFF724F960
:1016F00001210820FFF78AFB7710ADF80070102554
:101700008DF803508DF8024069465046FFF714F9F2
:1017100001210820FFF77AFB4FF48058ADF80080D4
:101720008DF803508DF8024069465046FFF704F9E2
:1017300001210820FFF76AFB4FF48069ADF80090A3
:101740008DF803508DF8024069465046FFF7F4F8D3
:1017500001210820FFF75AFBE801ADF800004820FE
:101760008DF803008DF8024069465046FFF7E4F813
:1017700039465046FFF73AF949465046FFF736F9E1
:1017800031465046FFF732F941465046FFF72CF9F3
:10179000BDE8F88F000C01402DE9F0410024FFF76F
:1017A00091FF1C4E4FF480613046FFF71DF9042075
:1017B00001F03CF90025B7144FF480486006040E90
:1017C00039463046FFF710F9012001F02FF939466C
:1017D0003046FFF70BF9012001F028F94146304669
:1017E000FFF7FBF8012801D144F001046D1CEDB2B4
:1017F000082DE3D339463046FFF7F6F8022001F012
:1018000015F9FFF75FFF042001F010F92046BDE84D
:10181000F0810000000C01402DE9F047002440F069
:101820008007FFF74FFF2A4D4FF400512846FFF77E
:10183000DBF8012001F0FAF800264FF480494FF45C
:10184000805838064946284602D5FFF7CFF801E010
:10185000FFF7CAF841462846FFF7C6F8012001F015
:10186000E5F841462846FFF7C1F8012001F0DEF80F
:101870007806761C070EF6B2082EE2D308264746F5
:101880006006040E39462846FFF7AEF8012001F045
:10189000CDF839462846FFF7A9F8012001F0C6F82F
:1018A00049462846FFF799F8012801D144F0010480
:1018B000761E16F0FF06E3D139462846FFF794F866
:1018C000012001F0B3F8FFF7FDFE2046BDE8F087E8
:1018D000000C01402DE9F0410546FFF7F3FE1C4ED8
:1018E0004FF480613046FFF77FF8042001F09EF846
:1018F00000244FF48048B71428064146304602D5EC
:10190000FFF774F801E0FFF76FF839463046FFF74C
:101910006BF8012001F08AF839463046FFF766F887
:10192000012001F083F86806641C050EE4B2082C5F
:10193000E2D339463046FFF757F8022001F076F837
:10194000FFF7C0FEBDE8F041042001F06FB80000D1
:10195000000C01402DE9F0470E4620F08007FFF70C
:10196000B1FE2A4C4FF400512046FFF73DF801200C
:1019700001F05CF800254FF480494FF48058380698
:101980004946204602D5FFF731F801E0FFF72CF871
:1019900041462046FFF728F8012001F047F841466C
:1019A0002046FFF723F8012001F040F878066D1C6F
:1019B000070EEDB2082DE2D3002547463006494612
:1019C000204602D5FFF712F801E0FFF70DF839467F
:1019D0002046FFF709F8012001F028F83946204693
:1019E000FFF704F8012001F021F870066D1C060EC7
:1019F000EDB2082DE2D339462046FEF7F5FF01206F
:101A000001F014F8BDE8F047FFF75CBE000C0140A0
:101A10004FF0E0210428086903D020F00400086199
:101A2000704740F00400FAE70F4810B5016841F034
:101A30000101016041680D4A1140416001680C4A92
:101A400011400160016821F480210160416821F4A6
:101A5000FE0141604FF41F018160FFF7BDFD0549A4
:101A60004FF00060086010BD001002400000FFF859
:101A7000FFFFF6FE08ED00E010B501218C072046BF
:101A800000F0C5F800281AD00121204600F0B2F875
:101A90000B480121417000218170C17801290ED1CC
:101AA000017931B10021017129B1BDE81040FFF782
:101AB0004DB90121F7E7BDE81040FFF73FB910BD70
:101AC000F50000207FB50C46054601210846FFF7CA
:101AD00085F9ADF80450ADF8004000244FF0804582
:101AE000ADF80640ADF802406946284600F0A4F87B
:101AF00001221146284600F096F81C208DF80C00B3
:101B000001218DF80D1003208DF80E008DF80F10B7
:101B100003A8FFF727F90121284600F06EF80148D5
:101B200044707FBDF500002010B50E4C0121204609
:101B300000F06DF8002813D00121204600F05AF87B
:101B400009490878401C40B20870012808DD07499F
:101B50000020087006490880BDE8104000F00AB86F
:101B600010BD000000040040F500002051000020DE
:101B7000520000200349002008700146024800F08E
:101B80003CB80000F5000020000400407FB50C4682
:101B9000054601210220FFF721F9ADF80450ADF808
:101BA00000400024114DADF80640ADF802406946F2
:101BB000284600F041F801221146284600F033F88B
:101BC0001D208DF80C0001218DF80D1003208DF8DB
:101BD0000E008DF80F1003A8FFF7C4F80121284666
:101BE00000F00BF8024804707FBD000000040040C4
:101BF000F5000020C943018270470029018802D006
:101C000041F0010101E021F001010180704702462D
:101C10000020138A92890B4202EA010202D0002AB4
:101C200000D001207047002A828901D00A4300E0D9
:101C30008A4382817047000030B502881B4B1C4CE0
:101C400098420DD0A0420BD0B0F1804F08D0194D72
:101C5000A84205D0184DA84202D0184DA84203D181
:101C600022F070054A882A43154DA84206D0154D2A
:101C7000A84203D022F44075CA882A4302808A8889
:101C800082850A88028598420AD0A04208D00E4A6E
:101C9000904205D00D4A904202D00D4A904201D1A7
:101CA000097A01860121818230BD0000002C0140AB
:101CB000003401400004004000080040000C0040D7
:101CC000001000400014004000400140004401406A
:101CD0000048014010B5094C40F22551204600F063
:101CE0005EF8002808D0204600F0E6F8054A044BCC
:101CF00051885854491C518010BD000000440040D8
:101D0000320A0020500000200029818902D041F4CD
:101D1000005101E021F4005181817047174910B54D
:101D200088420AD101218C032046FFF77BF8204628
:101D3000BDE810400021FFF775B81149884202D173
:101D400001214C0410E00F49884202D101218C048A
:101D50000AE00D49884202D10121CC0404E00B497C
:101D600088420AD101210C052046FFF743F820469E
:101D7000BDE810400021FFF73DB810BD003801401C
:101D80000044004000480040004C0040005000402B
:101D90000246002012880A4200D00120704730B568
:101DA00001F01F0201240025C1F3421304FA02F2DC
:101DB000012B0FD0022B0FD0838A4FEA112100880C
:101DC000134204FA01F400EA040001D000B1012535
:101DD000284630BD8389F0E7038AEEE710B5C1F3EA
:101DE000421301F01F040121A140012B07D0022B57
:101DF00007D01430002A026805D00A4304E00C30F2
:101E0000F8E71030F6E78A43026010BD30B50446AB
:101E1000008A85B00D464CF6FF710840E988014301
:101E20002182A1894EF6F3100140A8882A89104327
:101E30006A890A431043A081A08A4FF6FF410840F7
:101E4000A9890143A1826846FEF7F8FF1948844238
:101E500001D1039800E00298A189090400EBC001B8
:101E600001EB0010296801D5490000E08900B0FBB2
:101E7000F1F06422B0FBF2F109010B096FF01805D3
:101E80006B4300EB8300A3891D044FF0320306D59A
:101E900003EBC000B0FBF2F000F0070005E003EB3D
:101EA0000010B0FBF2F000F00F000843208105B0F5
:101EB00030BD0000003801408088C0F30800704742
:101EC000C1F308018180704770B500260546741E75
:101ED000C82000F095FDFEF7E3FA20B1761C032E32
:101EE000F6DB401C34D0C82000F08AFD0026C82054
:101EF00000F086FD2846FEF74BFB20B1761C032E32
:101F0000F5DB401C1AD00025C82000F079FDFEF753
:101F1000EDFB002811D06D1C032DF5DB0025C8203A
:101F200000F06EFDFEF7FEFA20B16D1C032DF6DB0E
:101F3000401C0DD000F030F9002070BD0025C820F5
:101F400000F05EFDFEF7EEFA10B16D1C032DF6DB1E
:101F5000204670BD70B500256C1EC82000F050FDF5
:101F6000FEF79EFA20B16D1C032DF6DB401C33D02A
:101F7000C82000F045FD0025C82000F041FDFEF717
:101F80005FFB20B16D1C032DF6DB401C1AD0002531
:101F9000C82000F035FDFEF7A9FB002811D06D1C0C
:101FA000032DF5DB0025C82000F02AFDFEF7BAFA64
:101FB00020B16D1C032DF6DB401C0DD000F0ECF8B9
:101FC000002070BD0025C82000F01AFDFEF7AAFA17
:101FD00010B16D1C032DF6DB204670BD2DE9F047D6
:101FE0006A4C00258246E5806078694E4FF0010911
:101FF00041F61F4820B327E0FFF7BCFD6088E18869
:10200000401A80B22081012806D0022808D0032877
:102010000CD005281CD00CE03078412803D108E012
:102020007078502805D06580E58002E0B0785328AC
:10203000F9D141469520FFF7A9FDE088401CE080DA
:10204000E08861888842D7D36078012824D028E0CE
:1020500084F8019041469520FFF798FDF4E700BF12
:10206000FFF788FD6088E188401A80B22081092846
:1020700007D039469520FFF789FDE088401CE080B5
:102080000BE0701D00F046FFA08002206070394612
:102090009520FFF77BFD04E04746E1886088814298
:1020A000DED3607802281BD01FE000BFFFF762FD7F
:1020B0006088E188401A80B22081A188C91E8142CF
:1020C00006D10320607039469520FFF75FFD0CE0D4
:1020D00039469520FFF75AFDE088401CE08000E07B
:1020E0004746E08861888842E0D36078032848D07A
:1020F000BDE8F087FFF73EFD6088E188401A80B2B6
:102100002081A788B91E814206D1F11911F8031C5C
:10211000452901D06580E580791E814206D1F119FB
:1021200011F8021C4E2901D06580E580874221D13B
:10213000B8B2304410F8010C442801D06580E58025
:102140004FF480611348FEF706F83A4610491148EB
:10215000FDF7E8FFA0880F49CAF800000D5484F885
:10216000009065706580E5804146BDE8F0479520A8
:10217000FFF70CBD41469520FFF708FDE088401CA5
:10218000E080E08861888842B4D3B1E75000002045
:10219000320A00203206002070B5084D4FF400448A
:1021A00021462846FEF722FC4FF47A7000F028FC06
:1021B00021462846FEF718FC002070BD000C0140A7
:1021C0002DE9F0410E46804600240A4D0DE000BF87
:1021D00018F8047040212846FFF7DAFD0028F9D0EE
:1021E00039462846FFF76CFE641CB442F0DB2046FB
:1021F000BDE8F081004400402DE9F041DFF86C803B
:10220000C7B2C0F307260C46154620214046FEF70C
:10221000EBFBFEF7F9FCA020FEF7BCFCFEF75AFC36
:102220003046FEF7B7FCFEF755FC3846FEF7B2FC29
:10223000FEF750FC07E02878FEF7ACFCFEF74AFCFE
:10224000641EE4B26D1C002CF5D1FEF7FDFC4AF6CD
:10225000C870FEF739FC20214046FEF7C7FBBDE8F9
:10226000F0414FF47A70FEF72FBC0000000C0140E3
:1022700038B5044600200090224602216020FFF776
:10228000BBFF6A4602216020FEF74DFF022269462D
:102290002046FDF772FF002800D0012038BD7CB534
:1022A000054600200090019001EB41014FF4CD70F4
:1022B00000EB41042A4606212046FFF79DFF2046F9
:1022C0006A460621FEF72FFF062269462846FDF7DB
:1022D00054FF002800D001207CBD38B50446002002
:1022E0004FF488750090224602212846FFF784FFAC
:1022F0006A4602212846FEF716FF06226946204656
:10230000FDF73BFF002800D0012038BDFEB5054693
:102310000020009001904FF4907602900C462A46DF
:102320003046FFF769FF6A4621463046FEF7FBFE5E
:10233000224669462846FDF720FF002800D00120EC
:10234000FEBD00002DE9FC5F0E008146DDE90C4773
:10235000C6F1000098469346824600D408460125FF
:1023600003E000BFB0FBFBF06D1C5845FAD2A84556
:1023700000D9454624B1002E01DB780700D5641E44
:10238000B80702D5B8F1000F10D0F8070ED16CB124
:102390002046641EA84209D92021484600F0A2F830
:1023A000D9F80C000028F2DABDE8FC9F002E02DA12
:1023B00056462D2102E0780707D52B21484600F02C
:1023C00091F8D9F80C000028EEDB07F00300022892
:1023D00010D1B8F1000F0DD164B12046641EA8429F
:1023E00008D93021484600F07DF8D9F80C000028C3
:1023F000F2DAD9E7CDE9004743465A463146484626
:1024000000F002F8D0E700002DE9F84F8246DDE940
:102410000A4B0126984691460D460846374602E08B
:10242000B0FBF9F07F1C4845FAD2B84500D94746C1
:102430005FEACB701CD1DCB15FEA8B7002D5B8F1DA
:10244000000F02D0202000900AE03020FBE7504629
:10245000009900F047F8DAF80C0000283EDB3CB1A8
:102460002046641EB842F2D802E000BF06FB09F61F
:10247000B5FBF6F1494501D3012100E000214246B8
:10248000A8F10108012A01DD012000E0002001433C
:10249000ECD1DFF84C8000BFB5FBF6F000FB165521
:1024A00018F80010504600F01DF8DAF80C0000286B
:1024B00003DBB6FBF9F6002EEED15FEACB700DD050
:1024C000002C0BD02046641EB84207D9202150466C
:1024D00000F008F8DAF80C000028F1DABDE8F88F0F
:1024E000A830000810B50446D4E90130421C9342DC
:1024F00005DB23681954A260E068401CE060D4E961
:102500000102824209D121682069FEF7CDFEA1684F
:10251000884203D04FF0FF30E06010BD0020A06083
:1025200010BD00000FB4084B10B504A902AA03980F
:1025300000F036F8044602A9002000F0D2F9204647
:1025400010BC5DF814FB0000E328000802E008C896
:10255000121F08C1002AFAD170477047002001E01D
:1025600001C1121F002AFBD1704700000B494988A6
:1025700048434FF0E021486100228A61086940F039
:10258000010008610869C30701D0C003FAD50869D2
:1025900020F0010008618A61704700004C000020B3
:1025A0002DE9FF4F8BB088460546002606E025281A
:1025B0000BD0DDE90D1290476D1C761C28780028A1
:1025C000F5D10FB03046BDE8F08F0024A146A246F9
:1025D0000122AE4900E0044315F8013F203B02FA16
:1025E00003F00842F7D128782A2810D06FF02F0284
:1025F0002878A0F13001092915D809EB890102EBEF
:10260000410144F0020400EB01096D1CF0E758F8A9
:10261000041B5FEA010903D544F40054C9F1000921
:1026200044F002046D1C28782E2817D115F8010FEC
:1026300044F004042A280ED06FF02F022878A0F16D
:10264000300109290AD80AEB8A0102EB410100EBAB
:10265000010A6D1CF2E758F804AB6D1C28786C2851
:102660000FD006DC4C2817D068280DD06A2814D16A
:1026700004E0742810D07A280FD10DE044F400143F
:102680000AE044F4801401E044F440146978814283
:1026900002D104F580146D1C6D1C2878692865D062
:1026A00006DC00288DD0632827D0642806D15DE0A1
:1026B0006E2808D073282AD0752877D0DDE90D124E
:1026C0009047761CE0E0C4F30250022809D00328AA
:1026D0000DD0D8F8001004280DD00E6008F10408C1
:1026E000D2E0D8F80010F217C1E90062F6E7D8F896
:1026F00000100E80F2E70E70F0E718F8041B8DF85A
:10270000001000208DF80100EB46012003E058F88E
:1027100004BB4FF0FF3061074FF0000701D40AE01F
:102720007F1C57450DDA8742FADB1BF8071000299A
:10273000F6D106E07F1C8742FCDB1BF8071000295E
:10274000F8D1DDE90D23A9EB07008146214600F011
:10275000B1F83044C61904E0DDE90D121BF8010B95
:1027600090477F1EF8D22146484688E058F8040B6F
:10277000C4F302514FF00A0B032900D100B204291F
:1027800000D140B2002802DA40422D2102E02105AA
:1027900005D52B218DF82410012104E006E0E10786
:1027A00010D02021F6E708AF089113E058F8040B89
:1027B000C4F302514FF00A0B032900D180B204295F
:1027C00000D1C0B20021EEE75946FDF7F2FC3031EE
:1027D00007F8011D0028F7D1ADEB070000F1200B31
:1027E000600702D524F4803401E04FF0010ADA4595
:1027F00002DDAAEB0B0000E00020824600EB0B019B
:1028000008980144A9EB01000A90E00306D4DDE931
:102810000D2321460A9800F04DF806444FF00009B8
:1028200008E009A911F80900DDE90D12904709F146
:102830000109761C08998945F3DBE0030CD5DDE935
:102840000D2321460A9800F035F8064404E0DDE93E
:102850000D1230209047761CBAF10001AAF1010A4E
:10286000F5DC05E0DDE90D1217F8010B9047761C49
:10287000BBF10001ABF1010BF4DC0A982146DDE964
:102880000D2300F005F806446D1C97E609280100A9
:102890002DE9F041044600251E461746880404D45D
:1028A00005E039462020B0476D1C641EF9D5284646
:1028B000BDE8F0812DE9F041044600251E46904612
:1028C000C80301D5302700E02027880404D505E09F
:1028D00041463846B0476D1C641EF9D52846BDE810
:1028E000F0810A68531C0B6010707047F8B5002027
:1028F0000090C817154601EB1060020A8DF8002001
:1029000008468DF801006846FFF7E7FC0024094EF1
:102910000AE000BF04EB440005EB4000611CFFF738
:10292000BEFC641C642C02DAF0688442F2DB0020F6
:10293000F8BD00000000002070B50546002401200D
:1029400000F000FB0A4E0AE004EB440005EB8001B6
:10295000074800231A461430FEF7B8FA641CF068E2
:102960008442F1DBBDE87040002000F0EBBA0000CB
:10297000000000202DE9F04105460F46002401200B
:1029800000F0E0FA0A4E0AE004EB440005EB800197
:10299000074800233A461430FEF798FA641CF068A2
:1029A0008442F1DBBDE8F041002000F0CBBA00002A
:1029B0000000002010B5FFF7DDF80248002141704B
:1029C000418010BD5000002010B50420FFF720F812
:1029D000084809490068B0FBF1F0C1B2074801EBB3
:1029E00041020170C2EBC1114FF6FF7202EAC10150
:1029F000418010BD3000002040420F004C000020FC
:102A000070B54FF4E9750446A84203DABDE870409A
:102A1000FFF7ACBD4FF4C8763046FFF7A7FDA4F52D
:102A2000C874AC42F8DAA0B2F0E700000B490978AC
:102A300048434FF0E021486100228A61086940F074
:102A4000010008610869C30701D0C003FAD508690D
:102A500020F0010008618A61704700004C000020EE
:102A600010B50A48FEF79FFB0949084800F076FABE
:102A700006481138FEF78BFB044B054A113B05A1B4
:102A80000020FEF75BFC002010BD000014000020B9
:102A900074010020454355204944203A25732020E5
:102AA0002020202020205369676E616C5F4368619D
:102AB0006E6E656C3A2020202573202020200A00AD
:102AC000F8B5002500958DF80050064604468DF8AF
:102AD00001502F46FF2206212046FDF735FBE580F9
:102AE0002581A5720C347F1C642FF3DB6846FEF74A
:102AF00078FB9DF801009DF800100F4C00EB0120C1
:102B00006428E06001DDE56000E008B9FEF71EF929
:102B10000AA10020E268FEF711FC002507E0691C0D
:102B20003046FEF74CFB6D1C0C36642D02DAE06873
:102B30008542F4DB0020F8BD000000205549445FC9
:102B40004E554D202564200A00000000D2B000241C
:102B50004F944D944E94FFF737FFFEF7FFF8FEF7C2
:102B60008FF8FEF7CFF8FEF7B9F8FDF751FEFDF745
:102B7000FCFD4FF4614000F029FA41F61F4141F29B
:102B80008730FEF79FFF9FA10020FEF7D7FBFFF7DE
:102B900067FF9F48FFF794FFA1489E4E9E4DDFF8C8
:102BA0007C82A04F00F10B0A00F11A09307801284D
:102BB00006D19DA10020FEF7C1FBFFF7CBF93470D1
:102BC0002878012825D1D8F80C10002920DDD8F864
:102BD0001000924A00EB40018D48921C00EB8101ED
:102BE000881D01F108030090CDE901328B4B021DD5
:102BF0005B1C03F11300FEF7EDF9D8F81000401C40
:102C0000C8F81000D8F80C10884201DBC8F8104052
:102C10002C704EA8FFF7E2F93878012872D14DAA3E
:102C20004FA97F48FEF720FB00281ED14D980628AB
:102C30001BD2DFE800F0B3031B3B68A3784B0122F3
:102C40007FA10020FEF77AFB0120FEF75EFA88F8EC
:102C5000000081A20521CDE9001202466F4B6C48AD
:102C6000DB1C7FA10E38FDF7F9FA97E06C4B0222CE
:102C700073A10020FEF762FB65490C220E39504615
:102C8000FDF77BFA48B177A10020FEF757FB002241
:102C90005F490120FDF790FB80E07BA10020FEF75B
:102CA0004DFB5B490020D8F80C20F3E75C4B032276
:102CB00063A10020FEF742FB55490C220E39504615
:102CC000FDF75BFA38B10120FDF742FB76A1002049
:102CD000FEF734FB62E07DA10020FEF72FFB4E984B
:102CE00006211D3890FBF1F14A464948FFF7FEFDE9
:102CF0000020FDF72DFB4648FFF7E2FE4448FFF7B2
:102D00001BFE4BE04BE0464B04224DA10020FEF79A
:102D100015FB3F490C220E395046FDF72EFA28B11B
:102D2000002211460120FDF7E1FA37E03C4901207D
:102D3000498BA8F80610FEF7E8F9384988F8000032
:102D40000246891D0020FDF7D1FA3448801D4178E4
:102D5000007800EB800001EB4000C1B22C48FFF787
:102D600009FEB8F80610A8F803102C4898F80810C7
:102D700088F80510C01CFFF77BFA0FE0284B0522EE
:102D80002FA10020FEF7DAFA21490C220E39504615
:102D9000FDF7F3F938B10120FDF7F4FA3C70022099
:102DA000FFF744FE02E764211BA8FDF7D4F9642174
:102DB00002A8FDF7D0F9642134A8FDF7CCF950AB97
:102DC00002AA51A91BA8CDF80090FEF723FA02A988
:102DD0005098CDE900011BAB44A10020519AFEF7A9
:102DE000ADFA642134A8FEF709FA0020FDF7CAFA0B
:102DF00002A8FFF769F85098C1B202A8FFF786FA57
:102E0000CCE70000696E6974204F4B200A00000077
:102E10008201002044000020F60000200000002075
:102E200032060020500000204B45595F466F726DFE
:102E30006174574946495F4576656E74200A000003
:102E4000574946495F526563765F4576656E7425DE
:102E5000642025730A0000005253312E3000000018
:102E600031303100434F4D4D414E445F535953541F
:102E7000454D494E464F2020204E6F74204D6170C5
:102E800070696E6700000000434F4D4D414E445F36
:102E900053595354454D494E464F20204D61707053
:102EA000696E670A00000000434F4D4D414E445F7C
:102EB0005345544E4554574F524B2020204E6F746B
:102EC000204D617070696E6700000000434F4D4DEA
:102ED000414E445F5345544E4554574F524B20206A
:102EE000204D617070696E6700000000434F4D4DCA
:102EF000414E445F534554574946495041535357F7
:102F00004F52442025642025732025642025730A10
:102F1000000000000178C278303901EB4103C3EBB7
:102F2000C11102EBC102417880786423594300EB60
:102F3000800001EB40001044A0F5A050D03880B2D2
:102F400070470000044910B10120C870704700208C
:102F5000C870FDF7F3BE0000F500002003783022B2
:102F600002EB13130B70037803F00F0330334B7035
:102F7000437802EB13138B70437803F00F03303365
:102F8000CB70837802EB13130B71837803F00F037C
:102F900030334B71C37802EB13138B71C37803F09A
:102FA0000F033033CB71037902EB13130B720379E8
:102FB00003F00F0330334B72437902EB13128A7222
:102FC000407900F00F003030C87270472DE9F041B1
:102FD0008046012186B04804FDF700FF012104204E
:102FE000FDF714FF2D4E3046FEF798FE0424ADF891
:102FF000004003258DF802501820294F8DF803005A
:1030000069463846FDF798FC0820ADF800008DF8B9
:10301000034069463846FDF78FFC0024ADF80C40AC
:103020000C20ADF80840ADF80E00CDF80480ADF8E6
:103030000A40ADF8104001A93046FEF7E7FE262011
:103040008DF814008DF815408DF8165001208DF87C
:10305000170005A8FDF786FE012240F225513046F3
:10306000FEF7BCFE01213046FEF74EFE012108208E
:10307000FDF7CCFE10208DF803008DF80250C4023D
:10308000084DADF8004069462846FDF755FC21463D
:103090002846FDF7ABFC06B0BDE8F08100440040D7
:1030A00000080140000C01403031323334353637EE
:1030B00038394142434445465465726D696E616CCE
:1030C00000000000E430000800000020740100004F
:1030D00004020008A031000874010020D41400008C
:1030E0005C250008011B45020406082D01020304AB
:1030F000042506070809845125028915011613695C
:1031000032181766D1690C0A9F392929C050145307
:10311000081F90D3641033D135131A4B13180D28A0
:103120000A53080F70A6C91020A112131A5A1317B8
:10313000140553100750200F66EC1DF08014089101
:103140000302D0AEE03516F410E24220F80A8142C4
:1031500071CE1C425B1C1C46111AB48E2113120442
:103160005AAA9E4DD42D011FA5212360FF161F10C2
:10317000504D06130F70758A183F7F580B53454703
:1031800047455220525454F1590413B830140832B0
:103190000E122002260439301212032720100000DC
:04000005080000ED02
:00000001FF
