:020000040800F2
:10000000C00A002001010008090100080B010008D6
:100010000D0100080F010008110100080000000098
:1000200000000000000000000000000013010008B4
:100030001501000800000000170100081901000860
:100040001B0100081B0100081B0100081B01000820
:100050001B0100081B0100081B0100081B01000810
:100060001B0100081B0100081B0100081B01000800
:100070001B0100081B0100081B0100081B010008F0
:100080001B0100081B0100081B0100081B010008E0
:100090001B0100081B0100081B0100086D0100087E
:1000A0001B0100081B0100081B0100081B010008C0
:1000B0001B01000851080008000000001B01000897
:1000C0001B01000800000000000000001B010008E8
:1000D000000000001B010008C90900080000000022
:1000E0001B0100081B0100081B010008DFF80CD0F1
:1000F00000F02AF8004800474D0E0008C00A002012
:100100000648804706480047FEE7FEE7FEE7FEE7B1
:10011000FEE7FEE7FEE7FEE7FEE7FEE70108000870
:10012000ED00000840EA01039B0703D009E008C97D
:10013000121F08C0042AFAD203E011F8013B00F8AC
:10014000013B521EF9D27047064C074D06E0E068AD
:1001500040F0010394E8070098471034AC42F6D30E
:10016000FFF7C8FFBC0F0008DC0F000810B54FF404
:1001700000742146054800F062F8012804D02046AA
:10018000BDE8104000F004B8FEE70000000C01409C
:10019000014908607047000014040140F0B5CA78B6
:1001A000002502F00F03D20601D58A7813430A789E
:1001B0004FF00F0E12F0FF0F4FF001021CD0046839
:1001C0000F8802FA05F63740B74211D14FEA850C85
:1001D0000EFA0CF724EA070703FA0CF43C43CF7835
:1001E000282F02D0482F02D002E0466100E00661CD
:1001F0006D1C082DE4D304600C88FF2C1ED94468C4
:100200005FF0000606F1080702FA07F50F882F4095
:10021000AF420FD14FEA860C0EFA0CF7BC4303FA3B
:100220000CF73C43CF78282F00D14561CF78482F79
:1002300000D10561761C082EE4D34460F0BD02466F
:10024000002092680A4200D0012070474161704747
:1002500001617047F8B50121082000F097F84020AF
:10026000ADF800001425114E8DF8035003248DF8CD
:10027000024069463046FFF791FF8020ADF800004C
:100280008DF803508DF8024069463046FFF786FF2F
:100290002020ADF8000010208DF803008DF80240FA
:1002A00069463046FFF77AFFF8BD0000000C0140B8
:1002B00008B50121042000F069F810208DF8030032
:1002C00003208DF802004FF40060ADF8000069468D
:1002D0000148FFF763FF08BD000801404FF4A0602C
:1002E00000F032B870B50F23C47801780122F4B160
:1002F000144C2468457804F4E064C4F5E064240AEE
:10030000C4F10406E3408478B5401C402C4301F15D
:10031000E021230181F80034007800F01F018A40B9
:100320004009800000F1E020C0F8002170BD01F01C
:100330001F0082404809800000F1E020C0F88021C1
:1003400070BD00000CED00E002490843024908605E
:10035000704700000000FA050CED00E0044A002997
:10036000D16901D0014300E08143D16170470000B1
:1003700000100240044A0029116901D0014300E045
:10038000814311617047000000100240044A0029B7
:10039000916901D0014300E0814391617047000001
:1003A00000100240044A0029D16801D0014300E056
:1003B0008143D160704700000010024030B51F49F2
:1003C0004A6812F00C031E4A03D0042B01D0082BFC
:1003D00021D002604A680F231A4C03EA1212A35C70
:1003E0000268DA4042604B68072505EA1323E35CA4
:1003F00022FA03F383604B6805EAD323E35CDA4017
:10040000C2604968032303EA9131231F595CB2FBA0
:10041000F1F1016130BD4A684B6802F470124FF08F
:10042000020413F4803F04EB924202D04B689B031A
:1004300001D5054B00E0024B5A43CAE700100240C9
:1004400000127A000400002000093D002DE9F0416F
:10045000884600EB40012148164600EBC104E16AE2
:1004600001F0030002280BD0A06A626A801A401EC5
:1004700001D5226A1044864202DD89072BD0064648
:100480004EB30027A06A616A451A6D1E01D5206A25
:100490000544D4E90801411AA94201DC616A451A00
:1004A000B54200DB3546616AE0692A4608444146A8
:1004B000FFF738FE606A2F44A844761B2844606228
:1004C000606A216A884201D100206062002ED9D181
:1004D0003846BDE8F0810020FBE70000380000202E
:1004E0000FB408B504A900916A46039900F004F816
:1004F00001B05DF814FB00002DE9F04198B006460C
:1005000007A8029040200025CDE90305CDE9055656
:1005100090460C4614F8011B002971D0252908D0FB
:1005200002A800F047FC05980028F3DA18B0BDE8EF
:10053000F0810020217823291BD02B2916D02D29CA
:100540000ED030290FD000222178A1F130030A2BE0
:1005500013D202EB820201EB4202303A641CF3E751
:1005600040F0010007E040F0020004E040F0040029
:1005700001E040F00800641CDCE70023CFB22E2F1E
:100580000CD100BF14F8011FA1F130070A2F05D2CA
:1005900003EB830301EB4303303BF3E76C290DD0FE
:1005A00068290BD0702954D00BDC252916D0582986
:1005B00031D063290CD0642913D114E014F8011B45
:1005C000ECE7732934D075291BD0782909D122E0B2
:1005D000D8F80000011DC8F80010017802A800F04A
:1005E000E9FB641C9FE7D8F800100F1DC8F80070E5
:1005F0000968CDE900200A2202A800F00BFBF0E711
:1006000033E0D8F800100F1DC8F800700968CDE974
:1006100000200A2208E0D8F800100F1DC8F800706A
:100620000968CDE90020102202A800F055FBD8E7A8
:10063000D8F80000011DC8F80010076817F8011B62
:100640000029CED002A800F0B5FB05980028F5DA05
:10065000C7E7D8F80000011DC8F80010016808209D
:10066000CDE9000503461022DEE7059800287FF754
:100670005DAF049820B1024607A93046FFF7E6FEB9
:10068000DDE904010844059050E700000CB50021A5
:10069000264801910091026842F4803202604FF4D2
:1006A000A063026802F400320092019A521C019287
:1006B000009A12B9019A9A42F3D10268920333D593
:1006C000012100911A490A6842F010020A600A6882
:1006D00022F003020A600A6842F002020A604168DE
:1006E000416041684160416841F480614160416816
:1006F00021F47C114160416841F4E81141600168D6
:1007000041F08071016001688901FCD5416821F0E8
:1007100003014160416841F0020141604168C1F359
:1007200081010229FAD10CBD00910CBD00100240DC
:10073000002002402DE9F84301210820FFF726FEA2
:100740004FF48044ADF8004010208DF803000320E2
:10075000DFF890808DF8020069464046FFF71EFDE5
:1007600001210820FFF712FE6510ADF80050694620
:100770004046FFF713FD01210820FFF707FEA610F2
:10078000ADF8006069464046FFF708FD01210820EA
:10079000FFF7FCFD2711ADF8007069464046FFF7F2
:1007A000FDFC01210820FFF7F1FD04208DF8030076
:1007B0004002ADF8000069464046FFF7EFFC2946CD
:1007C0004046FFF745FD39464046FFF741FD2146CB
:1007D0004046FFF73DFD31464046FFF737FDBDE897
:1007E000F8830000000C01404FF0E0210428086964
:1007F00003D020F004000861704740F00400FAE7DD
:100800000F4810B5016841F00101016041680D4ACF
:100810001140416001680C4A11400160016821F4F7
:1008200080210160416821F4FE0141604FF41F0105
:100830008160FFF72BFF05494FF00060086010BD95
:10084000001002400000FFF8FFFFF6FE08ED00E098
:1008500010B5094C0121204600F053F8002809D0BA
:100860000121204600F040F80449002008700549A5
:100870000348086010BD0000000400402C00002068
:10088000B0000020340000207FB50C460546012151
:100890000220FFF763FDADF80450ADF800400024DE
:1008A000104DADF80640ADF802406946284600F00C
:1008B0003DF801221146284600F02FF81D208DF842
:1008C0000C008DF80D4003208DF80E0001208DF8EE
:1008D0000F0003A8FFF706FD0121284600F007F8E6
:1008E0007FBD000000040040C94301827047002919
:1008F000018802D041F0010101E021F001010180F5
:10090000704702460020138A92890B4202EA0102D4
:1009100002D0002A00D001207047002A828901D02D
:100920000A4300E08A4382817047000030B50288A4
:100930001B4B1C4C98420DD0A0420BD0B0F1804F05
:1009400008D0194DA84205D0184DA84202D0184D24
:10095000A84203D122F070054A882A43154DA842C7
:1009600006D0154DA84203D022F44075CA882A4308
:1009700002808A8882850A88028598420AD0A0422D
:1009800008D00E4A904205D00D4A904202D00D4A3E
:10099000904201D1097A01860121818230BD000097
:1009A000002C0140003401400004004000080040D9
:1009B000000C0040001000400014004000400140C6
:1009C000004401400048014010B5234C40F225513D
:1009D000204600F08DF8002811D0204600F016F9CE
:1009E0001E4C02461EA1A0600020FFF779FDA06802
:1009F000401CA0600022628021781A48E1B110BD3D
:100A0000591A89B2A180012906D0022908D00329E8
:100A10000CD0052916D00CE00178412903D108E05B
:100A20004178502905D0A060628002E08178532986
:100A3000F9D16188491C61806188A36801449942A9
:100A4000DED310BD01202070BDE8104041F61F41EB
:100A500041F28730FFF718BF004400402C0000200F
:100A600025780A00B00000200029818902D041F4D5
:100A7000005101E021F4005181817047174910B500
:100A800088420AD101218C032046FFF78BFC2046C7
:100A9000BDE810400021FFF785BC1149884202D112
:100AA00001214C0410E00F49884202D101218C043D
:100AB0000AE00D49884202D10121CC0404E00B492F
:100AC00088420AD101210C052046FFF753FC20463D
:100AD000BDE810400021FFF74DBC10BD00380140BB
:100AE0000044004000480040004C004000500040DE
:100AF00030B501F01F0201240025C1F3421304FAAE
:100B000002F2012B0FD0022B0FD0838A4FEA112162
:100B10000088134204FA01F400EA040001D000B195
:100B20000125284630BD8389F0E7038AEEE710B53A
:100B3000C1F3421301F01F040121A140012B07D092
:100B4000022B07D01430002A026805D00A4304E0C3
:100B50000C30F8E71030F6E78A43026010BD000061
:100B600030B50446008A85B00D464CF6FF7108404A
:100B7000E98801432182A1894EF6F3100140A8883B
:100B80002A8910436A890A431043A081A08A4FF63C
:100B9000FF410840A9890143A1826846FFF70EFC86
:100BA0001948844201D1039800E00298A189090400
:100BB00000EBC00101EB0010296801D5490000E0FD
:100BC0008900B0FBF1F06422B0FBF2F109010B09DE
:100BD0006FF018056B4300EB8300A3891D044FF0F1
:100BE000320306D503EBC000B0FBF2F000F00700C3
:100BF00005E003EB0010B0FBF2F000F00F0008433B
:100C0000208105B030BD0000003801408088C0F36D
:100C1000080070472DE9FC5F0E008146DDE90C47B6
:100C2000C6F1000098469346824600D40846012546
:100C300003E000BFB0FBFBF06D1C5845FAD2A8459D
:100C400000D9454624B1002E01DB780700D5641E8B
:100C5000B80702D5B8F1000F10D0F8070ED16CB16B
:100C60002046641EA84209D92021484600F0A2F877
:100C7000D9F80C000028F2DABDE8FC9F002E02DA59
:100C800056462D2102E0780707D52B21484600F073
:100C900091F8D9F80C000028EEDB07F003000228D9
:100CA00010D1B8F1000F0DD164B12046641EA842E6
:100CB00008D93021484600F07DF8D9F80C0000280A
:100CC000F2DAD9E7CDE9004743465A46314648466D
:100CD00000F002F8D0E700002DE9F84F8246DDE988
:100CE0000A4B0126984691460D460846374602E0D3
:100CF000B0FBF9F07F1C4845FAD2B84500D9474609
:100D00005FEACB701CD1DCB15FEA8B7002D5B8F121
:100D1000000F02D0202000900AE03020FBE7504670
:100D2000009900F047F8DAF80C0000283EDB3CB1EF
:100D30002046641EB842F2D802E000BF06FB09F666
:100D4000B5FBF6F1494501D3012100E000214246FF
:100D5000A8F10108012A01DD012000E00020014383
:100D6000ECD1DFF84C8000BFB5FBF6F000FB165568
:100D700018F80010504600F01DF8DAF80C000028B2
:100D800003DBB6FBF9F6002EEED15FEACB700DD097
:100D9000002C0BD02046641EB84207D920215046B3
:100DA00000F008F8DAF80C000028F1DABDE8F88F56
:100DB000A00F000810B50446D4E90130421C93424C
:100DC00005DB23681954A260E068401CE060D4E9A8
:100DD0000102824209D121682069FFF737FBA1682F
:100DE000884203D04FF0FF30E06010BD0020A060CB
:100DF00010BD02E008C8121F08C1002AFAD17047CE
:100E00007047002001E001C1121F002AFBD170478A
:100E100010B56FF00400FFF7E7FC094809490068C6
:100E2000B0FBF1F0C1B2084801EB41020170C2EB26
:100E3000C1114FF6FF7202EAC101418010BD0000EE
:100E40001400002000127A0028000020FFF7E0FFC5
:100E500010A10020FFF744FBFFF740FA11A100208A
:100E6000FFF73EFBFFF7F6F914A10020FFF738FB70
:100E7000FFF71EFAFFF75EFC14A10020FFF730FB1E
:100E80004FF4614000F034F815A10020FFF728FB73
:100E9000FEE7000064656C61795F696E6974204FDC
:100EA0004B0A00004E5649435F436F6E6669677593
:100EB000726174696F6E204F4B0A00004932435FC4
:100EC000496E6974204F4B200A000000434D543294
:100ED0003330305F696E6974204F4B200A00000088
:100EE000756172745F696E6974204F4B200A00004F
:100EF0002DE9F0418046012186B04804FFF72EFA23
:100F000001210420FFF742FA234E3046FFF7B6FDD9
:100F10000425ADF8105003248DF8124018201F4FFF
:100F20008DF8130004A93846FFF738F90820ADF80A
:100F300010008DF8135004A93846FFF72FF900214F
:100F4000ADF80810ADF804100C20ADF80610ADF89F
:100F50000C10ADF80A00CDF8008069463046FFF766
:100F6000FFFD26208DF814008DF815408DF81640F1
:100F700001208DF8170005A8FFF7B4F9012240F20F
:100F800025513046FFF7D3FD01213046FFF76CFDB8
:100F900006B0BDE8F08100000044004000080140B8
:100FA000303132333435363738394142434445469F
:100FB0005465726D696E616C00000000DC0F000802
:100FC00000000020B0000000F20D00088C100008A6
:100FD000B0000020100A0000020E000802040608FB
:100FE00000000000010203040102030406070809CF
:100FF00000A24A04000000000000000001020304F7
:1010000006070809000000000000000000000000C2
:10101000B000002053454747455220525454000029
:10102000000000000200000002000000B00F0008F5
:10103000B0020020000400000000000000000000DA
:1010400000000000000000000000000000000000A0
:10105000000000000000000000000000B00F0008C9
:10106000B00600201000000000000000000000009A
:101070000000000000000000000000000000000070
:0C10800000000000000000000000000064
:04000005080000ED02
:00000001FF
